{
	"contracts/MysteryBox.sol": {
		"MysterySpace": {
			"abi": [
				{
					"anonymous": false,
					"inputs": [
						{
							"indexed": false,
							"internalType": "address",
							"name": "sender",
							"type": "address"
						},
						{
							"indexed": false,
							"internalType": "uint256",
							"name": "time",
							"type": "uint256"
						},
						{
							"indexed": false,
							"internalType": "bytes32",
							"name": "a",
							"type": "bytes32"
						},
						{
							"indexed": false,
							"internalType": "bytes32",
							"name": "b",
							"type": "bytes32"
						},
						{
							"indexed": false,
							"internalType": "uint256",
							"name": "random",
							"type": "uint256"
						}
					],
					"name": "Log",
					"type": "event"
				},
				{
					"inputs": [
						{
							"internalType": "uint256",
							"name": "",
							"type": "uint256"
						}
					],
					"name": "boxIds",
					"outputs": [
						{
							"internalType": "uint256",
							"name": "",
							"type": "uint256"
						}
					],
					"stateMutability": "view",
					"type": "function"
				},
				{
					"inputs": [
						{
							"internalType": "uint256",
							"name": "",
							"type": "uint256"
						}
					],
					"name": "checkedBoxIds",
					"outputs": [
						{
							"internalType": "uint256",
							"name": "",
							"type": "uint256"
						}
					],
					"stateMutability": "view",
					"type": "function"
				},
				{
					"inputs": [],
					"name": "currentBoxId",
					"outputs": [
						{
							"internalType": "uint256",
							"name": "",
							"type": "uint256"
						}
					],
					"stateMutability": "view",
					"type": "function"
				},
				{
					"inputs": [
						{
							"internalType": "uint256",
							"name": "boxId",
							"type": "uint256"
						}
					],
					"name": "getBoxDetail",
					"outputs": [
						{
							"internalType": "address",
							"name": "coin",
							"type": "address"
						},
						{
							"internalType": "uint256",
							"name": "price",
							"type": "uint256"
						},
						{
							"internalType": "uint256",
							"name": "totalSupply",
							"type": "uint256"
						},
						{
							"internalType": "uint256",
							"name": "stocks",
							"type": "uint256"
						},
						{
							"internalType": "bool",
							"name": "checked",
							"type": "bool"
						},
						{
							"internalType": "uint256[]",
							"name": "probabilityArray",
							"type": "uint256[]"
						},
						{
							"internalType": "uint256[]",
							"name": "rangeArray",
							"type": "uint256[]"
						},
						{
							"internalType": "address[]",
							"name": "tokenArray",
							"type": "address[]"
						},
						{
							"internalType": "uint256[]",
							"name": "rewardAmountArray",
							"type": "uint256[]"
						}
					],
					"stateMutability": "view",
					"type": "function"
				},
				{
					"inputs": [
						{
							"internalType": "bool",
							"name": "checked",
							"type": "bool"
						}
					],
					"name": "getMysteryAmount",
					"outputs": [
						{
							"internalType": "uint256",
							"name": "amount",
							"type": "uint256"
						}
					],
					"stateMutability": "view",
					"type": "function"
				},
				{
					"inputs": [
						{
							"internalType": "address",
							"name": "coin",
							"type": "address"
						},
						{
							"internalType": "uint256",
							"name": "price",
							"type": "uint256"
						},
						{
							"internalType": "uint256",
							"name": "totalSupply",
							"type": "uint256"
						},
						{
							"internalType": "uint256[]",
							"name": "probabilityArray",
							"type": "uint256[]"
						},
						{
							"internalType": "address[]",
							"name": "tokenArray",
							"type": "address[]"
						},
						{
							"internalType": "uint256[]",
							"name": "rewardAmountArray",
							"type": "uint256[]"
						}
					],
					"name": "publishMysteryBox",
					"outputs": [],
					"stateMutability": "payable",
					"type": "function"
				},
				{
					"inputs": [],
					"name": "requestRandomNumber",
					"outputs": [
						{
							"internalType": "uint256",
							"name": "random",
							"type": "uint256"
						}
					],
					"stateMutability": "nonpayable",
					"type": "function"
				}
			],
			"devdoc": {
				"kind": "dev",
				"methods": {},
				"version": 1
			},
			"evm": {
				"assembly": "    /* \"contracts/MysteryBox.sol\":179:4997  contract MysterySpace {... */\n  mstore(0x40, 0x80)\n  callvalue\n  dup1\n  iszero\n  tag_1\n  jumpi\n  0x00\n  dup1\n  revert\ntag_1:\n  pop\n  dataSize(sub_0)\n  dup1\n  dataOffset(sub_0)\n  0x00\n  codecopy\n  0x00\n  return\nstop\n\nsub_0: assembly {\n        /* \"contracts/MysteryBox.sol\":179:4997  contract MysterySpace {... */\n      mstore(0x40, 0x80)\n      jumpi(tag_1, lt(calldatasize, 0x04))\n      shr(0xe0, calldataload(0x00))\n      dup1\n      0xb4c33908\n      gt\n      tag_9\n      jumpi\n      dup1\n      0xb4c33908\n      eq\n      tag_5\n      jumpi\n      dup1\n      0xc3ac7daf\n      eq\n      tag_6\n      jumpi\n      dup1\n      0xcc22bf80\n      eq\n      tag_7\n      jumpi\n      dup1\n      0xff175d77\n      eq\n      tag_8\n      jumpi\n      jump(tag_1)\n    tag_9:\n      dup1\n      0x161344e6\n      eq\n      tag_2\n      jumpi\n      dup1\n      0x385b3aa5\n      eq\n      tag_3\n      jumpi\n      dup1\n      0x8678a7b2\n      eq\n      tag_4\n      jumpi\n    tag_1:\n      0x00\n      dup1\n      revert\n        /* \"contracts/MysteryBox.sol\":915:1859  function getBoxDetail(uint256 boxId)... */\n    tag_2:\n      callvalue\n      dup1\n      iszero\n      tag_10\n      jumpi\n      0x00\n      dup1\n      revert\n    tag_10:\n      pop\n      tag_11\n      0x04\n      dup1\n      calldatasize\n      sub\n      dup2\n      add\n      swap1\n      tag_12\n      swap2\n      swap1\n      tag_13\n      jump\t// in\n    tag_12:\n      tag_14\n      jump\t// in\n    tag_11:\n      mload(0x40)\n      tag_15\n      swap10\n      swap9\n      swap8\n      swap7\n      swap6\n      swap5\n      swap4\n      swap3\n      swap2\n      swap1\n      tag_16\n      jump\t// in\n    tag_15:\n      mload(0x40)\n      dup1\n      swap2\n      sub\n      swap1\n      return\n        /* \"contracts/MysteryBox.sol\":377:407  uint256[] public checkedBoxIds */\n    tag_3:\n      callvalue\n      dup1\n      iszero\n      tag_17\n      jumpi\n      0x00\n      dup1\n      revert\n    tag_17:\n      pop\n      tag_18\n      0x04\n      dup1\n      calldatasize\n      sub\n      dup2\n      add\n      swap1\n      tag_19\n      swap2\n      swap1\n      tag_13\n      jump\t// in\n    tag_19:\n      tag_20\n      jump\t// in\n    tag_18:\n      mload(0x40)\n      tag_21\n      swap2\n      swap1\n      tag_22\n      jump\t// in\n    tag_21:\n      mload(0x40)\n      dup1\n      swap2\n      sub\n      swap1\n      return\n        /* \"contracts/MysteryBox.sol\":4367:4748  function requestRandomNumber() public returns (uint256 random) {... */\n    tag_4:\n      callvalue\n      dup1\n      iszero\n      tag_23\n      jumpi\n      0x00\n      dup1\n      revert\n    tag_23:\n      pop\n      tag_24\n      tag_25\n      jump\t// in\n    tag_24:\n      mload(0x40)\n      tag_26\n      swap2\n      swap1\n      tag_22\n      jump\t// in\n    tag_26:\n      mload(0x40)\n      dup1\n      swap2\n      sub\n      swap1\n      return\n        /* \"contracts/MysteryBox.sol\":348:371  uint256[] public boxIds */\n    tag_5:\n      callvalue\n      dup1\n      iszero\n      tag_27\n      jumpi\n      0x00\n      dup1\n      revert\n    tag_27:\n      pop\n      tag_28\n      0x04\n      dup1\n      calldatasize\n      sub\n      dup2\n      add\n      swap1\n      tag_29\n      swap2\n      swap1\n      tag_13\n      jump\t// in\n    tag_29:\n      tag_30\n      jump\t// in\n    tag_28:\n      mload(0x40)\n      tag_31\n      swap2\n      swap1\n      tag_22\n      jump\t// in\n    tag_31:\n      mload(0x40)\n      dup1\n      swap2\n      sub\n      swap1\n      return\n        /* \"contracts/MysteryBox.sol\":1865:4361  function publishMysteryBox(... */\n    tag_6:\n      tag_32\n      0x04\n      dup1\n      calldatasize\n      sub\n      dup2\n      add\n      swap1\n      tag_33\n      swap2\n      swap1\n      tag_34\n      jump\t// in\n    tag_33:\n      tag_35\n      jump\t// in\n    tag_32:\n      stop\n        /* \"contracts/MysteryBox.sol\":413:440  uint256 public currentBoxId */\n    tag_7:\n      callvalue\n      dup1\n      iszero\n      tag_36\n      jumpi\n      0x00\n      dup1\n      revert\n    tag_36:\n      pop\n      tag_37\n      tag_38\n      jump\t// in\n    tag_37:\n      mload(0x40)\n      tag_39\n      swap2\n      swap1\n      tag_22\n      jump\t// in\n    tag_39:\n      mload(0x40)\n      dup1\n      swap2\n      sub\n      swap1\n      return\n        /* \"contracts/MysteryBox.sol\":4754:4995  function getMysteryAmount(bool checked)... */\n    tag_8:\n      callvalue\n      dup1\n      iszero\n      tag_40\n      jumpi\n      0x00\n      dup1\n      revert\n    tag_40:\n      pop\n      tag_41\n      0x04\n      dup1\n      calldatasize\n      sub\n      dup2\n      add\n      swap1\n      tag_42\n      swap2\n      swap1\n      tag_43\n      jump\t// in\n    tag_42:\n      tag_44\n      jump\t// in\n    tag_41:\n      mload(0x40)\n      tag_45\n      swap2\n      swap1\n      tag_22\n      jump\t// in\n    tag_45:\n      mload(0x40)\n      dup1\n      swap2\n      sub\n      swap1\n      return\n        /* \"contracts/MysteryBox.sol\":915:1859  function getBoxDetail(uint256 boxId)... */\n    tag_14:\n        /* \"contracts/MysteryBox.sol\":1010:1022  address coin */\n      0x00\n        /* \"contracts/MysteryBox.sol\":1036:1049  uint256 price */\n      dup1\n        /* \"contracts/MysteryBox.sol\":1063:1082  uint256 totalSupply */\n      0x00\n        /* \"contracts/MysteryBox.sol\":1096:1110  uint256 stocks */\n      dup1\n        /* \"contracts/MysteryBox.sol\":1124:1136  bool checked */\n      0x00\n        /* \"contracts/MysteryBox.sol\":1150:1183  uint256[] memory probabilityArray */\n      0x60\n        /* \"contracts/MysteryBox.sol\":1197:1224  uint256[] memory rangeArray */\n      dup1\n        /* \"contracts/MysteryBox.sol\":1238:1265  address[] memory tokenArray */\n      0x60\n        /* \"contracts/MysteryBox.sol\":1279:1313  uint256[] memory rewardAmountArray */\n      dup1\n        /* \"contracts/MysteryBox.sol\":1338:1360  Mystery memory mystery */\n      0x00\n        /* \"contracts/MysteryBox.sol\":1363:1377  mysteryMapping */\n      dup1\n        /* \"contracts/MysteryBox.sol\":1363:1384  mysteryMapping[boxId] */\n      0x00\n        /* \"contracts/MysteryBox.sol\":1378:1383  boxId */\n      dup13\n        /* \"contracts/MysteryBox.sol\":1363:1384  mysteryMapping[boxId] */\n      dup2\n      mstore\n      0x20\n      add\n      swap1\n      dup2\n      mstore\n      0x20\n      add\n      0x00\n      keccak256\n        /* \"contracts/MysteryBox.sol\":1338:1384  Mystery memory mystery = mysteryMapping[boxId] */\n      mload(0x40)\n      dup1\n      0xc0\n      add\n      0x40\n      mstore\n      swap1\n      dup2\n      0x00\n      dup3\n      add\n      sload\n      dup2\n      mstore\n      0x20\n      add\n      0x01\n      dup3\n      add\n      0x00\n      swap1\n      sload\n      swap1\n      0x0100\n      exp\n      swap1\n      div\n      0xffffffffffffffffffffffffffffffffffffffff\n      and\n      0xffffffffffffffffffffffffffffffffffffffff\n      and\n      0xffffffffffffffffffffffffffffffffffffffff\n      and\n      dup2\n      mstore\n      0x20\n      add\n      0x02\n      dup3\n      add\n      sload\n      dup2\n      mstore\n      0x20\n      add\n      0x03\n      dup3\n      add\n      sload\n      dup2\n      mstore\n      0x20\n      add\n      0x04\n      dup3\n      add\n      sload\n      dup2\n      mstore\n      0x20\n      add\n      0x05\n      dup3\n      add\n      0x00\n      swap1\n      sload\n      swap1\n      0x0100\n      exp\n      swap1\n      div\n      0xff\n      and\n      iszero\n      iszero\n      iszero\n      iszero\n      dup2\n      mstore\n      pop\n      pop\n      swap1\n      pop\n        /* \"contracts/MysteryBox.sol\":1401:1408  mystery */\n      dup1\n        /* \"contracts/MysteryBox.sol\":1401:1413  mystery.coin */\n      0x20\n      add\n      mload\n        /* \"contracts/MysteryBox.sol\":1394:1413  coin = mystery.coin */\n      swap10\n      pop\n        /* \"contracts/MysteryBox.sol\":1431:1438  mystery */\n      dup1\n        /* \"contracts/MysteryBox.sol\":1431:1444  mystery.price */\n      0x40\n      add\n      mload\n        /* \"contracts/MysteryBox.sol\":1423:1444  price = mystery.price */\n      swap9\n      pop\n        /* \"contracts/MysteryBox.sol\":1468:1475  mystery */\n      dup1\n        /* \"contracts/MysteryBox.sol\":1468:1487  mystery.totalSupply */\n      0x60\n      add\n      mload\n        /* \"contracts/MysteryBox.sol\":1454:1487  totalSupply = mystery.totalSupply */\n      swap8\n      pop\n        /* \"contracts/MysteryBox.sol\":1506:1513  mystery */\n      dup1\n        /* \"contracts/MysteryBox.sol\":1506:1520  mystery.stocks */\n      0x80\n      add\n      mload\n        /* \"contracts/MysteryBox.sol\":1497:1520  stocks = mystery.stocks */\n      swap7\n      pop\n        /* \"contracts/MysteryBox.sol\":1540:1547  mystery */\n      dup1\n        /* \"contracts/MysteryBox.sol\":1540:1555  mystery.checked */\n      0xa0\n      add\n      mload\n        /* \"contracts/MysteryBox.sol\":1530:1555  checked = mystery.checked */\n      swap6\n      pop\n        /* \"contracts/MysteryBox.sol\":1574:1608  MysteryReward memory mysteryReward */\n      0x00\n        /* \"contracts/MysteryBox.sol\":1611:1631  mysteryReWardMapping */\n      0x01\n        /* \"contracts/MysteryBox.sol\":1611:1638  mysteryReWardMapping[boxId] */\n      0x00\n        /* \"contracts/MysteryBox.sol\":1632:1637  boxId */\n      dup14\n        /* \"contracts/MysteryBox.sol\":1611:1638  mysteryReWardMapping[boxId] */\n      dup2\n      mstore\n      0x20\n      add\n      swap1\n      dup2\n      mstore\n      0x20\n      add\n      0x00\n      keccak256\n        /* \"contracts/MysteryBox.sol\":1574:1638  MysteryReward memory mysteryReward = mysteryReWardMapping[boxId] */\n      mload(0x40)\n      dup1\n      0x80\n      add\n      0x40\n      mstore\n      swap1\n      dup2\n      0x00\n      dup3\n      add\n      dup1\n      sload\n      dup1\n      0x20\n      mul\n      0x20\n      add\n      mload(0x40)\n      swap1\n      dup2\n      add\n      0x40\n      mstore\n      dup1\n      swap3\n      swap2\n      swap1\n      dup2\n      dup2\n      mstore\n      0x20\n      add\n      dup3\n      dup1\n      sload\n      dup1\n      iszero\n      tag_47\n      jumpi\n      0x20\n      mul\n      dup3\n      add\n      swap2\n      swap1\n      0x00\n      mstore\n      keccak256(0x00, 0x20)\n      swap1\n    tag_48:\n      dup2\n      sload\n      dup2\n      mstore\n      0x20\n      add\n      swap1\n      0x01\n      add\n      swap1\n      dup1\n      dup4\n      gt\n      tag_48\n      jumpi\n    tag_47:\n      pop\n      pop\n      pop\n      pop\n      pop\n      dup2\n      mstore\n      0x20\n      add\n      0x01\n      dup3\n      add\n      dup1\n      sload\n      dup1\n      0x20\n      mul\n      0x20\n      add\n      mload(0x40)\n      swap1\n      dup2\n      add\n      0x40\n      mstore\n      dup1\n      swap3\n      swap2\n      swap1\n      dup2\n      dup2\n      mstore\n      0x20\n      add\n      dup3\n      dup1\n      sload\n      dup1\n      iszero\n      tag_49\n      jumpi\n      0x20\n      mul\n      dup3\n      add\n      swap2\n      swap1\n      0x00\n      mstore\n      keccak256(0x00, 0x20)\n      swap1\n    tag_50:\n      dup2\n      sload\n      dup2\n      mstore\n      0x20\n      add\n      swap1\n      0x01\n      add\n      swap1\n      dup1\n      dup4\n      gt\n      tag_50\n      jumpi\n    tag_49:\n      pop\n      pop\n      pop\n      pop\n      pop\n      dup2\n      mstore\n      0x20\n      add\n      0x02\n      dup3\n      add\n      dup1\n      sload\n      dup1\n      0x20\n      mul\n      0x20\n      add\n      mload(0x40)\n      swap1\n      dup2\n      add\n      0x40\n      mstore\n      dup1\n      swap3\n      swap2\n      swap1\n      dup2\n      dup2\n      mstore\n      0x20\n      add\n      dup3\n      dup1\n      sload\n      dup1\n      iszero\n      tag_51\n      jumpi\n      0x20\n      mul\n      dup3\n      add\n      swap2\n      swap1\n      0x00\n      mstore\n      keccak256(0x00, 0x20)\n      swap1\n    tag_52:\n      dup2\n      0x00\n      swap1\n      sload\n      swap1\n      0x0100\n      exp\n      swap1\n      div\n      0xffffffffffffffffffffffffffffffffffffffff\n      and\n      0xffffffffffffffffffffffffffffffffffffffff\n      and\n      dup2\n      mstore\n      0x20\n      add\n      swap1\n      0x01\n      add\n      swap1\n      dup1\n      dup4\n      gt\n      tag_52\n      jumpi\n    tag_51:\n      pop\n      pop\n      pop\n      pop\n      pop\n      dup2\n      mstore\n      0x20\n      add\n      0x03\n      dup3\n      add\n      dup1\n      sload\n      dup1\n      0x20\n      mul\n      0x20\n      add\n      mload(0x40)\n      swap1\n      dup2\n      add\n      0x40\n      mstore\n      dup1\n      swap3\n      swap2\n      swap1\n      dup2\n      dup2\n      mstore\n      0x20\n      add\n      dup3\n      dup1\n      sload\n      dup1\n      iszero\n      tag_53\n      jumpi\n      0x20\n      mul\n      dup3\n      add\n      swap2\n      swap1\n      0x00\n      mstore\n      keccak256(0x00, 0x20)\n      swap1\n    tag_54:\n      dup2\n      sload\n      dup2\n      mstore\n      0x20\n      add\n      swap1\n      0x01\n      add\n      swap1\n      dup1\n      dup4\n      gt\n      tag_54\n      jumpi\n    tag_53:\n      pop\n      pop\n      pop\n      pop\n      pop\n      dup2\n      mstore\n      pop\n      pop\n      swap1\n      pop\n        /* \"contracts/MysteryBox.sol\":1667:1680  mysteryReward */\n      dup1\n        /* \"contracts/MysteryBox.sol\":1667:1697  mysteryReward.probabilityArray */\n      0x00\n      add\n      mload\n        /* \"contracts/MysteryBox.sol\":1648:1697  probabilityArray = mysteryReward.probabilityArray */\n      swap6\n      pop\n        /* \"contracts/MysteryBox.sol\":1720:1733  mysteryReward */\n      dup1\n        /* \"contracts/MysteryBox.sol\":1720:1744  mysteryReward.rangeArray */\n      0x20\n      add\n      mload\n        /* \"contracts/MysteryBox.sol\":1707:1744  rangeArray = mysteryReward.rangeArray */\n      swap5\n      pop\n        /* \"contracts/MysteryBox.sol\":1767:1780  mysteryReward */\n      dup1\n        /* \"contracts/MysteryBox.sol\":1767:1791  mysteryReward.tokenArray */\n      0x40\n      add\n      mload\n        /* \"contracts/MysteryBox.sol\":1754:1791  tokenArray = mysteryReward.tokenArray */\n      swap4\n      pop\n        /* \"contracts/MysteryBox.sol\":1821:1834  mysteryReward */\n      dup1\n        /* \"contracts/MysteryBox.sol\":1821:1852  mysteryReward.rewardAmountArray */\n      0x60\n      add\n      mload\n        /* \"contracts/MysteryBox.sol\":1801:1852  rewardAmountArray = mysteryReward.rewardAmountArray */\n      swap3\n      pop\n        /* \"contracts/MysteryBox.sol\":1328:1859  {... */\n      pop\n      pop\n        /* \"contracts/MysteryBox.sol\":915:1859  function getBoxDetail(uint256 boxId)... */\n      swap2\n      swap4\n      swap6\n      swap8\n      swap10\n      swap1\n      swap3\n      swap5\n      swap7\n      swap9\n      pop\n      jump\t// out\n        /* \"contracts/MysteryBox.sol\":377:407  uint256[] public checkedBoxIds */\n    tag_20:\n      0x03\n      dup2\n      dup2\n      sload\n      dup2\n      lt\n      tag_55\n      jumpi\n      0x00\n      dup1\n      revert\n    tag_55:\n      swap1\n      0x00\n      mstore\n      keccak256(0x00, 0x20)\n      add\n      0x00\n      swap2\n      pop\n      swap1\n      pop\n      sload\n      dup2\n      jump\t// out\n        /* \"contracts/MysteryBox.sol\":4367:4748  function requestRandomNumber() public returns (uint256 random) {... */\n    tag_25:\n        /* \"contracts/MysteryBox.sol\":4414:4428  uint256 random */\n      0x00\n        /* \"contracts/MysteryBox.sol\":4440:4454  address sender */\n      dup1\n        /* \"contracts/MysteryBox.sol\":4457:4467  msg.sender */\n      caller\n        /* \"contracts/MysteryBox.sol\":4440:4467  address sender = msg.sender */\n      swap1\n      pop\n        /* \"contracts/MysteryBox.sol\":4477:4489  uint256 time */\n      0x00\n        /* \"contracts/MysteryBox.sol\":4492:4507  block.timestamp */\n      timestamp\n        /* \"contracts/MysteryBox.sol\":4477:4507  uint256 time = block.timestamp */\n      swap1\n      pop\n        /* \"contracts/MysteryBox.sol\":4517:4537  bytes32 randomBytes1 */\n      0x00\n        /* \"contracts/MysteryBox.sol\":4567:4571  time */\n      dup2\n        /* \"contracts/MysteryBox.sol\":4573:4579  sender */\n      dup4\n        /* \"contracts/MysteryBox.sol\":4550:4580  abi.encodePacked(time, sender) */\n      add(0x20, mload(0x40))\n      tag_58\n      swap3\n      swap2\n      swap1\n      tag_59\n      jump\t// in\n    tag_58:\n      mload(0x40)\n      0x20\n      dup2\n      dup4\n      sub\n      sub\n      dup2\n      mstore\n      swap1\n      0x40\n      mstore\n        /* \"contracts/MysteryBox.sol\":4540:4581  keccak256(abi.encodePacked(time, sender)) */\n      dup1\n      mload\n      swap1\n      0x20\n      add\n      keccak256\n        /* \"contracts/MysteryBox.sol\":4517:4581  bytes32 randomBytes1 = keccak256(abi.encodePacked(time, sender)) */\n      swap1\n      pop\n        /* \"contracts/MysteryBox.sol\":4591:4611  bytes32 randomBytes2 */\n      0x00\n        /* \"contracts/MysteryBox.sol\":4630:4633  236 */\n      0xec\n        /* \"contracts/MysteryBox.sol\":4614:4626  randomBytes1 */\n      dup3\n        /* \"contracts/MysteryBox.sol\":4614:4633  randomBytes1 >> 236 */\n      swap1\n      shr\n        /* \"contracts/MysteryBox.sol\":4591:4633  bytes32 randomBytes2 = randomBytes1 >> 236 */\n      swap1\n      pop\n        /* \"contracts/MysteryBox.sol\":4660:4672  randomBytes2 */\n      dup1\n        /* \"contracts/MysteryBox.sol\":4652:4673  uint256(randomBytes2) */\n      0x00\n      shr\n        /* \"contracts/MysteryBox.sol\":4643:4673  random = uint256(randomBytes2) */\n      swap5\n      pop\n        /* \"contracts/MysteryBox.sol\":4688:4741  Log(sender, time, randomBytes1, randomBytes2, random) */\n      0x5bd4c3d730aa2b20b600f395010cdc42b0efdb18bebb1c2e641802ea575432d8\n        /* \"contracts/MysteryBox.sol\":4692:4698  sender */\n      dup5\n        /* \"contracts/MysteryBox.sol\":4700:4704  time */\n      dup5\n        /* \"contracts/MysteryBox.sol\":4706:4718  randomBytes1 */\n      dup5\n        /* \"contracts/MysteryBox.sol\":4720:4732  randomBytes2 */\n      dup5\n        /* \"contracts/MysteryBox.sol\":4734:4740  random */\n      dup10\n        /* \"contracts/MysteryBox.sol\":4688:4741  Log(sender, time, randomBytes1, randomBytes2, random) */\n      mload(0x40)\n      tag_60\n      swap6\n      swap5\n      swap4\n      swap3\n      swap2\n      swap1\n      tag_61\n      jump\t// in\n    tag_60:\n      mload(0x40)\n      dup1\n      swap2\n      sub\n      swap1\n      log1\n        /* \"contracts/MysteryBox.sol\":4430:4748  {... */\n      pop\n      pop\n      pop\n      pop\n        /* \"contracts/MysteryBox.sol\":4367:4748  function requestRandomNumber() public returns (uint256 random) {... */\n      swap1\n      jump\t// out\n        /* \"contracts/MysteryBox.sol\":348:371  uint256[] public boxIds */\n    tag_30:\n      0x02\n      dup2\n      dup2\n      sload\n      dup2\n      lt\n      tag_62\n      jumpi\n      0x00\n      dup1\n      revert\n    tag_62:\n      swap1\n      0x00\n      mstore\n      keccak256(0x00, 0x20)\n      add\n      0x00\n      swap2\n      pop\n      swap1\n      pop\n      sload\n      dup2\n      jump\t// out\n        /* \"contracts/MysteryBox.sol\":1865:4361  function publishMysteryBox(... */\n    tag_35:\n        /* \"contracts/MysteryBox.sol\":2137:2138  0 */\n      0x00\n        /* \"contracts/MysteryBox.sol\":2129:2134  price */\n      dup6\n        /* \"contracts/MysteryBox.sol\":2129:2138  price > 0 */\n      gt\n        /* \"contracts/MysteryBox.sol\":2121:2157  require(price > 0, \"price must > 0\") */\n      tag_65\n      jumpi\n      mload(0x40)\n      0x08c379a000000000000000000000000000000000000000000000000000000000\n      dup2\n      mstore\n      0x04\n      add\n      tag_66\n      swap1\n      tag_67\n      jump\t// in\n    tag_66:\n      mload(0x40)\n      dup1\n      swap2\n      sub\n      swap1\n      revert\n    tag_65:\n        /* \"contracts/MysteryBox.sol\":2189:2190  0 */\n      0x00\n        /* \"contracts/MysteryBox.sol\":2175:2186  totalSupply */\n      dup5\n        /* \"contracts/MysteryBox.sol\":2175:2190  totalSupply > 0 */\n      gt\n        /* \"contracts/MysteryBox.sol\":2167:2215  require(totalSupply > 0, \"totalSupply must > 0\") */\n      tag_68\n      jumpi\n      mload(0x40)\n      0x08c379a000000000000000000000000000000000000000000000000000000000\n      dup2\n      mstore\n      0x04\n      add\n      tag_69\n      swap1\n      tag_70\n      jump\t// in\n    tag_69:\n      mload(0x40)\n      dup1\n      swap2\n      sub\n      swap1\n      revert\n    tag_68:\n        /* \"contracts/MysteryBox.sol\":2272:2273  0 */\n      0x00\n        /* \"contracts/MysteryBox.sol\":2246:2262  probabilityArray */\n      dup4\n        /* \"contracts/MysteryBox.sol\":2246:2269  probabilityArray.length */\n      mload\n        /* \"contracts/MysteryBox.sol\":2246:2273  probabilityArray.length > 0 */\n      gt\n        /* \"contracts/MysteryBox.sol\":2246:2314  probabilityArray.length > 0 &&... */\n      dup1\n      iszero\n      tag_71\n      jumpi\n      pop\n        /* \"contracts/MysteryBox.sol\":2313:2314  0 */\n      0x00\n        /* \"contracts/MysteryBox.sol\":2293:2303  tokenArray */\n      dup3\n        /* \"contracts/MysteryBox.sol\":2293:2310  tokenArray.length */\n      mload\n        /* \"contracts/MysteryBox.sol\":2293:2314  tokenArray.length > 0 */\n      gt\n        /* \"contracts/MysteryBox.sol\":2246:2314  probabilityArray.length > 0 &&... */\n    tag_71:\n        /* \"contracts/MysteryBox.sol\":2246:2362  probabilityArray.length > 0 &&... */\n      dup1\n      iszero\n      tag_72\n      jumpi\n      pop\n        /* \"contracts/MysteryBox.sol\":2361:2362  0 */\n      0x00\n        /* \"contracts/MysteryBox.sol\":2334:2351  rewardAmountArray */\n      dup2\n        /* \"contracts/MysteryBox.sol\":2334:2358  rewardAmountArray.length */\n      mload\n        /* \"contracts/MysteryBox.sol\":2334:2362  rewardAmountArray.length > 0 */\n      gt\n        /* \"contracts/MysteryBox.sol\":2246:2362  probabilityArray.length > 0 &&... */\n    tag_72:\n        /* \"contracts/MysteryBox.sol\":2225:2407  require(... */\n      tag_73\n      jumpi\n      mload(0x40)\n      0x08c379a000000000000000000000000000000000000000000000000000000000\n      dup2\n      mstore\n      0x04\n      add\n      tag_74\n      swap1\n      tag_75\n      jump\t// in\n    tag_74:\n      mload(0x40)\n      dup1\n      swap2\n      sub\n      swap1\n      revert\n    tag_73:\n        /* \"contracts/MysteryBox.sol\":2465:2475  tokenArray */\n      dup2\n        /* \"contracts/MysteryBox.sol\":2465:2482  tokenArray.length */\n      mload\n        /* \"contracts/MysteryBox.sol\":2438:2454  probabilityArray */\n      dup4\n        /* \"contracts/MysteryBox.sol\":2438:2461  probabilityArray.length */\n      mload\n        /* \"contracts/MysteryBox.sol\":2438:2482  probabilityArray.length == tokenArray.length */\n      eq\n        /* \"contracts/MysteryBox.sol\":2438:2547  probabilityArray.length == tokenArray.length &&... */\n      dup1\n      iszero\n      tag_76\n      jumpi\n      pop\n        /* \"contracts/MysteryBox.sol\":2523:2540  rewardAmountArray */\n      dup1\n        /* \"contracts/MysteryBox.sol\":2523:2547  rewardAmountArray.length */\n      mload\n        /* \"contracts/MysteryBox.sol\":2502:2512  tokenArray */\n      dup3\n        /* \"contracts/MysteryBox.sol\":2502:2519  tokenArray.length */\n      mload\n        /* \"contracts/MysteryBox.sol\":2502:2547  tokenArray.length == rewardAmountArray.length */\n      eq\n        /* \"contracts/MysteryBox.sol\":2438:2547  probabilityArray.length == tokenArray.length &&... */\n    tag_76:\n        /* \"contracts/MysteryBox.sol\":2417:2592  require(... */\n      tag_77\n      jumpi\n      mload(0x40)\n      0x08c379a000000000000000000000000000000000000000000000000000000000\n      dup2\n      mstore\n      0x04\n      add\n      tag_78\n      swap1\n      tag_75\n      jump\t// in\n    tag_78:\n      mload(0x40)\n      dup1\n      swap2\n      sub\n      swap1\n      revert\n    tag_77:\n        /* \"contracts/MysteryBox.sol\":2602:2626  uint256 totalProbability */\n      0x00\n        /* \"contracts/MysteryBox.sol\":2641:2650  uint256 i */\n      dup1\n        /* \"contracts/MysteryBox.sol\":2653:2654  0 */\n      0x00\n        /* \"contracts/MysteryBox.sol\":2641:2654  uint256 i = 0 */\n      swap1\n      pop\n        /* \"contracts/MysteryBox.sol\":2636:2772  for (uint256 i = 0; i < probabilityArray.length; i++) {... */\n    tag_79:\n        /* \"contracts/MysteryBox.sol\":2660:2676  probabilityArray */\n      dup5\n        /* \"contracts/MysteryBox.sol\":2660:2683  probabilityArray.length */\n      mload\n        /* \"contracts/MysteryBox.sol\":2656:2657  i */\n      dup2\n        /* \"contracts/MysteryBox.sol\":2656:2683  i < probabilityArray.length */\n      lt\n        /* \"contracts/MysteryBox.sol\":2636:2772  for (uint256 i = 0; i < probabilityArray.length; i++) {... */\n      iszero\n      tag_80\n      jumpi\n        /* \"contracts/MysteryBox.sol\":2742:2758  probabilityArray */\n      dup5\n        /* \"contracts/MysteryBox.sol\":2759:2760  i */\n      dup2\n        /* \"contracts/MysteryBox.sol\":2742:2761  probabilityArray[i] */\n      dup2\n      mload\n      dup2\n      lt\n      tag_82\n      jumpi\n      tag_83\n      tag_84\n      jump\t// in\n    tag_83:\n    tag_82:\n      0x20\n      mul\n      0x20\n      add\n      add\n      mload\n        /* \"contracts/MysteryBox.sol\":2723:2739  totalProbability */\n      dup3\n        /* \"contracts/MysteryBox.sol\":2723:2761  totalProbability + probabilityArray[i] */\n      tag_85\n      swap2\n      swap1\n      tag_86\n      jump\t// in\n    tag_85:\n        /* \"contracts/MysteryBox.sol\":2704:2761  totalProbability = totalProbability + probabilityArray[i] */\n      swap2\n      pop\n        /* \"contracts/MysteryBox.sol\":2685:2688  i++ */\n      dup1\n      dup1\n      tag_87\n      swap1\n      tag_88\n      jump\t// in\n    tag_87:\n      swap2\n      pop\n      pop\n        /* \"contracts/MysteryBox.sol\":2636:2772  for (uint256 i = 0; i < probabilityArray.length; i++) {... */\n      jump(tag_79)\n    tag_80:\n      pop\n        /* \"contracts/MysteryBox.sol\":2809:2814  10000 */\n      0x2710\n        /* \"contracts/MysteryBox.sol\":2789:2805  totalProbability */\n      dup2\n        /* \"contracts/MysteryBox.sol\":2789:2814  totalProbability == 10000 */\n      eq\n        /* \"contracts/MysteryBox.sol\":2781:2840  require(totalProbability == 10000, \"incorrect probability\") */\n      tag_89\n      jumpi\n      mload(0x40)\n      0x08c379a000000000000000000000000000000000000000000000000000000000\n      dup2\n      mstore\n      0x04\n      add\n      tag_90\n      swap1\n      tag_91\n      jump\t// in\n    tag_90:\n      mload(0x40)\n      dup1\n      swap2\n      sub\n      swap1\n      revert\n    tag_89:\n        /* \"contracts/MysteryBox.sol\":2856:2865  uint256 i */\n      0x00\n        /* \"contracts/MysteryBox.sol\":2851:3360  for (uint256 i = 0; i < tokenArray.length; i++) {... */\n    tag_92:\n        /* \"contracts/MysteryBox.sol\":2875:2885  tokenArray */\n      dup4\n        /* \"contracts/MysteryBox.sol\":2875:2892  tokenArray.length */\n      mload\n        /* \"contracts/MysteryBox.sol\":2871:2872  i */\n      dup2\n        /* \"contracts/MysteryBox.sol\":2871:2892  i < tokenArray.length */\n      lt\n        /* \"contracts/MysteryBox.sol\":2851:3360  for (uint256 i = 0; i < tokenArray.length; i++) {... */\n      iszero\n      tag_93\n      jumpi\n        /* \"contracts/MysteryBox.sol\":2913:2926  uint256 value */\n      0x00\n        /* \"contracts/MysteryBox.sol\":3022:3027  10000 */\n      0x2710\n        /* \"contracts/MysteryBox.sol\":2998:3015  rewardAmountArray */\n      dup5\n        /* \"contracts/MysteryBox.sol\":3016:3017  i */\n      dup4\n        /* \"contracts/MysteryBox.sol\":2998:3018  rewardAmountArray[i] */\n      dup2\n      mload\n      dup2\n      lt\n      tag_95\n      jumpi\n      tag_96\n      tag_84\n      jump\t// in\n    tag_96:\n    tag_95:\n      0x20\n      mul\n      0x20\n      add\n      add\n      mload\n        /* \"contracts/MysteryBox.sol\":2968:2979  totalSupply */\n      dup9\n        /* \"contracts/MysteryBox.sol\":2930:2946  probabilityArray */\n      dup9\n        /* \"contracts/MysteryBox.sol\":2947:2948  i */\n      dup6\n        /* \"contracts/MysteryBox.sol\":2930:2949  probabilityArray[i] */\n      dup2\n      mload\n      dup2\n      lt\n      tag_97\n      jumpi\n      tag_98\n      tag_84\n      jump\t// in\n    tag_98:\n    tag_97:\n      0x20\n      mul\n      0x20\n      add\n      add\n      mload\n        /* \"contracts/MysteryBox.sol\":2930:2979  probabilityArray[i] *... */\n      tag_99\n      swap2\n      swap1\n      tag_100\n      jump\t// in\n    tag_99:\n        /* \"contracts/MysteryBox.sol\":2930:3018  probabilityArray[i] *... */\n      tag_101\n      swap2\n      swap1\n      tag_100\n      jump\t// in\n    tag_101:\n        /* \"contracts/MysteryBox.sol\":2929:3027  (probabilityArray[i] *... */\n      tag_102\n      swap2\n      swap1\n      tag_103\n      jump\t// in\n    tag_102:\n        /* \"contracts/MysteryBox.sol\":2913:3027  uint256 value = (probabilityArray[i] *... */\n      swap1\n      pop\n        /* \"contracts/MysteryBox.sol\":3070:3071  0 */\n      0x00\n        /* \"contracts/MysteryBox.sol\":3045:3072  tokenArray[i] == address(0) */\n      0xffffffffffffffffffffffffffffffffffffffff\n      and\n        /* \"contracts/MysteryBox.sol\":3045:3055  tokenArray */\n      dup6\n        /* \"contracts/MysteryBox.sol\":3056:3057  i */\n      dup4\n        /* \"contracts/MysteryBox.sol\":3045:3058  tokenArray[i] */\n      dup2\n      mload\n      dup2\n      lt\n      tag_104\n      jumpi\n      tag_105\n      tag_84\n      jump\t// in\n    tag_105:\n    tag_104:\n      0x20\n      mul\n      0x20\n      add\n      add\n      mload\n        /* \"contracts/MysteryBox.sol\":3045:3072  tokenArray[i] == address(0) */\n      0xffffffffffffffffffffffffffffffffffffffff\n      and\n      sub\n        /* \"contracts/MysteryBox.sol\":3041:3350  if (tokenArray[i] == address(0)) {... */\n      tag_106\n      jumpi\n        /* \"contracts/MysteryBox.sol\":3113:3118  value */\n      dup1\n        /* \"contracts/MysteryBox.sol\":3100:3109  msg.value */\n      callvalue\n        /* \"contracts/MysteryBox.sol\":3100:3118  msg.value >= value */\n      lt\n      iszero\n        /* \"contracts/MysteryBox.sol\":3092:3146  require(msg.value >= value, \"insufficient coin value\") */\n      tag_107\n      jumpi\n      mload(0x40)\n      0x08c379a000000000000000000000000000000000000000000000000000000000\n      dup2\n      mstore\n      0x04\n      add\n      tag_108\n      swap1\n      tag_109\n      jump\t// in\n    tag_108:\n      mload(0x40)\n      dup1\n      swap2\n      sub\n      swap1\n      revert\n    tag_107:\n        /* \"contracts/MysteryBox.sol\":3041:3350  if (tokenArray[i] == address(0)) {... */\n      jump(tag_110)\n    tag_106:\n        /* \"contracts/MysteryBox.sol\":3185:3335  IERC20(tokenArray[i]).safeTransferFrom(... */\n      tag_111\n        /* \"contracts/MysteryBox.sol\":3245:3255  msg.sender */\n      caller\n        /* \"contracts/MysteryBox.sol\":3285:3289  this */\n      address\n        /* \"contracts/MysteryBox.sol\":3312:3317  value */\n      dup4\n        /* \"contracts/MysteryBox.sol\":3192:3202  tokenArray */\n      dup9\n        /* \"contracts/MysteryBox.sol\":3203:3204  i */\n      dup7\n        /* \"contracts/MysteryBox.sol\":3192:3205  tokenArray[i] */\n      dup2\n      mload\n      dup2\n      lt\n      tag_112\n      jumpi\n      tag_113\n      tag_84\n      jump\t// in\n    tag_113:\n    tag_112:\n      0x20\n      mul\n      0x20\n      add\n      add\n      mload\n        /* \"contracts/MysteryBox.sol\":3185:3223  IERC20(tokenArray[i]).safeTransferFrom */\n      0xffffffffffffffffffffffffffffffffffffffff\n      and\n      tag_114\n      swap1\n        /* \"contracts/MysteryBox.sol\":3185:3335  IERC20(tokenArray[i]).safeTransferFrom(... */\n      swap4\n      swap3\n      swap2\n      swap1\n      0xffffffff\n      and\n      jump\t// in\n    tag_111:\n        /* \"contracts/MysteryBox.sol\":3041:3350  if (tokenArray[i] == address(0)) {... */\n    tag_110:\n        /* \"contracts/MysteryBox.sol\":2899:3360  {... */\n      pop\n        /* \"contracts/MysteryBox.sol\":2894:2897  i++ */\n      dup1\n      dup1\n      tag_115\n      swap1\n      tag_88\n      jump\t// in\n    tag_115:\n      swap2\n      pop\n      pop\n        /* \"contracts/MysteryBox.sol\":2851:3360  for (uint256 i = 0; i < tokenArray.length; i++) {... */\n      jump(tag_92)\n    tag_93:\n      pop\n        /* \"contracts/MysteryBox.sol\":3401:3550  Mystery(... */\n      mload(0x40)\n      dup1\n      0xc0\n      add\n      0x40\n      mstore\n      dup1\n        /* \"contracts/MysteryBox.sol\":3422:3434  currentBoxId */\n      sload(0x04)\n        /* \"contracts/MysteryBox.sol\":3401:3550  Mystery(... */\n      dup2\n      mstore\n      0x20\n      add\n        /* \"contracts/MysteryBox.sol\":3448:3452  coin */\n      dup9\n        /* \"contracts/MysteryBox.sol\":3401:3550  Mystery(... */\n      0xffffffffffffffffffffffffffffffffffffffff\n      and\n      dup2\n      mstore\n      0x20\n      add\n        /* \"contracts/MysteryBox.sol\":3466:3471  price */\n      dup8\n        /* \"contracts/MysteryBox.sol\":3401:3550  Mystery(... */\n      dup2\n      mstore\n      0x20\n      add\n        /* \"contracts/MysteryBox.sol\":3485:3496  totalSupply */\n      dup7\n        /* \"contracts/MysteryBox.sol\":3401:3550  Mystery(... */\n      dup2\n      mstore\n      0x20\n      add\n        /* \"contracts/MysteryBox.sol\":3510:3521  totalSupply */\n      dup7\n        /* \"contracts/MysteryBox.sol\":3401:3550  Mystery(... */\n      dup2\n      mstore\n      0x20\n      add\n        /* \"contracts/MysteryBox.sol\":3535:3540  false */\n      0x00\n        /* \"contracts/MysteryBox.sol\":3401:3550  Mystery(... */\n      iszero\n      iszero\n      dup2\n      mstore\n      pop\n        /* \"contracts/MysteryBox.sol\":3370:3384  mysteryMapping */\n      0x00\n        /* \"contracts/MysteryBox.sol\":3370:3398  mysteryMapping[currentBoxId] */\n      dup1\n        /* \"contracts/MysteryBox.sol\":3385:3397  currentBoxId */\n      sload(0x04)\n        /* \"contracts/MysteryBox.sol\":3370:3398  mysteryMapping[currentBoxId] */\n      dup2\n      mstore\n      0x20\n      add\n      swap1\n      dup2\n      mstore\n      0x20\n      add\n      0x00\n      keccak256\n        /* \"contracts/MysteryBox.sol\":3370:3550  mysteryMapping[currentBoxId] = Mystery(... */\n      0x00\n      dup3\n      add\n      mload\n      dup2\n      0x00\n      add\n      sstore\n      0x20\n      dup3\n      add\n      mload\n      dup2\n      0x01\n      add\n      exp(0x0100, 0x00)\n      dup2\n      sload\n      dup2\n      0xffffffffffffffffffffffffffffffffffffffff\n      mul\n      not\n      and\n      swap1\n      dup4\n      0xffffffffffffffffffffffffffffffffffffffff\n      and\n      mul\n      or\n      swap1\n      sstore\n      pop\n      0x40\n      dup3\n      add\n      mload\n      dup2\n      0x02\n      add\n      sstore\n      0x60\n      dup3\n      add\n      mload\n      dup2\n      0x03\n      add\n      sstore\n      0x80\n      dup3\n      add\n      mload\n      dup2\n      0x04\n      add\n      sstore\n      0xa0\n      dup3\n      add\n      mload\n      dup2\n      0x05\n      add\n      exp(0x0100, 0x00)\n      dup2\n      sload\n      dup2\n      0xff\n      mul\n      not\n      and\n      swap1\n      dup4\n      iszero\n      iszero\n      mul\n      or\n      swap1\n      sstore\n      pop\n      swap1\n      pop\n      pop\n        /* \"contracts/MysteryBox.sol\":3560:3595  MysteryReward storage mysteryReward */\n      0x00\n        /* \"contracts/MysteryBox.sol\":3598:3618  mysteryReWardMapping */\n      0x01\n        /* \"contracts/MysteryBox.sol\":3598:3654  mysteryReWardMapping[... */\n      0x00\n        /* \"contracts/MysteryBox.sol\":3632:3644  currentBoxId */\n      sload(0x04)\n        /* \"contracts/MysteryBox.sol\":3598:3654  mysteryReWardMapping[... */\n      dup2\n      mstore\n      0x20\n      add\n      swap1\n      dup2\n      mstore\n      0x20\n      add\n      0x00\n      keccak256\n        /* \"contracts/MysteryBox.sol\":3560:3654  MysteryReward storage mysteryReward = mysteryReWardMapping[... */\n      swap1\n      pop\n        /* \"contracts/MysteryBox.sol\":3664:3692  uint256[] storage rangeArray */\n      0x00\n        /* \"contracts/MysteryBox.sol\":3695:3708  mysteryReward */\n      dup2\n        /* \"contracts/MysteryBox.sol\":3695:3719  mysteryReward.rangeArray */\n      0x01\n      add\n        /* \"contracts/MysteryBox.sol\":3664:3719  uint256[] storage rangeArray = mysteryReward.rangeArray */\n      swap1\n      pop\n        /* \"contracts/MysteryBox.sol\":3734:3743  uint256 i */\n      0x00\n        /* \"contracts/MysteryBox.sol\":3729:4128  for (uint256 i = 0; i < probabilityArray.length; i++) {... */\n    tag_116:\n        /* \"contracts/MysteryBox.sol\":3753:3769  probabilityArray */\n      dup7\n        /* \"contracts/MysteryBox.sol\":3753:3776  probabilityArray.length */\n      mload\n        /* \"contracts/MysteryBox.sol\":3749:3750  i */\n      dup2\n        /* \"contracts/MysteryBox.sol\":3749:3776  i < probabilityArray.length */\n      lt\n        /* \"contracts/MysteryBox.sol\":3729:4128  for (uint256 i = 0; i < probabilityArray.length; i++) {... */\n      iszero\n      tag_117\n      jumpi\n        /* \"contracts/MysteryBox.sol\":3797:3811  uint256 border */\n      0x00\n        /* \"contracts/MysteryBox.sol\":3848:3853  10000 */\n      0x2710\n        /* \"contracts/MysteryBox.sol\":3837:3844  0xfffff */\n      0x0fffff\n        /* \"contracts/MysteryBox.sol\":3815:3831  probabilityArray */\n      dup10\n        /* \"contracts/MysteryBox.sol\":3832:3833  i */\n      dup5\n        /* \"contracts/MysteryBox.sol\":3815:3834  probabilityArray[i] */\n      dup2\n      mload\n      dup2\n      lt\n      tag_119\n      jumpi\n      tag_120\n      tag_84\n      jump\t// in\n    tag_120:\n    tag_119:\n      0x20\n      mul\n      0x20\n      add\n      add\n      mload\n        /* \"contracts/MysteryBox.sol\":3815:3844  probabilityArray[i] * 0xfffff */\n      tag_121\n      swap2\n      swap1\n      tag_100\n      jump\t// in\n    tag_121:\n        /* \"contracts/MysteryBox.sol\":3814:3853  (probabilityArray[i] * 0xfffff) / 10000 */\n      tag_122\n      swap2\n      swap1\n      tag_103\n      jump\t// in\n    tag_122:\n        /* \"contracts/MysteryBox.sol\":3797:3853  uint256 border = (probabilityArray[i] * 0xfffff) / 10000 */\n      swap1\n      pop\n        /* \"contracts/MysteryBox.sol\":3876:3877  0 */\n      0x00\n        /* \"contracts/MysteryBox.sol\":3871:3872  i */\n      dup3\n        /* \"contracts/MysteryBox.sol\":3871:3877  i == 0 */\n      sub\n        /* \"contracts/MysteryBox.sol\":3867:4118  if (i == 0) {... */\n      tag_123\n      jumpi\n        /* \"contracts/MysteryBox.sol\":3897:3907  rangeArray */\n      dup3\n        /* \"contracts/MysteryBox.sol\":3913:3919  border */\n      dup2\n        /* \"contracts/MysteryBox.sol\":3897:3920  rangeArray.push(border) */\n      swap1\n      dup1\n      0x01\n      dup2\n      sload\n      add\n      dup1\n      dup3\n      sstore\n      dup1\n      swap2\n      pop\n      pop\n      0x01\n      swap1\n      sub\n      swap1\n      0x00\n      mstore\n      keccak256(0x00, 0x20)\n      add\n      0x00\n      swap1\n      swap2\n      swap1\n      swap2\n      swap1\n      swap2\n      pop\n      sstore\n        /* \"contracts/MysteryBox.sol\":3867:4118  if (i == 0) {... */\n      jump(tag_125)\n    tag_123:\n        /* \"contracts/MysteryBox.sol\":3976:3977  1 */\n      0x01\n        /* \"contracts/MysteryBox.sol\":3950:3966  probabilityArray */\n      dup9\n        /* \"contracts/MysteryBox.sol\":3950:3973  probabilityArray.length */\n      mload\n        /* \"contracts/MysteryBox.sol\":3950:3977  probabilityArray.length - 1 */\n      tag_126\n      swap2\n      swap1\n      tag_127\n      jump\t// in\n    tag_126:\n        /* \"contracts/MysteryBox.sol\":3945:3946  i */\n      dup3\n        /* \"contracts/MysteryBox.sol\":3945:3977  i == probabilityArray.length - 1 */\n      sub\n        /* \"contracts/MysteryBox.sol\":3941:4118  if (i == probabilityArray.length - 1) {... */\n      tag_128\n      jumpi\n        /* \"contracts/MysteryBox.sol\":3997:4007  rangeArray */\n      dup3\n        /* \"contracts/MysteryBox.sol\":4013:4020  0xfffff */\n      0x0fffff\n        /* \"contracts/MysteryBox.sol\":3997:4021  rangeArray.push(0xfffff) */\n      swap1\n      dup1\n      0x01\n      dup2\n      sload\n      add\n      dup1\n      dup3\n      sstore\n      dup1\n      swap2\n      pop\n      pop\n      0x01\n      swap1\n      sub\n      swap1\n      0x00\n      mstore\n      keccak256(0x00, 0x20)\n      add\n      0x00\n      swap1\n      swap2\n      swap1\n      swap2\n      swap1\n      swap2\n      pop\n      sstore\n        /* \"contracts/MysteryBox.sol\":3941:4118  if (i == probabilityArray.length - 1) {... */\n      jump(tag_130)\n    tag_128:\n        /* \"contracts/MysteryBox.sol\":4060:4070  rangeArray */\n      dup3\n        /* \"contracts/MysteryBox.sol\":4096:4102  border */\n      dup2\n        /* \"contracts/MysteryBox.sol\":4076:4086  rangeArray */\n      dup5\n        /* \"contracts/MysteryBox.sol\":4091:4092  1 */\n      0x01\n        /* \"contracts/MysteryBox.sol\":4087:4088  i */\n      dup6\n        /* \"contracts/MysteryBox.sol\":4087:4092  i - 1 */\n      tag_131\n      swap2\n      swap1\n      tag_127\n      jump\t// in\n    tag_131:\n        /* \"contracts/MysteryBox.sol\":4076:4093  rangeArray[i - 1] */\n      dup2\n      sload\n      dup2\n      lt\n      tag_132\n      jumpi\n      tag_133\n      tag_84\n      jump\t// in\n    tag_133:\n    tag_132:\n      swap1\n      0x00\n      mstore\n      keccak256(0x00, 0x20)\n      add\n      sload\n        /* \"contracts/MysteryBox.sol\":4076:4102  rangeArray[i - 1] + border */\n      tag_135\n      swap2\n      swap1\n      tag_86\n      jump\t// in\n    tag_135:\n        /* \"contracts/MysteryBox.sol\":4060:4103  rangeArray.push(rangeArray[i - 1] + border) */\n      swap1\n      dup1\n      0x01\n      dup2\n      sload\n      add\n      dup1\n      dup3\n      sstore\n      dup1\n      swap2\n      pop\n      pop\n      0x01\n      swap1\n      sub\n      swap1\n      0x00\n      mstore\n      keccak256(0x00, 0x20)\n      add\n      0x00\n      swap1\n      swap2\n      swap1\n      swap2\n      swap1\n      swap2\n      pop\n      sstore\n        /* \"contracts/MysteryBox.sol\":3941:4118  if (i == probabilityArray.length - 1) {... */\n    tag_130:\n        /* \"contracts/MysteryBox.sol\":3867:4118  if (i == 0) {... */\n    tag_125:\n        /* \"contracts/MysteryBox.sol\":3783:4128  {... */\n      pop\n        /* \"contracts/MysteryBox.sol\":3778:3781  i++ */\n      dup1\n      dup1\n      tag_137\n      swap1\n      tag_88\n      jump\t// in\n    tag_137:\n      swap2\n      pop\n      pop\n        /* \"contracts/MysteryBox.sol\":3729:4128  for (uint256 i = 0; i < probabilityArray.length; i++) {... */\n      jump(tag_116)\n    tag_117:\n      pop\n        /* \"contracts/MysteryBox.sol\":4170:4186  probabilityArray */\n      dup6\n        /* \"contracts/MysteryBox.sol\":4137:4150  mysteryReward */\n      dup3\n        /* \"contracts/MysteryBox.sol\":4137:4167  mysteryReward.probabilityArray */\n      0x00\n      add\n        /* \"contracts/MysteryBox.sol\":4137:4186  mysteryReward.probabilityArray = probabilityArray */\n      swap1\n      dup1\n      mload\n      swap1\n      0x20\n      add\n      swap1\n      tag_138\n      swap3\n      swap2\n      swap1\n      tag_139\n      jump\t// in\n    tag_138:\n      pop\n        /* \"contracts/MysteryBox.sol\":4223:4233  tokenArray */\n      dup5\n        /* \"contracts/MysteryBox.sol\":4196:4209  mysteryReward */\n      dup3\n        /* \"contracts/MysteryBox.sol\":4196:4220  mysteryReward.tokenArray */\n      0x02\n      add\n        /* \"contracts/MysteryBox.sol\":4196:4233  mysteryReward.tokenArray = tokenArray */\n      swap1\n      dup1\n      mload\n      swap1\n      0x20\n      add\n      swap1\n      tag_140\n      swap3\n      swap2\n      swap1\n      tag_141\n      jump\t// in\n    tag_140:\n      pop\n        /* \"contracts/MysteryBox.sol\":4277:4294  rewardAmountArray */\n      dup4\n        /* \"contracts/MysteryBox.sol\":4243:4256  mysteryReward */\n      dup3\n        /* \"contracts/MysteryBox.sol\":4243:4274  mysteryReward.rewardAmountArray */\n      0x03\n      add\n        /* \"contracts/MysteryBox.sol\":4243:4294  mysteryReward.rewardAmountArray = rewardAmountArray */\n      swap1\n      dup1\n      mload\n      swap1\n      0x20\n      add\n      swap1\n      tag_142\n      swap3\n      swap2\n      swap1\n      tag_139\n      jump\t// in\n    tag_142:\n      pop\n        /* \"contracts/MysteryBox.sol\":4305:4311  boxIds */\n      0x02\n        /* \"contracts/MysteryBox.sol\":4317:4329  currentBoxId */\n      sload(0x04)\n        /* \"contracts/MysteryBox.sol\":4305:4330  boxIds.push(currentBoxId) */\n      swap1\n      dup1\n      0x01\n      dup2\n      sload\n      add\n      dup1\n      dup3\n      sstore\n      dup1\n      swap2\n      pop\n      pop\n      0x01\n      swap1\n      sub\n      swap1\n      0x00\n      mstore\n      keccak256(0x00, 0x20)\n      add\n      0x00\n      swap1\n      swap2\n      swap1\n      swap2\n      swap1\n      swap2\n      pop\n      sstore\n        /* \"contracts/MysteryBox.sol\":4340:4352  currentBoxId */\n      0x04\n      0x00\n        /* \"contracts/MysteryBox.sol\":4340:4354  currentBoxId++ */\n      dup2\n      sload\n      dup1\n      swap3\n      swap2\n      swap1\n      tag_144\n      swap1\n      tag_88\n      jump\t// in\n    tag_144:\n      swap2\n      swap1\n      pop\n      sstore\n      pop\n        /* \"contracts/MysteryBox.sol\":2111:4361  {... */\n      pop\n      pop\n      pop\n        /* \"contracts/MysteryBox.sol\":1865:4361  function publishMysteryBox(... */\n      pop\n      pop\n      pop\n      pop\n      pop\n      pop\n      jump\t// out\n        /* \"contracts/MysteryBox.sol\":413:440  uint256 public currentBoxId */\n    tag_38:\n      sload(0x04)\n      dup2\n      jump\t// out\n        /* \"contracts/MysteryBox.sol\":4754:4995  function getMysteryAmount(bool checked)... */\n    tag_44:\n        /* \"contracts/MysteryBox.sol\":4839:4853  uint256 amount */\n      0x00\n        /* \"contracts/MysteryBox.sol\":4873:4880  checked */\n      dup2\n        /* \"contracts/MysteryBox.sol\":4869:4989  if (checked) {... */\n      iszero\n      tag_146\n      jumpi\n        /* \"contracts/MysteryBox.sol\":4905:4918  checkedBoxIds */\n      0x03\n        /* \"contracts/MysteryBox.sol\":4905:4925  checkedBoxIds.length */\n      dup1\n      sload\n      swap1\n      pop\n        /* \"contracts/MysteryBox.sol\":4896:4925  amount = checkedBoxIds.length */\n      swap1\n      pop\n        /* \"contracts/MysteryBox.sol\":4869:4989  if (checked) {... */\n      jump(tag_147)\n    tag_146:\n        /* \"contracts/MysteryBox.sol\":4965:4971  boxIds */\n      0x02\n        /* \"contracts/MysteryBox.sol\":4965:4978  boxIds.length */\n      dup1\n      sload\n      swap1\n      pop\n        /* \"contracts/MysteryBox.sol\":4956:4978  amount = boxIds.length */\n      swap1\n      pop\n        /* \"contracts/MysteryBox.sol\":4869:4989  if (checked) {... */\n    tag_147:\n        /* \"contracts/MysteryBox.sol\":4754:4995  function getMysteryAmount(bool checked)... */\n      swap2\n      swap1\n      pop\n      jump\t// out\n        /* \"@openzeppelin/contracts/token/ERC20/utils/SafeERC20.sol\":974:1215  function safeTransferFrom(... */\n    tag_114:\n        /* \"@openzeppelin/contracts/token/ERC20/utils/SafeERC20.sol\":1112:1208  _callOptionalReturn(token, abi.encodeWithSelector(token.transferFrom.selector, from, to, value)) */\n      tag_149\n        /* \"@openzeppelin/contracts/token/ERC20/utils/SafeERC20.sol\":1132:1137  token */\n      dup5\n        /* \"@openzeppelin/contracts/token/ERC20/utils/SafeERC20.sol\":1162:1189  token.transferFrom.selector */\n      shl(0xe0, 0x23b872dd)\n        /* \"@openzeppelin/contracts/token/ERC20/utils/SafeERC20.sol\":1191:1195  from */\n      dup6\n        /* \"@openzeppelin/contracts/token/ERC20/utils/SafeERC20.sol\":1197:1199  to */\n      dup6\n        /* \"@openzeppelin/contracts/token/ERC20/utils/SafeERC20.sol\":1201:1206  value */\n      dup6\n        /* \"@openzeppelin/contracts/token/ERC20/utils/SafeERC20.sol\":1139:1207  abi.encodeWithSelector(token.transferFrom.selector, from, to, value) */\n      add(0x24, mload(0x40))\n      tag_150\n      swap4\n      swap3\n      swap2\n      swap1\n      tag_151\n      jump\t// in\n    tag_150:\n      mload(0x40)\n      0x20\n      dup2\n      dup4\n      sub\n      sub\n      dup2\n      mstore\n      swap1\n      0x40\n      mstore\n      swap1\n      not(0xffffffffffffffffffffffffffffffffffffffffffffffffffffffff)\n      and\n      0x20\n      dup3\n      add\n      dup1\n      mload\n      0xffffffffffffffffffffffffffffffffffffffffffffffffffffffff\n      dup4\n      dup2\n      dup4\n      and\n      or\n      dup4\n      mstore\n      pop\n      pop\n      pop\n      pop\n        /* \"@openzeppelin/contracts/token/ERC20/utils/SafeERC20.sol\":1112:1131  _callOptionalReturn */\n      tag_152\n        /* \"@openzeppelin/contracts/token/ERC20/utils/SafeERC20.sol\":1112:1208  _callOptionalReturn(token, abi.encodeWithSelector(token.transferFrom.selector, from, to, value)) */\n      jump\t// in\n    tag_149:\n        /* \"@openzeppelin/contracts/token/ERC20/utils/SafeERC20.sol\":974:1215  function safeTransferFrom(... */\n      pop\n      pop\n      pop\n      pop\n      jump\t// out\n        /* \"@openzeppelin/contracts/token/ERC20/utils/SafeERC20.sol\":3747:4453  function _callOptionalReturn(IERC20 token, bytes memory data) private {... */\n    tag_152:\n        /* \"@openzeppelin/contracts/token/ERC20/utils/SafeERC20.sol\":4166:4189  bytes memory returndata */\n      0x00\n        /* \"@openzeppelin/contracts/token/ERC20/utils/SafeERC20.sol\":4192:4261  address(token).functionCall(data, \"SafeERC20: low-level call failed\") */\n      tag_154\n        /* \"@openzeppelin/contracts/token/ERC20/utils/SafeERC20.sol\":4220:4224  data */\n      dup3\n        /* \"@openzeppelin/contracts/token/ERC20/utils/SafeERC20.sol\":4192:4261  address(token).functionCall(data, \"SafeERC20: low-level call failed\") */\n      mload(0x40)\n      dup1\n      0x40\n      add\n      0x40\n      mstore\n      dup1\n      0x20\n      dup2\n      mstore\n      0x20\n      add\n      0x5361666545524332303a206c6f772d6c6576656c2063616c6c206661696c6564\n      dup2\n      mstore\n      pop\n        /* \"@openzeppelin/contracts/token/ERC20/utils/SafeERC20.sol\":4200:4205  token */\n      dup6\n        /* \"@openzeppelin/contracts/token/ERC20/utils/SafeERC20.sol\":4192:4219  address(token).functionCall */\n      0xffffffffffffffffffffffffffffffffffffffff\n      and\n      tag_155\n      swap1\n        /* \"@openzeppelin/contracts/token/ERC20/utils/SafeERC20.sol\":4192:4261  address(token).functionCall(data, \"SafeERC20: low-level call failed\") */\n      swap3\n      swap2\n      swap1\n      0xffffffff\n      and\n      jump\t// in\n    tag_154:\n        /* \"@openzeppelin/contracts/token/ERC20/utils/SafeERC20.sol\":4166:4261  bytes memory returndata = address(token).functionCall(data, \"SafeERC20: low-level call failed\") */\n      swap1\n      pop\n        /* \"@openzeppelin/contracts/token/ERC20/utils/SafeERC20.sol\":4295:4296  0 */\n      0x00\n        /* \"@openzeppelin/contracts/token/ERC20/utils/SafeERC20.sol\":4275:4285  returndata */\n      dup2\n        /* \"@openzeppelin/contracts/token/ERC20/utils/SafeERC20.sol\":4275:4292  returndata.length */\n      mload\n        /* \"@openzeppelin/contracts/token/ERC20/utils/SafeERC20.sol\":4275:4296  returndata.length > 0 */\n      gt\n        /* \"@openzeppelin/contracts/token/ERC20/utils/SafeERC20.sol\":4271:4447  if (returndata.length > 0) {... */\n      iszero\n      tag_156\n      jumpi\n        /* \"@openzeppelin/contracts/token/ERC20/utils/SafeERC20.sol\":4370:4380  returndata */\n      dup1\n        /* \"@openzeppelin/contracts/token/ERC20/utils/SafeERC20.sol\":4359:4389  abi.decode(returndata, (bool)) */\n      dup1\n      0x20\n      add\n      swap1\n      mload\n      dup2\n      add\n      swap1\n      tag_157\n      swap2\n      swap1\n      tag_158\n      jump\t// in\n    tag_157:\n        /* \"@openzeppelin/contracts/token/ERC20/utils/SafeERC20.sol\":4351:4436  require(abi.decode(returndata, (bool)), \"SafeERC20: ERC20 operation did not succeed\") */\n      tag_159\n      jumpi\n      mload(0x40)\n      0x08c379a000000000000000000000000000000000000000000000000000000000\n      dup2\n      mstore\n      0x04\n      add\n      tag_160\n      swap1\n      tag_161\n      jump\t// in\n    tag_160:\n      mload(0x40)\n      dup1\n      swap2\n      sub\n      swap1\n      revert\n    tag_159:\n        /* \"@openzeppelin/contracts/token/ERC20/utils/SafeERC20.sol\":4271:4447  if (returndata.length > 0) {... */\n    tag_156:\n        /* \"@openzeppelin/contracts/token/ERC20/utils/SafeERC20.sol\":3817:4453  {... */\n      pop\n        /* \"@openzeppelin/contracts/token/ERC20/utils/SafeERC20.sol\":3747:4453  function _callOptionalReturn(IERC20 token, bytes memory data) private {... */\n      pop\n      pop\n      jump\t// out\n        /* \"@openzeppelin/contracts/utils/Address.sol\":3873:4096  function functionCall(... */\n    tag_155:\n        /* \"@openzeppelin/contracts/utils/Address.sol\":4006:4018  bytes memory */\n      0x60\n        /* \"@openzeppelin/contracts/utils/Address.sol\":4037:4089  functionCallWithValue(target, data, 0, errorMessage) */\n      tag_163\n        /* \"@openzeppelin/contracts/utils/Address.sol\":4059:4065  target */\n      dup5\n        /* \"@openzeppelin/contracts/utils/Address.sol\":4067:4071  data */\n      dup5\n        /* \"@openzeppelin/contracts/utils/Address.sol\":4073:4074  0 */\n      0x00\n        /* \"@openzeppelin/contracts/utils/Address.sol\":4076:4088  errorMessage */\n      dup6\n        /* \"@openzeppelin/contracts/utils/Address.sol\":4037:4058  functionCallWithValue */\n      tag_164\n        /* \"@openzeppelin/contracts/utils/Address.sol\":4037:4089  functionCallWithValue(target, data, 0, errorMessage) */\n      jump\t// in\n    tag_163:\n        /* \"@openzeppelin/contracts/utils/Address.sol\":4030:4089  return functionCallWithValue(target, data, 0, errorMessage) */\n      swap1\n      pop\n        /* \"@openzeppelin/contracts/utils/Address.sol\":3873:4096  function functionCall(... */\n      swap4\n      swap3\n      pop\n      pop\n      pop\n      jump\t// out\n        /* \"@openzeppelin/contracts/utils/Address.sol\":4960:5406  function functionCallWithValue(... */\n    tag_164:\n        /* \"@openzeppelin/contracts/utils/Address.sol\":5125:5137  bytes memory */\n      0x60\n        /* \"@openzeppelin/contracts/utils/Address.sol\":5182:5187  value */\n      dup3\n        /* \"@openzeppelin/contracts/utils/Address.sol\":5157:5178  address(this).balance */\n      selfbalance\n        /* \"@openzeppelin/contracts/utils/Address.sol\":5157:5187  address(this).balance >= value */\n      lt\n      iszero\n        /* \"@openzeppelin/contracts/utils/Address.sol\":5149:5230  require(address(this).balance >= value, \"Address: insufficient balance for call\") */\n      tag_166\n      jumpi\n      mload(0x40)\n      0x08c379a000000000000000000000000000000000000000000000000000000000\n      dup2\n      mstore\n      0x04\n      add\n      tag_167\n      swap1\n      tag_168\n      jump\t// in\n    tag_167:\n      mload(0x40)\n      dup1\n      swap2\n      sub\n      swap1\n      revert\n    tag_166:\n        /* \"@openzeppelin/contracts/utils/Address.sol\":5241:5253  bool success */\n      0x00\n        /* \"@openzeppelin/contracts/utils/Address.sol\":5255:5278  bytes memory returndata */\n      dup1\n        /* \"@openzeppelin/contracts/utils/Address.sol\":5282:5288  target */\n      dup7\n        /* \"@openzeppelin/contracts/utils/Address.sol\":5282:5293  target.call */\n      0xffffffffffffffffffffffffffffffffffffffff\n      and\n        /* \"@openzeppelin/contracts/utils/Address.sol\":5301:5306  value */\n      dup6\n        /* \"@openzeppelin/contracts/utils/Address.sol\":5308:5312  data */\n      dup8\n        /* \"@openzeppelin/contracts/utils/Address.sol\":5282:5313  target.call{value: value}(data) */\n      mload(0x40)\n      tag_169\n      swap2\n      swap1\n      tag_170\n      jump\t// in\n    tag_169:\n      0x00\n      mload(0x40)\n      dup1\n      dup4\n      sub\n      dup2\n      dup6\n      dup8\n      gas\n      call\n      swap3\n      pop\n      pop\n      pop\n      returndatasize\n      dup1\n      0x00\n      dup2\n      eq\n      tag_173\n      jumpi\n      mload(0x40)\n      swap2\n      pop\n      and(add(returndatasize, 0x3f), not(0x1f))\n      dup3\n      add\n      0x40\n      mstore\n      returndatasize\n      dup3\n      mstore\n      returndatasize\n      0x00\n      0x20\n      dup5\n      add\n      returndatacopy\n      jump(tag_172)\n    tag_173:\n      0x60\n      swap2\n      pop\n    tag_172:\n      pop\n        /* \"@openzeppelin/contracts/utils/Address.sol\":5240:5313  (bool success, bytes memory returndata) = target.call{value: value}(data) */\n      swap2\n      pop\n      swap2\n      pop\n        /* \"@openzeppelin/contracts/utils/Address.sol\":5330:5399  verifyCallResultFromTarget(target, success, returndata, errorMessage) */\n      tag_174\n        /* \"@openzeppelin/contracts/utils/Address.sol\":5357:5363  target */\n      dup8\n        /* \"@openzeppelin/contracts/utils/Address.sol\":5365:5372  success */\n      dup4\n        /* \"@openzeppelin/contracts/utils/Address.sol\":5374:5384  returndata */\n      dup4\n        /* \"@openzeppelin/contracts/utils/Address.sol\":5386:5398  errorMessage */\n      dup8\n        /* \"@openzeppelin/contracts/utils/Address.sol\":5330:5356  verifyCallResultFromTarget */\n      tag_175\n        /* \"@openzeppelin/contracts/utils/Address.sol\":5330:5399  verifyCallResultFromTarget(target, success, returndata, errorMessage) */\n      jump\t// in\n    tag_174:\n        /* \"@openzeppelin/contracts/utils/Address.sol\":5323:5399  return verifyCallResultFromTarget(target, success, returndata, errorMessage) */\n      swap3\n      pop\n      pop\n      pop\n        /* \"@openzeppelin/contracts/utils/Address.sol\":4960:5406  function functionCallWithValue(... */\n      swap5\n      swap4\n      pop\n      pop\n      pop\n      pop\n      jump\t// out\n        /* \"@openzeppelin/contracts/utils/Address.sol\":7466:8094  function verifyCallResultFromTarget(... */\n    tag_175:\n        /* \"@openzeppelin/contracts/utils/Address.sol\":7646:7658  bytes memory */\n      0x60\n        /* \"@openzeppelin/contracts/utils/Address.sol\":7674:7681  success */\n      dup4\n        /* \"@openzeppelin/contracts/utils/Address.sol\":7670:8088  if (success) {... */\n      iszero\n      tag_177\n      jumpi\n        /* \"@openzeppelin/contracts/utils/Address.sol\":7722:7723  0 */\n      0x00\n        /* \"@openzeppelin/contracts/utils/Address.sol\":7701:7711  returndata */\n      dup4\n        /* \"@openzeppelin/contracts/utils/Address.sol\":7701:7718  returndata.length */\n      mload\n        /* \"@openzeppelin/contracts/utils/Address.sol\":7701:7723  returndata.length == 0 */\n      sub\n        /* \"@openzeppelin/contracts/utils/Address.sol\":7697:7983  if (returndata.length == 0) {... */\n      tag_178\n      jumpi\n        /* \"@openzeppelin/contracts/utils/Address.sol\":7916:7934  isContract(target) */\n      tag_179\n        /* \"@openzeppelin/contracts/utils/Address.sol\":7927:7933  target */\n      dup6\n        /* \"@openzeppelin/contracts/utils/Address.sol\":7916:7926  isContract */\n      tag_180\n        /* \"@openzeppelin/contracts/utils/Address.sol\":7916:7934  isContract(target) */\n      jump\t// in\n    tag_179:\n        /* \"@openzeppelin/contracts/utils/Address.sol\":7908:7968  require(isContract(target), \"Address: call to non-contract\") */\n      tag_181\n      jumpi\n      mload(0x40)\n      0x08c379a000000000000000000000000000000000000000000000000000000000\n      dup2\n      mstore\n      0x04\n      add\n      tag_182\n      swap1\n      tag_183\n      jump\t// in\n    tag_182:\n      mload(0x40)\n      dup1\n      swap2\n      sub\n      swap1\n      revert\n    tag_181:\n        /* \"@openzeppelin/contracts/utils/Address.sol\":7697:7983  if (returndata.length == 0) {... */\n    tag_178:\n        /* \"@openzeppelin/contracts/utils/Address.sol\":8003:8013  returndata */\n      dup3\n        /* \"@openzeppelin/contracts/utils/Address.sol\":7996:8013  return returndata */\n      swap1\n      pop\n      jump(tag_176)\n        /* \"@openzeppelin/contracts/utils/Address.sol\":7670:8088  if (success) {... */\n    tag_177:\n        /* \"@openzeppelin/contracts/utils/Address.sol\":8044:8077  _revert(returndata, errorMessage) */\n      tag_185\n        /* \"@openzeppelin/contracts/utils/Address.sol\":8052:8062  returndata */\n      dup4\n        /* \"@openzeppelin/contracts/utils/Address.sol\":8064:8076  errorMessage */\n      dup4\n        /* \"@openzeppelin/contracts/utils/Address.sol\":8044:8051  _revert */\n      tag_186\n        /* \"@openzeppelin/contracts/utils/Address.sol\":8044:8077  _revert(returndata, errorMessage) */\n      jump\t// in\n    tag_185:\n        /* \"@openzeppelin/contracts/utils/Address.sol\":7466:8094  function verifyCallResultFromTarget(... */\n    tag_176:\n      swap5\n      swap4\n      pop\n      pop\n      pop\n      pop\n      jump\t// out\n        /* \"@openzeppelin/contracts/utils/Address.sol\":1175:1495  function isContract(address account) internal view returns (bool) {... */\n    tag_180:\n        /* \"@openzeppelin/contracts/utils/Address.sol\":1235:1239  bool */\n      0x00\n        /* \"@openzeppelin/contracts/utils/Address.sol\":1487:1488  0 */\n      dup1\n        /* \"@openzeppelin/contracts/utils/Address.sol\":1465:1472  account */\n      dup3\n        /* \"@openzeppelin/contracts/utils/Address.sol\":1465:1484  account.code.length */\n      0xffffffffffffffffffffffffffffffffffffffff\n      and\n      extcodesize\n        /* \"@openzeppelin/contracts/utils/Address.sol\":1465:1488  account.code.length > 0 */\n      gt\n        /* \"@openzeppelin/contracts/utils/Address.sol\":1458:1488  return account.code.length > 0 */\n      swap1\n      pop\n        /* \"@openzeppelin/contracts/utils/Address.sol\":1175:1495  function isContract(address account) internal view returns (bool) {... */\n      swap2\n      swap1\n      pop\n      jump\t// out\n        /* \"@openzeppelin/contracts/utils/Address.sol\":8616:9156  function _revert(bytes memory returndata, string memory errorMessage) private pure {... */\n    tag_186:\n        /* \"@openzeppelin/contracts/utils/Address.sol\":8795:8796  0 */\n      0x00\n        /* \"@openzeppelin/contracts/utils/Address.sol\":8775:8785  returndata */\n      dup3\n        /* \"@openzeppelin/contracts/utils/Address.sol\":8775:8792  returndata.length */\n      mload\n        /* \"@openzeppelin/contracts/utils/Address.sol\":8775:8796  returndata.length > 0 */\n      gt\n        /* \"@openzeppelin/contracts/utils/Address.sol\":8771:9150  if (returndata.length > 0) {... */\n      iszero\n      tag_189\n      jumpi\n        /* \"@openzeppelin/contracts/utils/Address.sol\":9003:9013  returndata */\n      dup2\n        /* \"@openzeppelin/contracts/utils/Address.sol\":8997:9014  mload(returndata) */\n      mload\n        /* \"@openzeppelin/contracts/utils/Address.sol\":9059:9074  returndata_size */\n      dup1\n        /* \"@openzeppelin/contracts/utils/Address.sol\":9046:9056  returndata */\n      dup4\n        /* \"@openzeppelin/contracts/utils/Address.sol\":9042:9044  32 */\n      0x20\n        /* \"@openzeppelin/contracts/utils/Address.sol\":9038:9057  add(32, returndata) */\n      add\n        /* \"@openzeppelin/contracts/utils/Address.sol\":9031:9075  revert(add(32, returndata), returndata_size) */\n      revert\n        /* \"@openzeppelin/contracts/utils/Address.sol\":8771:9150  if (returndata.length > 0) {... */\n    tag_189:\n        /* \"@openzeppelin/contracts/utils/Address.sol\":9126:9138  errorMessage */\n      dup1\n        /* \"@openzeppelin/contracts/utils/Address.sol\":9119:9139  revert(errorMessage) */\n      mload(0x40)\n      0x08c379a000000000000000000000000000000000000000000000000000000000\n      dup2\n      mstore\n      0x04\n      add\n      tag_191\n      swap2\n      swap1\n      tag_192\n      jump\t// in\n    tag_191:\n      mload(0x40)\n      dup1\n      swap2\n      sub\n      swap1\n      revert\n    tag_139:\n      dup3\n      dup1\n      sload\n      dup3\n      dup3\n      sstore\n      swap1\n      0x00\n      mstore\n      keccak256(0x00, 0x20)\n      swap1\n      dup2\n      add\n      swap3\n      dup3\n      iszero\n      tag_193\n      jumpi\n      swap2\n      0x20\n      mul\n      dup3\n      add\n    tag_194:\n      dup3\n      dup2\n      gt\n      iszero\n      tag_195\n      jumpi\n      dup3\n      mload\n      dup3\n      sstore\n      swap2\n      0x20\n      add\n      swap2\n      swap1\n      0x01\n      add\n      swap1\n      jump(tag_194)\n    tag_195:\n    tag_193:\n      pop\n      swap1\n      pop\n      tag_196\n      swap2\n      swap1\n      tag_197\n      jump\t// in\n    tag_196:\n      pop\n      swap1\n      jump\t// out\n    tag_141:\n      dup3\n      dup1\n      sload\n      dup3\n      dup3\n      sstore\n      swap1\n      0x00\n      mstore\n      keccak256(0x00, 0x20)\n      swap1\n      dup2\n      add\n      swap3\n      dup3\n      iszero\n      tag_198\n      jumpi\n      swap2\n      0x20\n      mul\n      dup3\n      add\n    tag_199:\n      dup3\n      dup2\n      gt\n      iszero\n      tag_200\n      jumpi\n      dup3\n      mload\n      dup3\n      exp(0x0100, 0x00)\n      dup2\n      sload\n      dup2\n      0xffffffffffffffffffffffffffffffffffffffff\n      mul\n      not\n      and\n      swap1\n      dup4\n      0xffffffffffffffffffffffffffffffffffffffff\n      and\n      mul\n      or\n      swap1\n      sstore\n      pop\n      swap2\n      0x20\n      add\n      swap2\n      swap1\n      0x01\n      add\n      swap1\n      jump(tag_199)\n    tag_200:\n    tag_198:\n      pop\n      swap1\n      pop\n      tag_201\n      swap2\n      swap1\n      tag_197\n      jump\t// in\n    tag_201:\n      pop\n      swap1\n      jump\t// out\n    tag_197:\n    tag_202:\n      dup1\n      dup3\n      gt\n      iszero\n      tag_203\n      jumpi\n      0x00\n      dup2\n      0x00\n      swap1\n      sstore\n      pop\n      0x01\n      add\n      jump(tag_202)\n    tag_203:\n      pop\n      swap1\n      jump\t// out\n        /* \"#utility.yul\":7:82   */\n    tag_204:\n        /* \"#utility.yul\":40:46   */\n      0x00\n        /* \"#utility.yul\":73:75   */\n      0x40\n        /* \"#utility.yul\":67:76   */\n      mload\n        /* \"#utility.yul\":57:76   */\n      swap1\n      pop\n        /* \"#utility.yul\":7:82   */\n      swap1\n      jump\t// out\n        /* \"#utility.yul\":88:205   */\n    tag_205:\n        /* \"#utility.yul\":197:198   */\n      0x00\n        /* \"#utility.yul\":194:195   */\n      dup1\n        /* \"#utility.yul\":187:199   */\n      revert\n        /* \"#utility.yul\":211:328   */\n    tag_206:\n        /* \"#utility.yul\":320:321   */\n      0x00\n        /* \"#utility.yul\":317:318   */\n      dup1\n        /* \"#utility.yul\":310:322   */\n      revert\n        /* \"#utility.yul\":334:411   */\n    tag_207:\n        /* \"#utility.yul\":371:378   */\n      0x00\n        /* \"#utility.yul\":400:405   */\n      dup2\n        /* \"#utility.yul\":389:405   */\n      swap1\n      pop\n        /* \"#utility.yul\":334:411   */\n      swap2\n      swap1\n      pop\n      jump\t// out\n        /* \"#utility.yul\":417:539   */\n    tag_208:\n        /* \"#utility.yul\":490:514   */\n      tag_286\n        /* \"#utility.yul\":508:513   */\n      dup2\n        /* \"#utility.yul\":490:514   */\n      tag_207\n      jump\t// in\n    tag_286:\n        /* \"#utility.yul\":483:488   */\n      dup2\n        /* \"#utility.yul\":480:515   */\n      eq\n        /* \"#utility.yul\":470:533   */\n      tag_287\n      jumpi\n        /* \"#utility.yul\":529:530   */\n      0x00\n        /* \"#utility.yul\":526:527   */\n      dup1\n        /* \"#utility.yul\":519:531   */\n      revert\n        /* \"#utility.yul\":470:533   */\n    tag_287:\n        /* \"#utility.yul\":417:539   */\n      pop\n      jump\t// out\n        /* \"#utility.yul\":545:684   */\n    tag_209:\n        /* \"#utility.yul\":591:596   */\n      0x00\n        /* \"#utility.yul\":629:635   */\n      dup2\n        /* \"#utility.yul\":616:636   */\n      calldataload\n        /* \"#utility.yul\":607:636   */\n      swap1\n      pop\n        /* \"#utility.yul\":645:678   */\n      tag_289\n        /* \"#utility.yul\":672:677   */\n      dup2\n        /* \"#utility.yul\":645:678   */\n      tag_208\n      jump\t// in\n    tag_289:\n        /* \"#utility.yul\":545:684   */\n      swap3\n      swap2\n      pop\n      pop\n      jump\t// out\n        /* \"#utility.yul\":690:1019   */\n    tag_13:\n        /* \"#utility.yul\":749:755   */\n      0x00\n        /* \"#utility.yul\":798:800   */\n      0x20\n        /* \"#utility.yul\":786:795   */\n      dup3\n        /* \"#utility.yul\":777:784   */\n      dup5\n        /* \"#utility.yul\":773:796   */\n      sub\n        /* \"#utility.yul\":769:801   */\n      slt\n        /* \"#utility.yul\":766:885   */\n      iszero\n      tag_291\n      jumpi\n        /* \"#utility.yul\":804:883   */\n      tag_292\n      tag_205\n      jump\t// in\n    tag_292:\n        /* \"#utility.yul\":766:885   */\n    tag_291:\n        /* \"#utility.yul\":924:925   */\n      0x00\n        /* \"#utility.yul\":949:1002   */\n      tag_293\n        /* \"#utility.yul\":994:1001   */\n      dup5\n        /* \"#utility.yul\":985:991   */\n      dup3\n        /* \"#utility.yul\":974:983   */\n      dup6\n        /* \"#utility.yul\":970:992   */\n      add\n        /* \"#utility.yul\":949:1002   */\n      tag_209\n      jump\t// in\n    tag_293:\n        /* \"#utility.yul\":939:1002   */\n      swap2\n      pop\n        /* \"#utility.yul\":895:1012   */\n      pop\n        /* \"#utility.yul\":690:1019   */\n      swap3\n      swap2\n      pop\n      pop\n      jump\t// out\n        /* \"#utility.yul\":1025:1151   */\n    tag_210:\n        /* \"#utility.yul\":1062:1069   */\n      0x00\n        /* \"#utility.yul\":1102:1144   */\n      0xffffffffffffffffffffffffffffffffffffffff\n        /* \"#utility.yul\":1095:1100   */\n      dup3\n        /* \"#utility.yul\":1091:1145   */\n      and\n        /* \"#utility.yul\":1080:1145   */\n      swap1\n      pop\n        /* \"#utility.yul\":1025:1151   */\n      swap2\n      swap1\n      pop\n      jump\t// out\n        /* \"#utility.yul\":1157:1253   */\n    tag_211:\n        /* \"#utility.yul\":1194:1201   */\n      0x00\n        /* \"#utility.yul\":1223:1247   */\n      tag_296\n        /* \"#utility.yul\":1241:1246   */\n      dup3\n        /* \"#utility.yul\":1223:1247   */\n      tag_210\n      jump\t// in\n    tag_296:\n        /* \"#utility.yul\":1212:1247   */\n      swap1\n      pop\n        /* \"#utility.yul\":1157:1253   */\n      swap2\n      swap1\n      pop\n      jump\t// out\n        /* \"#utility.yul\":1259:1377   */\n    tag_212:\n        /* \"#utility.yul\":1346:1370   */\n      tag_298\n        /* \"#utility.yul\":1364:1369   */\n      dup2\n        /* \"#utility.yul\":1346:1370   */\n      tag_211\n      jump\t// in\n    tag_298:\n        /* \"#utility.yul\":1341:1344   */\n      dup3\n        /* \"#utility.yul\":1334:1371   */\n      mstore\n        /* \"#utility.yul\":1259:1377   */\n      pop\n      pop\n      jump\t// out\n        /* \"#utility.yul\":1383:1501   */\n    tag_213:\n        /* \"#utility.yul\":1470:1494   */\n      tag_300\n        /* \"#utility.yul\":1488:1493   */\n      dup2\n        /* \"#utility.yul\":1470:1494   */\n      tag_207\n      jump\t// in\n    tag_300:\n        /* \"#utility.yul\":1465:1468   */\n      dup3\n        /* \"#utility.yul\":1458:1495   */\n      mstore\n        /* \"#utility.yul\":1383:1501   */\n      pop\n      pop\n      jump\t// out\n        /* \"#utility.yul\":1507:1597   */\n    tag_214:\n        /* \"#utility.yul\":1541:1548   */\n      0x00\n        /* \"#utility.yul\":1584:1589   */\n      dup2\n        /* \"#utility.yul\":1577:1590   */\n      iszero\n        /* \"#utility.yul\":1570:1591   */\n      iszero\n        /* \"#utility.yul\":1559:1591   */\n      swap1\n      pop\n        /* \"#utility.yul\":1507:1597   */\n      swap2\n      swap1\n      pop\n      jump\t// out\n        /* \"#utility.yul\":1603:1712   */\n    tag_215:\n        /* \"#utility.yul\":1684:1705   */\n      tag_303\n        /* \"#utility.yul\":1699:1704   */\n      dup2\n        /* \"#utility.yul\":1684:1705   */\n      tag_214\n      jump\t// in\n    tag_303:\n        /* \"#utility.yul\":1679:1682   */\n      dup3\n        /* \"#utility.yul\":1672:1706   */\n      mstore\n        /* \"#utility.yul\":1603:1712   */\n      pop\n      pop\n      jump\t// out\n        /* \"#utility.yul\":1718:1832   */\n    tag_216:\n        /* \"#utility.yul\":1785:1791   */\n      0x00\n        /* \"#utility.yul\":1819:1824   */\n      dup2\n        /* \"#utility.yul\":1813:1825   */\n      mload\n        /* \"#utility.yul\":1803:1825   */\n      swap1\n      pop\n        /* \"#utility.yul\":1718:1832   */\n      swap2\n      swap1\n      pop\n      jump\t// out\n        /* \"#utility.yul\":1838:2022   */\n    tag_217:\n        /* \"#utility.yul\":1937:1948   */\n      0x00\n        /* \"#utility.yul\":1971:1977   */\n      dup3\n        /* \"#utility.yul\":1966:1969   */\n      dup3\n        /* \"#utility.yul\":1959:1978   */\n      mstore\n        /* \"#utility.yul\":2011:2015   */\n      0x20\n        /* \"#utility.yul\":2006:2009   */\n      dup3\n        /* \"#utility.yul\":2002:2016   */\n      add\n        /* \"#utility.yul\":1987:2016   */\n      swap1\n      pop\n        /* \"#utility.yul\":1838:2022   */\n      swap3\n      swap2\n      pop\n      pop\n      jump\t// out\n        /* \"#utility.yul\":2028:2160   */\n    tag_218:\n        /* \"#utility.yul\":2095:2099   */\n      0x00\n        /* \"#utility.yul\":2118:2121   */\n      dup2\n        /* \"#utility.yul\":2110:2121   */\n      swap1\n      pop\n        /* \"#utility.yul\":2148:2152   */\n      0x20\n        /* \"#utility.yul\":2143:2146   */\n      dup3\n        /* \"#utility.yul\":2139:2153   */\n      add\n        /* \"#utility.yul\":2131:2153   */\n      swap1\n      pop\n        /* \"#utility.yul\":2028:2160   */\n      swap2\n      swap1\n      pop\n      jump\t// out\n        /* \"#utility.yul\":2166:2274   */\n    tag_219:\n        /* \"#utility.yul\":2243:2267   */\n      tag_308\n        /* \"#utility.yul\":2261:2266   */\n      dup2\n        /* \"#utility.yul\":2243:2267   */\n      tag_207\n      jump\t// in\n    tag_308:\n        /* \"#utility.yul\":2238:2241   */\n      dup3\n        /* \"#utility.yul\":2231:2268   */\n      mstore\n        /* \"#utility.yul\":2166:2274   */\n      pop\n      pop\n      jump\t// out\n        /* \"#utility.yul\":2280:2459   */\n    tag_220:\n        /* \"#utility.yul\":2349:2359   */\n      0x00\n        /* \"#utility.yul\":2370:2416   */\n      tag_310\n        /* \"#utility.yul\":2412:2415   */\n      dup4\n        /* \"#utility.yul\":2404:2410   */\n      dup4\n        /* \"#utility.yul\":2370:2416   */\n      tag_219\n      jump\t// in\n    tag_310:\n        /* \"#utility.yul\":2448:2452   */\n      0x20\n        /* \"#utility.yul\":2443:2446   */\n      dup4\n        /* \"#utility.yul\":2439:2453   */\n      add\n        /* \"#utility.yul\":2425:2453   */\n      swap1\n      pop\n        /* \"#utility.yul\":2280:2459   */\n      swap3\n      swap2\n      pop\n      pop\n      jump\t// out\n        /* \"#utility.yul\":2465:2578   */\n    tag_221:\n        /* \"#utility.yul\":2535:2539   */\n      0x00\n        /* \"#utility.yul\":2567:2571   */\n      0x20\n        /* \"#utility.yul\":2562:2565   */\n      dup3\n        /* \"#utility.yul\":2558:2572   */\n      add\n        /* \"#utility.yul\":2550:2572   */\n      swap1\n      pop\n        /* \"#utility.yul\":2465:2578   */\n      swap2\n      swap1\n      pop\n      jump\t// out\n        /* \"#utility.yul\":2614:3346   */\n    tag_222:\n        /* \"#utility.yul\":2733:2736   */\n      0x00\n        /* \"#utility.yul\":2762:2816   */\n      tag_313\n        /* \"#utility.yul\":2810:2815   */\n      dup3\n        /* \"#utility.yul\":2762:2816   */\n      tag_216\n      jump\t// in\n    tag_313:\n        /* \"#utility.yul\":2832:2918   */\n      tag_314\n        /* \"#utility.yul\":2911:2917   */\n      dup2\n        /* \"#utility.yul\":2906:2909   */\n      dup6\n        /* \"#utility.yul\":2832:2918   */\n      tag_217\n      jump\t// in\n    tag_314:\n        /* \"#utility.yul\":2825:2918   */\n      swap4\n      pop\n        /* \"#utility.yul\":2942:2998   */\n      tag_315\n        /* \"#utility.yul\":2992:2997   */\n      dup4\n        /* \"#utility.yul\":2942:2998   */\n      tag_218\n      jump\t// in\n    tag_315:\n        /* \"#utility.yul\":3021:3028   */\n      dup1\n        /* \"#utility.yul\":3052:3053   */\n      0x00\n        /* \"#utility.yul\":3037:3321   */\n    tag_316:\n        /* \"#utility.yul\":3062:3068   */\n      dup4\n        /* \"#utility.yul\":3059:3060   */\n      dup2\n        /* \"#utility.yul\":3056:3069   */\n      lt\n        /* \"#utility.yul\":3037:3321   */\n      iszero\n      tag_318\n      jumpi\n        /* \"#utility.yul\":3138:3144   */\n      dup2\n        /* \"#utility.yul\":3132:3145   */\n      mload\n        /* \"#utility.yul\":3165:3228   */\n      tag_319\n        /* \"#utility.yul\":3224:3227   */\n      dup9\n        /* \"#utility.yul\":3209:3222   */\n      dup3\n        /* \"#utility.yul\":3165:3228   */\n      tag_220\n      jump\t// in\n    tag_319:\n        /* \"#utility.yul\":3158:3228   */\n      swap8\n      pop\n        /* \"#utility.yul\":3251:3311   */\n      tag_320\n        /* \"#utility.yul\":3304:3310   */\n      dup4\n        /* \"#utility.yul\":3251:3311   */\n      tag_221\n      jump\t// in\n    tag_320:\n        /* \"#utility.yul\":3241:3311   */\n      swap3\n      pop\n        /* \"#utility.yul\":3097:3321   */\n      pop\n        /* \"#utility.yul\":3084:3085   */\n      0x01\n        /* \"#utility.yul\":3081:3082   */\n      dup2\n        /* \"#utility.yul\":3077:3086   */\n      add\n        /* \"#utility.yul\":3072:3086   */\n      swap1\n      pop\n        /* \"#utility.yul\":3037:3321   */\n      jump(tag_316)\n    tag_318:\n        /* \"#utility.yul\":3041:3055   */\n      pop\n        /* \"#utility.yul\":3337:3340   */\n      dup6\n        /* \"#utility.yul\":3330:3340   */\n      swap4\n      pop\n        /* \"#utility.yul\":2738:3346   */\n      pop\n      pop\n      pop\n        /* \"#utility.yul\":2614:3346   */\n      swap3\n      swap2\n      pop\n      pop\n      jump\t// out\n        /* \"#utility.yul\":3352:3466   */\n    tag_223:\n        /* \"#utility.yul\":3419:3425   */\n      0x00\n        /* \"#utility.yul\":3453:3458   */\n      dup2\n        /* \"#utility.yul\":3447:3459   */\n      mload\n        /* \"#utility.yul\":3437:3459   */\n      swap1\n      pop\n        /* \"#utility.yul\":3352:3466   */\n      swap2\n      swap1\n      pop\n      jump\t// out\n        /* \"#utility.yul\":3472:3656   */\n    tag_224:\n        /* \"#utility.yul\":3571:3582   */\n      0x00\n        /* \"#utility.yul\":3605:3611   */\n      dup3\n        /* \"#utility.yul\":3600:3603   */\n      dup3\n        /* \"#utility.yul\":3593:3612   */\n      mstore\n        /* \"#utility.yul\":3645:3649   */\n      0x20\n        /* \"#utility.yul\":3640:3643   */\n      dup3\n        /* \"#utility.yul\":3636:3650   */\n      add\n        /* \"#utility.yul\":3621:3650   */\n      swap1\n      pop\n        /* \"#utility.yul\":3472:3656   */\n      swap3\n      swap2\n      pop\n      pop\n      jump\t// out\n        /* \"#utility.yul\":3662:3794   */\n    tag_225:\n        /* \"#utility.yul\":3729:3733   */\n      0x00\n        /* \"#utility.yul\":3752:3755   */\n      dup2\n        /* \"#utility.yul\":3744:3755   */\n      swap1\n      pop\n        /* \"#utility.yul\":3782:3786   */\n      0x20\n        /* \"#utility.yul\":3777:3780   */\n      dup3\n        /* \"#utility.yul\":3773:3787   */\n      add\n        /* \"#utility.yul\":3765:3787   */\n      swap1\n      pop\n        /* \"#utility.yul\":3662:3794   */\n      swap2\n      swap1\n      pop\n      jump\t// out\n        /* \"#utility.yul\":3800:3908   */\n    tag_226:\n        /* \"#utility.yul\":3877:3901   */\n      tag_325\n        /* \"#utility.yul\":3895:3900   */\n      dup2\n        /* \"#utility.yul\":3877:3901   */\n      tag_211\n      jump\t// in\n    tag_325:\n        /* \"#utility.yul\":3872:3875   */\n      dup3\n        /* \"#utility.yul\":3865:3902   */\n      mstore\n        /* \"#utility.yul\":3800:3908   */\n      pop\n      pop\n      jump\t// out\n        /* \"#utility.yul\":3914:4093   */\n    tag_227:\n        /* \"#utility.yul\":3983:3993   */\n      0x00\n        /* \"#utility.yul\":4004:4050   */\n      tag_327\n        /* \"#utility.yul\":4046:4049   */\n      dup4\n        /* \"#utility.yul\":4038:4044   */\n      dup4\n        /* \"#utility.yul\":4004:4050   */\n      tag_226\n      jump\t// in\n    tag_327:\n        /* \"#utility.yul\":4082:4086   */\n      0x20\n        /* \"#utility.yul\":4077:4080   */\n      dup4\n        /* \"#utility.yul\":4073:4087   */\n      add\n        /* \"#utility.yul\":4059:4087   */\n      swap1\n      pop\n        /* \"#utility.yul\":3914:4093   */\n      swap3\n      swap2\n      pop\n      pop\n      jump\t// out\n        /* \"#utility.yul\":4099:4212   */\n    tag_228:\n        /* \"#utility.yul\":4169:4173   */\n      0x00\n        /* \"#utility.yul\":4201:4205   */\n      0x20\n        /* \"#utility.yul\":4196:4199   */\n      dup3\n        /* \"#utility.yul\":4192:4206   */\n      add\n        /* \"#utility.yul\":4184:4206   */\n      swap1\n      pop\n        /* \"#utility.yul\":4099:4212   */\n      swap2\n      swap1\n      pop\n      jump\t// out\n        /* \"#utility.yul\":4248:4980   */\n    tag_229:\n        /* \"#utility.yul\":4367:4370   */\n      0x00\n        /* \"#utility.yul\":4396:4450   */\n      tag_330\n        /* \"#utility.yul\":4444:4449   */\n      dup3\n        /* \"#utility.yul\":4396:4450   */\n      tag_223\n      jump\t// in\n    tag_330:\n        /* \"#utility.yul\":4466:4552   */\n      tag_331\n        /* \"#utility.yul\":4545:4551   */\n      dup2\n        /* \"#utility.yul\":4540:4543   */\n      dup6\n        /* \"#utility.yul\":4466:4552   */\n      tag_224\n      jump\t// in\n    tag_331:\n        /* \"#utility.yul\":4459:4552   */\n      swap4\n      pop\n        /* \"#utility.yul\":4576:4632   */\n      tag_332\n        /* \"#utility.yul\":4626:4631   */\n      dup4\n        /* \"#utility.yul\":4576:4632   */\n      tag_225\n      jump\t// in\n    tag_332:\n        /* \"#utility.yul\":4655:4662   */\n      dup1\n        /* \"#utility.yul\":4686:4687   */\n      0x00\n        /* \"#utility.yul\":4671:4955   */\n    tag_333:\n        /* \"#utility.yul\":4696:4702   */\n      dup4\n        /* \"#utility.yul\":4693:4694   */\n      dup2\n        /* \"#utility.yul\":4690:4703   */\n      lt\n        /* \"#utility.yul\":4671:4955   */\n      iszero\n      tag_335\n      jumpi\n        /* \"#utility.yul\":4772:4778   */\n      dup2\n        /* \"#utility.yul\":4766:4779   */\n      mload\n        /* \"#utility.yul\":4799:4862   */\n      tag_336\n        /* \"#utility.yul\":4858:4861   */\n      dup9\n        /* \"#utility.yul\":4843:4856   */\n      dup3\n        /* \"#utility.yul\":4799:4862   */\n      tag_227\n      jump\t// in\n    tag_336:\n        /* \"#utility.yul\":4792:4862   */\n      swap8\n      pop\n        /* \"#utility.yul\":4885:4945   */\n      tag_337\n        /* \"#utility.yul\":4938:4944   */\n      dup4\n        /* \"#utility.yul\":4885:4945   */\n      tag_228\n      jump\t// in\n    tag_337:\n        /* \"#utility.yul\":4875:4945   */\n      swap3\n      pop\n        /* \"#utility.yul\":4731:4955   */\n      pop\n        /* \"#utility.yul\":4718:4719   */\n      0x01\n        /* \"#utility.yul\":4715:4716   */\n      dup2\n        /* \"#utility.yul\":4711:4720   */\n      add\n        /* \"#utility.yul\":4706:4720   */\n      swap1\n      pop\n        /* \"#utility.yul\":4671:4955   */\n      jump(tag_333)\n    tag_335:\n        /* \"#utility.yul\":4675:4689   */\n      pop\n        /* \"#utility.yul\":4971:4974   */\n      dup6\n        /* \"#utility.yul\":4964:4974   */\n      swap4\n      pop\n        /* \"#utility.yul\":4372:4980   */\n      pop\n      pop\n      pop\n        /* \"#utility.yul\":4248:4980   */\n      swap3\n      swap2\n      pop\n      pop\n      jump\t// out\n        /* \"#utility.yul\":4986:6686   */\n    tag_16:\n        /* \"#utility.yul\":5497:5501   */\n      0x00\n        /* \"#utility.yul\":5535:5538   */\n      0x0120\n        /* \"#utility.yul\":5524:5533   */\n      dup3\n        /* \"#utility.yul\":5520:5539   */\n      add\n        /* \"#utility.yul\":5512:5539   */\n      swap1\n      pop\n        /* \"#utility.yul\":5549:5620   */\n      tag_339\n        /* \"#utility.yul\":5617:5618   */\n      0x00\n        /* \"#utility.yul\":5606:5615   */\n      dup4\n        /* \"#utility.yul\":5602:5619   */\n      add\n        /* \"#utility.yul\":5593:5599   */\n      dup13\n        /* \"#utility.yul\":5549:5620   */\n      tag_212\n      jump\t// in\n    tag_339:\n        /* \"#utility.yul\":5630:5702   */\n      tag_340\n        /* \"#utility.yul\":5698:5700   */\n      0x20\n        /* \"#utility.yul\":5687:5696   */\n      dup4\n        /* \"#utility.yul\":5683:5701   */\n      add\n        /* \"#utility.yul\":5674:5680   */\n      dup12\n        /* \"#utility.yul\":5630:5702   */\n      tag_213\n      jump\t// in\n    tag_340:\n        /* \"#utility.yul\":5712:5784   */\n      tag_341\n        /* \"#utility.yul\":5780:5782   */\n      0x40\n        /* \"#utility.yul\":5769:5778   */\n      dup4\n        /* \"#utility.yul\":5765:5783   */\n      add\n        /* \"#utility.yul\":5756:5762   */\n      dup11\n        /* \"#utility.yul\":5712:5784   */\n      tag_213\n      jump\t// in\n    tag_341:\n        /* \"#utility.yul\":5794:5866   */\n      tag_342\n        /* \"#utility.yul\":5862:5864   */\n      0x60\n        /* \"#utility.yul\":5851:5860   */\n      dup4\n        /* \"#utility.yul\":5847:5865   */\n      add\n        /* \"#utility.yul\":5838:5844   */\n      dup10\n        /* \"#utility.yul\":5794:5866   */\n      tag_213\n      jump\t// in\n    tag_342:\n        /* \"#utility.yul\":5876:5943   */\n      tag_343\n        /* \"#utility.yul\":5938:5941   */\n      0x80\n        /* \"#utility.yul\":5927:5936   */\n      dup4\n        /* \"#utility.yul\":5923:5942   */\n      add\n        /* \"#utility.yul\":5914:5920   */\n      dup9\n        /* \"#utility.yul\":5876:5943   */\n      tag_215\n      jump\t// in\n    tag_343:\n        /* \"#utility.yul\":5991:6000   */\n      dup2\n        /* \"#utility.yul\":5985:5989   */\n      dup2\n        /* \"#utility.yul\":5981:6001   */\n      sub\n        /* \"#utility.yul\":5975:5978   */\n      0xa0\n        /* \"#utility.yul\":5964:5973   */\n      dup4\n        /* \"#utility.yul\":5960:5979   */\n      add\n        /* \"#utility.yul\":5953:6002   */\n      mstore\n        /* \"#utility.yul\":6019:6127   */\n      tag_344\n        /* \"#utility.yul\":6122:6126   */\n      dup2\n        /* \"#utility.yul\":6113:6119   */\n      dup8\n        /* \"#utility.yul\":6019:6127   */\n      tag_222\n      jump\t// in\n    tag_344:\n        /* \"#utility.yul\":6011:6127   */\n      swap1\n      pop\n        /* \"#utility.yul\":6175:6184   */\n      dup2\n        /* \"#utility.yul\":6169:6173   */\n      dup2\n        /* \"#utility.yul\":6165:6185   */\n      sub\n        /* \"#utility.yul\":6159:6162   */\n      0xc0\n        /* \"#utility.yul\":6148:6157   */\n      dup4\n        /* \"#utility.yul\":6144:6163   */\n      add\n        /* \"#utility.yul\":6137:6186   */\n      mstore\n        /* \"#utility.yul\":6203:6311   */\n      tag_345\n        /* \"#utility.yul\":6306:6310   */\n      dup2\n        /* \"#utility.yul\":6297:6303   */\n      dup7\n        /* \"#utility.yul\":6203:6311   */\n      tag_222\n      jump\t// in\n    tag_345:\n        /* \"#utility.yul\":6195:6311   */\n      swap1\n      pop\n        /* \"#utility.yul\":6359:6368   */\n      dup2\n        /* \"#utility.yul\":6353:6357   */\n      dup2\n        /* \"#utility.yul\":6349:6369   */\n      sub\n        /* \"#utility.yul\":6343:6346   */\n      0xe0\n        /* \"#utility.yul\":6332:6341   */\n      dup4\n        /* \"#utility.yul\":6328:6347   */\n      add\n        /* \"#utility.yul\":6321:6370   */\n      mstore\n        /* \"#utility.yul\":6387:6495   */\n      tag_346\n        /* \"#utility.yul\":6490:6494   */\n      dup2\n        /* \"#utility.yul\":6481:6487   */\n      dup6\n        /* \"#utility.yul\":6387:6495   */\n      tag_229\n      jump\t// in\n    tag_346:\n        /* \"#utility.yul\":6379:6495   */\n      swap1\n      pop\n        /* \"#utility.yul\":6543:6552   */\n      dup2\n        /* \"#utility.yul\":6537:6541   */\n      dup2\n        /* \"#utility.yul\":6533:6553   */\n      sub\n        /* \"#utility.yul\":6527:6530   */\n      0x0100\n        /* \"#utility.yul\":6516:6525   */\n      dup4\n        /* \"#utility.yul\":6512:6531   */\n      add\n        /* \"#utility.yul\":6505:6554   */\n      mstore\n        /* \"#utility.yul\":6571:6679   */\n      tag_347\n        /* \"#utility.yul\":6674:6678   */\n      dup2\n        /* \"#utility.yul\":6665:6671   */\n      dup5\n        /* \"#utility.yul\":6571:6679   */\n      tag_222\n      jump\t// in\n    tag_347:\n        /* \"#utility.yul\":6563:6679   */\n      swap1\n      pop\n        /* \"#utility.yul\":4986:6686   */\n      swap11\n      swap10\n      pop\n      pop\n      pop\n      pop\n      pop\n      pop\n      pop\n      pop\n      pop\n      pop\n      jump\t// out\n        /* \"#utility.yul\":6692:6914   */\n    tag_22:\n        /* \"#utility.yul\":6785:6789   */\n      0x00\n        /* \"#utility.yul\":6823:6825   */\n      0x20\n        /* \"#utility.yul\":6812:6821   */\n      dup3\n        /* \"#utility.yul\":6808:6826   */\n      add\n        /* \"#utility.yul\":6800:6826   */\n      swap1\n      pop\n        /* \"#utility.yul\":6836:6907   */\n      tag_349\n        /* \"#utility.yul\":6904:6905   */\n      0x00\n        /* \"#utility.yul\":6893:6902   */\n      dup4\n        /* \"#utility.yul\":6889:6906   */\n      add\n        /* \"#utility.yul\":6880:6886   */\n      dup5\n        /* \"#utility.yul\":6836:6907   */\n      tag_213\n      jump\t// in\n    tag_349:\n        /* \"#utility.yul\":6692:6914   */\n      swap3\n      swap2\n      pop\n      pop\n      jump\t// out\n        /* \"#utility.yul\":6920:7042   */\n    tag_230:\n        /* \"#utility.yul\":6993:7017   */\n      tag_351\n        /* \"#utility.yul\":7011:7016   */\n      dup2\n        /* \"#utility.yul\":6993:7017   */\n      tag_211\n      jump\t// in\n    tag_351:\n        /* \"#utility.yul\":6986:6991   */\n      dup2\n        /* \"#utility.yul\":6983:7018   */\n      eq\n        /* \"#utility.yul\":6973:7036   */\n      tag_352\n      jumpi\n        /* \"#utility.yul\":7032:7033   */\n      0x00\n        /* \"#utility.yul\":7029:7030   */\n      dup1\n        /* \"#utility.yul\":7022:7034   */\n      revert\n        /* \"#utility.yul\":6973:7036   */\n    tag_352:\n        /* \"#utility.yul\":6920:7042   */\n      pop\n      jump\t// out\n        /* \"#utility.yul\":7048:7187   */\n    tag_231:\n        /* \"#utility.yul\":7094:7099   */\n      0x00\n        /* \"#utility.yul\":7132:7138   */\n      dup2\n        /* \"#utility.yul\":7119:7139   */\n      calldataload\n        /* \"#utility.yul\":7110:7139   */\n      swap1\n      pop\n        /* \"#utility.yul\":7148:7181   */\n      tag_354\n        /* \"#utility.yul\":7175:7180   */\n      dup2\n        /* \"#utility.yul\":7148:7181   */\n      tag_230\n      jump\t// in\n    tag_354:\n        /* \"#utility.yul\":7048:7187   */\n      swap3\n      swap2\n      pop\n      pop\n      jump\t// out\n        /* \"#utility.yul\":7193:7310   */\n    tag_232:\n        /* \"#utility.yul\":7302:7303   */\n      0x00\n        /* \"#utility.yul\":7299:7300   */\n      dup1\n        /* \"#utility.yul\":7292:7304   */\n      revert\n        /* \"#utility.yul\":7316:7418   */\n    tag_233:\n        /* \"#utility.yul\":7357:7363   */\n      0x00\n        /* \"#utility.yul\":7408:7410   */\n      0x1f\n        /* \"#utility.yul\":7404:7411   */\n      not\n        /* \"#utility.yul\":7399:7401   */\n      0x1f\n        /* \"#utility.yul\":7392:7397   */\n      dup4\n        /* \"#utility.yul\":7388:7402   */\n      add\n        /* \"#utility.yul\":7384:7412   */\n      and\n        /* \"#utility.yul\":7374:7412   */\n      swap1\n      pop\n        /* \"#utility.yul\":7316:7418   */\n      swap2\n      swap1\n      pop\n      jump\t// out\n        /* \"#utility.yul\":7424:7604   */\n    tag_234:\n        /* \"#utility.yul\":7472:7549   */\n      0x4e487b7100000000000000000000000000000000000000000000000000000000\n        /* \"#utility.yul\":7469:7470   */\n      0x00\n        /* \"#utility.yul\":7462:7550   */\n      mstore\n        /* \"#utility.yul\":7569:7573   */\n      0x41\n        /* \"#utility.yul\":7566:7567   */\n      0x04\n        /* \"#utility.yul\":7559:7574   */\n      mstore\n        /* \"#utility.yul\":7593:7597   */\n      0x24\n        /* \"#utility.yul\":7590:7591   */\n      0x00\n        /* \"#utility.yul\":7583:7598   */\n      revert\n        /* \"#utility.yul\":7610:7891   */\n    tag_235:\n        /* \"#utility.yul\":7693:7720   */\n      tag_359\n        /* \"#utility.yul\":7715:7719   */\n      dup3\n        /* \"#utility.yul\":7693:7720   */\n      tag_233\n      jump\t// in\n    tag_359:\n        /* \"#utility.yul\":7685:7691   */\n      dup2\n        /* \"#utility.yul\":7681:7721   */\n      add\n        /* \"#utility.yul\":7823:7829   */\n      dup2\n        /* \"#utility.yul\":7811:7821   */\n      dup2\n        /* \"#utility.yul\":7808:7830   */\n      lt\n        /* \"#utility.yul\":7787:7805   */\n      0xffffffffffffffff\n        /* \"#utility.yul\":7775:7785   */\n      dup3\n        /* \"#utility.yul\":7772:7806   */\n      gt\n        /* \"#utility.yul\":7769:7831   */\n      or\n        /* \"#utility.yul\":7766:7854   */\n      iszero\n      tag_360\n      jumpi\n        /* \"#utility.yul\":7834:7852   */\n      tag_361\n      tag_234\n      jump\t// in\n    tag_361:\n        /* \"#utility.yul\":7766:7854   */\n    tag_360:\n        /* \"#utility.yul\":7874:7884   */\n      dup1\n        /* \"#utility.yul\":7870:7872   */\n      0x40\n        /* \"#utility.yul\":7863:7885   */\n      mstore\n        /* \"#utility.yul\":7653:7891   */\n      pop\n        /* \"#utility.yul\":7610:7891   */\n      pop\n      pop\n      jump\t// out\n        /* \"#utility.yul\":7897:8026   */\n    tag_236:\n        /* \"#utility.yul\":7931:7937   */\n      0x00\n        /* \"#utility.yul\":7958:7978   */\n      tag_363\n      tag_204\n      jump\t// in\n    tag_363:\n        /* \"#utility.yul\":7948:7978   */\n      swap1\n      pop\n        /* \"#utility.yul\":7987:8020   */\n      tag_364\n        /* \"#utility.yul\":8015:8019   */\n      dup3\n        /* \"#utility.yul\":8007:8013   */\n      dup3\n        /* \"#utility.yul\":7987:8020   */\n      tag_235\n      jump\t// in\n    tag_364:\n        /* \"#utility.yul\":7897:8026   */\n      swap2\n      swap1\n      pop\n      jump\t// out\n        /* \"#utility.yul\":8032:8343   */\n    tag_237:\n        /* \"#utility.yul\":8109:8113   */\n      0x00\n        /* \"#utility.yul\":8199:8217   */\n      0xffffffffffffffff\n        /* \"#utility.yul\":8191:8197   */\n      dup3\n        /* \"#utility.yul\":8188:8218   */\n      gt\n        /* \"#utility.yul\":8185:8241   */\n      iszero\n      tag_366\n      jumpi\n        /* \"#utility.yul\":8221:8239   */\n      tag_367\n      tag_234\n      jump\t// in\n    tag_367:\n        /* \"#utility.yul\":8185:8241   */\n    tag_366:\n        /* \"#utility.yul\":8271:8275   */\n      0x20\n        /* \"#utility.yul\":8263:8269   */\n      dup3\n        /* \"#utility.yul\":8259:8276   */\n      mul\n        /* \"#utility.yul\":8251:8276   */\n      swap1\n      pop\n        /* \"#utility.yul\":8331:8335   */\n      0x20\n        /* \"#utility.yul\":8325:8329   */\n      dup2\n        /* \"#utility.yul\":8321:8336   */\n      add\n        /* \"#utility.yul\":8313:8336   */\n      swap1\n      pop\n        /* \"#utility.yul\":8032:8343   */\n      swap2\n      swap1\n      pop\n      jump\t// out\n        /* \"#utility.yul\":8349:8466   */\n    tag_238:\n        /* \"#utility.yul\":8458:8459   */\n      0x00\n        /* \"#utility.yul\":8455:8456   */\n      dup1\n        /* \"#utility.yul\":8448:8460   */\n      revert\n        /* \"#utility.yul\":8489:9199   */\n    tag_239:\n        /* \"#utility.yul\":8585:8590   */\n      0x00\n        /* \"#utility.yul\":8610:8691   */\n      tag_370\n        /* \"#utility.yul\":8626:8690   */\n      tag_371\n        /* \"#utility.yul\":8683:8689   */\n      dup5\n        /* \"#utility.yul\":8626:8690   */\n      tag_237\n      jump\t// in\n    tag_371:\n        /* \"#utility.yul\":8610:8691   */\n      tag_236\n      jump\t// in\n    tag_370:\n        /* \"#utility.yul\":8601:8691   */\n      swap1\n      pop\n        /* \"#utility.yul\":8711:8716   */\n      dup1\n        /* \"#utility.yul\":8740:8746   */\n      dup4\n        /* \"#utility.yul\":8733:8738   */\n      dup3\n        /* \"#utility.yul\":8726:8747   */\n      mstore\n        /* \"#utility.yul\":8774:8778   */\n      0x20\n        /* \"#utility.yul\":8767:8772   */\n      dup3\n        /* \"#utility.yul\":8763:8779   */\n      add\n        /* \"#utility.yul\":8756:8779   */\n      swap1\n      pop\n        /* \"#utility.yul\":8827:8831   */\n      0x20\n        /* \"#utility.yul\":8819:8825   */\n      dup5\n        /* \"#utility.yul\":8815:8832   */\n      mul\n        /* \"#utility.yul\":8807:8813   */\n      dup4\n        /* \"#utility.yul\":8803:8833   */\n      add\n        /* \"#utility.yul\":8856:8859   */\n      dup6\n        /* \"#utility.yul\":8848:8854   */\n      dup2\n        /* \"#utility.yul\":8845:8860   */\n      gt\n        /* \"#utility.yul\":8842:8964   */\n      iszero\n      tag_372\n      jumpi\n        /* \"#utility.yul\":8875:8954   */\n      tag_373\n      tag_238\n      jump\t// in\n    tag_373:\n        /* \"#utility.yul\":8842:8964   */\n    tag_372:\n        /* \"#utility.yul\":8990:8996   */\n      dup4\n        /* \"#utility.yul\":8973:9193   */\n    tag_374:\n        /* \"#utility.yul\":9007:9013   */\n      dup2\n        /* \"#utility.yul\":9002:9005   */\n      dup2\n        /* \"#utility.yul\":8999:9014   */\n      lt\n        /* \"#utility.yul\":8973:9193   */\n      iszero\n      tag_376\n      jumpi\n        /* \"#utility.yul\":9082:9085   */\n      dup1\n        /* \"#utility.yul\":9111:9148   */\n      tag_377\n        /* \"#utility.yul\":9144:9147   */\n      dup9\n        /* \"#utility.yul\":9132:9142   */\n      dup3\n        /* \"#utility.yul\":9111:9148   */\n      tag_209\n      jump\t// in\n    tag_377:\n        /* \"#utility.yul\":9106:9109   */\n      dup5\n        /* \"#utility.yul\":9099:9149   */\n      mstore\n        /* \"#utility.yul\":9178:9182   */\n      0x20\n        /* \"#utility.yul\":9173:9176   */\n      dup5\n        /* \"#utility.yul\":9169:9183   */\n      add\n        /* \"#utility.yul\":9162:9183   */\n      swap4\n      pop\n        /* \"#utility.yul\":9049:9193   */\n      pop\n        /* \"#utility.yul\":9033:9037   */\n      0x20\n        /* \"#utility.yul\":9028:9031   */\n      dup2\n        /* \"#utility.yul\":9024:9038   */\n      add\n        /* \"#utility.yul\":9017:9038   */\n      swap1\n      pop\n        /* \"#utility.yul\":8973:9193   */\n      jump(tag_374)\n    tag_376:\n        /* \"#utility.yul\":8977:8998   */\n      pop\n        /* \"#utility.yul\":8591:9199   */\n      pop\n      pop\n        /* \"#utility.yul\":8489:9199   */\n      swap4\n      swap3\n      pop\n      pop\n      pop\n      jump\t// out\n        /* \"#utility.yul\":9222:9592   */\n    tag_240:\n        /* \"#utility.yul\":9293:9298   */\n      0x00\n        /* \"#utility.yul\":9342:9345   */\n      dup3\n        /* \"#utility.yul\":9335:9339   */\n      0x1f\n        /* \"#utility.yul\":9327:9333   */\n      dup4\n        /* \"#utility.yul\":9323:9340   */\n      add\n        /* \"#utility.yul\":9319:9346   */\n      slt\n        /* \"#utility.yul\":9309:9431   */\n      tag_379\n      jumpi\n        /* \"#utility.yul\":9350:9429   */\n      tag_380\n      tag_232\n      jump\t// in\n    tag_380:\n        /* \"#utility.yul\":9309:9431   */\n    tag_379:\n        /* \"#utility.yul\":9467:9473   */\n      dup2\n        /* \"#utility.yul\":9454:9474   */\n      calldataload\n        /* \"#utility.yul\":9492:9586   */\n      tag_381\n        /* \"#utility.yul\":9582:9585   */\n      dup5\n        /* \"#utility.yul\":9574:9580   */\n      dup3\n        /* \"#utility.yul\":9567:9571   */\n      0x20\n        /* \"#utility.yul\":9559:9565   */\n      dup7\n        /* \"#utility.yul\":9555:9572   */\n      add\n        /* \"#utility.yul\":9492:9586   */\n      tag_239\n      jump\t// in\n    tag_381:\n        /* \"#utility.yul\":9483:9586   */\n      swap2\n      pop\n        /* \"#utility.yul\":9299:9592   */\n      pop\n        /* \"#utility.yul\":9222:9592   */\n      swap3\n      swap2\n      pop\n      pop\n      jump\t// out\n        /* \"#utility.yul\":9598:9909   */\n    tag_241:\n        /* \"#utility.yul\":9675:9679   */\n      0x00\n        /* \"#utility.yul\":9765:9783   */\n      0xffffffffffffffff\n        /* \"#utility.yul\":9757:9763   */\n      dup3\n        /* \"#utility.yul\":9754:9784   */\n      gt\n        /* \"#utility.yul\":9751:9807   */\n      iszero\n      tag_383\n      jumpi\n        /* \"#utility.yul\":9787:9805   */\n      tag_384\n      tag_234\n      jump\t// in\n    tag_384:\n        /* \"#utility.yul\":9751:9807   */\n    tag_383:\n        /* \"#utility.yul\":9837:9841   */\n      0x20\n        /* \"#utility.yul\":9829:9835   */\n      dup3\n        /* \"#utility.yul\":9825:9842   */\n      mul\n        /* \"#utility.yul\":9817:9842   */\n      swap1\n      pop\n        /* \"#utility.yul\":9897:9901   */\n      0x20\n        /* \"#utility.yul\":9891:9895   */\n      dup2\n        /* \"#utility.yul\":9887:9902   */\n      add\n        /* \"#utility.yul\":9879:9902   */\n      swap1\n      pop\n        /* \"#utility.yul\":9598:9909   */\n      swap2\n      swap1\n      pop\n      jump\t// out\n        /* \"#utility.yul\":9932:10642   */\n    tag_242:\n        /* \"#utility.yul\":10028:10033   */\n      0x00\n        /* \"#utility.yul\":10053:10134   */\n      tag_386\n        /* \"#utility.yul\":10069:10133   */\n      tag_387\n        /* \"#utility.yul\":10126:10132   */\n      dup5\n        /* \"#utility.yul\":10069:10133   */\n      tag_241\n      jump\t// in\n    tag_387:\n        /* \"#utility.yul\":10053:10134   */\n      tag_236\n      jump\t// in\n    tag_386:\n        /* \"#utility.yul\":10044:10134   */\n      swap1\n      pop\n        /* \"#utility.yul\":10154:10159   */\n      dup1\n        /* \"#utility.yul\":10183:10189   */\n      dup4\n        /* \"#utility.yul\":10176:10181   */\n      dup3\n        /* \"#utility.yul\":10169:10190   */\n      mstore\n        /* \"#utility.yul\":10217:10221   */\n      0x20\n        /* \"#utility.yul\":10210:10215   */\n      dup3\n        /* \"#utility.yul\":10206:10222   */\n      add\n        /* \"#utility.yul\":10199:10222   */\n      swap1\n      pop\n        /* \"#utility.yul\":10270:10274   */\n      0x20\n        /* \"#utility.yul\":10262:10268   */\n      dup5\n        /* \"#utility.yul\":10258:10275   */\n      mul\n        /* \"#utility.yul\":10250:10256   */\n      dup4\n        /* \"#utility.yul\":10246:10276   */\n      add\n        /* \"#utility.yul\":10299:10302   */\n      dup6\n        /* \"#utility.yul\":10291:10297   */\n      dup2\n        /* \"#utility.yul\":10288:10303   */\n      gt\n        /* \"#utility.yul\":10285:10407   */\n      iszero\n      tag_388\n      jumpi\n        /* \"#utility.yul\":10318:10397   */\n      tag_389\n      tag_238\n      jump\t// in\n    tag_389:\n        /* \"#utility.yul\":10285:10407   */\n    tag_388:\n        /* \"#utility.yul\":10433:10439   */\n      dup4\n        /* \"#utility.yul\":10416:10636   */\n    tag_390:\n        /* \"#utility.yul\":10450:10456   */\n      dup2\n        /* \"#utility.yul\":10445:10448   */\n      dup2\n        /* \"#utility.yul\":10442:10457   */\n      lt\n        /* \"#utility.yul\":10416:10636   */\n      iszero\n      tag_392\n      jumpi\n        /* \"#utility.yul\":10525:10528   */\n      dup1\n        /* \"#utility.yul\":10554:10591   */\n      tag_393\n        /* \"#utility.yul\":10587:10590   */\n      dup9\n        /* \"#utility.yul\":10575:10585   */\n      dup3\n        /* \"#utility.yul\":10554:10591   */\n      tag_231\n      jump\t// in\n    tag_393:\n        /* \"#utility.yul\":10549:10552   */\n      dup5\n        /* \"#utility.yul\":10542:10592   */\n      mstore\n        /* \"#utility.yul\":10621:10625   */\n      0x20\n        /* \"#utility.yul\":10616:10619   */\n      dup5\n        /* \"#utility.yul\":10612:10626   */\n      add\n        /* \"#utility.yul\":10605:10626   */\n      swap4\n      pop\n        /* \"#utility.yul\":10492:10636   */\n      pop\n        /* \"#utility.yul\":10476:10480   */\n      0x20\n        /* \"#utility.yul\":10471:10474   */\n      dup2\n        /* \"#utility.yul\":10467:10481   */\n      add\n        /* \"#utility.yul\":10460:10481   */\n      swap1\n      pop\n        /* \"#utility.yul\":10416:10636   */\n      jump(tag_390)\n    tag_392:\n        /* \"#utility.yul\":10420:10441   */\n      pop\n        /* \"#utility.yul\":10034:10642   */\n      pop\n      pop\n        /* \"#utility.yul\":9932:10642   */\n      swap4\n      swap3\n      pop\n      pop\n      pop\n      jump\t// out\n        /* \"#utility.yul\":10665:11035   */\n    tag_243:\n        /* \"#utility.yul\":10736:10741   */\n      0x00\n        /* \"#utility.yul\":10785:10788   */\n      dup3\n        /* \"#utility.yul\":10778:10782   */\n      0x1f\n        /* \"#utility.yul\":10770:10776   */\n      dup4\n        /* \"#utility.yul\":10766:10783   */\n      add\n        /* \"#utility.yul\":10762:10789   */\n      slt\n        /* \"#utility.yul\":10752:10874   */\n      tag_395\n      jumpi\n        /* \"#utility.yul\":10793:10872   */\n      tag_396\n      tag_232\n      jump\t// in\n    tag_396:\n        /* \"#utility.yul\":10752:10874   */\n    tag_395:\n        /* \"#utility.yul\":10910:10916   */\n      dup2\n        /* \"#utility.yul\":10897:10917   */\n      calldataload\n        /* \"#utility.yul\":10935:11029   */\n      tag_397\n        /* \"#utility.yul\":11025:11028   */\n      dup5\n        /* \"#utility.yul\":11017:11023   */\n      dup3\n        /* \"#utility.yul\":11010:11014   */\n      0x20\n        /* \"#utility.yul\":11002:11008   */\n      dup7\n        /* \"#utility.yul\":10998:11015   */\n      add\n        /* \"#utility.yul\":10935:11029   */\n      tag_242\n      jump\t// in\n    tag_397:\n        /* \"#utility.yul\":10926:11029   */\n      swap2\n      pop\n        /* \"#utility.yul\":10742:11035   */\n      pop\n        /* \"#utility.yul\":10665:11035   */\n      swap3\n      swap2\n      pop\n      pop\n      jump\t// out\n        /* \"#utility.yul\":11041:12728   */\n    tag_34:\n        /* \"#utility.yul\":11220:11226   */\n      0x00\n        /* \"#utility.yul\":11228:11234   */\n      dup1\n        /* \"#utility.yul\":11236:11242   */\n      0x00\n        /* \"#utility.yul\":11244:11250   */\n      dup1\n        /* \"#utility.yul\":11252:11258   */\n      0x00\n        /* \"#utility.yul\":11260:11266   */\n      dup1\n        /* \"#utility.yul\":11309:11312   */\n      0xc0\n        /* \"#utility.yul\":11297:11306   */\n      dup8\n        /* \"#utility.yul\":11288:11295   */\n      dup10\n        /* \"#utility.yul\":11284:11307   */\n      sub\n        /* \"#utility.yul\":11280:11313   */\n      slt\n        /* \"#utility.yul\":11277:11397   */\n      iszero\n      tag_399\n      jumpi\n        /* \"#utility.yul\":11316:11395   */\n      tag_400\n      tag_205\n      jump\t// in\n    tag_400:\n        /* \"#utility.yul\":11277:11397   */\n    tag_399:\n        /* \"#utility.yul\":11436:11437   */\n      0x00\n        /* \"#utility.yul\":11461:11514   */\n      tag_401\n        /* \"#utility.yul\":11506:11513   */\n      dup10\n        /* \"#utility.yul\":11497:11503   */\n      dup3\n        /* \"#utility.yul\":11486:11495   */\n      dup11\n        /* \"#utility.yul\":11482:11504   */\n      add\n        /* \"#utility.yul\":11461:11514   */\n      tag_231\n      jump\t// in\n    tag_401:\n        /* \"#utility.yul\":11451:11514   */\n      swap7\n      pop\n        /* \"#utility.yul\":11407:11524   */\n      pop\n        /* \"#utility.yul\":11563:11565   */\n      0x20\n        /* \"#utility.yul\":11589:11642   */\n      tag_402\n        /* \"#utility.yul\":11634:11641   */\n      dup10\n        /* \"#utility.yul\":11625:11631   */\n      dup3\n        /* \"#utility.yul\":11614:11623   */\n      dup11\n        /* \"#utility.yul\":11610:11632   */\n      add\n        /* \"#utility.yul\":11589:11642   */\n      tag_209\n      jump\t// in\n    tag_402:\n        /* \"#utility.yul\":11579:11642   */\n      swap6\n      pop\n        /* \"#utility.yul\":11534:11652   */\n      pop\n        /* \"#utility.yul\":11691:11693   */\n      0x40\n        /* \"#utility.yul\":11717:11770   */\n      tag_403\n        /* \"#utility.yul\":11762:11769   */\n      dup10\n        /* \"#utility.yul\":11753:11759   */\n      dup3\n        /* \"#utility.yul\":11742:11751   */\n      dup11\n        /* \"#utility.yul\":11738:11760   */\n      add\n        /* \"#utility.yul\":11717:11770   */\n      tag_209\n      jump\t// in\n    tag_403:\n        /* \"#utility.yul\":11707:11770   */\n      swap5\n      pop\n        /* \"#utility.yul\":11662:11780   */\n      pop\n        /* \"#utility.yul\":11847:11849   */\n      0x60\n        /* \"#utility.yul\":11836:11845   */\n      dup8\n        /* \"#utility.yul\":11832:11850   */\n      add\n        /* \"#utility.yul\":11819:11851   */\n      calldataload\n        /* \"#utility.yul\":11878:11896   */\n      0xffffffffffffffff\n        /* \"#utility.yul\":11870:11876   */\n      dup2\n        /* \"#utility.yul\":11867:11897   */\n      gt\n        /* \"#utility.yul\":11864:11981   */\n      iszero\n      tag_404\n      jumpi\n        /* \"#utility.yul\":11900:11979   */\n      tag_405\n      tag_206\n      jump\t// in\n    tag_405:\n        /* \"#utility.yul\":11864:11981   */\n    tag_404:\n        /* \"#utility.yul\":12005:12083   */\n      tag_406\n        /* \"#utility.yul\":12075:12082   */\n      dup10\n        /* \"#utility.yul\":12066:12072   */\n      dup3\n        /* \"#utility.yul\":12055:12064   */\n      dup11\n        /* \"#utility.yul\":12051:12073   */\n      add\n        /* \"#utility.yul\":12005:12083   */\n      tag_240\n      jump\t// in\n    tag_406:\n        /* \"#utility.yul\":11995:12083   */\n      swap4\n      pop\n        /* \"#utility.yul\":11790:12093   */\n      pop\n        /* \"#utility.yul\":12160:12163   */\n      0x80\n        /* \"#utility.yul\":12149:12158   */\n      dup8\n        /* \"#utility.yul\":12145:12164   */\n      add\n        /* \"#utility.yul\":12132:12165   */\n      calldataload\n        /* \"#utility.yul\":12192:12210   */\n      0xffffffffffffffff\n        /* \"#utility.yul\":12184:12190   */\n      dup2\n        /* \"#utility.yul\":12181:12211   */\n      gt\n        /* \"#utility.yul\":12178:12295   */\n      iszero\n      tag_407\n      jumpi\n        /* \"#utility.yul\":12214:12293   */\n      tag_408\n      tag_206\n      jump\t// in\n    tag_408:\n        /* \"#utility.yul\":12178:12295   */\n    tag_407:\n        /* \"#utility.yul\":12319:12397   */\n      tag_409\n        /* \"#utility.yul\":12389:12396   */\n      dup10\n        /* \"#utility.yul\":12380:12386   */\n      dup3\n        /* \"#utility.yul\":12369:12378   */\n      dup11\n        /* \"#utility.yul\":12365:12387   */\n      add\n        /* \"#utility.yul\":12319:12397   */\n      tag_243\n      jump\t// in\n    tag_409:\n        /* \"#utility.yul\":12309:12397   */\n      swap3\n      pop\n        /* \"#utility.yul\":12103:12407   */\n      pop\n        /* \"#utility.yul\":12474:12477   */\n      0xa0\n        /* \"#utility.yul\":12463:12472   */\n      dup8\n        /* \"#utility.yul\":12459:12478   */\n      add\n        /* \"#utility.yul\":12446:12479   */\n      calldataload\n        /* \"#utility.yul\":12506:12524   */\n      0xffffffffffffffff\n        /* \"#utility.yul\":12498:12504   */\n      dup2\n        /* \"#utility.yul\":12495:12525   */\n      gt\n        /* \"#utility.yul\":12492:12609   */\n      iszero\n      tag_410\n      jumpi\n        /* \"#utility.yul\":12528:12607   */\n      tag_411\n      tag_206\n      jump\t// in\n    tag_411:\n        /* \"#utility.yul\":12492:12609   */\n    tag_410:\n        /* \"#utility.yul\":12633:12711   */\n      tag_412\n        /* \"#utility.yul\":12703:12710   */\n      dup10\n        /* \"#utility.yul\":12694:12700   */\n      dup3\n        /* \"#utility.yul\":12683:12692   */\n      dup11\n        /* \"#utility.yul\":12679:12701   */\n      add\n        /* \"#utility.yul\":12633:12711   */\n      tag_240\n      jump\t// in\n    tag_412:\n        /* \"#utility.yul\":12623:12711   */\n      swap2\n      pop\n        /* \"#utility.yul\":12417:12721   */\n      pop\n        /* \"#utility.yul\":11041:12728   */\n      swap3\n      swap6\n      pop\n      swap3\n      swap6\n      pop\n      swap3\n      swap6\n      jump\t// out\n        /* \"#utility.yul\":12734:12850   */\n    tag_244:\n        /* \"#utility.yul\":12804:12825   */\n      tag_414\n        /* \"#utility.yul\":12819:12824   */\n      dup2\n        /* \"#utility.yul\":12804:12825   */\n      tag_214\n      jump\t// in\n    tag_414:\n        /* \"#utility.yul\":12797:12802   */\n      dup2\n        /* \"#utility.yul\":12794:12826   */\n      eq\n        /* \"#utility.yul\":12784:12844   */\n      tag_415\n      jumpi\n        /* \"#utility.yul\":12840:12841   */\n      0x00\n        /* \"#utility.yul\":12837:12838   */\n      dup1\n        /* \"#utility.yul\":12830:12842   */\n      revert\n        /* \"#utility.yul\":12784:12844   */\n    tag_415:\n        /* \"#utility.yul\":12734:12850   */\n      pop\n      jump\t// out\n        /* \"#utility.yul\":12856:12989   */\n    tag_245:\n        /* \"#utility.yul\":12899:12904   */\n      0x00\n        /* \"#utility.yul\":12937:12943   */\n      dup2\n        /* \"#utility.yul\":12924:12944   */\n      calldataload\n        /* \"#utility.yul\":12915:12944   */\n      swap1\n      pop\n        /* \"#utility.yul\":12953:12983   */\n      tag_417\n        /* \"#utility.yul\":12977:12982   */\n      dup2\n        /* \"#utility.yul\":12953:12983   */\n      tag_244\n      jump\t// in\n    tag_417:\n        /* \"#utility.yul\":12856:12989   */\n      swap3\n      swap2\n      pop\n      pop\n      jump\t// out\n        /* \"#utility.yul\":12995:13318   */\n    tag_43:\n        /* \"#utility.yul\":13051:13057   */\n      0x00\n        /* \"#utility.yul\":13100:13102   */\n      0x20\n        /* \"#utility.yul\":13088:13097   */\n      dup3\n        /* \"#utility.yul\":13079:13086   */\n      dup5\n        /* \"#utility.yul\":13075:13098   */\n      sub\n        /* \"#utility.yul\":13071:13103   */\n      slt\n        /* \"#utility.yul\":13068:13187   */\n      iszero\n      tag_419\n      jumpi\n        /* \"#utility.yul\":13106:13185   */\n      tag_420\n      tag_205\n      jump\t// in\n    tag_420:\n        /* \"#utility.yul\":13068:13187   */\n    tag_419:\n        /* \"#utility.yul\":13226:13227   */\n      0x00\n        /* \"#utility.yul\":13251:13301   */\n      tag_421\n        /* \"#utility.yul\":13293:13300   */\n      dup5\n        /* \"#utility.yul\":13284:13290   */\n      dup3\n        /* \"#utility.yul\":13273:13282   */\n      dup6\n        /* \"#utility.yul\":13269:13291   */\n      add\n        /* \"#utility.yul\":13251:13301   */\n      tag_245\n      jump\t// in\n    tag_421:\n        /* \"#utility.yul\":13241:13301   */\n      swap2\n      pop\n        /* \"#utility.yul\":13197:13311   */\n      pop\n        /* \"#utility.yul\":12995:13318   */\n      swap3\n      swap2\n      pop\n      pop\n      jump\t// out\n        /* \"#utility.yul\":13324:13403   */\n    tag_246:\n        /* \"#utility.yul\":13363:13370   */\n      0x00\n        /* \"#utility.yul\":13392:13397   */\n      dup2\n        /* \"#utility.yul\":13381:13397   */\n      swap1\n      pop\n        /* \"#utility.yul\":13324:13403   */\n      swap2\n      swap1\n      pop\n      jump\t// out\n        /* \"#utility.yul\":13409:13566   */\n    tag_247:\n        /* \"#utility.yul\":13514:13559   */\n      tag_424\n        /* \"#utility.yul\":13534:13558   */\n      tag_425\n        /* \"#utility.yul\":13552:13557   */\n      dup3\n        /* \"#utility.yul\":13534:13558   */\n      tag_207\n      jump\t// in\n    tag_425:\n        /* \"#utility.yul\":13514:13559   */\n      tag_246\n      jump\t// in\n    tag_424:\n        /* \"#utility.yul\":13509:13512   */\n      dup3\n        /* \"#utility.yul\":13502:13560   */\n      mstore\n        /* \"#utility.yul\":13409:13566   */\n      pop\n      pop\n      jump\t// out\n        /* \"#utility.yul\":13572:13666   */\n    tag_248:\n        /* \"#utility.yul\":13605:13613   */\n      0x00\n        /* \"#utility.yul\":13653:13658   */\n      dup2\n        /* \"#utility.yul\":13649:13651   */\n      0x60\n        /* \"#utility.yul\":13645:13659   */\n      shl\n        /* \"#utility.yul\":13624:13659   */\n      swap1\n      pop\n        /* \"#utility.yul\":13572:13666   */\n      swap2\n      swap1\n      pop\n      jump\t// out\n        /* \"#utility.yul\":13672:13766   */\n    tag_249:\n        /* \"#utility.yul\":13711:13718   */\n      0x00\n        /* \"#utility.yul\":13740:13760   */\n      tag_428\n        /* \"#utility.yul\":13754:13759   */\n      dup3\n        /* \"#utility.yul\":13740:13760   */\n      tag_248\n      jump\t// in\n    tag_428:\n        /* \"#utility.yul\":13729:13760   */\n      swap1\n      pop\n        /* \"#utility.yul\":13672:13766   */\n      swap2\n      swap1\n      pop\n      jump\t// out\n        /* \"#utility.yul\":13772:13872   */\n    tag_250:\n        /* \"#utility.yul\":13811:13818   */\n      0x00\n        /* \"#utility.yul\":13840:13866   */\n      tag_430\n        /* \"#utility.yul\":13860:13865   */\n      dup3\n        /* \"#utility.yul\":13840:13866   */\n      tag_249\n      jump\t// in\n    tag_430:\n        /* \"#utility.yul\":13829:13866   */\n      swap1\n      pop\n        /* \"#utility.yul\":13772:13872   */\n      swap2\n      swap1\n      pop\n      jump\t// out\n        /* \"#utility.yul\":13878:14035   */\n    tag_251:\n        /* \"#utility.yul\":13983:14028   */\n      tag_432\n        /* \"#utility.yul\":14003:14027   */\n      tag_433\n        /* \"#utility.yul\":14021:14026   */\n      dup3\n        /* \"#utility.yul\":14003:14027   */\n      tag_211\n      jump\t// in\n    tag_433:\n        /* \"#utility.yul\":13983:14028   */\n      tag_250\n      jump\t// in\n    tag_432:\n        /* \"#utility.yul\":13978:13981   */\n      dup3\n        /* \"#utility.yul\":13971:14029   */\n      mstore\n        /* \"#utility.yul\":13878:14035   */\n      pop\n      pop\n      jump\t// out\n        /* \"#utility.yul\":14041:14438   */\n    tag_59:\n        /* \"#utility.yul\":14181:14184   */\n      0x00\n        /* \"#utility.yul\":14196:14271   */\n      tag_435\n        /* \"#utility.yul\":14267:14270   */\n      dup3\n        /* \"#utility.yul\":14258:14264   */\n      dup6\n        /* \"#utility.yul\":14196:14271   */\n      tag_247\n      jump\t// in\n    tag_435:\n        /* \"#utility.yul\":14296:14298   */\n      0x20\n        /* \"#utility.yul\":14291:14294   */\n      dup3\n        /* \"#utility.yul\":14287:14299   */\n      add\n        /* \"#utility.yul\":14280:14299   */\n      swap2\n      pop\n        /* \"#utility.yul\":14309:14384   */\n      tag_436\n        /* \"#utility.yul\":14380:14383   */\n      dup3\n        /* \"#utility.yul\":14371:14377   */\n      dup5\n        /* \"#utility.yul\":14309:14384   */\n      tag_251\n      jump\t// in\n    tag_436:\n        /* \"#utility.yul\":14409:14411   */\n      0x14\n        /* \"#utility.yul\":14404:14407   */\n      dup3\n        /* \"#utility.yul\":14400:14412   */\n      add\n        /* \"#utility.yul\":14393:14412   */\n      swap2\n      pop\n        /* \"#utility.yul\":14429:14432   */\n      dup2\n        /* \"#utility.yul\":14422:14432   */\n      swap1\n      pop\n        /* \"#utility.yul\":14041:14438   */\n      swap4\n      swap3\n      pop\n      pop\n      pop\n      jump\t// out\n        /* \"#utility.yul\":14444:14521   */\n    tag_252:\n        /* \"#utility.yul\":14481:14488   */\n      0x00\n        /* \"#utility.yul\":14510:14515   */\n      dup2\n        /* \"#utility.yul\":14499:14515   */\n      swap1\n      pop\n        /* \"#utility.yul\":14444:14521   */\n      swap2\n      swap1\n      pop\n      jump\t// out\n        /* \"#utility.yul\":14527:14645   */\n    tag_253:\n        /* \"#utility.yul\":14614:14638   */\n      tag_439\n        /* \"#utility.yul\":14632:14637   */\n      dup2\n        /* \"#utility.yul\":14614:14638   */\n      tag_252\n      jump\t// in\n    tag_439:\n        /* \"#utility.yul\":14609:14612   */\n      dup3\n        /* \"#utility.yul\":14602:14639   */\n      mstore\n        /* \"#utility.yul\":14527:14645   */\n      pop\n      pop\n      jump\t// out\n        /* \"#utility.yul\":14651:15315   */\n    tag_61:\n        /* \"#utility.yul\":14856:14860   */\n      0x00\n        /* \"#utility.yul\":14894:14897   */\n      0xa0\n        /* \"#utility.yul\":14883:14892   */\n      dup3\n        /* \"#utility.yul\":14879:14898   */\n      add\n        /* \"#utility.yul\":14871:14898   */\n      swap1\n      pop\n        /* \"#utility.yul\":14908:14979   */\n      tag_441\n        /* \"#utility.yul\":14976:14977   */\n      0x00\n        /* \"#utility.yul\":14965:14974   */\n      dup4\n        /* \"#utility.yul\":14961:14978   */\n      add\n        /* \"#utility.yul\":14952:14958   */\n      dup9\n        /* \"#utility.yul\":14908:14979   */\n      tag_212\n      jump\t// in\n    tag_441:\n        /* \"#utility.yul\":14989:15061   */\n      tag_442\n        /* \"#utility.yul\":15057:15059   */\n      0x20\n        /* \"#utility.yul\":15046:15055   */\n      dup4\n        /* \"#utility.yul\":15042:15060   */\n      add\n        /* \"#utility.yul\":15033:15039   */\n      dup8\n        /* \"#utility.yul\":14989:15061   */\n      tag_213\n      jump\t// in\n    tag_442:\n        /* \"#utility.yul\":15071:15143   */\n      tag_443\n        /* \"#utility.yul\":15139:15141   */\n      0x40\n        /* \"#utility.yul\":15128:15137   */\n      dup4\n        /* \"#utility.yul\":15124:15142   */\n      add\n        /* \"#utility.yul\":15115:15121   */\n      dup7\n        /* \"#utility.yul\":15071:15143   */\n      tag_253\n      jump\t// in\n    tag_443:\n        /* \"#utility.yul\":15153:15225   */\n      tag_444\n        /* \"#utility.yul\":15221:15223   */\n      0x60\n        /* \"#utility.yul\":15210:15219   */\n      dup4\n        /* \"#utility.yul\":15206:15224   */\n      add\n        /* \"#utility.yul\":15197:15203   */\n      dup6\n        /* \"#utility.yul\":15153:15225   */\n      tag_253\n      jump\t// in\n    tag_444:\n        /* \"#utility.yul\":15235:15308   */\n      tag_445\n        /* \"#utility.yul\":15303:15306   */\n      0x80\n        /* \"#utility.yul\":15292:15301   */\n      dup4\n        /* \"#utility.yul\":15288:15307   */\n      add\n        /* \"#utility.yul\":15279:15285   */\n      dup5\n        /* \"#utility.yul\":15235:15308   */\n      tag_213\n      jump\t// in\n    tag_445:\n        /* \"#utility.yul\":14651:15315   */\n      swap7\n      swap6\n      pop\n      pop\n      pop\n      pop\n      pop\n      pop\n      jump\t// out\n        /* \"#utility.yul\":15321:15490   */\n    tag_254:\n        /* \"#utility.yul\":15405:15416   */\n      0x00\n        /* \"#utility.yul\":15439:15445   */\n      dup3\n        /* \"#utility.yul\":15434:15437   */\n      dup3\n        /* \"#utility.yul\":15427:15446   */\n      mstore\n        /* \"#utility.yul\":15479:15483   */\n      0x20\n        /* \"#utility.yul\":15474:15477   */\n      dup3\n        /* \"#utility.yul\":15470:15484   */\n      add\n        /* \"#utility.yul\":15455:15484   */\n      swap1\n      pop\n        /* \"#utility.yul\":15321:15490   */\n      swap3\n      swap2\n      pop\n      pop\n      jump\t// out\n        /* \"#utility.yul\":15496:15660   */\n    tag_255:\n        /* \"#utility.yul\":15636:15652   */\n      0x7072696365206d757374203e2030000000000000000000000000000000000000\n        /* \"#utility.yul\":15632:15633   */\n      0x00\n        /* \"#utility.yul\":15624:15630   */\n      dup3\n        /* \"#utility.yul\":15620:15634   */\n      add\n        /* \"#utility.yul\":15613:15653   */\n      mstore\n        /* \"#utility.yul\":15496:15660   */\n      pop\n      jump\t// out\n        /* \"#utility.yul\":15666:16032   */\n    tag_256:\n        /* \"#utility.yul\":15808:15811   */\n      0x00\n        /* \"#utility.yul\":15829:15896   */\n      tag_449\n        /* \"#utility.yul\":15893:15895   */\n      0x0e\n        /* \"#utility.yul\":15888:15891   */\n      dup4\n        /* \"#utility.yul\":15829:15896   */\n      tag_254\n      jump\t// in\n    tag_449:\n        /* \"#utility.yul\":15822:15896   */\n      swap2\n      pop\n        /* \"#utility.yul\":15905:15998   */\n      tag_450\n        /* \"#utility.yul\":15994:15997   */\n      dup3\n        /* \"#utility.yul\":15905:15998   */\n      tag_255\n      jump\t// in\n    tag_450:\n        /* \"#utility.yul\":16023:16025   */\n      0x20\n        /* \"#utility.yul\":16018:16021   */\n      dup3\n        /* \"#utility.yul\":16014:16026   */\n      add\n        /* \"#utility.yul\":16007:16026   */\n      swap1\n      pop\n        /* \"#utility.yul\":15666:16032   */\n      swap2\n      swap1\n      pop\n      jump\t// out\n        /* \"#utility.yul\":16038:16457   */\n    tag_67:\n        /* \"#utility.yul\":16204:16208   */\n      0x00\n        /* \"#utility.yul\":16242:16244   */\n      0x20\n        /* \"#utility.yul\":16231:16240   */\n      dup3\n        /* \"#utility.yul\":16227:16245   */\n      add\n        /* \"#utility.yul\":16219:16245   */\n      swap1\n      pop\n        /* \"#utility.yul\":16291:16300   */\n      dup2\n        /* \"#utility.yul\":16285:16289   */\n      dup2\n        /* \"#utility.yul\":16281:16301   */\n      sub\n        /* \"#utility.yul\":16277:16278   */\n      0x00\n        /* \"#utility.yul\":16266:16275   */\n      dup4\n        /* \"#utility.yul\":16262:16279   */\n      add\n        /* \"#utility.yul\":16255:16302   */\n      mstore\n        /* \"#utility.yul\":16319:16450   */\n      tag_452\n        /* \"#utility.yul\":16445:16449   */\n      dup2\n        /* \"#utility.yul\":16319:16450   */\n      tag_256\n      jump\t// in\n    tag_452:\n        /* \"#utility.yul\":16311:16450   */\n      swap1\n      pop\n        /* \"#utility.yul\":16038:16457   */\n      swap2\n      swap1\n      pop\n      jump\t// out\n        /* \"#utility.yul\":16463:16633   */\n    tag_257:\n        /* \"#utility.yul\":16603:16625   */\n      0x746f74616c537570706c79206d757374203e2030000000000000000000000000\n        /* \"#utility.yul\":16599:16600   */\n      0x00\n        /* \"#utility.yul\":16591:16597   */\n      dup3\n        /* \"#utility.yul\":16587:16601   */\n      add\n        /* \"#utility.yul\":16580:16626   */\n      mstore\n        /* \"#utility.yul\":16463:16633   */\n      pop\n      jump\t// out\n        /* \"#utility.yul\":16639:17005   */\n    tag_258:\n        /* \"#utility.yul\":16781:16784   */\n      0x00\n        /* \"#utility.yul\":16802:16869   */\n      tag_455\n        /* \"#utility.yul\":16866:16868   */\n      0x14\n        /* \"#utility.yul\":16861:16864   */\n      dup4\n        /* \"#utility.yul\":16802:16869   */\n      tag_254\n      jump\t// in\n    tag_455:\n        /* \"#utility.yul\":16795:16869   */\n      swap2\n      pop\n        /* \"#utility.yul\":16878:16971   */\n      tag_456\n        /* \"#utility.yul\":16967:16970   */\n      dup3\n        /* \"#utility.yul\":16878:16971   */\n      tag_257\n      jump\t// in\n    tag_456:\n        /* \"#utility.yul\":16996:16998   */\n      0x20\n        /* \"#utility.yul\":16991:16994   */\n      dup3\n        /* \"#utility.yul\":16987:16999   */\n      add\n        /* \"#utility.yul\":16980:16999   */\n      swap1\n      pop\n        /* \"#utility.yul\":16639:17005   */\n      swap2\n      swap1\n      pop\n      jump\t// out\n        /* \"#utility.yul\":17011:17430   */\n    tag_70:\n        /* \"#utility.yul\":17177:17181   */\n      0x00\n        /* \"#utility.yul\":17215:17217   */\n      0x20\n        /* \"#utility.yul\":17204:17213   */\n      dup3\n        /* \"#utility.yul\":17200:17218   */\n      add\n        /* \"#utility.yul\":17192:17218   */\n      swap1\n      pop\n        /* \"#utility.yul\":17264:17273   */\n      dup2\n        /* \"#utility.yul\":17258:17262   */\n      dup2\n        /* \"#utility.yul\":17254:17274   */\n      sub\n        /* \"#utility.yul\":17250:17251   */\n      0x00\n        /* \"#utility.yul\":17239:17248   */\n      dup4\n        /* \"#utility.yul\":17235:17252   */\n      add\n        /* \"#utility.yul\":17228:17275   */\n      mstore\n        /* \"#utility.yul\":17292:17423   */\n      tag_458\n        /* \"#utility.yul\":17418:17422   */\n      dup2\n        /* \"#utility.yul\":17292:17423   */\n      tag_258\n      jump\t// in\n    tag_458:\n        /* \"#utility.yul\":17284:17423   */\n      swap1\n      pop\n        /* \"#utility.yul\":17011:17430   */\n      swap2\n      swap1\n      pop\n      jump\t// out\n        /* \"#utility.yul\":17436:17605   */\n    tag_259:\n        /* \"#utility.yul\":17576:17597   */\n      0x696e636f727265637420706172616d6574657200000000000000000000000000\n        /* \"#utility.yul\":17572:17573   */\n      0x00\n        /* \"#utility.yul\":17564:17570   */\n      dup3\n        /* \"#utility.yul\":17560:17574   */\n      add\n        /* \"#utility.yul\":17553:17598   */\n      mstore\n        /* \"#utility.yul\":17436:17605   */\n      pop\n      jump\t// out\n        /* \"#utility.yul\":17611:17977   */\n    tag_260:\n        /* \"#utility.yul\":17753:17756   */\n      0x00\n        /* \"#utility.yul\":17774:17841   */\n      tag_461\n        /* \"#utility.yul\":17838:17840   */\n      0x13\n        /* \"#utility.yul\":17833:17836   */\n      dup4\n        /* \"#utility.yul\":17774:17841   */\n      tag_254\n      jump\t// in\n    tag_461:\n        /* \"#utility.yul\":17767:17841   */\n      swap2\n      pop\n        /* \"#utility.yul\":17850:17943   */\n      tag_462\n        /* \"#utility.yul\":17939:17942   */\n      dup3\n        /* \"#utility.yul\":17850:17943   */\n      tag_259\n      jump\t// in\n    tag_462:\n        /* \"#utility.yul\":17968:17970   */\n      0x20\n        /* \"#utility.yul\":17963:17966   */\n      dup3\n        /* \"#utility.yul\":17959:17971   */\n      add\n        /* \"#utility.yul\":17952:17971   */\n      swap1\n      pop\n        /* \"#utility.yul\":17611:17977   */\n      swap2\n      swap1\n      pop\n      jump\t// out\n        /* \"#utility.yul\":17983:18402   */\n    tag_75:\n        /* \"#utility.yul\":18149:18153   */\n      0x00\n        /* \"#utility.yul\":18187:18189   */\n      0x20\n        /* \"#utility.yul\":18176:18185   */\n      dup3\n        /* \"#utility.yul\":18172:18190   */\n      add\n        /* \"#utility.yul\":18164:18190   */\n      swap1\n      pop\n        /* \"#utility.yul\":18236:18245   */\n      dup2\n        /* \"#utility.yul\":18230:18234   */\n      dup2\n        /* \"#utility.yul\":18226:18246   */\n      sub\n        /* \"#utility.yul\":18222:18223   */\n      0x00\n        /* \"#utility.yul\":18211:18220   */\n      dup4\n        /* \"#utility.yul\":18207:18224   */\n      add\n        /* \"#utility.yul\":18200:18247   */\n      mstore\n        /* \"#utility.yul\":18264:18395   */\n      tag_464\n        /* \"#utility.yul\":18390:18394   */\n      dup2\n        /* \"#utility.yul\":18264:18395   */\n      tag_260\n      jump\t// in\n    tag_464:\n        /* \"#utility.yul\":18256:18395   */\n      swap1\n      pop\n        /* \"#utility.yul\":17983:18402   */\n      swap2\n      swap1\n      pop\n      jump\t// out\n        /* \"#utility.yul\":18408:18588   */\n    tag_84:\n        /* \"#utility.yul\":18456:18533   */\n      0x4e487b7100000000000000000000000000000000000000000000000000000000\n        /* \"#utility.yul\":18453:18454   */\n      0x00\n        /* \"#utility.yul\":18446:18534   */\n      mstore\n        /* \"#utility.yul\":18553:18557   */\n      0x32\n        /* \"#utility.yul\":18550:18551   */\n      0x04\n        /* \"#utility.yul\":18543:18558   */\n      mstore\n        /* \"#utility.yul\":18577:18581   */\n      0x24\n        /* \"#utility.yul\":18574:18575   */\n      0x00\n        /* \"#utility.yul\":18567:18582   */\n      revert\n        /* \"#utility.yul\":18594:18774   */\n    tag_261:\n        /* \"#utility.yul\":18642:18719   */\n      0x4e487b7100000000000000000000000000000000000000000000000000000000\n        /* \"#utility.yul\":18639:18640   */\n      0x00\n        /* \"#utility.yul\":18632:18720   */\n      mstore\n        /* \"#utility.yul\":18739:18743   */\n      0x11\n        /* \"#utility.yul\":18736:18737   */\n      0x04\n        /* \"#utility.yul\":18729:18744   */\n      mstore\n        /* \"#utility.yul\":18763:18767   */\n      0x24\n        /* \"#utility.yul\":18760:18761   */\n      0x00\n        /* \"#utility.yul\":18753:18768   */\n      revert\n        /* \"#utility.yul\":18780:18971   */\n    tag_86:\n        /* \"#utility.yul\":18820:18823   */\n      0x00\n        /* \"#utility.yul\":18839:18859   */\n      tag_468\n        /* \"#utility.yul\":18857:18858   */\n      dup3\n        /* \"#utility.yul\":18839:18859   */\n      tag_207\n      jump\t// in\n    tag_468:\n        /* \"#utility.yul\":18834:18859   */\n      swap2\n      pop\n        /* \"#utility.yul\":18873:18893   */\n      tag_469\n        /* \"#utility.yul\":18891:18892   */\n      dup4\n        /* \"#utility.yul\":18873:18893   */\n      tag_207\n      jump\t// in\n    tag_469:\n        /* \"#utility.yul\":18868:18893   */\n      swap3\n      pop\n        /* \"#utility.yul\":18916:18917   */\n      dup3\n        /* \"#utility.yul\":18913:18914   */\n      dup3\n        /* \"#utility.yul\":18909:18918   */\n      add\n        /* \"#utility.yul\":18902:18918   */\n      swap1\n      pop\n        /* \"#utility.yul\":18937:18940   */\n      dup1\n        /* \"#utility.yul\":18934:18935   */\n      dup3\n        /* \"#utility.yul\":18931:18941   */\n      gt\n        /* \"#utility.yul\":18928:18964   */\n      iszero\n      tag_470\n      jumpi\n        /* \"#utility.yul\":18944:18962   */\n      tag_471\n      tag_261\n      jump\t// in\n    tag_471:\n        /* \"#utility.yul\":18928:18964   */\n    tag_470:\n        /* \"#utility.yul\":18780:18971   */\n      swap3\n      swap2\n      pop\n      pop\n      jump\t// out\n        /* \"#utility.yul\":18977:19210   */\n    tag_88:\n        /* \"#utility.yul\":19016:19019   */\n      0x00\n        /* \"#utility.yul\":19039:19063   */\n      tag_473\n        /* \"#utility.yul\":19057:19062   */\n      dup3\n        /* \"#utility.yul\":19039:19063   */\n      tag_207\n      jump\t// in\n    tag_473:\n        /* \"#utility.yul\":19030:19063   */\n      swap2\n      pop\n        /* \"#utility.yul\":19085:19151   */\n      0xffffffffffffffffffffffffffffffffffffffffffffffffffffffffffffffff\n        /* \"#utility.yul\":19078:19083   */\n      dup3\n        /* \"#utility.yul\":19075:19152   */\n      sub\n        /* \"#utility.yul\":19072:19175   */\n      tag_474\n      jumpi\n        /* \"#utility.yul\":19155:19173   */\n      tag_475\n      tag_261\n      jump\t// in\n    tag_475:\n        /* \"#utility.yul\":19072:19175   */\n    tag_474:\n        /* \"#utility.yul\":19202:19203   */\n      0x01\n        /* \"#utility.yul\":19195:19200   */\n      dup3\n        /* \"#utility.yul\":19191:19204   */\n      add\n        /* \"#utility.yul\":19184:19204   */\n      swap1\n      pop\n        /* \"#utility.yul\":18977:19210   */\n      swap2\n      swap1\n      pop\n      jump\t// out\n        /* \"#utility.yul\":19216:19387   */\n    tag_262:\n        /* \"#utility.yul\":19356:19379   */\n      0x696e636f72726563742070726f626162696c6974790000000000000000000000\n        /* \"#utility.yul\":19352:19353   */\n      0x00\n        /* \"#utility.yul\":19344:19350   */\n      dup3\n        /* \"#utility.yul\":19340:19354   */\n      add\n        /* \"#utility.yul\":19333:19380   */\n      mstore\n        /* \"#utility.yul\":19216:19387   */\n      pop\n      jump\t// out\n        /* \"#utility.yul\":19393:19759   */\n    tag_263:\n        /* \"#utility.yul\":19535:19538   */\n      0x00\n        /* \"#utility.yul\":19556:19623   */\n      tag_478\n        /* \"#utility.yul\":19620:19622   */\n      0x15\n        /* \"#utility.yul\":19615:19618   */\n      dup4\n        /* \"#utility.yul\":19556:19623   */\n      tag_254\n      jump\t// in\n    tag_478:\n        /* \"#utility.yul\":19549:19623   */\n      swap2\n      pop\n        /* \"#utility.yul\":19632:19725   */\n      tag_479\n        /* \"#utility.yul\":19721:19724   */\n      dup3\n        /* \"#utility.yul\":19632:19725   */\n      tag_262\n      jump\t// in\n    tag_479:\n        /* \"#utility.yul\":19750:19752   */\n      0x20\n        /* \"#utility.yul\":19745:19748   */\n      dup3\n        /* \"#utility.yul\":19741:19753   */\n      add\n        /* \"#utility.yul\":19734:19753   */\n      swap1\n      pop\n        /* \"#utility.yul\":19393:19759   */\n      swap2\n      swap1\n      pop\n      jump\t// out\n        /* \"#utility.yul\":19765:20184   */\n    tag_91:\n        /* \"#utility.yul\":19931:19935   */\n      0x00\n        /* \"#utility.yul\":19969:19971   */\n      0x20\n        /* \"#utility.yul\":19958:19967   */\n      dup3\n        /* \"#utility.yul\":19954:19972   */\n      add\n        /* \"#utility.yul\":19946:19972   */\n      swap1\n      pop\n        /* \"#utility.yul\":20018:20027   */\n      dup2\n        /* \"#utility.yul\":20012:20016   */\n      dup2\n        /* \"#utility.yul\":20008:20028   */\n      sub\n        /* \"#utility.yul\":20004:20005   */\n      0x00\n        /* \"#utility.yul\":19993:20002   */\n      dup4\n        /* \"#utility.yul\":19989:20006   */\n      add\n        /* \"#utility.yul\":19982:20029   */\n      mstore\n        /* \"#utility.yul\":20046:20177   */\n      tag_481\n        /* \"#utility.yul\":20172:20176   */\n      dup2\n        /* \"#utility.yul\":20046:20177   */\n      tag_263\n      jump\t// in\n    tag_481:\n        /* \"#utility.yul\":20038:20177   */\n      swap1\n      pop\n        /* \"#utility.yul\":19765:20184   */\n      swap2\n      swap1\n      pop\n      jump\t// out\n        /* \"#utility.yul\":20190:20600   */\n    tag_100:\n        /* \"#utility.yul\":20230:20237   */\n      0x00\n        /* \"#utility.yul\":20253:20273   */\n      tag_483\n        /* \"#utility.yul\":20271:20272   */\n      dup3\n        /* \"#utility.yul\":20253:20273   */\n      tag_207\n      jump\t// in\n    tag_483:\n        /* \"#utility.yul\":20248:20273   */\n      swap2\n      pop\n        /* \"#utility.yul\":20287:20307   */\n      tag_484\n        /* \"#utility.yul\":20305:20306   */\n      dup4\n        /* \"#utility.yul\":20287:20307   */\n      tag_207\n      jump\t// in\n    tag_484:\n        /* \"#utility.yul\":20282:20307   */\n      swap3\n      pop\n        /* \"#utility.yul\":20342:20343   */\n      dup3\n        /* \"#utility.yul\":20339:20340   */\n      dup3\n        /* \"#utility.yul\":20335:20344   */\n      mul\n        /* \"#utility.yul\":20364:20394   */\n      tag_485\n        /* \"#utility.yul\":20382:20393   */\n      dup2\n        /* \"#utility.yul\":20364:20394   */\n      tag_207\n      jump\t// in\n    tag_485:\n        /* \"#utility.yul\":20353:20394   */\n      swap2\n      pop\n        /* \"#utility.yul\":20543:20544   */\n      dup3\n        /* \"#utility.yul\":20534:20541   */\n      dup3\n        /* \"#utility.yul\":20530:20545   */\n      div\n        /* \"#utility.yul\":20527:20528   */\n      dup5\n        /* \"#utility.yul\":20524:20546   */\n      eq\n        /* \"#utility.yul\":20504:20505   */\n      dup4\n        /* \"#utility.yul\":20497:20506   */\n      iszero\n        /* \"#utility.yul\":20477:20560   */\n      or\n        /* \"#utility.yul\":20454:20593   */\n      tag_486\n      jumpi\n        /* \"#utility.yul\":20573:20591   */\n      tag_487\n      tag_261\n      jump\t// in\n    tag_487:\n        /* \"#utility.yul\":20454:20593   */\n    tag_486:\n        /* \"#utility.yul\":20238:20600   */\n      pop\n        /* \"#utility.yul\":20190:20600   */\n      swap3\n      swap2\n      pop\n      pop\n      jump\t// out\n        /* \"#utility.yul\":20606:20786   */\n    tag_264:\n        /* \"#utility.yul\":20654:20731   */\n      0x4e487b7100000000000000000000000000000000000000000000000000000000\n        /* \"#utility.yul\":20651:20652   */\n      0x00\n        /* \"#utility.yul\":20644:20732   */\n      mstore\n        /* \"#utility.yul\":20751:20755   */\n      0x12\n        /* \"#utility.yul\":20748:20749   */\n      0x04\n        /* \"#utility.yul\":20741:20756   */\n      mstore\n        /* \"#utility.yul\":20775:20779   */\n      0x24\n        /* \"#utility.yul\":20772:20773   */\n      0x00\n        /* \"#utility.yul\":20765:20780   */\n      revert\n        /* \"#utility.yul\":20792:20977   */\n    tag_103:\n        /* \"#utility.yul\":20832:20833   */\n      0x00\n        /* \"#utility.yul\":20849:20869   */\n      tag_490\n        /* \"#utility.yul\":20867:20868   */\n      dup3\n        /* \"#utility.yul\":20849:20869   */\n      tag_207\n      jump\t// in\n    tag_490:\n        /* \"#utility.yul\":20844:20869   */\n      swap2\n      pop\n        /* \"#utility.yul\":20883:20903   */\n      tag_491\n        /* \"#utility.yul\":20901:20902   */\n      dup4\n        /* \"#utility.yul\":20883:20903   */\n      tag_207\n      jump\t// in\n    tag_491:\n        /* \"#utility.yul\":20878:20903   */\n      swap3\n      pop\n        /* \"#utility.yul\":20922:20923   */\n      dup3\n        /* \"#utility.yul\":20912:20947   */\n      tag_492\n      jumpi\n        /* \"#utility.yul\":20927:20945   */\n      tag_493\n      tag_264\n      jump\t// in\n    tag_493:\n        /* \"#utility.yul\":20912:20947   */\n    tag_492:\n        /* \"#utility.yul\":20969:20970   */\n      dup3\n        /* \"#utility.yul\":20966:20967   */\n      dup3\n        /* \"#utility.yul\":20962:20971   */\n      div\n        /* \"#utility.yul\":20957:20971   */\n      swap1\n      pop\n        /* \"#utility.yul\":20792:20977   */\n      swap3\n      swap2\n      pop\n      pop\n      jump\t// out\n        /* \"#utility.yul\":20983:21156   */\n    tag_265:\n        /* \"#utility.yul\":21123:21148   */\n      0x696e73756666696369656e7420636f696e2076616c7565000000000000000000\n        /* \"#utility.yul\":21119:21120   */\n      0x00\n        /* \"#utility.yul\":21111:21117   */\n      dup3\n        /* \"#utility.yul\":21107:21121   */\n      add\n        /* \"#utility.yul\":21100:21149   */\n      mstore\n        /* \"#utility.yul\":20983:21156   */\n      pop\n      jump\t// out\n        /* \"#utility.yul\":21162:21528   */\n    tag_266:\n        /* \"#utility.yul\":21304:21307   */\n      0x00\n        /* \"#utility.yul\":21325:21392   */\n      tag_496\n        /* \"#utility.yul\":21389:21391   */\n      0x17\n        /* \"#utility.yul\":21384:21387   */\n      dup4\n        /* \"#utility.yul\":21325:21392   */\n      tag_254\n      jump\t// in\n    tag_496:\n        /* \"#utility.yul\":21318:21392   */\n      swap2\n      pop\n        /* \"#utility.yul\":21401:21494   */\n      tag_497\n        /* \"#utility.yul\":21490:21493   */\n      dup3\n        /* \"#utility.yul\":21401:21494   */\n      tag_265\n      jump\t// in\n    tag_497:\n        /* \"#utility.yul\":21519:21521   */\n      0x20\n        /* \"#utility.yul\":21514:21517   */\n      dup3\n        /* \"#utility.yul\":21510:21522   */\n      add\n        /* \"#utility.yul\":21503:21522   */\n      swap1\n      pop\n        /* \"#utility.yul\":21162:21528   */\n      swap2\n      swap1\n      pop\n      jump\t// out\n        /* \"#utility.yul\":21534:21953   */\n    tag_109:\n        /* \"#utility.yul\":21700:21704   */\n      0x00\n        /* \"#utility.yul\":21738:21740   */\n      0x20\n        /* \"#utility.yul\":21727:21736   */\n      dup3\n        /* \"#utility.yul\":21723:21741   */\n      add\n        /* \"#utility.yul\":21715:21741   */\n      swap1\n      pop\n        /* \"#utility.yul\":21787:21796   */\n      dup2\n        /* \"#utility.yul\":21781:21785   */\n      dup2\n        /* \"#utility.yul\":21777:21797   */\n      sub\n        /* \"#utility.yul\":21773:21774   */\n      0x00\n        /* \"#utility.yul\":21762:21771   */\n      dup4\n        /* \"#utility.yul\":21758:21775   */\n      add\n        /* \"#utility.yul\":21751:21798   */\n      mstore\n        /* \"#utility.yul\":21815:21946   */\n      tag_499\n        /* \"#utility.yul\":21941:21945   */\n      dup2\n        /* \"#utility.yul\":21815:21946   */\n      tag_266\n      jump\t// in\n    tag_499:\n        /* \"#utility.yul\":21807:21946   */\n      swap1\n      pop\n        /* \"#utility.yul\":21534:21953   */\n      swap2\n      swap1\n      pop\n      jump\t// out\n        /* \"#utility.yul\":21959:22153   */\n    tag_127:\n        /* \"#utility.yul\":21999:22003   */\n      0x00\n        /* \"#utility.yul\":22019:22039   */\n      tag_501\n        /* \"#utility.yul\":22037:22038   */\n      dup3\n        /* \"#utility.yul\":22019:22039   */\n      tag_207\n      jump\t// in\n    tag_501:\n        /* \"#utility.yul\":22014:22039   */\n      swap2\n      pop\n        /* \"#utility.yul\":22053:22073   */\n      tag_502\n        /* \"#utility.yul\":22071:22072   */\n      dup4\n        /* \"#utility.yul\":22053:22073   */\n      tag_207\n      jump\t// in\n    tag_502:\n        /* \"#utility.yul\":22048:22073   */\n      swap3\n      pop\n        /* \"#utility.yul\":22097:22098   */\n      dup3\n        /* \"#utility.yul\":22094:22095   */\n      dup3\n        /* \"#utility.yul\":22090:22099   */\n      sub\n        /* \"#utility.yul\":22082:22099   */\n      swap1\n      pop\n        /* \"#utility.yul\":22121:22122   */\n      dup2\n        /* \"#utility.yul\":22115:22119   */\n      dup2\n        /* \"#utility.yul\":22112:22123   */\n      gt\n        /* \"#utility.yul\":22109:22146   */\n      iszero\n      tag_503\n      jumpi\n        /* \"#utility.yul\":22126:22144   */\n      tag_504\n      tag_261\n      jump\t// in\n    tag_504:\n        /* \"#utility.yul\":22109:22146   */\n    tag_503:\n        /* \"#utility.yul\":21959:22153   */\n      swap3\n      swap2\n      pop\n      pop\n      jump\t// out\n        /* \"#utility.yul\":22159:22601   */\n    tag_151:\n        /* \"#utility.yul\":22308:22312   */\n      0x00\n        /* \"#utility.yul\":22346:22348   */\n      0x60\n        /* \"#utility.yul\":22335:22344   */\n      dup3\n        /* \"#utility.yul\":22331:22349   */\n      add\n        /* \"#utility.yul\":22323:22349   */\n      swap1\n      pop\n        /* \"#utility.yul\":22359:22430   */\n      tag_506\n        /* \"#utility.yul\":22427:22428   */\n      0x00\n        /* \"#utility.yul\":22416:22425   */\n      dup4\n        /* \"#utility.yul\":22412:22429   */\n      add\n        /* \"#utility.yul\":22403:22409   */\n      dup7\n        /* \"#utility.yul\":22359:22430   */\n      tag_212\n      jump\t// in\n    tag_506:\n        /* \"#utility.yul\":22440:22512   */\n      tag_507\n        /* \"#utility.yul\":22508:22510   */\n      0x20\n        /* \"#utility.yul\":22497:22506   */\n      dup4\n        /* \"#utility.yul\":22493:22511   */\n      add\n        /* \"#utility.yul\":22484:22490   */\n      dup6\n        /* \"#utility.yul\":22440:22512   */\n      tag_212\n      jump\t// in\n    tag_507:\n        /* \"#utility.yul\":22522:22594   */\n      tag_508\n        /* \"#utility.yul\":22590:22592   */\n      0x40\n        /* \"#utility.yul\":22579:22588   */\n      dup4\n        /* \"#utility.yul\":22575:22593   */\n      add\n        /* \"#utility.yul\":22566:22572   */\n      dup5\n        /* \"#utility.yul\":22522:22594   */\n      tag_213\n      jump\t// in\n    tag_508:\n        /* \"#utility.yul\":22159:22601   */\n      swap5\n      swap4\n      pop\n      pop\n      pop\n      pop\n      jump\t// out\n        /* \"#utility.yul\":22607:22744   */\n    tag_267:\n        /* \"#utility.yul\":22661:22666   */\n      0x00\n        /* \"#utility.yul\":22692:22698   */\n      dup2\n        /* \"#utility.yul\":22686:22699   */\n      mload\n        /* \"#utility.yul\":22677:22699   */\n      swap1\n      pop\n        /* \"#utility.yul\":22708:22738   */\n      tag_510\n        /* \"#utility.yul\":22732:22737   */\n      dup2\n        /* \"#utility.yul\":22708:22738   */\n      tag_244\n      jump\t// in\n    tag_510:\n        /* \"#utility.yul\":22607:22744   */\n      swap3\n      swap2\n      pop\n      pop\n      jump\t// out\n        /* \"#utility.yul\":22750:23095   */\n    tag_158:\n        /* \"#utility.yul\":22817:22823   */\n      0x00\n        /* \"#utility.yul\":22866:22868   */\n      0x20\n        /* \"#utility.yul\":22854:22863   */\n      dup3\n        /* \"#utility.yul\":22845:22852   */\n      dup5\n        /* \"#utility.yul\":22841:22864   */\n      sub\n        /* \"#utility.yul\":22837:22869   */\n      slt\n        /* \"#utility.yul\":22834:22953   */\n      iszero\n      tag_512\n      jumpi\n        /* \"#utility.yul\":22872:22951   */\n      tag_513\n      tag_205\n      jump\t// in\n    tag_513:\n        /* \"#utility.yul\":22834:22953   */\n    tag_512:\n        /* \"#utility.yul\":22992:22993   */\n      0x00\n        /* \"#utility.yul\":23017:23078   */\n      tag_514\n        /* \"#utility.yul\":23070:23077   */\n      dup5\n        /* \"#utility.yul\":23061:23067   */\n      dup3\n        /* \"#utility.yul\":23050:23059   */\n      dup6\n        /* \"#utility.yul\":23046:23068   */\n      add\n        /* \"#utility.yul\":23017:23078   */\n      tag_267\n      jump\t// in\n    tag_514:\n        /* \"#utility.yul\":23007:23078   */\n      swap2\n      pop\n        /* \"#utility.yul\":22963:23088   */\n      pop\n        /* \"#utility.yul\":22750:23095   */\n      swap3\n      swap2\n      pop\n      pop\n      jump\t// out\n        /* \"#utility.yul\":23101:23330   */\n    tag_268:\n        /* \"#utility.yul\":23241:23275   */\n      0x5361666545524332303a204552433230206f7065726174696f6e20646964206e\n        /* \"#utility.yul\":23237:23238   */\n      0x00\n        /* \"#utility.yul\":23229:23235   */\n      dup3\n        /* \"#utility.yul\":23225:23239   */\n      add\n        /* \"#utility.yul\":23218:23276   */\n      mstore\n        /* \"#utility.yul\":23310:23322   */\n      0x6f74207375636365656400000000000000000000000000000000000000000000\n        /* \"#utility.yul\":23305:23307   */\n      0x20\n        /* \"#utility.yul\":23297:23303   */\n      dup3\n        /* \"#utility.yul\":23293:23308   */\n      add\n        /* \"#utility.yul\":23286:23323   */\n      mstore\n        /* \"#utility.yul\":23101:23330   */\n      pop\n      jump\t// out\n        /* \"#utility.yul\":23336:23702   */\n    tag_269:\n        /* \"#utility.yul\":23478:23481   */\n      0x00\n        /* \"#utility.yul\":23499:23566   */\n      tag_517\n        /* \"#utility.yul\":23563:23565   */\n      0x2a\n        /* \"#utility.yul\":23558:23561   */\n      dup4\n        /* \"#utility.yul\":23499:23566   */\n      tag_254\n      jump\t// in\n    tag_517:\n        /* \"#utility.yul\":23492:23566   */\n      swap2\n      pop\n        /* \"#utility.yul\":23575:23668   */\n      tag_518\n        /* \"#utility.yul\":23664:23667   */\n      dup3\n        /* \"#utility.yul\":23575:23668   */\n      tag_268\n      jump\t// in\n    tag_518:\n        /* \"#utility.yul\":23693:23695   */\n      0x40\n        /* \"#utility.yul\":23688:23691   */\n      dup3\n        /* \"#utility.yul\":23684:23696   */\n      add\n        /* \"#utility.yul\":23677:23696   */\n      swap1\n      pop\n        /* \"#utility.yul\":23336:23702   */\n      swap2\n      swap1\n      pop\n      jump\t// out\n        /* \"#utility.yul\":23708:24127   */\n    tag_161:\n        /* \"#utility.yul\":23874:23878   */\n      0x00\n        /* \"#utility.yul\":23912:23914   */\n      0x20\n        /* \"#utility.yul\":23901:23910   */\n      dup3\n        /* \"#utility.yul\":23897:23915   */\n      add\n        /* \"#utility.yul\":23889:23915   */\n      swap1\n      pop\n        /* \"#utility.yul\":23961:23970   */\n      dup2\n        /* \"#utility.yul\":23955:23959   */\n      dup2\n        /* \"#utility.yul\":23951:23971   */\n      sub\n        /* \"#utility.yul\":23947:23948   */\n      0x00\n        /* \"#utility.yul\":23936:23945   */\n      dup4\n        /* \"#utility.yul\":23932:23949   */\n      add\n        /* \"#utility.yul\":23925:23972   */\n      mstore\n        /* \"#utility.yul\":23989:24120   */\n      tag_520\n        /* \"#utility.yul\":24115:24119   */\n      dup2\n        /* \"#utility.yul\":23989:24120   */\n      tag_269\n      jump\t// in\n    tag_520:\n        /* \"#utility.yul\":23981:24120   */\n      swap1\n      pop\n        /* \"#utility.yul\":23708:24127   */\n      swap2\n      swap1\n      pop\n      jump\t// out\n        /* \"#utility.yul\":24133:24358   */\n    tag_270:\n        /* \"#utility.yul\":24273:24307   */\n      0x416464726573733a20696e73756666696369656e742062616c616e636520666f\n        /* \"#utility.yul\":24269:24270   */\n      0x00\n        /* \"#utility.yul\":24261:24267   */\n      dup3\n        /* \"#utility.yul\":24257:24271   */\n      add\n        /* \"#utility.yul\":24250:24308   */\n      mstore\n        /* \"#utility.yul\":24342:24350   */\n      0x722063616c6c0000000000000000000000000000000000000000000000000000\n        /* \"#utility.yul\":24337:24339   */\n      0x20\n        /* \"#utility.yul\":24329:24335   */\n      dup3\n        /* \"#utility.yul\":24325:24340   */\n      add\n        /* \"#utility.yul\":24318:24351   */\n      mstore\n        /* \"#utility.yul\":24133:24358   */\n      pop\n      jump\t// out\n        /* \"#utility.yul\":24364:24730   */\n    tag_271:\n        /* \"#utility.yul\":24506:24509   */\n      0x00\n        /* \"#utility.yul\":24527:24594   */\n      tag_523\n        /* \"#utility.yul\":24591:24593   */\n      0x26\n        /* \"#utility.yul\":24586:24589   */\n      dup4\n        /* \"#utility.yul\":24527:24594   */\n      tag_254\n      jump\t// in\n    tag_523:\n        /* \"#utility.yul\":24520:24594   */\n      swap2\n      pop\n        /* \"#utility.yul\":24603:24696   */\n      tag_524\n        /* \"#utility.yul\":24692:24695   */\n      dup3\n        /* \"#utility.yul\":24603:24696   */\n      tag_270\n      jump\t// in\n    tag_524:\n        /* \"#utility.yul\":24721:24723   */\n      0x40\n        /* \"#utility.yul\":24716:24719   */\n      dup3\n        /* \"#utility.yul\":24712:24724   */\n      add\n        /* \"#utility.yul\":24705:24724   */\n      swap1\n      pop\n        /* \"#utility.yul\":24364:24730   */\n      swap2\n      swap1\n      pop\n      jump\t// out\n        /* \"#utility.yul\":24736:25155   */\n    tag_168:\n        /* \"#utility.yul\":24902:24906   */\n      0x00\n        /* \"#utility.yul\":24940:24942   */\n      0x20\n        /* \"#utility.yul\":24929:24938   */\n      dup3\n        /* \"#utility.yul\":24925:24943   */\n      add\n        /* \"#utility.yul\":24917:24943   */\n      swap1\n      pop\n        /* \"#utility.yul\":24989:24998   */\n      dup2\n        /* \"#utility.yul\":24983:24987   */\n      dup2\n        /* \"#utility.yul\":24979:24999   */\n      sub\n        /* \"#utility.yul\":24975:24976   */\n      0x00\n        /* \"#utility.yul\":24964:24973   */\n      dup4\n        /* \"#utility.yul\":24960:24977   */\n      add\n        /* \"#utility.yul\":24953:25000   */\n      mstore\n        /* \"#utility.yul\":25017:25148   */\n      tag_526\n        /* \"#utility.yul\":25143:25147   */\n      dup2\n        /* \"#utility.yul\":25017:25148   */\n      tag_271\n      jump\t// in\n    tag_526:\n        /* \"#utility.yul\":25009:25148   */\n      swap1\n      pop\n        /* \"#utility.yul\":24736:25155   */\n      swap2\n      swap1\n      pop\n      jump\t// out\n        /* \"#utility.yul\":25161:25259   */\n    tag_272:\n        /* \"#utility.yul\":25212:25218   */\n      0x00\n        /* \"#utility.yul\":25246:25251   */\n      dup2\n        /* \"#utility.yul\":25240:25252   */\n      mload\n        /* \"#utility.yul\":25230:25252   */\n      swap1\n      pop\n        /* \"#utility.yul\":25161:25259   */\n      swap2\n      swap1\n      pop\n      jump\t// out\n        /* \"#utility.yul\":25265:25412   */\n    tag_273:\n        /* \"#utility.yul\":25366:25377   */\n      0x00\n        /* \"#utility.yul\":25403:25406   */\n      dup2\n        /* \"#utility.yul\":25388:25406   */\n      swap1\n      pop\n        /* \"#utility.yul\":25265:25412   */\n      swap3\n      swap2\n      pop\n      pop\n      jump\t// out\n        /* \"#utility.yul\":25418:25664   */\n    tag_274:\n        /* \"#utility.yul\":25499:25500   */\n      0x00\n        /* \"#utility.yul\":25509:25622   */\n    tag_530:\n        /* \"#utility.yul\":25523:25529   */\n      dup4\n        /* \"#utility.yul\":25520:25521   */\n      dup2\n        /* \"#utility.yul\":25517:25530   */\n      lt\n        /* \"#utility.yul\":25509:25622   */\n      iszero\n      tag_532\n      jumpi\n        /* \"#utility.yul\":25608:25609   */\n      dup1\n        /* \"#utility.yul\":25603:25606   */\n      dup3\n        /* \"#utility.yul\":25599:25610   */\n      add\n        /* \"#utility.yul\":25593:25611   */\n      mload\n        /* \"#utility.yul\":25589:25590   */\n      dup2\n        /* \"#utility.yul\":25584:25587   */\n      dup5\n        /* \"#utility.yul\":25580:25591   */\n      add\n        /* \"#utility.yul\":25573:25612   */\n      mstore\n        /* \"#utility.yul\":25545:25547   */\n      0x20\n        /* \"#utility.yul\":25542:25543   */\n      dup2\n        /* \"#utility.yul\":25538:25548   */\n      add\n        /* \"#utility.yul\":25533:25548   */\n      swap1\n      pop\n        /* \"#utility.yul\":25509:25622   */\n      jump(tag_530)\n    tag_532:\n        /* \"#utility.yul\":25656:25657   */\n      0x00\n        /* \"#utility.yul\":25647:25653   */\n      dup5\n        /* \"#utility.yul\":25642:25645   */\n      dup5\n        /* \"#utility.yul\":25638:25654   */\n      add\n        /* \"#utility.yul\":25631:25658   */\n      mstore\n        /* \"#utility.yul\":25480:25664   */\n      pop\n        /* \"#utility.yul\":25418:25664   */\n      pop\n      pop\n      pop\n      jump\t// out\n        /* \"#utility.yul\":25670:26056   */\n    tag_275:\n        /* \"#utility.yul\":25774:25777   */\n      0x00\n        /* \"#utility.yul\":25802:25840   */\n      tag_534\n        /* \"#utility.yul\":25834:25839   */\n      dup3\n        /* \"#utility.yul\":25802:25840   */\n      tag_272\n      jump\t// in\n    tag_534:\n        /* \"#utility.yul\":25856:25944   */\n      tag_535\n        /* \"#utility.yul\":25937:25943   */\n      dup2\n        /* \"#utility.yul\":25932:25935   */\n      dup6\n        /* \"#utility.yul\":25856:25944   */\n      tag_273\n      jump\t// in\n    tag_535:\n        /* \"#utility.yul\":25849:25944   */\n      swap4\n      pop\n        /* \"#utility.yul\":25953:26018   */\n      tag_536\n        /* \"#utility.yul\":26011:26017   */\n      dup2\n        /* \"#utility.yul\":26006:26009   */\n      dup6\n        /* \"#utility.yul\":25999:26003   */\n      0x20\n        /* \"#utility.yul\":25992:25997   */\n      dup7\n        /* \"#utility.yul\":25988:26004   */\n      add\n        /* \"#utility.yul\":25953:26018   */\n      tag_274\n      jump\t// in\n    tag_536:\n        /* \"#utility.yul\":26043:26049   */\n      dup1\n        /* \"#utility.yul\":26038:26041   */\n      dup5\n        /* \"#utility.yul\":26034:26050   */\n      add\n        /* \"#utility.yul\":26027:26050   */\n      swap2\n      pop\n        /* \"#utility.yul\":25778:26056   */\n      pop\n        /* \"#utility.yul\":25670:26056   */\n      swap3\n      swap2\n      pop\n      pop\n      jump\t// out\n        /* \"#utility.yul\":26062:26333   */\n    tag_170:\n        /* \"#utility.yul\":26192:26195   */\n      0x00\n        /* \"#utility.yul\":26214:26307   */\n      tag_538\n        /* \"#utility.yul\":26303:26306   */\n      dup3\n        /* \"#utility.yul\":26294:26300   */\n      dup5\n        /* \"#utility.yul\":26214:26307   */\n      tag_275\n      jump\t// in\n    tag_538:\n        /* \"#utility.yul\":26207:26307   */\n      swap2\n      pop\n        /* \"#utility.yul\":26324:26327   */\n      dup2\n        /* \"#utility.yul\":26317:26327   */\n      swap1\n      pop\n        /* \"#utility.yul\":26062:26333   */\n      swap3\n      swap2\n      pop\n      pop\n      jump\t// out\n        /* \"#utility.yul\":26339:26518   */\n    tag_276:\n        /* \"#utility.yul\":26479:26510   */\n      0x416464726573733a2063616c6c20746f206e6f6e2d636f6e7472616374000000\n        /* \"#utility.yul\":26475:26476   */\n      0x00\n        /* \"#utility.yul\":26467:26473   */\n      dup3\n        /* \"#utility.yul\":26463:26477   */\n      add\n        /* \"#utility.yul\":26456:26511   */\n      mstore\n        /* \"#utility.yul\":26339:26518   */\n      pop\n      jump\t// out\n        /* \"#utility.yul\":26524:26890   */\n    tag_277:\n        /* \"#utility.yul\":26666:26669   */\n      0x00\n        /* \"#utility.yul\":26687:26754   */\n      tag_541\n        /* \"#utility.yul\":26751:26753   */\n      0x1d\n        /* \"#utility.yul\":26746:26749   */\n      dup4\n        /* \"#utility.yul\":26687:26754   */\n      tag_254\n      jump\t// in\n    tag_541:\n        /* \"#utility.yul\":26680:26754   */\n      swap2\n      pop\n        /* \"#utility.yul\":26763:26856   */\n      tag_542\n        /* \"#utility.yul\":26852:26855   */\n      dup3\n        /* \"#utility.yul\":26763:26856   */\n      tag_276\n      jump\t// in\n    tag_542:\n        /* \"#utility.yul\":26881:26883   */\n      0x20\n        /* \"#utility.yul\":26876:26879   */\n      dup3\n        /* \"#utility.yul\":26872:26884   */\n      add\n        /* \"#utility.yul\":26865:26884   */\n      swap1\n      pop\n        /* \"#utility.yul\":26524:26890   */\n      swap2\n      swap1\n      pop\n      jump\t// out\n        /* \"#utility.yul\":26896:27315   */\n    tag_183:\n        /* \"#utility.yul\":27062:27066   */\n      0x00\n        /* \"#utility.yul\":27100:27102   */\n      0x20\n        /* \"#utility.yul\":27089:27098   */\n      dup3\n        /* \"#utility.yul\":27085:27103   */\n      add\n        /* \"#utility.yul\":27077:27103   */\n      swap1\n      pop\n        /* \"#utility.yul\":27149:27158   */\n      dup2\n        /* \"#utility.yul\":27143:27147   */\n      dup2\n        /* \"#utility.yul\":27139:27159   */\n      sub\n        /* \"#utility.yul\":27135:27136   */\n      0x00\n        /* \"#utility.yul\":27124:27133   */\n      dup4\n        /* \"#utility.yul\":27120:27137   */\n      add\n        /* \"#utility.yul\":27113:27160   */\n      mstore\n        /* \"#utility.yul\":27177:27308   */\n      tag_544\n        /* \"#utility.yul\":27303:27307   */\n      dup2\n        /* \"#utility.yul\":27177:27308   */\n      tag_277\n      jump\t// in\n    tag_544:\n        /* \"#utility.yul\":27169:27308   */\n      swap1\n      pop\n        /* \"#utility.yul\":26896:27315   */\n      swap2\n      swap1\n      pop\n      jump\t// out\n        /* \"#utility.yul\":27321:27420   */\n    tag_278:\n        /* \"#utility.yul\":27373:27379   */\n      0x00\n        /* \"#utility.yul\":27407:27412   */\n      dup2\n        /* \"#utility.yul\":27401:27413   */\n      mload\n        /* \"#utility.yul\":27391:27413   */\n      swap1\n      pop\n        /* \"#utility.yul\":27321:27420   */\n      swap2\n      swap1\n      pop\n      jump\t// out\n        /* \"#utility.yul\":27426:27803   */\n    tag_279:\n        /* \"#utility.yul\":27514:27517   */\n      0x00\n        /* \"#utility.yul\":27542:27581   */\n      tag_547\n        /* \"#utility.yul\":27575:27580   */\n      dup3\n        /* \"#utility.yul\":27542:27581   */\n      tag_278\n      jump\t// in\n    tag_547:\n        /* \"#utility.yul\":27597:27668   */\n      tag_548\n        /* \"#utility.yul\":27661:27667   */\n      dup2\n        /* \"#utility.yul\":27656:27659   */\n      dup6\n        /* \"#utility.yul\":27597:27668   */\n      tag_254\n      jump\t// in\n    tag_548:\n        /* \"#utility.yul\":27590:27668   */\n      swap4\n      pop\n        /* \"#utility.yul\":27677:27742   */\n      tag_549\n        /* \"#utility.yul\":27735:27741   */\n      dup2\n        /* \"#utility.yul\":27730:27733   */\n      dup6\n        /* \"#utility.yul\":27723:27727   */\n      0x20\n        /* \"#utility.yul\":27716:27721   */\n      dup7\n        /* \"#utility.yul\":27712:27728   */\n      add\n        /* \"#utility.yul\":27677:27742   */\n      tag_274\n      jump\t// in\n    tag_549:\n        /* \"#utility.yul\":27767:27796   */\n      tag_550\n        /* \"#utility.yul\":27789:27795   */\n      dup2\n        /* \"#utility.yul\":27767:27796   */\n      tag_233\n      jump\t// in\n    tag_550:\n        /* \"#utility.yul\":27762:27765   */\n      dup5\n        /* \"#utility.yul\":27758:27797   */\n      add\n        /* \"#utility.yul\":27751:27797   */\n      swap2\n      pop\n        /* \"#utility.yul\":27518:27803   */\n      pop\n        /* \"#utility.yul\":27426:27803   */\n      swap3\n      swap2\n      pop\n      pop\n      jump\t// out\n        /* \"#utility.yul\":27809:28122   */\n    tag_192:\n        /* \"#utility.yul\":27922:27926   */\n      0x00\n        /* \"#utility.yul\":27960:27962   */\n      0x20\n        /* \"#utility.yul\":27949:27958   */\n      dup3\n        /* \"#utility.yul\":27945:27963   */\n      add\n        /* \"#utility.yul\":27937:27963   */\n      swap1\n      pop\n        /* \"#utility.yul\":28009:28018   */\n      dup2\n        /* \"#utility.yul\":28003:28007   */\n      dup2\n        /* \"#utility.yul\":27999:28019   */\n      sub\n        /* \"#utility.yul\":27995:27996   */\n      0x00\n        /* \"#utility.yul\":27984:27993   */\n      dup4\n        /* \"#utility.yul\":27980:27997   */\n      add\n        /* \"#utility.yul\":27973:28020   */\n      mstore\n        /* \"#utility.yul\":28037:28115   */\n      tag_552\n        /* \"#utility.yul\":28110:28114   */\n      dup2\n        /* \"#utility.yul\":28101:28107   */\n      dup5\n        /* \"#utility.yul\":28037:28115   */\n      tag_279\n      jump\t// in\n    tag_552:\n        /* \"#utility.yul\":28029:28115   */\n      swap1\n      pop\n        /* \"#utility.yul\":27809:28122   */\n      swap3\n      swap2\n      pop\n      pop\n      jump\t// out\n\n    auxdata: 0xa2646970667358221220b071cfe5c50de036db81e84dabcdfb9e4cd76976f247800218d407164d61447464736f6c63430008130033\n}\n",
				"bytecode": {
					"linkReferences": {},
					"object": "608060405234801561001057600080fd5b50611e6a806100206000396000f3fe6080604052600436106100705760003560e01c8063b4c339081161004e578063b4c3390814610122578063c3ac7daf1461015f578063cc22bf801461017b578063ff175d77146101a657610070565b8063161344e614610075578063385b3aa5146100ba5780638678a7b2146100f7575b600080fd5b34801561008157600080fd5b5061009c60048036038101906100979190611005565b6101e3565b6040516100b199989796959493929190611219565b60405180910390f35b3480156100c657600080fd5b506100e160048036038101906100dc9190611005565b6104b1565b6040516100ee91906112c2565b60405180910390f35b34801561010357600080fd5b5061010c6104d5565b60405161011991906112c2565b60405180910390f35b34801561012e57600080fd5b5061014960048036038101906101449190611005565b610562565b60405161015691906112c2565b60405180910390f35b61017960048036038101906101749190611525565b610586565b005b34801561018757600080fd5b50610190610b81565b60405161019d91906112c2565b60405180910390f35b3480156101b257600080fd5b506101cd60048036038101906101c89190611632565b610b87565b6040516101da91906112c2565b60405180910390f35b600080600080600060608060608060008060008c81526020019081526020016000206040518060c0016040529081600082015481526020016001820160009054906101000a900473ffffffffffffffffffffffffffffffffffffffff1673ffffffffffffffffffffffffffffffffffffffff1673ffffffffffffffffffffffffffffffffffffffff1681526020016002820154815260200160038201548152602001600482015481526020016005820160009054906101000a900460ff1615151515815250509050806020015199508060400151985080606001519750806080015196508060a0015195506000600160008d81526020019081526020016000206040518060800160405290816000820180548060200260200160405190810160405280929190818152602001828054801561033d57602002820191906000526020600020905b815481526020019060010190808311610329575b505050505081526020016001820180548060200260200160405190810160405280929190818152602001828054801561039557602002820191906000526020600020905b815481526020019060010190808311610381575b505050505081526020016002820180548060200260200160405190810160405280929190818152602001828054801561042357602002820191906000526020600020905b8160009054906101000a900473ffffffffffffffffffffffffffffffffffffffff1673ffffffffffffffffffffffffffffffffffffffff16815260200190600101908083116103d9575b505050505081526020016003820180548060200260200160405190810160405280929190818152602001828054801561047b57602002820191906000526020600020905b815481526020019060010190808311610467575b50505050508152505090508060000151955080602001519450806040015193508060600151925050509193959799909294969850565b600381815481106104c157600080fd5b906000526020600020016000915090505481565b6000803390506000429050600081836040516020016104f59291906116c8565b604051602081830303815290604052805190602001209050600060ec82901c90508060001c94507f5bd4c3d730aa2b20b600f395010cdc42b0efdb18bebb1c2e641802ea575432d8848484848960405161055395949392919061170d565b60405180910390a15050505090565b6002818154811061057257600080fd5b906000526020600020016000915090505481565b600085116105c9576040517f08c379a00000000000000000000000000000000000000000000000000000000081526004016105c0906117bd565b60405180910390fd5b6000841161060c576040517f08c379a000000000000000000000000000000000000000000000000000000000815260040161060390611829565b60405180910390fd5b6000835111801561061e575060008251115b801561062b575060008151115b61066a576040517f08c379a000000000000000000000000000000000000000000000000000000000815260040161066190611895565b60405180910390fd5b8151835114801561067c575080518251145b6106bb576040517f08c379a00000000000000000000000000000000000000000000000000000000081526004016106b290611895565b60405180910390fd5b600080600090505b8451811015610707578481815181106106df576106de6118b5565b5b6020026020010151826106f29190611913565b915080806106ff90611947565b9150506106c3565b50612710811461074c576040517f08c379a0000000000000000000000000000000000000000000000000000000008152600401610743906119db565b60405180910390fd5b60005b83518110156108a65760006127108483815181106107705761076f6118b5565b5b60200260200101518888858151811061078c5761078b6118b5565b5b602002602001015161079e91906119fb565b6107a891906119fb565b6107b29190611a6c565b9050600073ffffffffffffffffffffffffffffffffffffffff168583815181106107df576107de6118b5565b5b602002602001015173ffffffffffffffffffffffffffffffffffffffff160361084a5780341015610845576040517f08c379a000000000000000000000000000000000000000000000000000000000815260040161083c90611ae9565b60405180910390fd5b610892565b610891333083888681518110610863576108626118b5565b5b602002602001015173ffffffffffffffffffffffffffffffffffffffff16610baa909392919063ffffffff16565b5b50808061089e90611947565b91505061074f565b506040518060c0016040528060045481526020018873ffffffffffffffffffffffffffffffffffffffff1681526020018781526020018681526020018681526020016000151581525060008060045481526020019081526020016000206000820151816000015560208201518160010160006101000a81548173ffffffffffffffffffffffffffffffffffffffff021916908373ffffffffffffffffffffffffffffffffffffffff16021790555060408201518160020155606082015181600301556080820151816004015560a08201518160050160006101000a81548160ff02191690831515021790555090505060006001600060045481526020019081526020016000209050600081600101905060005b8651811015610ae7576000612710620fffff8984815181106109de576109dd6118b5565b5b60200260200101516109f091906119fb565b6109fa9190611a6c565b905060008203610a315782819080600181540180825580915050600190039060005260206000200160009091909190915055610ad3565b60018851610a3f9190611b09565b8203610a755782620fffff9080600181540180825580915050600190039060005260206000200160009091909190915055610ad2565b828184600185610a859190611b09565b81548110610a9657610a956118b5565b5b9060005260206000200154610aab9190611913565b90806001815401808255809150506001900390600052602060002001600090919091909150555b5b508080610adf90611947565b9150506109b9565b5085826000019080519060200190610b00929190610ec7565b5084826002019080519060200190610b19929190610f14565b5083826003019080519060200190610b32929190610ec7565b506002600454908060018154018082558091505060019003906000526020600020016000909190919091505560046000815480929190610b7190611947565b9190505550505050505050505050565b60045481565b60008115610b9c576003805490509050610ba5565b60028054905090505b919050565b610c2d846323b872dd60e01b858585604051602401610bcb93929190611b3d565b604051602081830303815290604052907bffffffffffffffffffffffffffffffffffffffffffffffffffffffff19166020820180517bffffffffffffffffffffffffffffffffffffffffffffffffffffffff8381831617835250505050610c33565b50505050565b6000610c95826040518060400160405280602081526020017f5361666545524332303a206c6f772d6c6576656c2063616c6c206661696c65648152508573ffffffffffffffffffffffffffffffffffffffff16610cfa9092919063ffffffff16565b9050600081511115610cf55780806020019051810190610cb59190611b89565b610cf4576040517f08c379a0000000000000000000000000000000000000000000000000000000008152600401610ceb90611c28565b60405180910390fd5b5b505050565b6060610d098484600085610d12565b90509392505050565b606082471015610d57576040517f08c379a0000000000000000000000000000000000000000000000000000000008152600401610d4e90611cba565b60405180910390fd5b6000808673ffffffffffffffffffffffffffffffffffffffff168587604051610d809190611d4b565b60006040518083038185875af1925050503d8060008114610dbd576040519150601f19603f3d011682016040523d82523d6000602084013e610dc2565b606091505b5091509150610dd387838387610ddf565b92505050949350505050565b60608315610e41576000835103610e3957610df985610e54565b610e38576040517f08c379a0000000000000000000000000000000000000000000000000000000008152600401610e2f90611dae565b60405180910390fd5b5b829050610e4c565b610e4b8383610e77565b5b949350505050565b6000808273ffffffffffffffffffffffffffffffffffffffff163b119050919050565b600082511115610e8a5781518083602001fd5b806040517f08c379a0000000000000000000000000000000000000000000000000000000008152600401610ebe9190611e12565b60405180910390fd5b828054828255906000526020600020908101928215610f03579160200282015b82811115610f02578251825591602001919060010190610ee7565b5b509050610f109190610f9e565b5090565b828054828255906000526020600020908101928215610f8d579160200282015b82811115610f8c5782518260006101000a81548173ffffffffffffffffffffffffffffffffffffffff021916908373ffffffffffffffffffffffffffffffffffffffff16021790555091602001919060010190610f34565b5b509050610f9a9190610f9e565b5090565b5b80821115610fb7576000816000905550600101610f9f565b5090565b6000604051905090565b600080fd5b600080fd5b6000819050919050565b610fe281610fcf565b8114610fed57600080fd5b50565b600081359050610fff81610fd9565b92915050565b60006020828403121561101b5761101a610fc5565b5b600061102984828501610ff0565b91505092915050565b600073ffffffffffffffffffffffffffffffffffffffff82169050919050565b600061105d82611032565b9050919050565b61106d81611052565b82525050565b61107c81610fcf565b82525050565b60008115159050919050565b61109781611082565b82525050565b600081519050919050565b600082825260208201905092915050565b6000819050602082019050919050565b6110d281610fcf565b82525050565b60006110e483836110c9565b60208301905092915050565b6000602082019050919050565b60006111088261109d565b61111281856110a8565b935061111d836110b9565b8060005b8381101561114e57815161113588826110d8565b9750611140836110f0565b925050600181019050611121565b5085935050505092915050565b600081519050919050565b600082825260208201905092915050565b6000819050602082019050919050565b61119081611052565b82525050565b60006111a28383611187565b60208301905092915050565b6000602082019050919050565b60006111c68261115b565b6111d08185611166565b93506111db83611177565b8060005b8381101561120c5781516111f38882611196565b97506111fe836111ae565b9250506001810190506111df565b5085935050505092915050565b60006101208201905061122f600083018c611064565b61123c602083018b611073565b611249604083018a611073565b6112566060830189611073565b611263608083018861108e565b81810360a083015261127581876110fd565b905081810360c083015261128981866110fd565b905081810360e083015261129d81856111bb565b90508181036101008301526112b281846110fd565b90509a9950505050505050505050565b60006020820190506112d76000830184611073565b92915050565b6112e681611052565b81146112f157600080fd5b50565b600081359050611303816112dd565b92915050565b600080fd5b6000601f19601f8301169050919050565b7f4e487b7100000000000000000000000000000000000000000000000000000000600052604160045260246000fd5b6113578261130e565b810181811067ffffffffffffffff821117156113765761137561131f565b5b80604052505050565b6000611389610fbb565b9050611395828261134e565b919050565b600067ffffffffffffffff8211156113b5576113b461131f565b5b602082029050602081019050919050565b600080fd5b60006113de6113d98461139a565b61137f565b90508083825260208201905060208402830185811115611401576114006113c6565b5b835b8181101561142a57806114168882610ff0565b845260208401935050602081019050611403565b5050509392505050565b600082601f83011261144957611448611309565b5b81356114598482602086016113cb565b91505092915050565b600067ffffffffffffffff82111561147d5761147c61131f565b5b602082029050602081019050919050565b60006114a161149c84611462565b61137f565b905080838252602082019050602084028301858111156114c4576114c36113c6565b5b835b818110156114ed57806114d988826112f4565b8452602084019350506020810190506114c6565b5050509392505050565b600082601f83011261150c5761150b611309565b5b813561151c84826020860161148e565b91505092915050565b60008060008060008060c0878903121561154257611541610fc5565b5b600061155089828a016112f4565b965050602061156189828a01610ff0565b955050604061157289828a01610ff0565b945050606087013567ffffffffffffffff81111561159357611592610fca565b5b61159f89828a01611434565b935050608087013567ffffffffffffffff8111156115c0576115bf610fca565b5b6115cc89828a016114f7565b92505060a087013567ffffffffffffffff8111156115ed576115ec610fca565b5b6115f989828a01611434565b9150509295509295509295565b61160f81611082565b811461161a57600080fd5b50565b60008135905061162c81611606565b92915050565b60006020828403121561164857611647610fc5565b5b60006116568482850161161d565b91505092915050565b6000819050919050565b61167a61167582610fcf565b61165f565b82525050565b60008160601b9050919050565b600061169882611680565b9050919050565b60006116aa8261168d565b9050919050565b6116c26116bd82611052565b61169f565b82525050565b60006116d48285611669565b6020820191506116e482846116b1565b6014820191508190509392505050565b6000819050919050565b611707816116f4565b82525050565b600060a0820190506117226000830188611064565b61172f6020830187611073565b61173c60408301866116fe565b61174960608301856116fe565b6117566080830184611073565b9695505050505050565b600082825260208201905092915050565b7f7072696365206d757374203e2030000000000000000000000000000000000000600082015250565b60006117a7600e83611760565b91506117b282611771565b602082019050919050565b600060208201905081810360008301526117d68161179a565b9050919050565b7f746f74616c537570706c79206d757374203e2030000000000000000000000000600082015250565b6000611813601483611760565b915061181e826117dd565b602082019050919050565b6000602082019050818103600083015261184281611806565b9050919050565b7f696e636f727265637420706172616d6574657200000000000000000000000000600082015250565b600061187f601383611760565b915061188a82611849565b602082019050919050565b600060208201905081810360008301526118ae81611872565b9050919050565b7f4e487b7100000000000000000000000000000000000000000000000000000000600052603260045260246000fd5b7f4e487b7100000000000000000000000000000000000000000000000000000000600052601160045260246000fd5b600061191e82610fcf565b915061192983610fcf565b9250828201905080821115611941576119406118e4565b5b92915050565b600061195282610fcf565b91507fffffffffffffffffffffffffffffffffffffffffffffffffffffffffffffffff8203611984576119836118e4565b5b600182019050919050565b7f696e636f72726563742070726f626162696c6974790000000000000000000000600082015250565b60006119c5601583611760565b91506119d08261198f565b602082019050919050565b600060208201905081810360008301526119f4816119b8565b9050919050565b6000611a0682610fcf565b9150611a1183610fcf565b9250828202611a1f81610fcf565b91508282048414831517611a3657611a356118e4565b5b5092915050565b7f4e487b7100000000000000000000000000000000000000000000000000000000600052601260045260246000fd5b6000611a7782610fcf565b9150611a8283610fcf565b925082611a9257611a91611a3d565b5b828204905092915050565b7f696e73756666696369656e7420636f696e2076616c7565000000000000000000600082015250565b6000611ad3601783611760565b9150611ade82611a9d565b602082019050919050565b60006020820190508181036000830152611b0281611ac6565b9050919050565b6000611b1482610fcf565b9150611b1f83610fcf565b9250828203905081811115611b3757611b366118e4565b5b92915050565b6000606082019050611b526000830186611064565b611b5f6020830185611064565b611b6c6040830184611073565b949350505050565b600081519050611b8381611606565b92915050565b600060208284031215611b9f57611b9e610fc5565b5b6000611bad84828501611b74565b91505092915050565b7f5361666545524332303a204552433230206f7065726174696f6e20646964206e60008201527f6f74207375636365656400000000000000000000000000000000000000000000602082015250565b6000611c12602a83611760565b9150611c1d82611bb6565b604082019050919050565b60006020820190508181036000830152611c4181611c05565b9050919050565b7f416464726573733a20696e73756666696369656e742062616c616e636520666f60008201527f722063616c6c0000000000000000000000000000000000000000000000000000602082015250565b6000611ca4602683611760565b9150611caf82611c48565b604082019050919050565b60006020820190508181036000830152611cd381611c97565b9050919050565b600081519050919050565b600081905092915050565b60005b83811015611d0e578082015181840152602081019050611cf3565b60008484015250505050565b6000611d2582611cda565b611d2f8185611ce5565b9350611d3f818560208601611cf0565b80840191505092915050565b6000611d578284611d1a565b915081905092915050565b7f416464726573733a2063616c6c20746f206e6f6e2d636f6e7472616374000000600082015250565b6000611d98601d83611760565b9150611da382611d62565b602082019050919050565b60006020820190508181036000830152611dc781611d8b565b9050919050565b600081519050919050565b6000611de482611dce565b611dee8185611760565b9350611dfe818560208601611cf0565b611e078161130e565b840191505092915050565b60006020820190508181036000830152611e2c8184611dd9565b90509291505056fea2646970667358221220b071cfe5c50de036db81e84dabcdfb9e4cd76976f247800218d407164d61447464736f6c63430008130033",
					"opcodes": "PUSH1 0x80 PUSH1 0x40 MSTORE CALLVALUE DUP1 ISZERO PUSH2 0x10 JUMPI PUSH1 0x0 DUP1 REVERT JUMPDEST POP PUSH2 0x1E6A DUP1 PUSH2 0x20 PUSH1 0x0 CODECOPY PUSH1 0x0 RETURN INVALID PUSH1 0x80 PUSH1 0x40 MSTORE PUSH1 0x4 CALLDATASIZE LT PUSH2 0x70 JUMPI PUSH1 0x0 CALLDATALOAD PUSH1 0xE0 SHR DUP1 PUSH4 0xB4C33908 GT PUSH2 0x4E JUMPI DUP1 PUSH4 0xB4C33908 EQ PUSH2 0x122 JUMPI DUP1 PUSH4 0xC3AC7DAF EQ PUSH2 0x15F JUMPI DUP1 PUSH4 0xCC22BF80 EQ PUSH2 0x17B JUMPI DUP1 PUSH4 0xFF175D77 EQ PUSH2 0x1A6 JUMPI PUSH2 0x70 JUMP JUMPDEST DUP1 PUSH4 0x161344E6 EQ PUSH2 0x75 JUMPI DUP1 PUSH4 0x385B3AA5 EQ PUSH2 0xBA JUMPI DUP1 PUSH4 0x8678A7B2 EQ PUSH2 0xF7 JUMPI JUMPDEST PUSH1 0x0 DUP1 REVERT JUMPDEST CALLVALUE DUP1 ISZERO PUSH2 0x81 JUMPI PUSH1 0x0 DUP1 REVERT JUMPDEST POP PUSH2 0x9C PUSH1 0x4 DUP1 CALLDATASIZE SUB DUP2 ADD SWAP1 PUSH2 0x97 SWAP2 SWAP1 PUSH2 0x1005 JUMP JUMPDEST PUSH2 0x1E3 JUMP JUMPDEST PUSH1 0x40 MLOAD PUSH2 0xB1 SWAP10 SWAP9 SWAP8 SWAP7 SWAP6 SWAP5 SWAP4 SWAP3 SWAP2 SWAP1 PUSH2 0x1219 JUMP JUMPDEST PUSH1 0x40 MLOAD DUP1 SWAP2 SUB SWAP1 RETURN JUMPDEST CALLVALUE DUP1 ISZERO PUSH2 0xC6 JUMPI PUSH1 0x0 DUP1 REVERT JUMPDEST POP PUSH2 0xE1 PUSH1 0x4 DUP1 CALLDATASIZE SUB DUP2 ADD SWAP1 PUSH2 0xDC SWAP2 SWAP1 PUSH2 0x1005 JUMP JUMPDEST PUSH2 0x4B1 JUMP JUMPDEST PUSH1 0x40 MLOAD PUSH2 0xEE SWAP2 SWAP1 PUSH2 0x12C2 JUMP JUMPDEST PUSH1 0x40 MLOAD DUP1 SWAP2 SUB SWAP1 RETURN JUMPDEST CALLVALUE DUP1 ISZERO PUSH2 0x103 JUMPI PUSH1 0x0 DUP1 REVERT JUMPDEST POP PUSH2 0x10C PUSH2 0x4D5 JUMP JUMPDEST PUSH1 0x40 MLOAD PUSH2 0x119 SWAP2 SWAP1 PUSH2 0x12C2 JUMP JUMPDEST PUSH1 0x40 MLOAD DUP1 SWAP2 SUB SWAP1 RETURN JUMPDEST CALLVALUE DUP1 ISZERO PUSH2 0x12E JUMPI PUSH1 0x0 DUP1 REVERT JUMPDEST POP PUSH2 0x149 PUSH1 0x4 DUP1 CALLDATASIZE SUB DUP2 ADD SWAP1 PUSH2 0x144 SWAP2 SWAP1 PUSH2 0x1005 JUMP JUMPDEST PUSH2 0x562 JUMP JUMPDEST PUSH1 0x40 MLOAD PUSH2 0x156 SWAP2 SWAP1 PUSH2 0x12C2 JUMP JUMPDEST PUSH1 0x40 MLOAD DUP1 SWAP2 SUB SWAP1 RETURN JUMPDEST PUSH2 0x179 PUSH1 0x4 DUP1 CALLDATASIZE SUB DUP2 ADD SWAP1 PUSH2 0x174 SWAP2 SWAP1 PUSH2 0x1525 JUMP JUMPDEST PUSH2 0x586 JUMP JUMPDEST STOP JUMPDEST CALLVALUE DUP1 ISZERO PUSH2 0x187 JUMPI PUSH1 0x0 DUP1 REVERT JUMPDEST POP PUSH2 0x190 PUSH2 0xB81 JUMP JUMPDEST PUSH1 0x40 MLOAD PUSH2 0x19D SWAP2 SWAP1 PUSH2 0x12C2 JUMP JUMPDEST PUSH1 0x40 MLOAD DUP1 SWAP2 SUB SWAP1 RETURN JUMPDEST CALLVALUE DUP1 ISZERO PUSH2 0x1B2 JUMPI PUSH1 0x0 DUP1 REVERT JUMPDEST POP PUSH2 0x1CD PUSH1 0x4 DUP1 CALLDATASIZE SUB DUP2 ADD SWAP1 PUSH2 0x1C8 SWAP2 SWAP1 PUSH2 0x1632 JUMP JUMPDEST PUSH2 0xB87 JUMP JUMPDEST PUSH1 0x40 MLOAD PUSH2 0x1DA SWAP2 SWAP1 PUSH2 0x12C2 JUMP JUMPDEST PUSH1 0x40 MLOAD DUP1 SWAP2 SUB SWAP1 RETURN JUMPDEST PUSH1 0x0 DUP1 PUSH1 0x0 DUP1 PUSH1 0x0 PUSH1 0x60 DUP1 PUSH1 0x60 DUP1 PUSH1 0x0 DUP1 PUSH1 0x0 DUP13 DUP2 MSTORE PUSH1 0x20 ADD SWAP1 DUP2 MSTORE PUSH1 0x20 ADD PUSH1 0x0 KECCAK256 PUSH1 0x40 MLOAD DUP1 PUSH1 0xC0 ADD PUSH1 0x40 MSTORE SWAP1 DUP2 PUSH1 0x0 DUP3 ADD SLOAD DUP2 MSTORE PUSH1 0x20 ADD PUSH1 0x1 DUP3 ADD PUSH1 0x0 SWAP1 SLOAD SWAP1 PUSH2 0x100 EXP SWAP1 DIV PUSH20 0xFFFFFFFFFFFFFFFFFFFFFFFFFFFFFFFFFFFFFFFF AND PUSH20 0xFFFFFFFFFFFFFFFFFFFFFFFFFFFFFFFFFFFFFFFF AND PUSH20 0xFFFFFFFFFFFFFFFFFFFFFFFFFFFFFFFFFFFFFFFF AND DUP2 MSTORE PUSH1 0x20 ADD PUSH1 0x2 DUP3 ADD SLOAD DUP2 MSTORE PUSH1 0x20 ADD PUSH1 0x3 DUP3 ADD SLOAD DUP2 MSTORE PUSH1 0x20 ADD PUSH1 0x4 DUP3 ADD SLOAD DUP2 MSTORE PUSH1 0x20 ADD PUSH1 0x5 DUP3 ADD PUSH1 0x0 SWAP1 SLOAD SWAP1 PUSH2 0x100 EXP SWAP1 DIV PUSH1 0xFF AND ISZERO ISZERO ISZERO ISZERO DUP2 MSTORE POP POP SWAP1 POP DUP1 PUSH1 0x20 ADD MLOAD SWAP10 POP DUP1 PUSH1 0x40 ADD MLOAD SWAP9 POP DUP1 PUSH1 0x60 ADD MLOAD SWAP8 POP DUP1 PUSH1 0x80 ADD MLOAD SWAP7 POP DUP1 PUSH1 0xA0 ADD MLOAD SWAP6 POP PUSH1 0x0 PUSH1 0x1 PUSH1 0x0 DUP14 DUP2 MSTORE PUSH1 0x20 ADD SWAP1 DUP2 MSTORE PUSH1 0x20 ADD PUSH1 0x0 KECCAK256 PUSH1 0x40 MLOAD DUP1 PUSH1 0x80 ADD PUSH1 0x40 MSTORE SWAP1 DUP2 PUSH1 0x0 DUP3 ADD DUP1 SLOAD DUP1 PUSH1 0x20 MUL PUSH1 0x20 ADD PUSH1 0x40 MLOAD SWAP1 DUP2 ADD PUSH1 0x40 MSTORE DUP1 SWAP3 SWAP2 SWAP1 DUP2 DUP2 MSTORE PUSH1 0x20 ADD DUP3 DUP1 SLOAD DUP1 ISZERO PUSH2 0x33D JUMPI PUSH1 0x20 MUL DUP3 ADD SWAP2 SWAP1 PUSH1 0x0 MSTORE PUSH1 0x20 PUSH1 0x0 KECCAK256 SWAP1 JUMPDEST DUP2 SLOAD DUP2 MSTORE PUSH1 0x20 ADD SWAP1 PUSH1 0x1 ADD SWAP1 DUP1 DUP4 GT PUSH2 0x329 JUMPI JUMPDEST POP POP POP POP POP DUP2 MSTORE PUSH1 0x20 ADD PUSH1 0x1 DUP3 ADD DUP1 SLOAD DUP1 PUSH1 0x20 MUL PUSH1 0x20 ADD PUSH1 0x40 MLOAD SWAP1 DUP2 ADD PUSH1 0x40 MSTORE DUP1 SWAP3 SWAP2 SWAP1 DUP2 DUP2 MSTORE PUSH1 0x20 ADD DUP3 DUP1 SLOAD DUP1 ISZERO PUSH2 0x395 JUMPI PUSH1 0x20 MUL DUP3 ADD SWAP2 SWAP1 PUSH1 0x0 MSTORE PUSH1 0x20 PUSH1 0x0 KECCAK256 SWAP1 JUMPDEST DUP2 SLOAD DUP2 MSTORE PUSH1 0x20 ADD SWAP1 PUSH1 0x1 ADD SWAP1 DUP1 DUP4 GT PUSH2 0x381 JUMPI JUMPDEST POP POP POP POP POP DUP2 MSTORE PUSH1 0x20 ADD PUSH1 0x2 DUP3 ADD DUP1 SLOAD DUP1 PUSH1 0x20 MUL PUSH1 0x20 ADD PUSH1 0x40 MLOAD SWAP1 DUP2 ADD PUSH1 0x40 MSTORE DUP1 SWAP3 SWAP2 SWAP1 DUP2 DUP2 MSTORE PUSH1 0x20 ADD DUP3 DUP1 SLOAD DUP1 ISZERO PUSH2 0x423 JUMPI PUSH1 0x20 MUL DUP3 ADD SWAP2 SWAP1 PUSH1 0x0 MSTORE PUSH1 0x20 PUSH1 0x0 KECCAK256 SWAP1 JUMPDEST DUP2 PUSH1 0x0 SWAP1 SLOAD SWAP1 PUSH2 0x100 EXP SWAP1 DIV PUSH20 0xFFFFFFFFFFFFFFFFFFFFFFFFFFFFFFFFFFFFFFFF AND PUSH20 0xFFFFFFFFFFFFFFFFFFFFFFFFFFFFFFFFFFFFFFFF AND DUP2 MSTORE PUSH1 0x20 ADD SWAP1 PUSH1 0x1 ADD SWAP1 DUP1 DUP4 GT PUSH2 0x3D9 JUMPI JUMPDEST POP POP POP POP POP DUP2 MSTORE PUSH1 0x20 ADD PUSH1 0x3 DUP3 ADD DUP1 SLOAD DUP1 PUSH1 0x20 MUL PUSH1 0x20 ADD PUSH1 0x40 MLOAD SWAP1 DUP2 ADD PUSH1 0x40 MSTORE DUP1 SWAP3 SWAP2 SWAP1 DUP2 DUP2 MSTORE PUSH1 0x20 ADD DUP3 DUP1 SLOAD DUP1 ISZERO PUSH2 0x47B JUMPI PUSH1 0x20 MUL DUP3 ADD SWAP2 SWAP1 PUSH1 0x0 MSTORE PUSH1 0x20 PUSH1 0x0 KECCAK256 SWAP1 JUMPDEST DUP2 SLOAD DUP2 MSTORE PUSH1 0x20 ADD SWAP1 PUSH1 0x1 ADD SWAP1 DUP1 DUP4 GT PUSH2 0x467 JUMPI JUMPDEST POP POP POP POP POP DUP2 MSTORE POP POP SWAP1 POP DUP1 PUSH1 0x0 ADD MLOAD SWAP6 POP DUP1 PUSH1 0x20 ADD MLOAD SWAP5 POP DUP1 PUSH1 0x40 ADD MLOAD SWAP4 POP DUP1 PUSH1 0x60 ADD MLOAD SWAP3 POP POP POP SWAP2 SWAP4 SWAP6 SWAP8 SWAP10 SWAP1 SWAP3 SWAP5 SWAP7 SWAP9 POP JUMP JUMPDEST PUSH1 0x3 DUP2 DUP2 SLOAD DUP2 LT PUSH2 0x4C1 JUMPI PUSH1 0x0 DUP1 REVERT JUMPDEST SWAP1 PUSH1 0x0 MSTORE PUSH1 0x20 PUSH1 0x0 KECCAK256 ADD PUSH1 0x0 SWAP2 POP SWAP1 POP SLOAD DUP2 JUMP JUMPDEST PUSH1 0x0 DUP1 CALLER SWAP1 POP PUSH1 0x0 TIMESTAMP SWAP1 POP PUSH1 0x0 DUP2 DUP4 PUSH1 0x40 MLOAD PUSH1 0x20 ADD PUSH2 0x4F5 SWAP3 SWAP2 SWAP1 PUSH2 0x16C8 JUMP JUMPDEST PUSH1 0x40 MLOAD PUSH1 0x20 DUP2 DUP4 SUB SUB DUP2 MSTORE SWAP1 PUSH1 0x40 MSTORE DUP1 MLOAD SWAP1 PUSH1 0x20 ADD KECCAK256 SWAP1 POP PUSH1 0x0 PUSH1 0xEC DUP3 SWAP1 SHR SWAP1 POP DUP1 PUSH1 0x0 SHR SWAP5 POP PUSH32 0x5BD4C3D730AA2B20B600F395010CDC42B0EFDB18BEBB1C2E641802EA575432D8 DUP5 DUP5 DUP5 DUP5 DUP10 PUSH1 0x40 MLOAD PUSH2 0x553 SWAP6 SWAP5 SWAP4 SWAP3 SWAP2 SWAP1 PUSH2 0x170D JUMP JUMPDEST PUSH1 0x40 MLOAD DUP1 SWAP2 SUB SWAP1 LOG1 POP POP POP POP SWAP1 JUMP JUMPDEST PUSH1 0x2 DUP2 DUP2 SLOAD DUP2 LT PUSH2 0x572 JUMPI PUSH1 0x0 DUP1 REVERT JUMPDEST SWAP1 PUSH1 0x0 MSTORE PUSH1 0x20 PUSH1 0x0 KECCAK256 ADD PUSH1 0x0 SWAP2 POP SWAP1 POP SLOAD DUP2 JUMP JUMPDEST PUSH1 0x0 DUP6 GT PUSH2 0x5C9 JUMPI PUSH1 0x40 MLOAD PUSH32 0x8C379A000000000000000000000000000000000000000000000000000000000 DUP2 MSTORE PUSH1 0x4 ADD PUSH2 0x5C0 SWAP1 PUSH2 0x17BD JUMP JUMPDEST PUSH1 0x40 MLOAD DUP1 SWAP2 SUB SWAP1 REVERT JUMPDEST PUSH1 0x0 DUP5 GT PUSH2 0x60C JUMPI PUSH1 0x40 MLOAD PUSH32 0x8C379A000000000000000000000000000000000000000000000000000000000 DUP2 MSTORE PUSH1 0x4 ADD PUSH2 0x603 SWAP1 PUSH2 0x1829 JUMP JUMPDEST PUSH1 0x40 MLOAD DUP1 SWAP2 SUB SWAP1 REVERT JUMPDEST PUSH1 0x0 DUP4 MLOAD GT DUP1 ISZERO PUSH2 0x61E JUMPI POP PUSH1 0x0 DUP3 MLOAD GT JUMPDEST DUP1 ISZERO PUSH2 0x62B JUMPI POP PUSH1 0x0 DUP2 MLOAD GT JUMPDEST PUSH2 0x66A JUMPI PUSH1 0x40 MLOAD PUSH32 0x8C379A000000000000000000000000000000000000000000000000000000000 DUP2 MSTORE PUSH1 0x4 ADD PUSH2 0x661 SWAP1 PUSH2 0x1895 JUMP JUMPDEST PUSH1 0x40 MLOAD DUP1 SWAP2 SUB SWAP1 REVERT JUMPDEST DUP2 MLOAD DUP4 MLOAD EQ DUP1 ISZERO PUSH2 0x67C JUMPI POP DUP1 MLOAD DUP3 MLOAD EQ JUMPDEST PUSH2 0x6BB JUMPI PUSH1 0x40 MLOAD PUSH32 0x8C379A000000000000000000000000000000000000000000000000000000000 DUP2 MSTORE PUSH1 0x4 ADD PUSH2 0x6B2 SWAP1 PUSH2 0x1895 JUMP JUMPDEST PUSH1 0x40 MLOAD DUP1 SWAP2 SUB SWAP1 REVERT JUMPDEST PUSH1 0x0 DUP1 PUSH1 0x0 SWAP1 POP JUMPDEST DUP5 MLOAD DUP2 LT ISZERO PUSH2 0x707 JUMPI DUP5 DUP2 DUP2 MLOAD DUP2 LT PUSH2 0x6DF JUMPI PUSH2 0x6DE PUSH2 0x18B5 JUMP JUMPDEST JUMPDEST PUSH1 0x20 MUL PUSH1 0x20 ADD ADD MLOAD DUP3 PUSH2 0x6F2 SWAP2 SWAP1 PUSH2 0x1913 JUMP JUMPDEST SWAP2 POP DUP1 DUP1 PUSH2 0x6FF SWAP1 PUSH2 0x1947 JUMP JUMPDEST SWAP2 POP POP PUSH2 0x6C3 JUMP JUMPDEST POP PUSH2 0x2710 DUP2 EQ PUSH2 0x74C JUMPI PUSH1 0x40 MLOAD PUSH32 0x8C379A000000000000000000000000000000000000000000000000000000000 DUP2 MSTORE PUSH1 0x4 ADD PUSH2 0x743 SWAP1 PUSH2 0x19DB JUMP JUMPDEST PUSH1 0x40 MLOAD DUP1 SWAP2 SUB SWAP1 REVERT JUMPDEST PUSH1 0x0 JUMPDEST DUP4 MLOAD DUP2 LT ISZERO PUSH2 0x8A6 JUMPI PUSH1 0x0 PUSH2 0x2710 DUP5 DUP4 DUP2 MLOAD DUP2 LT PUSH2 0x770 JUMPI PUSH2 0x76F PUSH2 0x18B5 JUMP JUMPDEST JUMPDEST PUSH1 0x20 MUL PUSH1 0x20 ADD ADD MLOAD DUP9 DUP9 DUP6 DUP2 MLOAD DUP2 LT PUSH2 0x78C JUMPI PUSH2 0x78B PUSH2 0x18B5 JUMP JUMPDEST JUMPDEST PUSH1 0x20 MUL PUSH1 0x20 ADD ADD MLOAD PUSH2 0x79E SWAP2 SWAP1 PUSH2 0x19FB JUMP JUMPDEST PUSH2 0x7A8 SWAP2 SWAP1 PUSH2 0x19FB JUMP JUMPDEST PUSH2 0x7B2 SWAP2 SWAP1 PUSH2 0x1A6C JUMP JUMPDEST SWAP1 POP PUSH1 0x0 PUSH20 0xFFFFFFFFFFFFFFFFFFFFFFFFFFFFFFFFFFFFFFFF AND DUP6 DUP4 DUP2 MLOAD DUP2 LT PUSH2 0x7DF JUMPI PUSH2 0x7DE PUSH2 0x18B5 JUMP JUMPDEST JUMPDEST PUSH1 0x20 MUL PUSH1 0x20 ADD ADD MLOAD PUSH20 0xFFFFFFFFFFFFFFFFFFFFFFFFFFFFFFFFFFFFFFFF AND SUB PUSH2 0x84A JUMPI DUP1 CALLVALUE LT ISZERO PUSH2 0x845 JUMPI PUSH1 0x40 MLOAD PUSH32 0x8C379A000000000000000000000000000000000000000000000000000000000 DUP2 MSTORE PUSH1 0x4 ADD PUSH2 0x83C SWAP1 PUSH2 0x1AE9 JUMP JUMPDEST PUSH1 0x40 MLOAD DUP1 SWAP2 SUB SWAP1 REVERT JUMPDEST PUSH2 0x892 JUMP JUMPDEST PUSH2 0x891 CALLER ADDRESS DUP4 DUP9 DUP7 DUP2 MLOAD DUP2 LT PUSH2 0x863 JUMPI PUSH2 0x862 PUSH2 0x18B5 JUMP JUMPDEST JUMPDEST PUSH1 0x20 MUL PUSH1 0x20 ADD ADD MLOAD PUSH20 0xFFFFFFFFFFFFFFFFFFFFFFFFFFFFFFFFFFFFFFFF AND PUSH2 0xBAA SWAP1 SWAP4 SWAP3 SWAP2 SWAP1 PUSH4 0xFFFFFFFF AND JUMP JUMPDEST JUMPDEST POP DUP1 DUP1 PUSH2 0x89E SWAP1 PUSH2 0x1947 JUMP JUMPDEST SWAP2 POP POP PUSH2 0x74F JUMP JUMPDEST POP PUSH1 0x40 MLOAD DUP1 PUSH1 0xC0 ADD PUSH1 0x40 MSTORE DUP1 PUSH1 0x4 SLOAD DUP2 MSTORE PUSH1 0x20 ADD DUP9 PUSH20 0xFFFFFFFFFFFFFFFFFFFFFFFFFFFFFFFFFFFFFFFF AND DUP2 MSTORE PUSH1 0x20 ADD DUP8 DUP2 MSTORE PUSH1 0x20 ADD DUP7 DUP2 MSTORE PUSH1 0x20 ADD DUP7 DUP2 MSTORE PUSH1 0x20 ADD PUSH1 0x0 ISZERO ISZERO DUP2 MSTORE POP PUSH1 0x0 DUP1 PUSH1 0x4 SLOAD DUP2 MSTORE PUSH1 0x20 ADD SWAP1 DUP2 MSTORE PUSH1 0x20 ADD PUSH1 0x0 KECCAK256 PUSH1 0x0 DUP3 ADD MLOAD DUP2 PUSH1 0x0 ADD SSTORE PUSH1 0x20 DUP3 ADD MLOAD DUP2 PUSH1 0x1 ADD PUSH1 0x0 PUSH2 0x100 EXP DUP2 SLOAD DUP2 PUSH20 0xFFFFFFFFFFFFFFFFFFFFFFFFFFFFFFFFFFFFFFFF MUL NOT AND SWAP1 DUP4 PUSH20 0xFFFFFFFFFFFFFFFFFFFFFFFFFFFFFFFFFFFFFFFF AND MUL OR SWAP1 SSTORE POP PUSH1 0x40 DUP3 ADD MLOAD DUP2 PUSH1 0x2 ADD SSTORE PUSH1 0x60 DUP3 ADD MLOAD DUP2 PUSH1 0x3 ADD SSTORE PUSH1 0x80 DUP3 ADD MLOAD DUP2 PUSH1 0x4 ADD SSTORE PUSH1 0xA0 DUP3 ADD MLOAD DUP2 PUSH1 0x5 ADD PUSH1 0x0 PUSH2 0x100 EXP DUP2 SLOAD DUP2 PUSH1 0xFF MUL NOT AND SWAP1 DUP4 ISZERO ISZERO MUL OR SWAP1 SSTORE POP SWAP1 POP POP PUSH1 0x0 PUSH1 0x1 PUSH1 0x0 PUSH1 0x4 SLOAD DUP2 MSTORE PUSH1 0x20 ADD SWAP1 DUP2 MSTORE PUSH1 0x20 ADD PUSH1 0x0 KECCAK256 SWAP1 POP PUSH1 0x0 DUP2 PUSH1 0x1 ADD SWAP1 POP PUSH1 0x0 JUMPDEST DUP7 MLOAD DUP2 LT ISZERO PUSH2 0xAE7 JUMPI PUSH1 0x0 PUSH2 0x2710 PUSH3 0xFFFFF DUP10 DUP5 DUP2 MLOAD DUP2 LT PUSH2 0x9DE JUMPI PUSH2 0x9DD PUSH2 0x18B5 JUMP JUMPDEST JUMPDEST PUSH1 0x20 MUL PUSH1 0x20 ADD ADD MLOAD PUSH2 0x9F0 SWAP2 SWAP1 PUSH2 0x19FB JUMP JUMPDEST PUSH2 0x9FA SWAP2 SWAP1 PUSH2 0x1A6C JUMP JUMPDEST SWAP1 POP PUSH1 0x0 DUP3 SUB PUSH2 0xA31 JUMPI DUP3 DUP2 SWAP1 DUP1 PUSH1 0x1 DUP2 SLOAD ADD DUP1 DUP3 SSTORE DUP1 SWAP2 POP POP PUSH1 0x1 SWAP1 SUB SWAP1 PUSH1 0x0 MSTORE PUSH1 0x20 PUSH1 0x0 KECCAK256 ADD PUSH1 0x0 SWAP1 SWAP2 SWAP1 SWAP2 SWAP1 SWAP2 POP SSTORE PUSH2 0xAD3 JUMP JUMPDEST PUSH1 0x1 DUP9 MLOAD PUSH2 0xA3F SWAP2 SWAP1 PUSH2 0x1B09 JUMP JUMPDEST DUP3 SUB PUSH2 0xA75 JUMPI DUP3 PUSH3 0xFFFFF SWAP1 DUP1 PUSH1 0x1 DUP2 SLOAD ADD DUP1 DUP3 SSTORE DUP1 SWAP2 POP POP PUSH1 0x1 SWAP1 SUB SWAP1 PUSH1 0x0 MSTORE PUSH1 0x20 PUSH1 0x0 KECCAK256 ADD PUSH1 0x0 SWAP1 SWAP2 SWAP1 SWAP2 SWAP1 SWAP2 POP SSTORE PUSH2 0xAD2 JUMP JUMPDEST DUP3 DUP2 DUP5 PUSH1 0x1 DUP6 PUSH2 0xA85 SWAP2 SWAP1 PUSH2 0x1B09 JUMP JUMPDEST DUP2 SLOAD DUP2 LT PUSH2 0xA96 JUMPI PUSH2 0xA95 PUSH2 0x18B5 JUMP JUMPDEST JUMPDEST SWAP1 PUSH1 0x0 MSTORE PUSH1 0x20 PUSH1 0x0 KECCAK256 ADD SLOAD PUSH2 0xAAB SWAP2 SWAP1 PUSH2 0x1913 JUMP JUMPDEST SWAP1 DUP1 PUSH1 0x1 DUP2 SLOAD ADD DUP1 DUP3 SSTORE DUP1 SWAP2 POP POP PUSH1 0x1 SWAP1 SUB SWAP1 PUSH1 0x0 MSTORE PUSH1 0x20 PUSH1 0x0 KECCAK256 ADD PUSH1 0x0 SWAP1 SWAP2 SWAP1 SWAP2 SWAP1 SWAP2 POP SSTORE JUMPDEST JUMPDEST POP DUP1 DUP1 PUSH2 0xADF SWAP1 PUSH2 0x1947 JUMP JUMPDEST SWAP2 POP POP PUSH2 0x9B9 JUMP JUMPDEST POP DUP6 DUP3 PUSH1 0x0 ADD SWAP1 DUP1 MLOAD SWAP1 PUSH1 0x20 ADD SWAP1 PUSH2 0xB00 SWAP3 SWAP2 SWAP1 PUSH2 0xEC7 JUMP JUMPDEST POP DUP5 DUP3 PUSH1 0x2 ADD SWAP1 DUP1 MLOAD SWAP1 PUSH1 0x20 ADD SWAP1 PUSH2 0xB19 SWAP3 SWAP2 SWAP1 PUSH2 0xF14 JUMP JUMPDEST POP DUP4 DUP3 PUSH1 0x3 ADD SWAP1 DUP1 MLOAD SWAP1 PUSH1 0x20 ADD SWAP1 PUSH2 0xB32 SWAP3 SWAP2 SWAP1 PUSH2 0xEC7 JUMP JUMPDEST POP PUSH1 0x2 PUSH1 0x4 SLOAD SWAP1 DUP1 PUSH1 0x1 DUP2 SLOAD ADD DUP1 DUP3 SSTORE DUP1 SWAP2 POP POP PUSH1 0x1 SWAP1 SUB SWAP1 PUSH1 0x0 MSTORE PUSH1 0x20 PUSH1 0x0 KECCAK256 ADD PUSH1 0x0 SWAP1 SWAP2 SWAP1 SWAP2 SWAP1 SWAP2 POP SSTORE PUSH1 0x4 PUSH1 0x0 DUP2 SLOAD DUP1 SWAP3 SWAP2 SWAP1 PUSH2 0xB71 SWAP1 PUSH2 0x1947 JUMP JUMPDEST SWAP2 SWAP1 POP SSTORE POP POP POP POP POP POP POP POP POP POP JUMP JUMPDEST PUSH1 0x4 SLOAD DUP2 JUMP JUMPDEST PUSH1 0x0 DUP2 ISZERO PUSH2 0xB9C JUMPI PUSH1 0x3 DUP1 SLOAD SWAP1 POP SWAP1 POP PUSH2 0xBA5 JUMP JUMPDEST PUSH1 0x2 DUP1 SLOAD SWAP1 POP SWAP1 POP JUMPDEST SWAP2 SWAP1 POP JUMP JUMPDEST PUSH2 0xC2D DUP5 PUSH4 0x23B872DD PUSH1 0xE0 SHL DUP6 DUP6 DUP6 PUSH1 0x40 MLOAD PUSH1 0x24 ADD PUSH2 0xBCB SWAP4 SWAP3 SWAP2 SWAP1 PUSH2 0x1B3D JUMP JUMPDEST PUSH1 0x40 MLOAD PUSH1 0x20 DUP2 DUP4 SUB SUB DUP2 MSTORE SWAP1 PUSH1 0x40 MSTORE SWAP1 PUSH28 0xFFFFFFFFFFFFFFFFFFFFFFFFFFFFFFFFFFFFFFFFFFFFFFFFFFFFFFFF NOT AND PUSH1 0x20 DUP3 ADD DUP1 MLOAD PUSH28 0xFFFFFFFFFFFFFFFFFFFFFFFFFFFFFFFFFFFFFFFFFFFFFFFFFFFFFFFF DUP4 DUP2 DUP4 AND OR DUP4 MSTORE POP POP POP POP PUSH2 0xC33 JUMP JUMPDEST POP POP POP POP JUMP JUMPDEST PUSH1 0x0 PUSH2 0xC95 DUP3 PUSH1 0x40 MLOAD DUP1 PUSH1 0x40 ADD PUSH1 0x40 MSTORE DUP1 PUSH1 0x20 DUP2 MSTORE PUSH1 0x20 ADD PUSH32 0x5361666545524332303A206C6F772D6C6576656C2063616C6C206661696C6564 DUP2 MSTORE POP DUP6 PUSH20 0xFFFFFFFFFFFFFFFFFFFFFFFFFFFFFFFFFFFFFFFF AND PUSH2 0xCFA SWAP1 SWAP3 SWAP2 SWAP1 PUSH4 0xFFFFFFFF AND JUMP JUMPDEST SWAP1 POP PUSH1 0x0 DUP2 MLOAD GT ISZERO PUSH2 0xCF5 JUMPI DUP1 DUP1 PUSH1 0x20 ADD SWAP1 MLOAD DUP2 ADD SWAP1 PUSH2 0xCB5 SWAP2 SWAP1 PUSH2 0x1B89 JUMP JUMPDEST PUSH2 0xCF4 JUMPI PUSH1 0x40 MLOAD PUSH32 0x8C379A000000000000000000000000000000000000000000000000000000000 DUP2 MSTORE PUSH1 0x4 ADD PUSH2 0xCEB SWAP1 PUSH2 0x1C28 JUMP JUMPDEST PUSH1 0x40 MLOAD DUP1 SWAP2 SUB SWAP1 REVERT JUMPDEST JUMPDEST POP POP POP JUMP JUMPDEST PUSH1 0x60 PUSH2 0xD09 DUP5 DUP5 PUSH1 0x0 DUP6 PUSH2 0xD12 JUMP JUMPDEST SWAP1 POP SWAP4 SWAP3 POP POP POP JUMP JUMPDEST PUSH1 0x60 DUP3 SELFBALANCE LT ISZERO PUSH2 0xD57 JUMPI PUSH1 0x40 MLOAD PUSH32 0x8C379A000000000000000000000000000000000000000000000000000000000 DUP2 MSTORE PUSH1 0x4 ADD PUSH2 0xD4E SWAP1 PUSH2 0x1CBA JUMP JUMPDEST PUSH1 0x40 MLOAD DUP1 SWAP2 SUB SWAP1 REVERT JUMPDEST PUSH1 0x0 DUP1 DUP7 PUSH20 0xFFFFFFFFFFFFFFFFFFFFFFFFFFFFFFFFFFFFFFFF AND DUP6 DUP8 PUSH1 0x40 MLOAD PUSH2 0xD80 SWAP2 SWAP1 PUSH2 0x1D4B JUMP JUMPDEST PUSH1 0x0 PUSH1 0x40 MLOAD DUP1 DUP4 SUB DUP2 DUP6 DUP8 GAS CALL SWAP3 POP POP POP RETURNDATASIZE DUP1 PUSH1 0x0 DUP2 EQ PUSH2 0xDBD JUMPI PUSH1 0x40 MLOAD SWAP2 POP PUSH1 0x1F NOT PUSH1 0x3F RETURNDATASIZE ADD AND DUP3 ADD PUSH1 0x40 MSTORE RETURNDATASIZE DUP3 MSTORE RETURNDATASIZE PUSH1 0x0 PUSH1 0x20 DUP5 ADD RETURNDATACOPY PUSH2 0xDC2 JUMP JUMPDEST PUSH1 0x60 SWAP2 POP JUMPDEST POP SWAP2 POP SWAP2 POP PUSH2 0xDD3 DUP8 DUP4 DUP4 DUP8 PUSH2 0xDDF JUMP JUMPDEST SWAP3 POP POP POP SWAP5 SWAP4 POP POP POP POP JUMP JUMPDEST PUSH1 0x60 DUP4 ISZERO PUSH2 0xE41 JUMPI PUSH1 0x0 DUP4 MLOAD SUB PUSH2 0xE39 JUMPI PUSH2 0xDF9 DUP6 PUSH2 0xE54 JUMP JUMPDEST PUSH2 0xE38 JUMPI PUSH1 0x40 MLOAD PUSH32 0x8C379A000000000000000000000000000000000000000000000000000000000 DUP2 MSTORE PUSH1 0x4 ADD PUSH2 0xE2F SWAP1 PUSH2 0x1DAE JUMP JUMPDEST PUSH1 0x40 MLOAD DUP1 SWAP2 SUB SWAP1 REVERT JUMPDEST JUMPDEST DUP3 SWAP1 POP PUSH2 0xE4C JUMP JUMPDEST PUSH2 0xE4B DUP4 DUP4 PUSH2 0xE77 JUMP JUMPDEST JUMPDEST SWAP5 SWAP4 POP POP POP POP JUMP JUMPDEST PUSH1 0x0 DUP1 DUP3 PUSH20 0xFFFFFFFFFFFFFFFFFFFFFFFFFFFFFFFFFFFFFFFF AND EXTCODESIZE GT SWAP1 POP SWAP2 SWAP1 POP JUMP JUMPDEST PUSH1 0x0 DUP3 MLOAD GT ISZERO PUSH2 0xE8A JUMPI DUP2 MLOAD DUP1 DUP4 PUSH1 0x20 ADD REVERT JUMPDEST DUP1 PUSH1 0x40 MLOAD PUSH32 0x8C379A000000000000000000000000000000000000000000000000000000000 DUP2 MSTORE PUSH1 0x4 ADD PUSH2 0xEBE SWAP2 SWAP1 PUSH2 0x1E12 JUMP JUMPDEST PUSH1 0x40 MLOAD DUP1 SWAP2 SUB SWAP1 REVERT JUMPDEST DUP3 DUP1 SLOAD DUP3 DUP3 SSTORE SWAP1 PUSH1 0x0 MSTORE PUSH1 0x20 PUSH1 0x0 KECCAK256 SWAP1 DUP2 ADD SWAP3 DUP3 ISZERO PUSH2 0xF03 JUMPI SWAP2 PUSH1 0x20 MUL DUP3 ADD JUMPDEST DUP3 DUP2 GT ISZERO PUSH2 0xF02 JUMPI DUP3 MLOAD DUP3 SSTORE SWAP2 PUSH1 0x20 ADD SWAP2 SWAP1 PUSH1 0x1 ADD SWAP1 PUSH2 0xEE7 JUMP JUMPDEST JUMPDEST POP SWAP1 POP PUSH2 0xF10 SWAP2 SWAP1 PUSH2 0xF9E JUMP JUMPDEST POP SWAP1 JUMP JUMPDEST DUP3 DUP1 SLOAD DUP3 DUP3 SSTORE SWAP1 PUSH1 0x0 MSTORE PUSH1 0x20 PUSH1 0x0 KECCAK256 SWAP1 DUP2 ADD SWAP3 DUP3 ISZERO PUSH2 0xF8D JUMPI SWAP2 PUSH1 0x20 MUL DUP3 ADD JUMPDEST DUP3 DUP2 GT ISZERO PUSH2 0xF8C JUMPI DUP3 MLOAD DUP3 PUSH1 0x0 PUSH2 0x100 EXP DUP2 SLOAD DUP2 PUSH20 0xFFFFFFFFFFFFFFFFFFFFFFFFFFFFFFFFFFFFFFFF MUL NOT AND SWAP1 DUP4 PUSH20 0xFFFFFFFFFFFFFFFFFFFFFFFFFFFFFFFFFFFFFFFF AND MUL OR SWAP1 SSTORE POP SWAP2 PUSH1 0x20 ADD SWAP2 SWAP1 PUSH1 0x1 ADD SWAP1 PUSH2 0xF34 JUMP JUMPDEST JUMPDEST POP SWAP1 POP PUSH2 0xF9A SWAP2 SWAP1 PUSH2 0xF9E JUMP JUMPDEST POP SWAP1 JUMP JUMPDEST JUMPDEST DUP1 DUP3 GT ISZERO PUSH2 0xFB7 JUMPI PUSH1 0x0 DUP2 PUSH1 0x0 SWAP1 SSTORE POP PUSH1 0x1 ADD PUSH2 0xF9F JUMP JUMPDEST POP SWAP1 JUMP JUMPDEST PUSH1 0x0 PUSH1 0x40 MLOAD SWAP1 POP SWAP1 JUMP JUMPDEST PUSH1 0x0 DUP1 REVERT JUMPDEST PUSH1 0x0 DUP1 REVERT JUMPDEST PUSH1 0x0 DUP2 SWAP1 POP SWAP2 SWAP1 POP JUMP JUMPDEST PUSH2 0xFE2 DUP2 PUSH2 0xFCF JUMP JUMPDEST DUP2 EQ PUSH2 0xFED JUMPI PUSH1 0x0 DUP1 REVERT JUMPDEST POP JUMP JUMPDEST PUSH1 0x0 DUP2 CALLDATALOAD SWAP1 POP PUSH2 0xFFF DUP2 PUSH2 0xFD9 JUMP JUMPDEST SWAP3 SWAP2 POP POP JUMP JUMPDEST PUSH1 0x0 PUSH1 0x20 DUP3 DUP5 SUB SLT ISZERO PUSH2 0x101B JUMPI PUSH2 0x101A PUSH2 0xFC5 JUMP JUMPDEST JUMPDEST PUSH1 0x0 PUSH2 0x1029 DUP5 DUP3 DUP6 ADD PUSH2 0xFF0 JUMP JUMPDEST SWAP2 POP POP SWAP3 SWAP2 POP POP JUMP JUMPDEST PUSH1 0x0 PUSH20 0xFFFFFFFFFFFFFFFFFFFFFFFFFFFFFFFFFFFFFFFF DUP3 AND SWAP1 POP SWAP2 SWAP1 POP JUMP JUMPDEST PUSH1 0x0 PUSH2 0x105D DUP3 PUSH2 0x1032 JUMP JUMPDEST SWAP1 POP SWAP2 SWAP1 POP JUMP JUMPDEST PUSH2 0x106D DUP2 PUSH2 0x1052 JUMP JUMPDEST DUP3 MSTORE POP POP JUMP JUMPDEST PUSH2 0x107C DUP2 PUSH2 0xFCF JUMP JUMPDEST DUP3 MSTORE POP POP JUMP JUMPDEST PUSH1 0x0 DUP2 ISZERO ISZERO SWAP1 POP SWAP2 SWAP1 POP JUMP JUMPDEST PUSH2 0x1097 DUP2 PUSH2 0x1082 JUMP JUMPDEST DUP3 MSTORE POP POP JUMP JUMPDEST PUSH1 0x0 DUP2 MLOAD SWAP1 POP SWAP2 SWAP1 POP JUMP JUMPDEST PUSH1 0x0 DUP3 DUP3 MSTORE PUSH1 0x20 DUP3 ADD SWAP1 POP SWAP3 SWAP2 POP POP JUMP JUMPDEST PUSH1 0x0 DUP2 SWAP1 POP PUSH1 0x20 DUP3 ADD SWAP1 POP SWAP2 SWAP1 POP JUMP JUMPDEST PUSH2 0x10D2 DUP2 PUSH2 0xFCF JUMP JUMPDEST DUP3 MSTORE POP POP JUMP JUMPDEST PUSH1 0x0 PUSH2 0x10E4 DUP4 DUP4 PUSH2 0x10C9 JUMP JUMPDEST PUSH1 0x20 DUP4 ADD SWAP1 POP SWAP3 SWAP2 POP POP JUMP JUMPDEST PUSH1 0x0 PUSH1 0x20 DUP3 ADD SWAP1 POP SWAP2 SWAP1 POP JUMP JUMPDEST PUSH1 0x0 PUSH2 0x1108 DUP3 PUSH2 0x109D JUMP JUMPDEST PUSH2 0x1112 DUP2 DUP6 PUSH2 0x10A8 JUMP JUMPDEST SWAP4 POP PUSH2 0x111D DUP4 PUSH2 0x10B9 JUMP JUMPDEST DUP1 PUSH1 0x0 JUMPDEST DUP4 DUP2 LT ISZERO PUSH2 0x114E JUMPI DUP2 MLOAD PUSH2 0x1135 DUP9 DUP3 PUSH2 0x10D8 JUMP JUMPDEST SWAP8 POP PUSH2 0x1140 DUP4 PUSH2 0x10F0 JUMP JUMPDEST SWAP3 POP POP PUSH1 0x1 DUP2 ADD SWAP1 POP PUSH2 0x1121 JUMP JUMPDEST POP DUP6 SWAP4 POP POP POP POP SWAP3 SWAP2 POP POP JUMP JUMPDEST PUSH1 0x0 DUP2 MLOAD SWAP1 POP SWAP2 SWAP1 POP JUMP JUMPDEST PUSH1 0x0 DUP3 DUP3 MSTORE PUSH1 0x20 DUP3 ADD SWAP1 POP SWAP3 SWAP2 POP POP JUMP JUMPDEST PUSH1 0x0 DUP2 SWAP1 POP PUSH1 0x20 DUP3 ADD SWAP1 POP SWAP2 SWAP1 POP JUMP JUMPDEST PUSH2 0x1190 DUP2 PUSH2 0x1052 JUMP JUMPDEST DUP3 MSTORE POP POP JUMP JUMPDEST PUSH1 0x0 PUSH2 0x11A2 DUP4 DUP4 PUSH2 0x1187 JUMP JUMPDEST PUSH1 0x20 DUP4 ADD SWAP1 POP SWAP3 SWAP2 POP POP JUMP JUMPDEST PUSH1 0x0 PUSH1 0x20 DUP3 ADD SWAP1 POP SWAP2 SWAP1 POP JUMP JUMPDEST PUSH1 0x0 PUSH2 0x11C6 DUP3 PUSH2 0x115B JUMP JUMPDEST PUSH2 0x11D0 DUP2 DUP6 PUSH2 0x1166 JUMP JUMPDEST SWAP4 POP PUSH2 0x11DB DUP4 PUSH2 0x1177 JUMP JUMPDEST DUP1 PUSH1 0x0 JUMPDEST DUP4 DUP2 LT ISZERO PUSH2 0x120C JUMPI DUP2 MLOAD PUSH2 0x11F3 DUP9 DUP3 PUSH2 0x1196 JUMP JUMPDEST SWAP8 POP PUSH2 0x11FE DUP4 PUSH2 0x11AE JUMP JUMPDEST SWAP3 POP POP PUSH1 0x1 DUP2 ADD SWAP1 POP PUSH2 0x11DF JUMP JUMPDEST POP DUP6 SWAP4 POP POP POP POP SWAP3 SWAP2 POP POP JUMP JUMPDEST PUSH1 0x0 PUSH2 0x120 DUP3 ADD SWAP1 POP PUSH2 0x122F PUSH1 0x0 DUP4 ADD DUP13 PUSH2 0x1064 JUMP JUMPDEST PUSH2 0x123C PUSH1 0x20 DUP4 ADD DUP12 PUSH2 0x1073 JUMP JUMPDEST PUSH2 0x1249 PUSH1 0x40 DUP4 ADD DUP11 PUSH2 0x1073 JUMP JUMPDEST PUSH2 0x1256 PUSH1 0x60 DUP4 ADD DUP10 PUSH2 0x1073 JUMP JUMPDEST PUSH2 0x1263 PUSH1 0x80 DUP4 ADD DUP9 PUSH2 0x108E JUMP JUMPDEST DUP2 DUP2 SUB PUSH1 0xA0 DUP4 ADD MSTORE PUSH2 0x1275 DUP2 DUP8 PUSH2 0x10FD JUMP JUMPDEST SWAP1 POP DUP2 DUP2 SUB PUSH1 0xC0 DUP4 ADD MSTORE PUSH2 0x1289 DUP2 DUP7 PUSH2 0x10FD JUMP JUMPDEST SWAP1 POP DUP2 DUP2 SUB PUSH1 0xE0 DUP4 ADD MSTORE PUSH2 0x129D DUP2 DUP6 PUSH2 0x11BB JUMP JUMPDEST SWAP1 POP DUP2 DUP2 SUB PUSH2 0x100 DUP4 ADD MSTORE PUSH2 0x12B2 DUP2 DUP5 PUSH2 0x10FD JUMP JUMPDEST SWAP1 POP SWAP11 SWAP10 POP POP POP POP POP POP POP POP POP POP JUMP JUMPDEST PUSH1 0x0 PUSH1 0x20 DUP3 ADD SWAP1 POP PUSH2 0x12D7 PUSH1 0x0 DUP4 ADD DUP5 PUSH2 0x1073 JUMP JUMPDEST SWAP3 SWAP2 POP POP JUMP JUMPDEST PUSH2 0x12E6 DUP2 PUSH2 0x1052 JUMP JUMPDEST DUP2 EQ PUSH2 0x12F1 JUMPI PUSH1 0x0 DUP1 REVERT JUMPDEST POP JUMP JUMPDEST PUSH1 0x0 DUP2 CALLDATALOAD SWAP1 POP PUSH2 0x1303 DUP2 PUSH2 0x12DD JUMP JUMPDEST SWAP3 SWAP2 POP POP JUMP JUMPDEST PUSH1 0x0 DUP1 REVERT JUMPDEST PUSH1 0x0 PUSH1 0x1F NOT PUSH1 0x1F DUP4 ADD AND SWAP1 POP SWAP2 SWAP1 POP JUMP JUMPDEST PUSH32 0x4E487B7100000000000000000000000000000000000000000000000000000000 PUSH1 0x0 MSTORE PUSH1 0x41 PUSH1 0x4 MSTORE PUSH1 0x24 PUSH1 0x0 REVERT JUMPDEST PUSH2 0x1357 DUP3 PUSH2 0x130E JUMP JUMPDEST DUP2 ADD DUP2 DUP2 LT PUSH8 0xFFFFFFFFFFFFFFFF DUP3 GT OR ISZERO PUSH2 0x1376 JUMPI PUSH2 0x1375 PUSH2 0x131F JUMP JUMPDEST JUMPDEST DUP1 PUSH1 0x40 MSTORE POP POP POP JUMP JUMPDEST PUSH1 0x0 PUSH2 0x1389 PUSH2 0xFBB JUMP JUMPDEST SWAP1 POP PUSH2 0x1395 DUP3 DUP3 PUSH2 0x134E JUMP JUMPDEST SWAP2 SWAP1 POP JUMP JUMPDEST PUSH1 0x0 PUSH8 0xFFFFFFFFFFFFFFFF DUP3 GT ISZERO PUSH2 0x13B5 JUMPI PUSH2 0x13B4 PUSH2 0x131F JUMP JUMPDEST JUMPDEST PUSH1 0x20 DUP3 MUL SWAP1 POP PUSH1 0x20 DUP2 ADD SWAP1 POP SWAP2 SWAP1 POP JUMP JUMPDEST PUSH1 0x0 DUP1 REVERT JUMPDEST PUSH1 0x0 PUSH2 0x13DE PUSH2 0x13D9 DUP5 PUSH2 0x139A JUMP JUMPDEST PUSH2 0x137F JUMP JUMPDEST SWAP1 POP DUP1 DUP4 DUP3 MSTORE PUSH1 0x20 DUP3 ADD SWAP1 POP PUSH1 0x20 DUP5 MUL DUP4 ADD DUP6 DUP2 GT ISZERO PUSH2 0x1401 JUMPI PUSH2 0x1400 PUSH2 0x13C6 JUMP JUMPDEST JUMPDEST DUP4 JUMPDEST DUP2 DUP2 LT ISZERO PUSH2 0x142A JUMPI DUP1 PUSH2 0x1416 DUP9 DUP3 PUSH2 0xFF0 JUMP JUMPDEST DUP5 MSTORE PUSH1 0x20 DUP5 ADD SWAP4 POP POP PUSH1 0x20 DUP2 ADD SWAP1 POP PUSH2 0x1403 JUMP JUMPDEST POP POP POP SWAP4 SWAP3 POP POP POP JUMP JUMPDEST PUSH1 0x0 DUP3 PUSH1 0x1F DUP4 ADD SLT PUSH2 0x1449 JUMPI PUSH2 0x1448 PUSH2 0x1309 JUMP JUMPDEST JUMPDEST DUP2 CALLDATALOAD PUSH2 0x1459 DUP5 DUP3 PUSH1 0x20 DUP7 ADD PUSH2 0x13CB JUMP JUMPDEST SWAP2 POP POP SWAP3 SWAP2 POP POP JUMP JUMPDEST PUSH1 0x0 PUSH8 0xFFFFFFFFFFFFFFFF DUP3 GT ISZERO PUSH2 0x147D JUMPI PUSH2 0x147C PUSH2 0x131F JUMP JUMPDEST JUMPDEST PUSH1 0x20 DUP3 MUL SWAP1 POP PUSH1 0x20 DUP2 ADD SWAP1 POP SWAP2 SWAP1 POP JUMP JUMPDEST PUSH1 0x0 PUSH2 0x14A1 PUSH2 0x149C DUP5 PUSH2 0x1462 JUMP JUMPDEST PUSH2 0x137F JUMP JUMPDEST SWAP1 POP DUP1 DUP4 DUP3 MSTORE PUSH1 0x20 DUP3 ADD SWAP1 POP PUSH1 0x20 DUP5 MUL DUP4 ADD DUP6 DUP2 GT ISZERO PUSH2 0x14C4 JUMPI PUSH2 0x14C3 PUSH2 0x13C6 JUMP JUMPDEST JUMPDEST DUP4 JUMPDEST DUP2 DUP2 LT ISZERO PUSH2 0x14ED JUMPI DUP1 PUSH2 0x14D9 DUP9 DUP3 PUSH2 0x12F4 JUMP JUMPDEST DUP5 MSTORE PUSH1 0x20 DUP5 ADD SWAP4 POP POP PUSH1 0x20 DUP2 ADD SWAP1 POP PUSH2 0x14C6 JUMP JUMPDEST POP POP POP SWAP4 SWAP3 POP POP POP JUMP JUMPDEST PUSH1 0x0 DUP3 PUSH1 0x1F DUP4 ADD SLT PUSH2 0x150C JUMPI PUSH2 0x150B PUSH2 0x1309 JUMP JUMPDEST JUMPDEST DUP2 CALLDATALOAD PUSH2 0x151C DUP5 DUP3 PUSH1 0x20 DUP7 ADD PUSH2 0x148E JUMP JUMPDEST SWAP2 POP POP SWAP3 SWAP2 POP POP JUMP JUMPDEST PUSH1 0x0 DUP1 PUSH1 0x0 DUP1 PUSH1 0x0 DUP1 PUSH1 0xC0 DUP8 DUP10 SUB SLT ISZERO PUSH2 0x1542 JUMPI PUSH2 0x1541 PUSH2 0xFC5 JUMP JUMPDEST JUMPDEST PUSH1 0x0 PUSH2 0x1550 DUP10 DUP3 DUP11 ADD PUSH2 0x12F4 JUMP JUMPDEST SWAP7 POP POP PUSH1 0x20 PUSH2 0x1561 DUP10 DUP3 DUP11 ADD PUSH2 0xFF0 JUMP JUMPDEST SWAP6 POP POP PUSH1 0x40 PUSH2 0x1572 DUP10 DUP3 DUP11 ADD PUSH2 0xFF0 JUMP JUMPDEST SWAP5 POP POP PUSH1 0x60 DUP8 ADD CALLDATALOAD PUSH8 0xFFFFFFFFFFFFFFFF DUP2 GT ISZERO PUSH2 0x1593 JUMPI PUSH2 0x1592 PUSH2 0xFCA JUMP JUMPDEST JUMPDEST PUSH2 0x159F DUP10 DUP3 DUP11 ADD PUSH2 0x1434 JUMP JUMPDEST SWAP4 POP POP PUSH1 0x80 DUP8 ADD CALLDATALOAD PUSH8 0xFFFFFFFFFFFFFFFF DUP2 GT ISZERO PUSH2 0x15C0 JUMPI PUSH2 0x15BF PUSH2 0xFCA JUMP JUMPDEST JUMPDEST PUSH2 0x15CC DUP10 DUP3 DUP11 ADD PUSH2 0x14F7 JUMP JUMPDEST SWAP3 POP POP PUSH1 0xA0 DUP8 ADD CALLDATALOAD PUSH8 0xFFFFFFFFFFFFFFFF DUP2 GT ISZERO PUSH2 0x15ED JUMPI PUSH2 0x15EC PUSH2 0xFCA JUMP JUMPDEST JUMPDEST PUSH2 0x15F9 DUP10 DUP3 DUP11 ADD PUSH2 0x1434 JUMP JUMPDEST SWAP2 POP POP SWAP3 SWAP6 POP SWAP3 SWAP6 POP SWAP3 SWAP6 JUMP JUMPDEST PUSH2 0x160F DUP2 PUSH2 0x1082 JUMP JUMPDEST DUP2 EQ PUSH2 0x161A JUMPI PUSH1 0x0 DUP1 REVERT JUMPDEST POP JUMP JUMPDEST PUSH1 0x0 DUP2 CALLDATALOAD SWAP1 POP PUSH2 0x162C DUP2 PUSH2 0x1606 JUMP JUMPDEST SWAP3 SWAP2 POP POP JUMP JUMPDEST PUSH1 0x0 PUSH1 0x20 DUP3 DUP5 SUB SLT ISZERO PUSH2 0x1648 JUMPI PUSH2 0x1647 PUSH2 0xFC5 JUMP JUMPDEST JUMPDEST PUSH1 0x0 PUSH2 0x1656 DUP5 DUP3 DUP6 ADD PUSH2 0x161D JUMP JUMPDEST SWAP2 POP POP SWAP3 SWAP2 POP POP JUMP JUMPDEST PUSH1 0x0 DUP2 SWAP1 POP SWAP2 SWAP1 POP JUMP JUMPDEST PUSH2 0x167A PUSH2 0x1675 DUP3 PUSH2 0xFCF JUMP JUMPDEST PUSH2 0x165F JUMP JUMPDEST DUP3 MSTORE POP POP JUMP JUMPDEST PUSH1 0x0 DUP2 PUSH1 0x60 SHL SWAP1 POP SWAP2 SWAP1 POP JUMP JUMPDEST PUSH1 0x0 PUSH2 0x1698 DUP3 PUSH2 0x1680 JUMP JUMPDEST SWAP1 POP SWAP2 SWAP1 POP JUMP JUMPDEST PUSH1 0x0 PUSH2 0x16AA DUP3 PUSH2 0x168D JUMP JUMPDEST SWAP1 POP SWAP2 SWAP1 POP JUMP JUMPDEST PUSH2 0x16C2 PUSH2 0x16BD DUP3 PUSH2 0x1052 JUMP JUMPDEST PUSH2 0x169F JUMP JUMPDEST DUP3 MSTORE POP POP JUMP JUMPDEST PUSH1 0x0 PUSH2 0x16D4 DUP3 DUP6 PUSH2 0x1669 JUMP JUMPDEST PUSH1 0x20 DUP3 ADD SWAP2 POP PUSH2 0x16E4 DUP3 DUP5 PUSH2 0x16B1 JUMP JUMPDEST PUSH1 0x14 DUP3 ADD SWAP2 POP DUP2 SWAP1 POP SWAP4 SWAP3 POP POP POP JUMP JUMPDEST PUSH1 0x0 DUP2 SWAP1 POP SWAP2 SWAP1 POP JUMP JUMPDEST PUSH2 0x1707 DUP2 PUSH2 0x16F4 JUMP JUMPDEST DUP3 MSTORE POP POP JUMP JUMPDEST PUSH1 0x0 PUSH1 0xA0 DUP3 ADD SWAP1 POP PUSH2 0x1722 PUSH1 0x0 DUP4 ADD DUP9 PUSH2 0x1064 JUMP JUMPDEST PUSH2 0x172F PUSH1 0x20 DUP4 ADD DUP8 PUSH2 0x1073 JUMP JUMPDEST PUSH2 0x173C PUSH1 0x40 DUP4 ADD DUP7 PUSH2 0x16FE JUMP JUMPDEST PUSH2 0x1749 PUSH1 0x60 DUP4 ADD DUP6 PUSH2 0x16FE JUMP JUMPDEST PUSH2 0x1756 PUSH1 0x80 DUP4 ADD DUP5 PUSH2 0x1073 JUMP JUMPDEST SWAP7 SWAP6 POP POP POP POP POP POP JUMP JUMPDEST PUSH1 0x0 DUP3 DUP3 MSTORE PUSH1 0x20 DUP3 ADD SWAP1 POP SWAP3 SWAP2 POP POP JUMP JUMPDEST PUSH32 0x7072696365206D757374203E2030000000000000000000000000000000000000 PUSH1 0x0 DUP3 ADD MSTORE POP JUMP JUMPDEST PUSH1 0x0 PUSH2 0x17A7 PUSH1 0xE DUP4 PUSH2 0x1760 JUMP JUMPDEST SWAP2 POP PUSH2 0x17B2 DUP3 PUSH2 0x1771 JUMP JUMPDEST PUSH1 0x20 DUP3 ADD SWAP1 POP SWAP2 SWAP1 POP JUMP JUMPDEST PUSH1 0x0 PUSH1 0x20 DUP3 ADD SWAP1 POP DUP2 DUP2 SUB PUSH1 0x0 DUP4 ADD MSTORE PUSH2 0x17D6 DUP2 PUSH2 0x179A JUMP JUMPDEST SWAP1 POP SWAP2 SWAP1 POP JUMP JUMPDEST PUSH32 0x746F74616C537570706C79206D757374203E2030000000000000000000000000 PUSH1 0x0 DUP3 ADD MSTORE POP JUMP JUMPDEST PUSH1 0x0 PUSH2 0x1813 PUSH1 0x14 DUP4 PUSH2 0x1760 JUMP JUMPDEST SWAP2 POP PUSH2 0x181E DUP3 PUSH2 0x17DD JUMP JUMPDEST PUSH1 0x20 DUP3 ADD SWAP1 POP SWAP2 SWAP1 POP JUMP JUMPDEST PUSH1 0x0 PUSH1 0x20 DUP3 ADD SWAP1 POP DUP2 DUP2 SUB PUSH1 0x0 DUP4 ADD MSTORE PUSH2 0x1842 DUP2 PUSH2 0x1806 JUMP JUMPDEST SWAP1 POP SWAP2 SWAP1 POP JUMP JUMPDEST PUSH32 0x696E636F727265637420706172616D6574657200000000000000000000000000 PUSH1 0x0 DUP3 ADD MSTORE POP JUMP JUMPDEST PUSH1 0x0 PUSH2 0x187F PUSH1 0x13 DUP4 PUSH2 0x1760 JUMP JUMPDEST SWAP2 POP PUSH2 0x188A DUP3 PUSH2 0x1849 JUMP JUMPDEST PUSH1 0x20 DUP3 ADD SWAP1 POP SWAP2 SWAP1 POP JUMP JUMPDEST PUSH1 0x0 PUSH1 0x20 DUP3 ADD SWAP1 POP DUP2 DUP2 SUB PUSH1 0x0 DUP4 ADD MSTORE PUSH2 0x18AE DUP2 PUSH2 0x1872 JUMP JUMPDEST SWAP1 POP SWAP2 SWAP1 POP JUMP JUMPDEST PUSH32 0x4E487B7100000000000000000000000000000000000000000000000000000000 PUSH1 0x0 MSTORE PUSH1 0x32 PUSH1 0x4 MSTORE PUSH1 0x24 PUSH1 0x0 REVERT JUMPDEST PUSH32 0x4E487B7100000000000000000000000000000000000000000000000000000000 PUSH1 0x0 MSTORE PUSH1 0x11 PUSH1 0x4 MSTORE PUSH1 0x24 PUSH1 0x0 REVERT JUMPDEST PUSH1 0x0 PUSH2 0x191E DUP3 PUSH2 0xFCF JUMP JUMPDEST SWAP2 POP PUSH2 0x1929 DUP4 PUSH2 0xFCF JUMP JUMPDEST SWAP3 POP DUP3 DUP3 ADD SWAP1 POP DUP1 DUP3 GT ISZERO PUSH2 0x1941 JUMPI PUSH2 0x1940 PUSH2 0x18E4 JUMP JUMPDEST JUMPDEST SWAP3 SWAP2 POP POP JUMP JUMPDEST PUSH1 0x0 PUSH2 0x1952 DUP3 PUSH2 0xFCF JUMP JUMPDEST SWAP2 POP PUSH32 0xFFFFFFFFFFFFFFFFFFFFFFFFFFFFFFFFFFFFFFFFFFFFFFFFFFFFFFFFFFFFFFFF DUP3 SUB PUSH2 0x1984 JUMPI PUSH2 0x1983 PUSH2 0x18E4 JUMP JUMPDEST JUMPDEST PUSH1 0x1 DUP3 ADD SWAP1 POP SWAP2 SWAP1 POP JUMP JUMPDEST PUSH32 0x696E636F72726563742070726F626162696C6974790000000000000000000000 PUSH1 0x0 DUP3 ADD MSTORE POP JUMP JUMPDEST PUSH1 0x0 PUSH2 0x19C5 PUSH1 0x15 DUP4 PUSH2 0x1760 JUMP JUMPDEST SWAP2 POP PUSH2 0x19D0 DUP3 PUSH2 0x198F JUMP JUMPDEST PUSH1 0x20 DUP3 ADD SWAP1 POP SWAP2 SWAP1 POP JUMP JUMPDEST PUSH1 0x0 PUSH1 0x20 DUP3 ADD SWAP1 POP DUP2 DUP2 SUB PUSH1 0x0 DUP4 ADD MSTORE PUSH2 0x19F4 DUP2 PUSH2 0x19B8 JUMP JUMPDEST SWAP1 POP SWAP2 SWAP1 POP JUMP JUMPDEST PUSH1 0x0 PUSH2 0x1A06 DUP3 PUSH2 0xFCF JUMP JUMPDEST SWAP2 POP PUSH2 0x1A11 DUP4 PUSH2 0xFCF JUMP JUMPDEST SWAP3 POP DUP3 DUP3 MUL PUSH2 0x1A1F DUP2 PUSH2 0xFCF JUMP JUMPDEST SWAP2 POP DUP3 DUP3 DIV DUP5 EQ DUP4 ISZERO OR PUSH2 0x1A36 JUMPI PUSH2 0x1A35 PUSH2 0x18E4 JUMP JUMPDEST JUMPDEST POP SWAP3 SWAP2 POP POP JUMP JUMPDEST PUSH32 0x4E487B7100000000000000000000000000000000000000000000000000000000 PUSH1 0x0 MSTORE PUSH1 0x12 PUSH1 0x4 MSTORE PUSH1 0x24 PUSH1 0x0 REVERT JUMPDEST PUSH1 0x0 PUSH2 0x1A77 DUP3 PUSH2 0xFCF JUMP JUMPDEST SWAP2 POP PUSH2 0x1A82 DUP4 PUSH2 0xFCF JUMP JUMPDEST SWAP3 POP DUP3 PUSH2 0x1A92 JUMPI PUSH2 0x1A91 PUSH2 0x1A3D JUMP JUMPDEST JUMPDEST DUP3 DUP3 DIV SWAP1 POP SWAP3 SWAP2 POP POP JUMP JUMPDEST PUSH32 0x696E73756666696369656E7420636F696E2076616C7565000000000000000000 PUSH1 0x0 DUP3 ADD MSTORE POP JUMP JUMPDEST PUSH1 0x0 PUSH2 0x1AD3 PUSH1 0x17 DUP4 PUSH2 0x1760 JUMP JUMPDEST SWAP2 POP PUSH2 0x1ADE DUP3 PUSH2 0x1A9D JUMP JUMPDEST PUSH1 0x20 DUP3 ADD SWAP1 POP SWAP2 SWAP1 POP JUMP JUMPDEST PUSH1 0x0 PUSH1 0x20 DUP3 ADD SWAP1 POP DUP2 DUP2 SUB PUSH1 0x0 DUP4 ADD MSTORE PUSH2 0x1B02 DUP2 PUSH2 0x1AC6 JUMP JUMPDEST SWAP1 POP SWAP2 SWAP1 POP JUMP JUMPDEST PUSH1 0x0 PUSH2 0x1B14 DUP3 PUSH2 0xFCF JUMP JUMPDEST SWAP2 POP PUSH2 0x1B1F DUP4 PUSH2 0xFCF JUMP JUMPDEST SWAP3 POP DUP3 DUP3 SUB SWAP1 POP DUP2 DUP2 GT ISZERO PUSH2 0x1B37 JUMPI PUSH2 0x1B36 PUSH2 0x18E4 JUMP JUMPDEST JUMPDEST SWAP3 SWAP2 POP POP JUMP JUMPDEST PUSH1 0x0 PUSH1 0x60 DUP3 ADD SWAP1 POP PUSH2 0x1B52 PUSH1 0x0 DUP4 ADD DUP7 PUSH2 0x1064 JUMP JUMPDEST PUSH2 0x1B5F PUSH1 0x20 DUP4 ADD DUP6 PUSH2 0x1064 JUMP JUMPDEST PUSH2 0x1B6C PUSH1 0x40 DUP4 ADD DUP5 PUSH2 0x1073 JUMP JUMPDEST SWAP5 SWAP4 POP POP POP POP JUMP JUMPDEST PUSH1 0x0 DUP2 MLOAD SWAP1 POP PUSH2 0x1B83 DUP2 PUSH2 0x1606 JUMP JUMPDEST SWAP3 SWAP2 POP POP JUMP JUMPDEST PUSH1 0x0 PUSH1 0x20 DUP3 DUP5 SUB SLT ISZERO PUSH2 0x1B9F JUMPI PUSH2 0x1B9E PUSH2 0xFC5 JUMP JUMPDEST JUMPDEST PUSH1 0x0 PUSH2 0x1BAD DUP5 DUP3 DUP6 ADD PUSH2 0x1B74 JUMP JUMPDEST SWAP2 POP POP SWAP3 SWAP2 POP POP JUMP JUMPDEST PUSH32 0x5361666545524332303A204552433230206F7065726174696F6E20646964206E PUSH1 0x0 DUP3 ADD MSTORE PUSH32 0x6F74207375636365656400000000000000000000000000000000000000000000 PUSH1 0x20 DUP3 ADD MSTORE POP JUMP JUMPDEST PUSH1 0x0 PUSH2 0x1C12 PUSH1 0x2A DUP4 PUSH2 0x1760 JUMP JUMPDEST SWAP2 POP PUSH2 0x1C1D DUP3 PUSH2 0x1BB6 JUMP JUMPDEST PUSH1 0x40 DUP3 ADD SWAP1 POP SWAP2 SWAP1 POP JUMP JUMPDEST PUSH1 0x0 PUSH1 0x20 DUP3 ADD SWAP1 POP DUP2 DUP2 SUB PUSH1 0x0 DUP4 ADD MSTORE PUSH2 0x1C41 DUP2 PUSH2 0x1C05 JUMP JUMPDEST SWAP1 POP SWAP2 SWAP1 POP JUMP JUMPDEST PUSH32 0x416464726573733A20696E73756666696369656E742062616C616E636520666F PUSH1 0x0 DUP3 ADD MSTORE PUSH32 0x722063616C6C0000000000000000000000000000000000000000000000000000 PUSH1 0x20 DUP3 ADD MSTORE POP JUMP JUMPDEST PUSH1 0x0 PUSH2 0x1CA4 PUSH1 0x26 DUP4 PUSH2 0x1760 JUMP JUMPDEST SWAP2 POP PUSH2 0x1CAF DUP3 PUSH2 0x1C48 JUMP JUMPDEST PUSH1 0x40 DUP3 ADD SWAP1 POP SWAP2 SWAP1 POP JUMP JUMPDEST PUSH1 0x0 PUSH1 0x20 DUP3 ADD SWAP1 POP DUP2 DUP2 SUB PUSH1 0x0 DUP4 ADD MSTORE PUSH2 0x1CD3 DUP2 PUSH2 0x1C97 JUMP JUMPDEST SWAP1 POP SWAP2 SWAP1 POP JUMP JUMPDEST PUSH1 0x0 DUP2 MLOAD SWAP1 POP SWAP2 SWAP1 POP JUMP JUMPDEST PUSH1 0x0 DUP2 SWAP1 POP SWAP3 SWAP2 POP POP JUMP JUMPDEST PUSH1 0x0 JUMPDEST DUP4 DUP2 LT ISZERO PUSH2 0x1D0E JUMPI DUP1 DUP3 ADD MLOAD DUP2 DUP5 ADD MSTORE PUSH1 0x20 DUP2 ADD SWAP1 POP PUSH2 0x1CF3 JUMP JUMPDEST PUSH1 0x0 DUP5 DUP5 ADD MSTORE POP POP POP POP JUMP JUMPDEST PUSH1 0x0 PUSH2 0x1D25 DUP3 PUSH2 0x1CDA JUMP JUMPDEST PUSH2 0x1D2F DUP2 DUP6 PUSH2 0x1CE5 JUMP JUMPDEST SWAP4 POP PUSH2 0x1D3F DUP2 DUP6 PUSH1 0x20 DUP7 ADD PUSH2 0x1CF0 JUMP JUMPDEST DUP1 DUP5 ADD SWAP2 POP POP SWAP3 SWAP2 POP POP JUMP JUMPDEST PUSH1 0x0 PUSH2 0x1D57 DUP3 DUP5 PUSH2 0x1D1A JUMP JUMPDEST SWAP2 POP DUP2 SWAP1 POP SWAP3 SWAP2 POP POP JUMP JUMPDEST PUSH32 0x416464726573733A2063616C6C20746F206E6F6E2D636F6E7472616374000000 PUSH1 0x0 DUP3 ADD MSTORE POP JUMP JUMPDEST PUSH1 0x0 PUSH2 0x1D98 PUSH1 0x1D DUP4 PUSH2 0x1760 JUMP JUMPDEST SWAP2 POP PUSH2 0x1DA3 DUP3 PUSH2 0x1D62 JUMP JUMPDEST PUSH1 0x20 DUP3 ADD SWAP1 POP SWAP2 SWAP1 POP JUMP JUMPDEST PUSH1 0x0 PUSH1 0x20 DUP3 ADD SWAP1 POP DUP2 DUP2 SUB PUSH1 0x0 DUP4 ADD MSTORE PUSH2 0x1DC7 DUP2 PUSH2 0x1D8B JUMP JUMPDEST SWAP1 POP SWAP2 SWAP1 POP JUMP JUMPDEST PUSH1 0x0 DUP2 MLOAD SWAP1 POP SWAP2 SWAP1 POP JUMP JUMPDEST PUSH1 0x0 PUSH2 0x1DE4 DUP3 PUSH2 0x1DCE JUMP JUMPDEST PUSH2 0x1DEE DUP2 DUP6 PUSH2 0x1760 JUMP JUMPDEST SWAP4 POP PUSH2 0x1DFE DUP2 DUP6 PUSH1 0x20 DUP7 ADD PUSH2 0x1CF0 JUMP JUMPDEST PUSH2 0x1E07 DUP2 PUSH2 0x130E JUMP JUMPDEST DUP5 ADD SWAP2 POP POP SWAP3 SWAP2 POP POP JUMP JUMPDEST PUSH1 0x0 PUSH1 0x20 DUP3 ADD SWAP1 POP DUP2 DUP2 SUB PUSH1 0x0 DUP4 ADD MSTORE PUSH2 0x1E2C DUP2 DUP5 PUSH2 0x1DD9 JUMP JUMPDEST SWAP1 POP SWAP3 SWAP2 POP POP JUMP INVALID LOG2 PUSH5 0x6970667358 0x22 SLT KECCAK256 0xB0 PUSH18 0xCFE5C50DE036DB81E84DABCDFB9E4CD76976 CALLCODE SELFBALANCE DUP1 MUL XOR 0xD4 SMOD AND 0x4D PUSH2 0x4474 PUSH5 0x736F6C6343 STOP ADDMOD SGT STOP CALLER "
				},
				"gasEstimates": {
					"creation": {
						"codeDepositCost": "1557200",
						"executionCost": "1631",
						"totalCost": "1558831"
					},
					"external": {
						"boxIds(uint256)": "infinite",
						"checkedBoxIds(uint256)": "infinite",
						"currentBoxId()": "2473",
						"getBoxDetail(uint256)": "infinite",
						"getMysteryAmount(bool)": "2813",
						"publishMysteryBox(address,uint256,uint256,uint256[],address[],uint256[])": "infinite",
						"requestRandomNumber()": "infinite"
					}
				},
				"methodIdentifiers": {
					"boxIds(uint256)": "b4c33908",
					"checkedBoxIds(uint256)": "385b3aa5",
					"currentBoxId()": "cc22bf80",
					"getBoxDetail(uint256)": "161344e6",
					"getMysteryAmount(bool)": "ff175d77",
					"publishMysteryBox(address,uint256,uint256,uint256[],address[],uint256[])": "c3ac7daf",
					"requestRandomNumber()": "8678a7b2"
				}
			},
			"storageLayout": {
				"storage": [
					{
						"astId": 1371,
						"contract": "contracts/MysteryBox.sol:MysterySpace",
						"label": "mysteryMapping",
						"offset": 0,
						"slot": "0",
						"type": "t_mapping(t_uint256,t_struct(Mystery)1409_storage)"
					},
					{
						"astId": 1376,
						"contract": "contracts/MysteryBox.sol:MysterySpace",
						"label": "mysteryReWardMapping",
						"offset": 0,
						"slot": "1",
						"type": "t_mapping(t_uint256,t_struct(MysteryReward)1422_storage)"
					},
					{
						"astId": 1379,
						"contract": "contracts/MysteryBox.sol:MysterySpace",
						"label": "boxIds",
						"offset": 0,
						"slot": "2",
						"type": "t_array(t_uint256)dyn_storage"
					},
					{
						"astId": 1382,
						"contract": "contracts/MysteryBox.sol:MysterySpace",
						"label": "checkedBoxIds",
						"offset": 0,
						"slot": "3",
						"type": "t_array(t_uint256)dyn_storage"
					},
					{
						"astId": 1384,
						"contract": "contracts/MysteryBox.sol:MysterySpace",
						"label": "currentBoxId",
						"offset": 0,
						"slot": "4",
						"type": "t_uint256"
					}
				],
				"types": {
					"t_address": {
						"encoding": "inplace",
						"label": "address",
						"numberOfBytes": "20"
					},
					"t_array(t_address)dyn_storage": {
						"base": "t_address",
						"encoding": "dynamic_array",
						"label": "address[]",
						"numberOfBytes": "32"
					},
					"t_array(t_uint256)dyn_storage": {
						"base": "t_uint256",
						"encoding": "dynamic_array",
						"label": "uint256[]",
						"numberOfBytes": "32"
					},
					"t_bool": {
						"encoding": "inplace",
						"label": "bool",
						"numberOfBytes": "1"
					},
					"t_mapping(t_uint256,t_struct(Mystery)1409_storage)": {
						"encoding": "mapping",
						"key": "t_uint256",
						"label": "mapping(uint256 => struct MysterySpace.Mystery)",
						"numberOfBytes": "32",
						"value": "t_struct(Mystery)1409_storage"
					},
					"t_mapping(t_uint256,t_struct(MysteryReward)1422_storage)": {
						"encoding": "mapping",
						"key": "t_uint256",
						"label": "mapping(uint256 => struct MysterySpace.MysteryReward)",
						"numberOfBytes": "32",
						"value": "t_struct(MysteryReward)1422_storage"
					},
					"t_struct(Mystery)1409_storage": {
						"encoding": "inplace",
						"label": "struct MysterySpace.Mystery",
						"members": [
							{
								"astId": 1398,
								"contract": "contracts/MysteryBox.sol:MysterySpace",
								"label": "boxId",
								"offset": 0,
								"slot": "0",
								"type": "t_uint256"
							},
							{
								"astId": 1400,
								"contract": "contracts/MysteryBox.sol:MysterySpace",
								"label": "coin",
								"offset": 0,
								"slot": "1",
								"type": "t_address"
							},
							{
								"astId": 1402,
								"contract": "contracts/MysteryBox.sol:MysterySpace",
								"label": "price",
								"offset": 0,
								"slot": "2",
								"type": "t_uint256"
							},
							{
								"astId": 1404,
								"contract": "contracts/MysteryBox.sol:MysterySpace",
								"label": "totalSupply",
								"offset": 0,
								"slot": "3",
								"type": "t_uint256"
							},
							{
								"astId": 1406,
								"contract": "contracts/MysteryBox.sol:MysterySpace",
								"label": "stocks",
								"offset": 0,
								"slot": "4",
								"type": "t_uint256"
							},
							{
								"astId": 1408,
								"contract": "contracts/MysteryBox.sol:MysterySpace",
								"label": "checked",
								"offset": 0,
								"slot": "5",
								"type": "t_bool"
							}
						],
						"numberOfBytes": "192"
					},
					"t_struct(MysteryReward)1422_storage": {
						"encoding": "inplace",
						"label": "struct MysterySpace.MysteryReward",
						"members": [
							{
								"astId": 1412,
								"contract": "contracts/MysteryBox.sol:MysterySpace",
								"label": "probabilityArray",
								"offset": 0,
								"slot": "0",
								"type": "t_array(t_uint256)dyn_storage"
							},
							{
								"astId": 1415,
								"contract": "contracts/MysteryBox.sol:MysterySpace",
								"label": "rangeArray",
								"offset": 0,
								"slot": "1",
								"type": "t_array(t_uint256)dyn_storage"
							},
							{
								"astId": 1418,
								"contract": "contracts/MysteryBox.sol:MysterySpace",
								"label": "tokenArray",
								"offset": 0,
								"slot": "2",
								"type": "t_array(t_address)dyn_storage"
							},
							{
								"astId": 1421,
								"contract": "contracts/MysteryBox.sol:MysterySpace",
								"label": "rewardAmountArray",
								"offset": 0,
								"slot": "3",
								"type": "t_array(t_uint256)dyn_storage"
							}
						],
						"numberOfBytes": "128"
					},
					"t_uint256": {
						"encoding": "inplace",
						"label": "uint256",
						"numberOfBytes": "32"
					}
				}
			},
			"userdoc": {
				"kind": "user",
				"methods": {},
				"version": 1
			}
		}
	}
}