{
	"data": {
		"bytecode": {
			"linkReferences": {},
			"object": "608060405234801561001057600080fd5b50610cc1806100206000396000f3fe608060405234801561001057600080fd5b50600436106100885760003560e01c8063a5e45bec1161005b578063a5e45bec1461012a578063b4c339081461015a578063b71e6f011461018a578063cc22bf80146101a657610088565b806311df99951461008d578063161344e6146100ab578063385b3aa5146100dc57806355b0cf121461010c575b600080fd5b6100956101c4565b6040516100a291906106e3565b60405180910390f35b6100c560048036038101906100c0919061073e565b6101d4565b6040516100d3929190610829565b60405180910390f35b6100f660048036038101906100f1919061073e565b6103a3565b60405161010391906106e3565b60405180910390f35b6101146103c7565b60405161012191906108a1565b60405180910390f35b610144600480360381019061013f919061073e565b6103cc565b60405161015191906106e3565b60405180910390f35b610174600480360381019061016f919061073e565b6103f0565b60405161018191906106e3565b60405180910390f35b6101a4600480360381019061019f9190610a15565b610414565b005b6101ae61065a565b6040516101bb91906106e3565b60405180910390f35b600067016345785d8a0000905090565b6060806000600160008581526020019081526020016000206040518060800160405290816000820180548060200260200160405190810160405280929190818152602001828054801561024657602002820191906000526020600020905b815481526020019060010190808311610232575b505050505081526020016001820180548060200260200160405190810160405280929190818152602001828054801561029e57602002820191906000526020600020905b81548152602001906001019080831161028a575b505050505081526020016002820180548060200260200160405190810160405280929190818152602001828054801561032c57602002820191906000526020600020905b8160009054906101000a900473ffffffffffffffffffffffffffffffffffffffff1673ffffffffffffffffffffffffffffffffffffffff16815260200190600101908083116102e2575b505050505081526020016003820180548060200260200160405190810160405280929190818152602001828054801561038457602002820191906000526020600020905b815481526020019060010190808311610370575b5050505050815250509050806000015192508060200151915050915091565b600381815481106103b357600080fd5b906000526020600020016000915090505481565b600090565b600581815481106103dc57600080fd5b906000526020600020016000915090505481565b6002818154811061040057600080fd5b906000526020600020016000915090505481565b600080600090505b82518110156104605782818151811061043857610437610a5e565b5b60200260200101518261044b9190610abc565b9150808061045890610af0565b91505061041c565b5061271081146104a5576040517f08c379a000000000000000000000000000000000000000000000000000000000815260040161049c90610b95565b60405180910390fd5b60006001600060045481526020019081526020016000209050600081600101905060005b84518110156105f7576000612710620fffff8784815181106104ee576104ed610a5e565b5b60200260200101516105009190610bb5565b61050a9190610c26565b90506000820361054157828190806001815401808255809150506001900390600052602060002001600090919091909150556105e3565b6001865161054f9190610c57565b82036105855782620fffff90806001815401808255809150506001900390600052602060002001600090919091909150556105e2565b8281846001856105959190610c57565b815481106105a6576105a5610a5e565b5b90600052602060002001546105bb9190610abc565b90806001815401808255809150506001900390600052602060002001600090919091909150555b5b5080806105ef90610af0565b9150506104c9565b5083826000019080519060200190610610929190610660565b50600260045490806001815401808255809150506001900390600052602060002001600090919091909150556004600081548092919061064f90610af0565b919050555050505050565b60045481565b82805482825590600052602060002090810192821561069c579160200282015b8281111561069b578251825591602001919060010190610680565b5b5090506106a991906106ad565b5090565b5b808211156106c65760008160009055506001016106ae565b5090565b6000819050919050565b6106dd816106ca565b82525050565b60006020820190506106f860008301846106d4565b92915050565b6000604051905090565b600080fd5b600080fd5b61071b816106ca565b811461072657600080fd5b50565b60008135905061073881610712565b92915050565b60006020828403121561075457610753610708565b5b600061076284828501610729565b91505092915050565b600081519050919050565b600082825260208201905092915050565b6000819050602082019050919050565b6107a0816106ca565b82525050565b60006107b28383610797565b60208301905092915050565b6000602082019050919050565b60006107d68261076b565b6107e08185610776565b93506107eb83610787565b8060005b8381101561081c57815161080388826107a6565b975061080e836107be565b9250506001810190506107ef565b5085935050505092915050565b6000604082019050818103600083015261084381856107cb565b9050818103602083015261085781846107cb565b90509392505050565b600073ffffffffffffffffffffffffffffffffffffffff82169050919050565b600061088b82610860565b9050919050565b61089b81610880565b82525050565b60006020820190506108b66000830184610892565b92915050565b600080fd5b6000601f19601f8301169050919050565b7f4e487b7100000000000000000000000000000000000000000000000000000000600052604160045260246000fd5b61090a826108c1565b810181811067ffffffffffffffff82111715610929576109286108d2565b5b80604052505050565b600061093c6106fe565b90506109488282610901565b919050565b600067ffffffffffffffff821115610968576109676108d2565b5b602082029050602081019050919050565b600080fd5b600061099161098c8461094d565b610932565b905080838252602082019050602084028301858111156109b4576109b3610979565b5b835b818110156109dd57806109c98882610729565b8452602084019350506020810190506109b6565b5050509392505050565b600082601f8301126109fc576109fb6108bc565b5b8135610a0c84826020860161097e565b91505092915050565b600060208284031215610a2b57610a2a610708565b5b600082013567ffffffffffffffff811115610a4957610a4861070d565b5b610a55848285016109e7565b91505092915050565b7f4e487b7100000000000000000000000000000000000000000000000000000000600052603260045260246000fd5b7f4e487b7100000000000000000000000000000000000000000000000000000000600052601160045260246000fd5b6000610ac7826106ca565b9150610ad2836106ca565b9250828201905080821115610aea57610ae9610a8d565b5b92915050565b6000610afb826106ca565b91507fffffffffffffffffffffffffffffffffffffffffffffffffffffffffffffffff8203610b2d57610b2c610a8d565b5b600182019050919050565b600082825260208201905092915050565b7f696e636f72726563742070726f626162696c6974790000000000000000000000600082015250565b6000610b7f601583610b38565b9150610b8a82610b49565b602082019050919050565b60006020820190508181036000830152610bae81610b72565b9050919050565b6000610bc0826106ca565b9150610bcb836106ca565b9250828202610bd9816106ca565b91508282048414831517610bf057610bef610a8d565b5b5092915050565b7f4e487b7100000000000000000000000000000000000000000000000000000000600052601260045260246000fd5b6000610c31826106ca565b9150610c3c836106ca565b925082610c4c57610c4b610bf7565b5b828204905092915050565b6000610c62826106ca565b9150610c6d836106ca565b9250828203905081811115610c8557610c84610a8d565b5b9291505056fea2646970667358221220c0d85dc3a8d366c0977bcab83626c4c7c4c85ff7ae9ed50dfe937d180d076a4164736f6c63430008130033",
			"opcodes": "PUSH1 0x80 PUSH1 0x40 MSTORE CALLVALUE DUP1 ISZERO PUSH2 0x10 JUMPI PUSH1 0x0 DUP1 REVERT JUMPDEST POP PUSH2 0xCC1 DUP1 PUSH2 0x20 PUSH1 0x0 CODECOPY PUSH1 0x0 RETURN INVALID PUSH1 0x80 PUSH1 0x40 MSTORE CALLVALUE DUP1 ISZERO PUSH2 0x10 JUMPI PUSH1 0x0 DUP1 REVERT JUMPDEST POP PUSH1 0x4 CALLDATASIZE LT PUSH2 0x88 JUMPI PUSH1 0x0 CALLDATALOAD PUSH1 0xE0 SHR DUP1 PUSH4 0xA5E45BEC GT PUSH2 0x5B JUMPI DUP1 PUSH4 0xA5E45BEC EQ PUSH2 0x12A JUMPI DUP1 PUSH4 0xB4C33908 EQ PUSH2 0x15A JUMPI DUP1 PUSH4 0xB71E6F01 EQ PUSH2 0x18A JUMPI DUP1 PUSH4 0xCC22BF80 EQ PUSH2 0x1A6 JUMPI PUSH2 0x88 JUMP JUMPDEST DUP1 PUSH4 0x11DF9995 EQ PUSH2 0x8D JUMPI DUP1 PUSH4 0x161344E6 EQ PUSH2 0xAB JUMPI DUP1 PUSH4 0x385B3AA5 EQ PUSH2 0xDC JUMPI DUP1 PUSH4 0x55B0CF12 EQ PUSH2 0x10C JUMPI JUMPDEST PUSH1 0x0 DUP1 REVERT JUMPDEST PUSH2 0x95 PUSH2 0x1C4 JUMP JUMPDEST PUSH1 0x40 MLOAD PUSH2 0xA2 SWAP2 SWAP1 PUSH2 0x6E3 JUMP JUMPDEST PUSH1 0x40 MLOAD DUP1 SWAP2 SUB SWAP1 RETURN JUMPDEST PUSH2 0xC5 PUSH1 0x4 DUP1 CALLDATASIZE SUB DUP2 ADD SWAP1 PUSH2 0xC0 SWAP2 SWAP1 PUSH2 0x73E JUMP JUMPDEST PUSH2 0x1D4 JUMP JUMPDEST PUSH1 0x40 MLOAD PUSH2 0xD3 SWAP3 SWAP2 SWAP1 PUSH2 0x829 JUMP JUMPDEST PUSH1 0x40 MLOAD DUP1 SWAP2 SUB SWAP1 RETURN JUMPDEST PUSH2 0xF6 PUSH1 0x4 DUP1 CALLDATASIZE SUB DUP2 ADD SWAP1 PUSH2 0xF1 SWAP2 SWAP1 PUSH2 0x73E JUMP JUMPDEST PUSH2 0x3A3 JUMP JUMPDEST PUSH1 0x40 MLOAD PUSH2 0x103 SWAP2 SWAP1 PUSH2 0x6E3 JUMP JUMPDEST PUSH1 0x40 MLOAD DUP1 SWAP2 SUB SWAP1 RETURN JUMPDEST PUSH2 0x114 PUSH2 0x3C7 JUMP JUMPDEST PUSH1 0x40 MLOAD PUSH2 0x121 SWAP2 SWAP1 PUSH2 0x8A1 JUMP JUMPDEST PUSH1 0x40 MLOAD DUP1 SWAP2 SUB SWAP1 RETURN JUMPDEST PUSH2 0x144 PUSH1 0x4 DUP1 CALLDATASIZE SUB DUP2 ADD SWAP1 PUSH2 0x13F SWAP2 SWAP1 PUSH2 0x73E JUMP JUMPDEST PUSH2 0x3CC JUMP JUMPDEST PUSH1 0x40 MLOAD PUSH2 0x151 SWAP2 SWAP1 PUSH2 0x6E3 JUMP JUMPDEST PUSH1 0x40 MLOAD DUP1 SWAP2 SUB SWAP1 RETURN JUMPDEST PUSH2 0x174 PUSH1 0x4 DUP1 CALLDATASIZE SUB DUP2 ADD SWAP1 PUSH2 0x16F SWAP2 SWAP1 PUSH2 0x73E JUMP JUMPDEST PUSH2 0x3F0 JUMP JUMPDEST PUSH1 0x40 MLOAD PUSH2 0x181 SWAP2 SWAP1 PUSH2 0x6E3 JUMP JUMPDEST PUSH1 0x40 MLOAD DUP1 SWAP2 SUB SWAP1 RETURN JUMPDEST PUSH2 0x1A4 PUSH1 0x4 DUP1 CALLDATASIZE SUB DUP2 ADD SWAP1 PUSH2 0x19F SWAP2 SWAP1 PUSH2 0xA15 JUMP JUMPDEST PUSH2 0x414 JUMP JUMPDEST STOP JUMPDEST PUSH2 0x1AE PUSH2 0x65A JUMP JUMPDEST PUSH1 0x40 MLOAD PUSH2 0x1BB SWAP2 SWAP1 PUSH2 0x6E3 JUMP JUMPDEST PUSH1 0x40 MLOAD DUP1 SWAP2 SUB SWAP1 RETURN JUMPDEST PUSH1 0x0 PUSH8 0x16345785D8A0000 SWAP1 POP SWAP1 JUMP JUMPDEST PUSH1 0x60 DUP1 PUSH1 0x0 PUSH1 0x1 PUSH1 0x0 DUP6 DUP2 MSTORE PUSH1 0x20 ADD SWAP1 DUP2 MSTORE PUSH1 0x20 ADD PUSH1 0x0 KECCAK256 PUSH1 0x40 MLOAD DUP1 PUSH1 0x80 ADD PUSH1 0x40 MSTORE SWAP1 DUP2 PUSH1 0x0 DUP3 ADD DUP1 SLOAD DUP1 PUSH1 0x20 MUL PUSH1 0x20 ADD PUSH1 0x40 MLOAD SWAP1 DUP2 ADD PUSH1 0x40 MSTORE DUP1 SWAP3 SWAP2 SWAP1 DUP2 DUP2 MSTORE PUSH1 0x20 ADD DUP3 DUP1 SLOAD DUP1 ISZERO PUSH2 0x246 JUMPI PUSH1 0x20 MUL DUP3 ADD SWAP2 SWAP1 PUSH1 0x0 MSTORE PUSH1 0x20 PUSH1 0x0 KECCAK256 SWAP1 JUMPDEST DUP2 SLOAD DUP2 MSTORE PUSH1 0x20 ADD SWAP1 PUSH1 0x1 ADD SWAP1 DUP1 DUP4 GT PUSH2 0x232 JUMPI JUMPDEST POP POP POP POP POP DUP2 MSTORE PUSH1 0x20 ADD PUSH1 0x1 DUP3 ADD DUP1 SLOAD DUP1 PUSH1 0x20 MUL PUSH1 0x20 ADD PUSH1 0x40 MLOAD SWAP1 DUP2 ADD PUSH1 0x40 MSTORE DUP1 SWAP3 SWAP2 SWAP1 DUP2 DUP2 MSTORE PUSH1 0x20 ADD DUP3 DUP1 SLOAD DUP1 ISZERO PUSH2 0x29E JUMPI PUSH1 0x20 MUL DUP3 ADD SWAP2 SWAP1 PUSH1 0x0 MSTORE PUSH1 0x20 PUSH1 0x0 KECCAK256 SWAP1 JUMPDEST DUP2 SLOAD DUP2 MSTORE PUSH1 0x20 ADD SWAP1 PUSH1 0x1 ADD SWAP1 DUP1 DUP4 GT PUSH2 0x28A JUMPI JUMPDEST POP POP POP POP POP DUP2 MSTORE PUSH1 0x20 ADD PUSH1 0x2 DUP3 ADD DUP1 SLOAD DUP1 PUSH1 0x20 MUL PUSH1 0x20 ADD PUSH1 0x40 MLOAD SWAP1 DUP2 ADD PUSH1 0x40 MSTORE DUP1 SWAP3 SWAP2 SWAP1 DUP2 DUP2 MSTORE PUSH1 0x20 ADD DUP3 DUP1 SLOAD DUP1 ISZERO PUSH2 0x32C JUMPI PUSH1 0x20 MUL DUP3 ADD SWAP2 SWAP1 PUSH1 0x0 MSTORE PUSH1 0x20 PUSH1 0x0 KECCAK256 SWAP1 JUMPDEST DUP2 PUSH1 0x0 SWAP1 SLOAD SWAP1 PUSH2 0x100 EXP SWAP1 DIV PUSH20 0xFFFFFFFFFFFFFFFFFFFFFFFFFFFFFFFFFFFFFFFF AND PUSH20 0xFFFFFFFFFFFFFFFFFFFFFFFFFFFFFFFFFFFFFFFF AND DUP2 MSTORE PUSH1 0x20 ADD SWAP1 PUSH1 0x1 ADD SWAP1 DUP1 DUP4 GT PUSH2 0x2E2 JUMPI JUMPDEST POP POP POP POP POP DUP2 MSTORE PUSH1 0x20 ADD PUSH1 0x3 DUP3 ADD DUP1 SLOAD DUP1 PUSH1 0x20 MUL PUSH1 0x20 ADD PUSH1 0x40 MLOAD SWAP1 DUP2 ADD PUSH1 0x40 MSTORE DUP1 SWAP3 SWAP2 SWAP1 DUP2 DUP2 MSTORE PUSH1 0x20 ADD DUP3 DUP1 SLOAD DUP1 ISZERO PUSH2 0x384 JUMPI PUSH1 0x20 MUL DUP3 ADD SWAP2 SWAP1 PUSH1 0x0 MSTORE PUSH1 0x20 PUSH1 0x0 KECCAK256 SWAP1 JUMPDEST DUP2 SLOAD DUP2 MSTORE PUSH1 0x20 ADD SWAP1 PUSH1 0x1 ADD SWAP1 DUP1 DUP4 GT PUSH2 0x370 JUMPI JUMPDEST POP POP POP POP POP DUP2 MSTORE POP POP SWAP1 POP DUP1 PUSH1 0x0 ADD MLOAD SWAP3 POP DUP1 PUSH1 0x20 ADD MLOAD SWAP2 POP POP SWAP2 POP SWAP2 JUMP JUMPDEST PUSH1 0x3 DUP2 DUP2 SLOAD DUP2 LT PUSH2 0x3B3 JUMPI PUSH1 0x0 DUP1 REVERT JUMPDEST SWAP1 PUSH1 0x0 MSTORE PUSH1 0x20 PUSH1 0x0 KECCAK256 ADD PUSH1 0x0 SWAP2 POP SWAP1 POP SLOAD DUP2 JUMP JUMPDEST PUSH1 0x0 SWAP1 JUMP JUMPDEST PUSH1 0x5 DUP2 DUP2 SLOAD DUP2 LT PUSH2 0x3DC JUMPI PUSH1 0x0 DUP1 REVERT JUMPDEST SWAP1 PUSH1 0x0 MSTORE PUSH1 0x20 PUSH1 0x0 KECCAK256 ADD PUSH1 0x0 SWAP2 POP SWAP1 POP SLOAD DUP2 JUMP JUMPDEST PUSH1 0x2 DUP2 DUP2 SLOAD DUP2 LT PUSH2 0x400 JUMPI PUSH1 0x0 DUP1 REVERT JUMPDEST SWAP1 PUSH1 0x0 MSTORE PUSH1 0x20 PUSH1 0x0 KECCAK256 ADD PUSH1 0x0 SWAP2 POP SWAP1 POP SLOAD DUP2 JUMP JUMPDEST PUSH1 0x0 DUP1 PUSH1 0x0 SWAP1 POP JUMPDEST DUP3 MLOAD DUP2 LT ISZERO PUSH2 0x460 JUMPI DUP3 DUP2 DUP2 MLOAD DUP2 LT PUSH2 0x438 JUMPI PUSH2 0x437 PUSH2 0xA5E JUMP JUMPDEST JUMPDEST PUSH1 0x20 MUL PUSH1 0x20 ADD ADD MLOAD DUP3 PUSH2 0x44B SWAP2 SWAP1 PUSH2 0xABC JUMP JUMPDEST SWAP2 POP DUP1 DUP1 PUSH2 0x458 SWAP1 PUSH2 0xAF0 JUMP JUMPDEST SWAP2 POP POP PUSH2 0x41C JUMP JUMPDEST POP PUSH2 0x2710 DUP2 EQ PUSH2 0x4A5 JUMPI PUSH1 0x40 MLOAD PUSH32 0x8C379A000000000000000000000000000000000000000000000000000000000 DUP2 MSTORE PUSH1 0x4 ADD PUSH2 0x49C SWAP1 PUSH2 0xB95 JUMP JUMPDEST PUSH1 0x40 MLOAD DUP1 SWAP2 SUB SWAP1 REVERT JUMPDEST PUSH1 0x0 PUSH1 0x1 PUSH1 0x0 PUSH1 0x4 SLOAD DUP2 MSTORE PUSH1 0x20 ADD SWAP1 DUP2 MSTORE PUSH1 0x20 ADD PUSH1 0x0 KECCAK256 SWAP1 POP PUSH1 0x0 DUP2 PUSH1 0x1 ADD SWAP1 POP PUSH1 0x0 JUMPDEST DUP5 MLOAD DUP2 LT ISZERO PUSH2 0x5F7 JUMPI PUSH1 0x0 PUSH2 0x2710 PUSH3 0xFFFFF DUP8 DUP5 DUP2 MLOAD DUP2 LT PUSH2 0x4EE JUMPI PUSH2 0x4ED PUSH2 0xA5E JUMP JUMPDEST JUMPDEST PUSH1 0x20 MUL PUSH1 0x20 ADD ADD MLOAD PUSH2 0x500 SWAP2 SWAP1 PUSH2 0xBB5 JUMP JUMPDEST PUSH2 0x50A SWAP2 SWAP1 PUSH2 0xC26 JUMP JUMPDEST SWAP1 POP PUSH1 0x0 DUP3 SUB PUSH2 0x541 JUMPI DUP3 DUP2 SWAP1 DUP1 PUSH1 0x1 DUP2 SLOAD ADD DUP1 DUP3 SSTORE DUP1 SWAP2 POP POP PUSH1 0x1 SWAP1 SUB SWAP1 PUSH1 0x0 MSTORE PUSH1 0x20 PUSH1 0x0 KECCAK256 ADD PUSH1 0x0 SWAP1 SWAP2 SWAP1 SWAP2 SWAP1 SWAP2 POP SSTORE PUSH2 0x5E3 JUMP JUMPDEST PUSH1 0x1 DUP7 MLOAD PUSH2 0x54F SWAP2 SWAP1 PUSH2 0xC57 JUMP JUMPDEST DUP3 SUB PUSH2 0x585 JUMPI DUP3 PUSH3 0xFFFFF SWAP1 DUP1 PUSH1 0x1 DUP2 SLOAD ADD DUP1 DUP3 SSTORE DUP1 SWAP2 POP POP PUSH1 0x1 SWAP1 SUB SWAP1 PUSH1 0x0 MSTORE PUSH1 0x20 PUSH1 0x0 KECCAK256 ADD PUSH1 0x0 SWAP1 SWAP2 SWAP1 SWAP2 SWAP1 SWAP2 POP SSTORE PUSH2 0x5E2 JUMP JUMPDEST DUP3 DUP2 DUP5 PUSH1 0x1 DUP6 PUSH2 0x595 SWAP2 SWAP1 PUSH2 0xC57 JUMP JUMPDEST DUP2 SLOAD DUP2 LT PUSH2 0x5A6 JUMPI PUSH2 0x5A5 PUSH2 0xA5E JUMP JUMPDEST JUMPDEST SWAP1 PUSH1 0x0 MSTORE PUSH1 0x20 PUSH1 0x0 KECCAK256 ADD SLOAD PUSH2 0x5BB SWAP2 SWAP1 PUSH2 0xABC JUMP JUMPDEST SWAP1 DUP1 PUSH1 0x1 DUP2 SLOAD ADD DUP1 DUP3 SSTORE DUP1 SWAP2 POP POP PUSH1 0x1 SWAP1 SUB SWAP1 PUSH1 0x0 MSTORE PUSH1 0x20 PUSH1 0x0 KECCAK256 ADD PUSH1 0x0 SWAP1 SWAP2 SWAP1 SWAP2 SWAP1 SWAP2 POP SSTORE JUMPDEST JUMPDEST POP DUP1 DUP1 PUSH2 0x5EF SWAP1 PUSH2 0xAF0 JUMP JUMPDEST SWAP2 POP POP PUSH2 0x4C9 JUMP JUMPDEST POP DUP4 DUP3 PUSH1 0x0 ADD SWAP1 DUP1 MLOAD SWAP1 PUSH1 0x20 ADD SWAP1 PUSH2 0x610 SWAP3 SWAP2 SWAP1 PUSH2 0x660 JUMP JUMPDEST POP PUSH1 0x2 PUSH1 0x4 SLOAD SWAP1 DUP1 PUSH1 0x1 DUP2 SLOAD ADD DUP1 DUP3 SSTORE DUP1 SWAP2 POP POP PUSH1 0x1 SWAP1 SUB SWAP1 PUSH1 0x0 MSTORE PUSH1 0x20 PUSH1 0x0 KECCAK256 ADD PUSH1 0x0 SWAP1 SWAP2 SWAP1 SWAP2 SWAP1 SWAP2 POP SSTORE PUSH1 0x4 PUSH1 0x0 DUP2 SLOAD DUP1 SWAP3 SWAP2 SWAP1 PUSH2 0x64F SWAP1 PUSH2 0xAF0 JUMP JUMPDEST SWAP2 SWAP1 POP SSTORE POP POP POP POP POP JUMP JUMPDEST PUSH1 0x4 SLOAD DUP2 JUMP JUMPDEST DUP3 DUP1 SLOAD DUP3 DUP3 SSTORE SWAP1 PUSH1 0x0 MSTORE PUSH1 0x20 PUSH1 0x0 KECCAK256 SWAP1 DUP2 ADD SWAP3 DUP3 ISZERO PUSH2 0x69C JUMPI SWAP2 PUSH1 0x20 MUL DUP3 ADD JUMPDEST DUP3 DUP2 GT ISZERO PUSH2 0x69B JUMPI DUP3 MLOAD DUP3 SSTORE SWAP2 PUSH1 0x20 ADD SWAP2 SWAP1 PUSH1 0x1 ADD SWAP1 PUSH2 0x680 JUMP JUMPDEST JUMPDEST POP SWAP1 POP PUSH2 0x6A9 SWAP2 SWAP1 PUSH2 0x6AD JUMP JUMPDEST POP SWAP1 JUMP JUMPDEST JUMPDEST DUP1 DUP3 GT ISZERO PUSH2 0x6C6 JUMPI PUSH1 0x0 DUP2 PUSH1 0x0 SWAP1 SSTORE POP PUSH1 0x1 ADD PUSH2 0x6AE JUMP JUMPDEST POP SWAP1 JUMP JUMPDEST PUSH1 0x0 DUP2 SWAP1 POP SWAP2 SWAP1 POP JUMP JUMPDEST PUSH2 0x6DD DUP2 PUSH2 0x6CA JUMP JUMPDEST DUP3 MSTORE POP POP JUMP JUMPDEST PUSH1 0x0 PUSH1 0x20 DUP3 ADD SWAP1 POP PUSH2 0x6F8 PUSH1 0x0 DUP4 ADD DUP5 PUSH2 0x6D4 JUMP JUMPDEST SWAP3 SWAP2 POP POP JUMP JUMPDEST PUSH1 0x0 PUSH1 0x40 MLOAD SWAP1 POP SWAP1 JUMP JUMPDEST PUSH1 0x0 DUP1 REVERT JUMPDEST PUSH1 0x0 DUP1 REVERT JUMPDEST PUSH2 0x71B DUP2 PUSH2 0x6CA JUMP JUMPDEST DUP2 EQ PUSH2 0x726 JUMPI PUSH1 0x0 DUP1 REVERT JUMPDEST POP JUMP JUMPDEST PUSH1 0x0 DUP2 CALLDATALOAD SWAP1 POP PUSH2 0x738 DUP2 PUSH2 0x712 JUMP JUMPDEST SWAP3 SWAP2 POP POP JUMP JUMPDEST PUSH1 0x0 PUSH1 0x20 DUP3 DUP5 SUB SLT ISZERO PUSH2 0x754 JUMPI PUSH2 0x753 PUSH2 0x708 JUMP JUMPDEST JUMPDEST PUSH1 0x0 PUSH2 0x762 DUP5 DUP3 DUP6 ADD PUSH2 0x729 JUMP JUMPDEST SWAP2 POP POP SWAP3 SWAP2 POP POP JUMP JUMPDEST PUSH1 0x0 DUP2 MLOAD SWAP1 POP SWAP2 SWAP1 POP JUMP JUMPDEST PUSH1 0x0 DUP3 DUP3 MSTORE PUSH1 0x20 DUP3 ADD SWAP1 POP SWAP3 SWAP2 POP POP JUMP JUMPDEST PUSH1 0x0 DUP2 SWAP1 POP PUSH1 0x20 DUP3 ADD SWAP1 POP SWAP2 SWAP1 POP JUMP JUMPDEST PUSH2 0x7A0 DUP2 PUSH2 0x6CA JUMP JUMPDEST DUP3 MSTORE POP POP JUMP JUMPDEST PUSH1 0x0 PUSH2 0x7B2 DUP4 DUP4 PUSH2 0x797 JUMP JUMPDEST PUSH1 0x20 DUP4 ADD SWAP1 POP SWAP3 SWAP2 POP POP JUMP JUMPDEST PUSH1 0x0 PUSH1 0x20 DUP3 ADD SWAP1 POP SWAP2 SWAP1 POP JUMP JUMPDEST PUSH1 0x0 PUSH2 0x7D6 DUP3 PUSH2 0x76B JUMP JUMPDEST PUSH2 0x7E0 DUP2 DUP6 PUSH2 0x776 JUMP JUMPDEST SWAP4 POP PUSH2 0x7EB DUP4 PUSH2 0x787 JUMP JUMPDEST DUP1 PUSH1 0x0 JUMPDEST DUP4 DUP2 LT ISZERO PUSH2 0x81C JUMPI DUP2 MLOAD PUSH2 0x803 DUP9 DUP3 PUSH2 0x7A6 JUMP JUMPDEST SWAP8 POP PUSH2 0x80E DUP4 PUSH2 0x7BE JUMP JUMPDEST SWAP3 POP POP PUSH1 0x1 DUP2 ADD SWAP1 POP PUSH2 0x7EF JUMP JUMPDEST POP DUP6 SWAP4 POP POP POP POP SWAP3 SWAP2 POP POP JUMP JUMPDEST PUSH1 0x0 PUSH1 0x40 DUP3 ADD SWAP1 POP DUP2 DUP2 SUB PUSH1 0x0 DUP4 ADD MSTORE PUSH2 0x843 DUP2 DUP6 PUSH2 0x7CB JUMP JUMPDEST SWAP1 POP DUP2 DUP2 SUB PUSH1 0x20 DUP4 ADD MSTORE PUSH2 0x857 DUP2 DUP5 PUSH2 0x7CB JUMP JUMPDEST SWAP1 POP SWAP4 SWAP3 POP POP POP JUMP JUMPDEST PUSH1 0x0 PUSH20 0xFFFFFFFFFFFFFFFFFFFFFFFFFFFFFFFFFFFFFFFF DUP3 AND SWAP1 POP SWAP2 SWAP1 POP JUMP JUMPDEST PUSH1 0x0 PUSH2 0x88B DUP3 PUSH2 0x860 JUMP JUMPDEST SWAP1 POP SWAP2 SWAP1 POP JUMP JUMPDEST PUSH2 0x89B DUP2 PUSH2 0x880 JUMP JUMPDEST DUP3 MSTORE POP POP JUMP JUMPDEST PUSH1 0x0 PUSH1 0x20 DUP3 ADD SWAP1 POP PUSH2 0x8B6 PUSH1 0x0 DUP4 ADD DUP5 PUSH2 0x892 JUMP JUMPDEST SWAP3 SWAP2 POP POP JUMP JUMPDEST PUSH1 0x0 DUP1 REVERT JUMPDEST PUSH1 0x0 PUSH1 0x1F NOT PUSH1 0x1F DUP4 ADD AND SWAP1 POP SWAP2 SWAP1 POP JUMP JUMPDEST PUSH32 0x4E487B7100000000000000000000000000000000000000000000000000000000 PUSH1 0x0 MSTORE PUSH1 0x41 PUSH1 0x4 MSTORE PUSH1 0x24 PUSH1 0x0 REVERT JUMPDEST PUSH2 0x90A DUP3 PUSH2 0x8C1 JUMP JUMPDEST DUP2 ADD DUP2 DUP2 LT PUSH8 0xFFFFFFFFFFFFFFFF DUP3 GT OR ISZERO PUSH2 0x929 JUMPI PUSH2 0x928 PUSH2 0x8D2 JUMP JUMPDEST JUMPDEST DUP1 PUSH1 0x40 MSTORE POP POP POP JUMP JUMPDEST PUSH1 0x0 PUSH2 0x93C PUSH2 0x6FE JUMP JUMPDEST SWAP1 POP PUSH2 0x948 DUP3 DUP3 PUSH2 0x901 JUMP JUMPDEST SWAP2 SWAP1 POP JUMP JUMPDEST PUSH1 0x0 PUSH8 0xFFFFFFFFFFFFFFFF DUP3 GT ISZERO PUSH2 0x968 JUMPI PUSH2 0x967 PUSH2 0x8D2 JUMP JUMPDEST JUMPDEST PUSH1 0x20 DUP3 MUL SWAP1 POP PUSH1 0x20 DUP2 ADD SWAP1 POP SWAP2 SWAP1 POP JUMP JUMPDEST PUSH1 0x0 DUP1 REVERT JUMPDEST PUSH1 0x0 PUSH2 0x991 PUSH2 0x98C DUP5 PUSH2 0x94D JUMP JUMPDEST PUSH2 0x932 JUMP JUMPDEST SWAP1 POP DUP1 DUP4 DUP3 MSTORE PUSH1 0x20 DUP3 ADD SWAP1 POP PUSH1 0x20 DUP5 MUL DUP4 ADD DUP6 DUP2 GT ISZERO PUSH2 0x9B4 JUMPI PUSH2 0x9B3 PUSH2 0x979 JUMP JUMPDEST JUMPDEST DUP4 JUMPDEST DUP2 DUP2 LT ISZERO PUSH2 0x9DD JUMPI DUP1 PUSH2 0x9C9 DUP9 DUP3 PUSH2 0x729 JUMP JUMPDEST DUP5 MSTORE PUSH1 0x20 DUP5 ADD SWAP4 POP POP PUSH1 0x20 DUP2 ADD SWAP1 POP PUSH2 0x9B6 JUMP JUMPDEST POP POP POP SWAP4 SWAP3 POP POP POP JUMP JUMPDEST PUSH1 0x0 DUP3 PUSH1 0x1F DUP4 ADD SLT PUSH2 0x9FC JUMPI PUSH2 0x9FB PUSH2 0x8BC JUMP JUMPDEST JUMPDEST DUP2 CALLDATALOAD PUSH2 0xA0C DUP5 DUP3 PUSH1 0x20 DUP7 ADD PUSH2 0x97E JUMP JUMPDEST SWAP2 POP POP SWAP3 SWAP2 POP POP JUMP JUMPDEST PUSH1 0x0 PUSH1 0x20 DUP3 DUP5 SUB SLT ISZERO PUSH2 0xA2B JUMPI PUSH2 0xA2A PUSH2 0x708 JUMP JUMPDEST JUMPDEST PUSH1 0x0 DUP3 ADD CALLDATALOAD PUSH8 0xFFFFFFFFFFFFFFFF DUP2 GT ISZERO PUSH2 0xA49 JUMPI PUSH2 0xA48 PUSH2 0x70D JUMP JUMPDEST JUMPDEST PUSH2 0xA55 DUP5 DUP3 DUP6 ADD PUSH2 0x9E7 JUMP JUMPDEST SWAP2 POP POP SWAP3 SWAP2 POP POP JUMP JUMPDEST PUSH32 0x4E487B7100000000000000000000000000000000000000000000000000000000 PUSH1 0x0 MSTORE PUSH1 0x32 PUSH1 0x4 MSTORE PUSH1 0x24 PUSH1 0x0 REVERT JUMPDEST PUSH32 0x4E487B7100000000000000000000000000000000000000000000000000000000 PUSH1 0x0 MSTORE PUSH1 0x11 PUSH1 0x4 MSTORE PUSH1 0x24 PUSH1 0x0 REVERT JUMPDEST PUSH1 0x0 PUSH2 0xAC7 DUP3 PUSH2 0x6CA JUMP JUMPDEST SWAP2 POP PUSH2 0xAD2 DUP4 PUSH2 0x6CA JUMP JUMPDEST SWAP3 POP DUP3 DUP3 ADD SWAP1 POP DUP1 DUP3 GT ISZERO PUSH2 0xAEA JUMPI PUSH2 0xAE9 PUSH2 0xA8D JUMP JUMPDEST JUMPDEST SWAP3 SWAP2 POP POP JUMP JUMPDEST PUSH1 0x0 PUSH2 0xAFB DUP3 PUSH2 0x6CA JUMP JUMPDEST SWAP2 POP PUSH32 0xFFFFFFFFFFFFFFFFFFFFFFFFFFFFFFFFFFFFFFFFFFFFFFFFFFFFFFFFFFFFFFFF DUP3 SUB PUSH2 0xB2D JUMPI PUSH2 0xB2C PUSH2 0xA8D JUMP JUMPDEST JUMPDEST PUSH1 0x1 DUP3 ADD SWAP1 POP SWAP2 SWAP1 POP JUMP JUMPDEST PUSH1 0x0 DUP3 DUP3 MSTORE PUSH1 0x20 DUP3 ADD SWAP1 POP SWAP3 SWAP2 POP POP JUMP JUMPDEST PUSH32 0x696E636F72726563742070726F626162696C6974790000000000000000000000 PUSH1 0x0 DUP3 ADD MSTORE POP JUMP JUMPDEST PUSH1 0x0 PUSH2 0xB7F PUSH1 0x15 DUP4 PUSH2 0xB38 JUMP JUMPDEST SWAP2 POP PUSH2 0xB8A DUP3 PUSH2 0xB49 JUMP JUMPDEST PUSH1 0x20 DUP3 ADD SWAP1 POP SWAP2 SWAP1 POP JUMP JUMPDEST PUSH1 0x0 PUSH1 0x20 DUP3 ADD SWAP1 POP DUP2 DUP2 SUB PUSH1 0x0 DUP4 ADD MSTORE PUSH2 0xBAE DUP2 PUSH2 0xB72 JUMP JUMPDEST SWAP1 POP SWAP2 SWAP1 POP JUMP JUMPDEST PUSH1 0x0 PUSH2 0xBC0 DUP3 PUSH2 0x6CA JUMP JUMPDEST SWAP2 POP PUSH2 0xBCB DUP4 PUSH2 0x6CA JUMP JUMPDEST SWAP3 POP DUP3 DUP3 MUL PUSH2 0xBD9 DUP2 PUSH2 0x6CA JUMP JUMPDEST SWAP2 POP DUP3 DUP3 DIV DUP5 EQ DUP4 ISZERO OR PUSH2 0xBF0 JUMPI PUSH2 0xBEF PUSH2 0xA8D JUMP JUMPDEST JUMPDEST POP SWAP3 SWAP2 POP POP JUMP JUMPDEST PUSH32 0x4E487B7100000000000000000000000000000000000000000000000000000000 PUSH1 0x0 MSTORE PUSH1 0x12 PUSH1 0x4 MSTORE PUSH1 0x24 PUSH1 0x0 REVERT JUMPDEST PUSH1 0x0 PUSH2 0xC31 DUP3 PUSH2 0x6CA JUMP JUMPDEST SWAP2 POP PUSH2 0xC3C DUP4 PUSH2 0x6CA JUMP JUMPDEST SWAP3 POP DUP3 PUSH2 0xC4C JUMPI PUSH2 0xC4B PUSH2 0xBF7 JUMP JUMPDEST JUMPDEST DUP3 DUP3 DIV SWAP1 POP SWAP3 SWAP2 POP POP JUMP JUMPDEST PUSH1 0x0 PUSH2 0xC62 DUP3 PUSH2 0x6CA JUMP JUMPDEST SWAP2 POP PUSH2 0xC6D DUP4 PUSH2 0x6CA JUMP JUMPDEST SWAP3 POP DUP3 DUP3 SUB SWAP1 POP DUP2 DUP2 GT ISZERO PUSH2 0xC85 JUMPI PUSH2 0xC84 PUSH2 0xA8D JUMP JUMPDEST JUMPDEST SWAP3 SWAP2 POP POP JUMP INVALID LOG2 PUSH5 0x6970667358 0x22 SLT KECCAK256 0xC0 0xD8 0x5D 0xC3 0xA8 0xD3 PUSH7 0xC0977BCAB83626 0xC4 0xC7 0xC4 0xC8 0x5F 0xF7 0xAE SWAP15 0xD5 0xD INVALID SWAP4 PUSH30 0x180D076A4164736F6C634300081300330000000000000000000000000000 "
		},
		"gasEstimates": {
			"creation": {
				"codeDepositCost": "653000",
				"executionCost": "689",
				"totalCost": "653689"
			},
			"external": {
				"boxIds(uint256)": "infinite",
				"checkedBoxIds(uint256)": "infinite",
				"coin()": "338",
				"currentBoxId()": "2495",
				"getAddress0()": "445",
				"getBoxDetail(uint256)": "infinite",
				"publishMysteryBox(uint256[])": "infinite",
				"range(uint256)": "infinite"
			}
		},
		"methodIdentifiers": {
			"boxIds(uint256)": "b4c33908",
			"checkedBoxIds(uint256)": "385b3aa5",
			"coin()": "11df9995",
			"currentBoxId()": "cc22bf80",
			"getAddress0()": "55b0cf12",
			"getBoxDetail(uint256)": "161344e6",
			"publishMysteryBox(uint256[])": "b71e6f01",
			"range(uint256)": "a5e45bec"
		}
	},
	"abi": [
		{
			"inputs": [
				{
					"internalType": "uint256",
					"name": "",
					"type": "uint256"
				}
			],
			"name": "boxIds",
			"outputs": [
				{
					"internalType": "uint256",
					"name": "",
					"type": "uint256"
				}
			],
			"stateMutability": "view",
			"type": "function"
		},
		{
			"inputs": [
				{
					"internalType": "uint256",
					"name": "",
					"type": "uint256"
				}
			],
			"name": "checkedBoxIds",
			"outputs": [
				{
					"internalType": "uint256",
					"name": "",
					"type": "uint256"
				}
			],
			"stateMutability": "view",
			"type": "function"
		},
		{
			"inputs": [],
			"name": "coin",
			"outputs": [
				{
					"internalType": "uint256",
					"name": "",
					"type": "uint256"
				}
			],
			"stateMutability": "pure",
			"type": "function"
		},
		{
			"inputs": [],
			"name": "currentBoxId",
			"outputs": [
				{
					"internalType": "uint256",
					"name": "",
					"type": "uint256"
				}
			],
			"stateMutability": "view",
			"type": "function"
		},
		{
			"inputs": [],
			"name": "getAddress0",
			"outputs": [
				{
					"internalType": "address",
					"name": "",
					"type": "address"
				}
			],
			"stateMutability": "pure",
			"type": "function"
		},
		{
			"inputs": [
				{
					"internalType": "uint256",
					"name": "boxId",
					"type": "uint256"
				}
			],
			"name": "getBoxDetail",
			"outputs": [
				{
					"internalType": "uint256[]",
					"name": "probabilityArray",
					"type": "uint256[]"
				},
				{
					"internalType": "uint256[]",
					"name": "rangeArray",
					"type": "uint256[]"
				}
			],
			"stateMutability": "view",
			"type": "function"
		},
		{
			"inputs": [
				{
					"internalType": "uint256[]",
					"name": "probabilityArray",
					"type": "uint256[]"
				}
			],
			"name": "publishMysteryBox",
			"outputs": [],
			"stateMutability": "nonpayable",
			"type": "function"
		},
		{
			"inputs": [
				{
					"internalType": "uint256",
					"name": "",
					"type": "uint256"
				}
			],
			"name": "range",
			"outputs": [
				{
					"internalType": "uint256",
					"name": "",
					"type": "uint256"
				}
			],
			"stateMutability": "view",
			"type": "function"
		}
	]
}