{
	"data": {
		"bytecode": {
			"linkReferences": {},
			"object": "608060405234801561001057600080fd5b5061449b806100206000396000f3fe6080604052600436106100f35760003560e01c8063b173e5701161008a578063dbdff2c111610059578063dbdff2c114610317578063dbe7e3bd14610342578063e3fc58281461036b578063ff175d77146103b1576100f3565b8063b173e5701461026a578063b4c3390814610293578063c3ac7daf146102d0578063cc22bf80146102ec576100f3565b80636d9a7938116100c65780636d9a7938146101bf5780638796ba8c146101e857806390bb601c14610225578063a0712d681461024e576100f3565b80630d7a41b7146100f8578063161344e614610114578063385b3aa51461015957806338ba461414610196575b600080fd5b610112600480360381019061010d9190613107565b6103ee565b005b34801561012057600080fd5b5061013b60048036038101906101369190613192565b610901565b60405161015099989796959493929190613374565b60405180910390f35b34801561016557600080fd5b50610180600480360381019061017b9190613192565b610c67565b60405161018d919061341d565b60405180910390f35b3480156101a257600080fd5b506101bd60048036038101906101b89190613438565b610c8b565b005b3480156101cb57600080fd5b506101e660048036038101906101e19190613192565b61120f565b005b3480156101f457600080fd5b5061020f600480360381019061020a9190613192565b61165b565b60405161021c919061341d565b60405180910390f35b34801561023157600080fd5b5061024c60048036038101906102479190613192565b61167f565b005b61026860048036038101906102639190613192565b61181f565b005b34801561027657600080fd5b50610291600480360381019061028c9190613192565b611af7565b005b34801561029f57600080fd5b506102ba60048036038101906102b59190613192565b611bc6565b6040516102c7919061341d565b60405180910390f35b6102ea60048036038101906102e59190613494565b611bea565b005b3480156102f857600080fd5b50610301612442565b60405161030e919061341d565b60405180910390f35b34801561032357600080fd5b5061032c612448565b604051610339919061341d565b60405180910390f35b34801561034e57600080fd5b5061036960048036038101906103649190613192565b6124d5565b005b34801561037757600080fd5b50610392600480360381019061038d9190613192565b6125ed565b6040516103a89a99989796959493929190613575565b60405180910390f35b3480156103bd57600080fd5b506103d860048036038101906103d3919061363d565b6126a8565b6040516103e5919061341d565b60405180910390f35b6000825111610432576040517f08c379a0000000000000000000000000000000000000000000000000000000008152600401610429906136c7565b60405180910390fd5b8051825114610476576040517f08c379a000000000000000000000000000000000000000000000000000000000815260040161046d90613733565b60405180910390fd5b600060016000858152602001908152602001600020604051806080016040529081600082018054806020026020016040519081016040528092919081815260200182805480156104e557602002820191906000526020600020905b8154815260200190600101908083116104d1575b505050505081526020016001820180548060200260200160405190810160405280929190818152602001828054801561053d57602002820191906000526020600020905b815481526020019060010190808311610529575b50505050508152602001600282018054806020026020016040519081016040528092919081815260200182805480156105cb57602002820191906000526020600020905b8160009054906101000a900473ffffffffffffffffffffffffffffffffffffffff1673ffffffffffffffffffffffffffffffffffffffff1681526020019060010190808311610581575b505050505081526020016003820180548060200260200160405190810160405280929190818152602001828054801561062357602002820191906000526020600020905b81548152602001906001019080831161060f575b5050505050815250509050600060066000868152602001908152602001600020905060005b84518110156107fe57600085828151811061066657610665613753565b5b60200260200101519050600085838151811061068557610684613753565b5b60200260200101519050600073ffffffffffffffffffffffffffffffffffffffff168273ffffffffffffffffffffffffffffffffffffffff160361070b5780341015610706576040517f08c379a00000000000000000000000000000000000000000000000000000000081526004016106fd906137ce565b60405180910390fd5b610739565b6107383330838573ffffffffffffffffffffffffffffffffffffffff166126cb909392919063ffffffff16565b5b80600560008a815260200190815260200160002060008473ffffffffffffffffffffffffffffffffffffffff1673ffffffffffffffffffffffffffffffffffffffff16815260200190815260200160002054610795919061381d565b600560008a815260200190815260200160002060008473ffffffffffffffffffffffffffffffffffffffff1673ffffffffffffffffffffffffffffffffffffffff16815260200190815260200160002081905550505080806107f690613851565b915050610648565b506000826040015190506000836060015190506000805b83518110156108c257600084828151811061083357610832613753565b5b60200260200101519050600084838151811061085257610851613753565b5b60200260200101519050808760008473ffffffffffffffffffffffffffffffffffffffff1673ffffffffffffffffffffffffffffffffffffffff1681526020019081526020016000205410156108ad576001935050506108c2565b505080806108ba90613851565b915050610815565b50806108f75760008060008a815260200190815260200160002060060160146101000a81548160ff0219169083151502179055505b5050505050505050565b600080600080600060608060608060008060008c815260200190815260200160002060405180610140016040529081600082015481526020016001820160009054906101000a900473ffffffffffffffffffffffffffffffffffffffff1673ffffffffffffffffffffffffffffffffffffffff1673ffffffffffffffffffffffffffffffffffffffff168152602001600282015481526020016003820154815260200160048201548152602001600582015481526020016006820160009054906101000a900473ffffffffffffffffffffffffffffffffffffffff1673ffffffffffffffffffffffffffffffffffffffff1673ffffffffffffffffffffffffffffffffffffffff1681526020016006820160149054906101000a900460ff161515151581526020016006820160159054906101000a900460ff161515151581526020016006820160169054906101000a900460ff16151515158152505090508060200151995080604001519850806060015197508060800151965080610100015195506000600160008d815260200190815260200160002060405180608001604052908160008201805480602002602001604051908101604052809291908181526020018280548015610af357602002820191906000526020600020905b815481526020019060010190808311610adf575b5050505050815260200160018201805480602002602001604051908101604052809291908181526020018280548015610b4b57602002820191906000526020600020905b815481526020019060010190808311610b37575b5050505050815260200160028201805480602002602001604051908101604052809291908181526020018280548015610bd957602002820191906000526020600020905b8160009054906101000a900473ffffffffffffffffffffffffffffffffffffffff1673ffffffffffffffffffffffffffffffffffffffff1681526020019060010190808311610b8f575b5050505050815260200160038201805480602002602001604051908101604052809291908181526020018280548015610c3157602002820191906000526020600020905b815481526020019060010190808311610c1d575b50505050508152505090508060000151955080602001519450806040015193508060600151925050509193959799909294969850565b60038181548110610c7757600080fd5b906000526020600020016000915090505481565b6007600083815260200190815260200160002060070160019054906101000a900460ff16610cee576040517f08c379a0000000000000000000000000000000000000000000000000000000008152600401610ce5906138e5565b60405180910390fd5b600060076000848152602001908152602001600020905060018160070160006101000a81548160ff02191690831515021790555081600081518110610d3657610d35613753565b5b6020026020010151816002018190555042816004018190555060ec8160000160009054906101000a900473ffffffffffffffffffffffffffffffffffffffff1682600401548360020154604051602001610d929392919061396e565b60405160208183030381529060405280519060200120901c60001c81600301819055506000600160008360010154815260200190815260200160002060405180608001604052908160008201805480602002602001604051908101604052809291908181526020018280548015610e2857602002820191906000526020600020905b815481526020019060010190808311610e14575b5050505050815260200160018201805480602002602001604051908101604052809291908181526020018280548015610e8057602002820191906000526020600020905b815481526020019060010190808311610e6c575b5050505050815260200160028201805480602002602001604051908101604052809291908181526020018280548015610f0e57602002820191906000526020600020905b8160009054906101000a900473ffffffffffffffffffffffffffffffffffffffff1673ffffffffffffffffffffffffffffffffffffffff1681526020019060010190808311610ec4575b5050505050815260200160038201805480602002602001604051908101604052809291908181526020018280548015610f6657602002820191906000526020600020905b815481526020019060010190808311610f52575b505050505081525050905060005b8160200151518110156112075781602001518181518110610f9857610f97613753565b5b6020026020010151836003015410156111f457600082604001518281518110610fc457610fc3613753565b5b60200260200101519050600083606001518381518110610fe757610fe6613753565b5b60200260200101519050600073ffffffffffffffffffffffffffffffffffffffff168273ffffffffffffffffffffffffffffffffffffffff16036110535761104e813373ffffffffffffffffffffffffffffffffffffffff1661275490919063ffffffff16565b611081565b6110803033838573ffffffffffffffffffffffffffffffffffffffff166126cb909392919063ffffffff16565b5b818560050160006101000a81548173ffffffffffffffffffffffffffffffffffffffff021916908373ffffffffffffffffffffffffffffffffffffffff160217905550808560060181905550600081600560008860010154815260200190815260200160002060008573ffffffffffffffffffffffffffffffffffffffff1673ffffffffffffffffffffffffffffffffffffffff1681526020019081526020016000205461112f91906139ab565b905080600560008860010154815260200190815260200160002060008573ffffffffffffffffffffffffffffffffffffffff1673ffffffffffffffffffffffffffffffffffffffff16815260200190815260200160002081905550846060015184815181106111a1576111a0613753565b5b60200260200101518110156111e957600080600088600101548152602001908152602001600020905060018160060160146101000a81548160ff021916908315150217905550505b50505050505061120b565b80806111ff90613851565b915050610f74565b5050505b5050565b600080600083815260200190815260200160002090503373ffffffffffffffffffffffffffffffffffffffff168160060160009054906101000a900473ffffffffffffffffffffffffffffffffffffffff1673ffffffffffffffffffffffffffffffffffffffff16146112b7576040517f08c379a00000000000000000000000000000000000000000000000000000000081526004016112ae90613a2b565b60405180910390fd5b60018160060160166101000a81548160ff0219169083151502179055506000600160008481526020019081526020016000206040518060800160405290816000820180548060200260200160405190810160405280929190818152602001828054801561134357602002820191906000526020600020905b81548152602001906001019080831161132f575b505050505081526020016001820180548060200260200160405190810160405280929190818152602001828054801561139b57602002820191906000526020600020905b815481526020019060010190808311611387575b505050505081526020016002820180548060200260200160405190810160405280929190818152602001828054801561142957602002820191906000526020600020905b8160009054906101000a900473ffffffffffffffffffffffffffffffffffffffff1673ffffffffffffffffffffffffffffffffffffffff16815260200190600101908083116113df575b505050505081526020016003820180548060200260200160405190810160405280929190818152602001828054801561148157602002820191906000526020600020905b81548152602001906001019080831161146d575b5050505050815250509050600081604001519050600060056000868152602001908152602001600020905060005b82518110156116535760008260008584815181106114d0576114cf613753565b5b602002602001015173ffffffffffffffffffffffffffffffffffffffff1673ffffffffffffffffffffffffffffffffffffffff168152602001908152602001600020549050600081111561163f57600083600086858151811061153657611535613753565b5b602002602001015173ffffffffffffffffffffffffffffffffffffffff1673ffffffffffffffffffffffffffffffffffffffff16815260200190815260200160002081905550600073ffffffffffffffffffffffffffffffffffffffff168483815181106115a7576115a6613753565b5b602002602001015173ffffffffffffffffffffffffffffffffffffffff16036115f8576115f3813373ffffffffffffffffffffffffffffffffffffffff1661275490919063ffffffff16565b61163e565b61163d33828685815181106116105761160f613753565b5b602002602001015173ffffffffffffffffffffffffffffffffffffffff166128489092919063ffffffff16565b5b5b50808061164b90613851565b9150506114af565b505050505050565b6008818154811061166b57600080fd5b906000526020600020016000915090505481565b600080600083815260200190815260200160002090503373ffffffffffffffffffffffffffffffffffffffff168160060160009054906101000a900473ffffffffffffffffffffffffffffffffffffffff1673ffffffffffffffffffffffffffffffffffffffff1614611727576040517f08c379a000000000000000000000000000000000000000000000000000000000815260040161171e90613a2b565b60405180910390fd5b600081600501549050600081111561181a5760008260050181905550600073ffffffffffffffffffffffffffffffffffffffff168260010160009054906101000a900473ffffffffffffffffffffffffffffffffffffffff1673ffffffffffffffffffffffffffffffffffffffff16036117c9576117c4813373ffffffffffffffffffffffffffffffffffffffff1661275490919063ffffffff16565b611819565b61181833828460010160009054906101000a900473ffffffffffffffffffffffffffffffffffffffff1673ffffffffffffffffffffffffffffffffffffffff166128489092919063ffffffff16565b5b5b505050565b600080600083815260200190815260200160002060405180610140016040529081600082015481526020016001820160009054906101000a900473ffffffffffffffffffffffffffffffffffffffff1673ffffffffffffffffffffffffffffffffffffffff1673ffffffffffffffffffffffffffffffffffffffff168152602001600282015481526020016003820154815260200160048201548152602001600582015481526020016006820160009054906101000a900473ffffffffffffffffffffffffffffffffffffffff1673ffffffffffffffffffffffffffffffffffffffff1673ffffffffffffffffffffffffffffffffffffffff1681526020016006820160149054906101000a900460ff161515151581526020016006820160159054906101000a900460ff161515151581526020016006820160169054906101000a900460ff16151515158152505090508061010001516119b5576040517f08c379a00000000000000000000000000000000000000000000000000000000081526004016119ac90613abd565b60405180910390fd5b60008160800151116119fc576040517f08c379a00000000000000000000000000000000000000000000000000000000081526004016119f390613b29565b60405180910390fd5b600073ffffffffffffffffffffffffffffffffffffffff16816020015173ffffffffffffffffffffffffffffffffffffffff1603611a80578060400151341015611a7b576040517f08c379a0000000000000000000000000000000000000000000000000000000008152600401611a7290613b95565b60405180910390fd5b611ab6565b611ab533308360400151846020015173ffffffffffffffffffffffffffffffffffffffff166126cb909392919063ffffffff16565b5b806080018051809190611ac890613bb5565b8152505080604001518160a00151611ae0919061381d565b8160a0018181525050611af2826128ce565b505050565b6000806000838152602001908152602001600020905080600001548214611b53576040517f08c379a0000000000000000000000000000000000000000000000000000000008152600401611b4a90613c2a565b60405180910390fd5b8060060160159054906101000a900460ff1615611ba5576040517f08c379a0000000000000000000000000000000000000000000000000000000008152600401611b9c90613c96565b60405180910390fd5b60018160060160156101000a81548160ff0219169083151502179055505050565b60028181548110611bd657600080fd5b906000526020600020016000915090505481565b60008511611c2d576040517f08c379a0000000000000000000000000000000000000000000000000000000008152600401611c2490613d02565b60405180910390fd5b60008411611c70576040517f08c379a0000000000000000000000000000000000000000000000000000000008152600401611c6790613d6e565b60405180910390fd5b60008351118015611c82575060008251115b8015611c8f575060008151115b611cce576040517f08c379a0000000000000000000000000000000000000000000000000000000008152600401611cc590613dda565b60405180910390fd5b81518351148015611ce0575080518251145b611d1f576040517f08c379a0000000000000000000000000000000000000000000000000000000008152600401611d1690613dda565b60405180910390fd5b600080600090505b8451811015611e035760018551611d3e91906139ab565b811015611dc85784600182611d53919061381d565b81518110611d6457611d63613753565b5b6020026020010151858281518110611d7f57611d7e613753565b5b602002602001015110611dc7576040517f08c379a0000000000000000000000000000000000000000000000000000000008152600401611dbe90613e46565b60405180910390fd5b5b848181518110611ddb57611dda613753565b5b602002602001015182611dee919061381d565b91508080611dfb90613851565b915050611d27565b506127108114611e48576040517f08c379a0000000000000000000000000000000000000000000000000000000008152600401611e3f90613eb2565b60405180910390fd5b60005b835181101561209e576000612710848381518110611e6c57611e6b613753565b5b602002602001015188888581518110611e8857611e87613753565b5b6020026020010151611e9a9190613ed2565b611ea49190613ed2565b611eae9190613f43565b9050600073ffffffffffffffffffffffffffffffffffffffff16858381518110611edb57611eda613753565b5b602002602001015173ffffffffffffffffffffffffffffffffffffffff1603611f465780341015611f41576040517f08c379a0000000000000000000000000000000000000000000000000000000008152600401611f38906137ce565b60405180910390fd5b611f8e565b611f8d333083888681518110611f5f57611f5e613753565b5b602002602001015173ffffffffffffffffffffffffffffffffffffffff166126cb909392919063ffffffff16565b5b806005600060045481526020019081526020016000206000878581518110611fb957611fb8613753565b5b602002602001015173ffffffffffffffffffffffffffffffffffffffff1673ffffffffffffffffffffffffffffffffffffffff1681526020019081526020016000208190555083828151811061201257612011613753565b5b6020026020010151600660006004548152602001908152602001600020600087858151811061204457612043613753565b5b602002602001015173ffffffffffffffffffffffffffffffffffffffff1673ffffffffffffffffffffffffffffffffffffffff1681526020019081526020016000208190555050808061209690613851565b915050611e4b565b5060405180610140016040528060045481526020018873ffffffffffffffffffffffffffffffffffffffff168152602001878152602001868152602001868152602001600081526020013373ffffffffffffffffffffffffffffffffffffffff1681526020016000151581526020016000151581526020016000151581525060008060045481526020019081526020016000206000820151816000015560208201518160010160006101000a81548173ffffffffffffffffffffffffffffffffffffffff021916908373ffffffffffffffffffffffffffffffffffffffff16021790555060408201518160020155606082015181600301556080820151816004015560a0820151816005015560c08201518160060160006101000a81548173ffffffffffffffffffffffffffffffffffffffff021916908373ffffffffffffffffffffffffffffffffffffffff16021790555060e08201518160060160146101000a81548160ff0219169083151502179055506101008201518160060160156101000a81548160ff0219169083151502179055506101208201518160060160166101000a81548160ff02191690831515021790555090505060006001600060045481526020019081526020016000209050600081600101905060005b86518110156123a8576000612710620fffff89848151811061229f5761229e613753565b5b60200260200101516122b19190613ed2565b6122bb9190613f43565b9050600082036122f25782819080600181540180825580915050600190039060005260206000200160009091909190915055612394565b6001885161230091906139ab565b82036123365782620fffff9080600181540180825580915050600190039060005260206000200160009091909190915055612393565b82818460018561234691906139ab565b8154811061235757612356613753565b5b906000526020600020015461236c919061381d565b90806001815401808255809150506001900390600052602060002001600090919091909150555b5b5080806123a090613851565b91505061227a565b50858260000190805190602001906123c1929190612d4f565b50848260020190805190602001906123da929190612d9c565b50838260030190805190602001906123f3929190612d4f565b50600260045490806001815401808255809150506001900390600052602060002001600090919091909150556004600081548092919061243290613851565b9190505550505050505050505050565b60045481565b600080339050600042905060008183604051602001612468929190613f74565b604051602081830303815290604052805190602001209050600060ec82901c90508060001c94507f5bd4c3d730aa2b20b600f395010cdc42b0efdb18bebb1c2e641802ea575432d884848484896040516124c6959493929190613fb9565b60405180910390a15050505090565b600060076000838152602001908152602001600020905060018160070160026101000a81548160ff021916908315150217905550600073ffffffffffffffffffffffffffffffffffffffff168160050160009054906101000a900473ffffffffffffffffffffffffffffffffffffffff1673ffffffffffffffffffffffffffffffffffffffff16036125935761258e81600601543373ffffffffffffffffffffffffffffffffffffffff1661275490919063ffffffff16565b6125e9565b6125e8303383600601548460050160009054906101000a900473ffffffffffffffffffffffffffffffffffffffff1673ffffffffffffffffffffffffffffffffffffffff166126cb909392919063ffffffff16565b5b5050565b60076020528060005260406000206000915090508060000160009054906101000a900473ffffffffffffffffffffffffffffffffffffffff16908060010154908060020154908060030154908060040154908060050160009054906101000a900473ffffffffffffffffffffffffffffffffffffffff16908060060154908060070160009054906101000a900460ff16908060070160019054906101000a900460ff16908060070160029054906101000a900460ff1690508a565b600081156126bd5760038054905090506126c6565b60028054905090505b919050565b61274e846323b872dd60e01b8585856040516024016126ec9392919061400c565b604051602081830303815290604052907bffffffffffffffffffffffffffffffffffffffffffffffffffffffff19166020820180517bffffffffffffffffffffffffffffffffffffffffffffffffffffffff8381831617835250505050612abb565b50505050565b80471015612797576040517f08c379a000000000000000000000000000000000000000000000000000000000815260040161278e9061408f565b60405180910390fd5b60008273ffffffffffffffffffffffffffffffffffffffff16826040516127bd906140e0565b60006040518083038185875af1925050503d80600081146127fa576040519150601f19603f3d011682016040523d82523d6000602084013e6127ff565b606091505b5050905080612843576040517f08c379a000000000000000000000000000000000000000000000000000000000815260040161283a90614167565b60405180910390fd5b505050565b6128c98363a9059cbb60e01b8484604051602401612867929190614187565b604051602081830303815290604052907bffffffffffffffffffffffffffffffffffffffffffffffffffffffff19166020820180517bffffffffffffffffffffffffffffffffffffffffffffffffffffffff8381831617835250505050612abb565b505050565b60004290506040518061014001604052803373ffffffffffffffffffffffffffffffffffffffff16815260200183815260200160008152602001620fffff815260200160008152602001600173ffffffffffffffffffffffffffffffffffffffff16815260200160008152602001600015158152602001600115158152602001600015158152506007600083815260200190815260200160002060008201518160000160006101000a81548173ffffffffffffffffffffffffffffffffffffffff021916908373ffffffffffffffffffffffffffffffffffffffff1602179055506020820151816001015560408201518160020155606082015181600301556080820151816004015560a08201518160050160006101000a81548173ffffffffffffffffffffffffffffffffffffffff021916908373ffffffffffffffffffffffffffffffffffffffff16021790555060c0820151816006015560e08201518160070160006101000a81548160ff0219169083151502179055506101008201518160070160016101000a81548160ff0219169083151502179055506101208201518160070160026101000a81548160ff0219169083151502179055509050506008819080600181540180825580915050600190039060005260206000200160009091909190915055919050565b6000612b1d826040518060400160405280602081526020017f5361666545524332303a206c6f772d6c6576656c2063616c6c206661696c65648152508573ffffffffffffffffffffffffffffffffffffffff16612b829092919063ffffffff16565b9050600081511115612b7d5780806020019051810190612b3d91906141c5565b612b7c576040517f08c379a0000000000000000000000000000000000000000000000000000000008152600401612b7390614264565b60405180910390fd5b5b505050565b6060612b918484600085612b9a565b90509392505050565b606082471015612bdf576040517f08c379a0000000000000000000000000000000000000000000000000000000008152600401612bd6906142f6565b60405180910390fd5b6000808673ffffffffffffffffffffffffffffffffffffffff168587604051612c08919061437c565b60006040518083038185875af1925050503d8060008114612c45576040519150601f19603f3d011682016040523d82523d6000602084013e612c4a565b606091505b5091509150612c5b87838387612c67565b92505050949350505050565b60608315612cc9576000835103612cc157612c8185612cdc565b612cc0576040517f08c379a0000000000000000000000000000000000000000000000000000000008152600401612cb7906143df565b60405180910390fd5b5b829050612cd4565b612cd38383612cff565b5b949350505050565b6000808273ffffffffffffffffffffffffffffffffffffffff163b119050919050565b600082511115612d125781518083602001fd5b806040517f08c379a0000000000000000000000000000000000000000000000000000000008152600401612d469190614443565b60405180910390fd5b828054828255906000526020600020908101928215612d8b579160200282015b82811115612d8a578251825591602001919060010190612d6f565b5b509050612d989190612e26565b5090565b828054828255906000526020600020908101928215612e15579160200282015b82811115612e145782518260006101000a81548173ffffffffffffffffffffffffffffffffffffffff021916908373ffffffffffffffffffffffffffffffffffffffff16021790555091602001919060010190612dbc565b5b509050612e229190612e26565b5090565b5b80821115612e3f576000816000905550600101612e27565b5090565b6000604051905090565b600080fd5b600080fd5b6000819050919050565b612e6a81612e57565b8114612e7557600080fd5b50565b600081359050612e8781612e61565b92915050565b600080fd5b6000601f19601f8301169050919050565b7f4e487b7100000000000000000000000000000000000000000000000000000000600052604160045260246000fd5b612edb82612e92565b810181811067ffffffffffffffff82111715612efa57612ef9612ea3565b5b80604052505050565b6000612f0d612e43565b9050612f198282612ed2565b919050565b600067ffffffffffffffff821115612f3957612f38612ea3565b5b602082029050602081019050919050565b600080fd5b600073ffffffffffffffffffffffffffffffffffffffff82169050919050565b6000612f7a82612f4f565b9050919050565b612f8a81612f6f565b8114612f9557600080fd5b50565b600081359050612fa781612f81565b92915050565b6000612fc0612fbb84612f1e565b612f03565b90508083825260208201905060208402830185811115612fe357612fe2612f4a565b5b835b8181101561300c5780612ff88882612f98565b845260208401935050602081019050612fe5565b5050509392505050565b600082601f83011261302b5761302a612e8d565b5b813561303b848260208601612fad565b91505092915050565b600067ffffffffffffffff82111561305f5761305e612ea3565b5b602082029050602081019050919050565b600061308361307e84613044565b612f03565b905080838252602082019050602084028301858111156130a6576130a5612f4a565b5b835b818110156130cf57806130bb8882612e78565b8452602084019350506020810190506130a8565b5050509392505050565b600082601f8301126130ee576130ed612e8d565b5b81356130fe848260208601613070565b91505092915050565b6000806000606084860312156131205761311f612e4d565b5b600061312e86828701612e78565b935050602084013567ffffffffffffffff81111561314f5761314e612e52565b5b61315b86828701613016565b925050604084013567ffffffffffffffff81111561317c5761317b612e52565b5b613188868287016130d9565b9150509250925092565b6000602082840312156131a8576131a7612e4d565b5b60006131b684828501612e78565b91505092915050565b6131c881612f6f565b82525050565b6131d781612e57565b82525050565b60008115159050919050565b6131f2816131dd565b82525050565b600081519050919050565b600082825260208201905092915050565b6000819050602082019050919050565b61322d81612e57565b82525050565b600061323f8383613224565b60208301905092915050565b6000602082019050919050565b6000613263826131f8565b61326d8185613203565b935061327883613214565b8060005b838110156132a95781516132908882613233565b975061329b8361324b565b92505060018101905061327c565b5085935050505092915050565b600081519050919050565b600082825260208201905092915050565b6000819050602082019050919050565b6132eb81612f6f565b82525050565b60006132fd83836132e2565b60208301905092915050565b6000602082019050919050565b6000613321826132b6565b61332b81856132c1565b9350613336836132d2565b8060005b8381101561336757815161334e88826132f1565b975061335983613309565b92505060018101905061333a565b5085935050505092915050565b60006101208201905061338a600083018c6131bf565b613397602083018b6131ce565b6133a4604083018a6131ce565b6133b160608301896131ce565b6133be60808301886131e9565b81810360a08301526133d08187613258565b905081810360c08301526133e48186613258565b905081810360e08301526133f88185613316565b905081810361010083015261340d8184613258565b90509a9950505050505050505050565b600060208201905061343260008301846131ce565b92915050565b6000806040838503121561344f5761344e612e4d565b5b600061345d85828601612e78565b925050602083013567ffffffffffffffff81111561347e5761347d612e52565b5b61348a858286016130d9565b9150509250929050565b60008060008060008060c087890312156134b1576134b0612e4d565b5b60006134bf89828a01612f98565b96505060206134d089828a01612e78565b95505060406134e189828a01612e78565b945050606087013567ffffffffffffffff81111561350257613501612e52565b5b61350e89828a016130d9565b935050608087013567ffffffffffffffff81111561352f5761352e612e52565b5b61353b89828a01613016565b92505060a087013567ffffffffffffffff81111561355c5761355b612e52565b5b61356889828a016130d9565b9150509295509295509295565b60006101408201905061358b600083018d6131bf565b613598602083018c6131ce565b6135a5604083018b6131ce565b6135b2606083018a6131ce565b6135bf60808301896131ce565b6135cc60a08301886131bf565b6135d960c08301876131ce565b6135e660e08301866131e9565b6135f46101008301856131e9565b6136026101208301846131e9565b9b9a5050505050505050505050565b61361a816131dd565b811461362557600080fd5b50565b60008135905061363781613611565b92915050565b60006020828403121561365357613652612e4d565b5b600061366184828501613628565b91505092915050565b600082825260208201905092915050565b7f4174206c65617374206f6e6520746f6b656e2061646472657373000000000000600082015250565b60006136b1601a8361366a565b91506136bc8261367b565b602082019050919050565b600060208201905081810360008301526136e0816136a4565b9050919050565b7f496e636f727265637420706172616d6574657200000000000000000000000000600082015250565b600061371d60138361366a565b9150613728826136e7565b602082019050919050565b6000602082019050818103600083015261374c81613710565b9050919050565b7f4e487b7100000000000000000000000000000000000000000000000000000000600052603260045260246000fd5b7f696e73756666696369656e7420636f696e2076616c7565000000000000000000600082015250565b60006137b860178361366a565b91506137c382613782565b602082019050919050565b600060208201905081810360008301526137e7816137ab565b9050919050565b7f4e487b7100000000000000000000000000000000000000000000000000000000600052601160045260246000fd5b600061382882612e57565b915061383383612e57565b925082820190508082111561384b5761384a6137ee565b5b92915050565b600061385c82612e57565b91507fffffffffffffffffffffffffffffffffffffffffffffffffffffffffffffffff820361388e5761388d6137ee565b5b600182019050919050565b7f72657175657374206e6f7420666f756e64000000000000000000000000000000600082015250565b60006138cf60118361366a565b91506138da82613899565b602082019050919050565b600060208201905081810360008301526138fe816138c2565b9050919050565b60008160601b9050919050565b600061391d82613905565b9050919050565b600061392f82613912565b9050919050565b61394761394282612f6f565b613924565b82525050565b6000819050919050565b61396861396382612e57565b61394d565b82525050565b600061397a8286613936565b60148201915061398a8285613957565b60208201915061399a8284613957565b602082019150819050949350505050565b60006139b682612e57565b91506139c183612e57565b92508282039050818111156139d9576139d86137ee565b5b92915050565b7f4e6f74206d797374657279206f776e6572000000000000000000000000000000600082015250565b6000613a1560118361366a565b9150613a20826139df565b602082019050919050565b60006020820190508181036000830152613a4481613a08565b9050919050565b7f4d79737465727920686173206e6f74207061737365642074686520726576696560008201527f7700000000000000000000000000000000000000000000000000000000000000602082015250565b6000613aa760218361366a565b9150613ab282613a4b565b604082019050919050565b60006020820190508181036000830152613ad681613a9a565b9050919050565b7f496e73756666696369656e742073746f636b7300000000000000000000000000600082015250565b6000613b1360138361366a565b9150613b1e82613add565b602082019050919050565b60006020820190508181036000830152613b4281613b06565b9050919050565b7f496e73756666696369656e7420636f696e2076616c7565000000000000000000600082015250565b6000613b7f60178361366a565b9150613b8a82613b49565b602082019050919050565b60006020820190508181036000830152613bae81613b72565b9050919050565b6000613bc082612e57565b915060008203613bd357613bd26137ee565b5b600182039050919050565b7f696e636f727265637420626f7820696400000000000000000000000000000000600082015250565b6000613c1460108361366a565b9150613c1f82613bde565b602082019050919050565b60006020820190508181036000830152613c4381613c07565b9050919050565b7f4d79737465727920626f7820616c726561647920636865636b65640000000000600082015250565b6000613c80601b8361366a565b9150613c8b82613c4a565b602082019050919050565b60006020820190508181036000830152613caf81613c73565b9050919050565b7f7072696365206d757374203e2030000000000000000000000000000000000000600082015250565b6000613cec600e8361366a565b9150613cf782613cb6565b602082019050919050565b60006020820190508181036000830152613d1b81613cdf565b9050919050565b7f746f74616c537570706c79206d757374203e2030000000000000000000000000600082015250565b6000613d5860148361366a565b9150613d6382613d22565b602082019050919050565b60006020820190508181036000830152613d8781613d4b565b9050919050565b7f696e636f727265637420706172616d6574657200000000000000000000000000600082015250565b6000613dc460138361366a565b9150613dcf82613d8e565b602082019050919050565b60006020820190508181036000830152613df381613db7565b9050919050565b7f536f72742066726f6d20736d616c6c65737420746f206c617267657374000000600082015250565b6000613e30601d8361366a565b9150613e3b82613dfa565b602082019050919050565b60006020820190508181036000830152613e5f81613e23565b9050919050565b7f696e636f72726563742070726f626162696c6974790000000000000000000000600082015250565b6000613e9c60158361366a565b9150613ea782613e66565b602082019050919050565b60006020820190508181036000830152613ecb81613e8f565b9050919050565b6000613edd82612e57565b9150613ee883612e57565b9250828202613ef681612e57565b91508282048414831517613f0d57613f0c6137ee565b5b5092915050565b7f4e487b7100000000000000000000000000000000000000000000000000000000600052601260045260246000fd5b6000613f4e82612e57565b9150613f5983612e57565b925082613f6957613f68613f14565b5b828204905092915050565b6000613f808285613957565b602082019150613f908284613936565b6014820191508190509392505050565b6000819050919050565b613fb381613fa0565b82525050565b600060a082019050613fce60008301886131bf565b613fdb60208301876131ce565b613fe86040830186613faa565b613ff56060830185613faa565b61400260808301846131ce565b9695505050505050565b600060608201905061402160008301866131bf565b61402e60208301856131bf565b61403b60408301846131ce565b949350505050565b7f416464726573733a20696e73756666696369656e742062616c616e6365000000600082015250565b6000614079601d8361366a565b915061408482614043565b602082019050919050565b600060208201905081810360008301526140a88161406c565b9050919050565b600081905092915050565b50565b60006140ca6000836140af565b91506140d5826140ba565b600082019050919050565b60006140eb826140bd565b9150819050919050565b7f416464726573733a20756e61626c6520746f2073656e642076616c75652c207260008201527f6563697069656e74206d61792068617665207265766572746564000000000000602082015250565b6000614151603a8361366a565b915061415c826140f5565b604082019050919050565b6000602082019050818103600083015261418081614144565b9050919050565b600060408201905061419c60008301856131bf565b6141a960208301846131ce565b9392505050565b6000815190506141bf81613611565b92915050565b6000602082840312156141db576141da612e4d565b5b60006141e9848285016141b0565b91505092915050565b7f5361666545524332303a204552433230206f7065726174696f6e20646964206e60008201527f6f74207375636365656400000000000000000000000000000000000000000000602082015250565b600061424e602a8361366a565b9150614259826141f2565b604082019050919050565b6000602082019050818103600083015261427d81614241565b9050919050565b7f416464726573733a20696e73756666696369656e742062616c616e636520666f60008201527f722063616c6c0000000000000000000000000000000000000000000000000000602082015250565b60006142e060268361366a565b91506142eb82614284565b604082019050919050565b6000602082019050818103600083015261430f816142d3565b9050919050565b600081519050919050565b60005b8381101561433f578082015181840152602081019050614324565b60008484015250505050565b600061435682614316565b61436081856140af565b9350614370818560208601614321565b80840191505092915050565b6000614388828461434b565b915081905092915050565b7f416464726573733a2063616c6c20746f206e6f6e2d636f6e7472616374000000600082015250565b60006143c9601d8361366a565b91506143d482614393565b602082019050919050565b600060208201905081810360008301526143f8816143bc565b9050919050565b600081519050919050565b6000614415826143ff565b61441f818561366a565b935061442f818560208601614321565b61443881612e92565b840191505092915050565b6000602082019050818103600083015261445d818461440a565b90509291505056fea2646970667358221220a0f9dacdbd191a683ffa71cc8e7affd2109327521b41fe5809ba634e913c998464736f6c63430008130033",
			"opcodes": "PUSH1 0x80 PUSH1 0x40 MSTORE CALLVALUE DUP1 ISZERO PUSH2 0x10 JUMPI PUSH1 0x0 DUP1 REVERT JUMPDEST POP PUSH2 0x449B DUP1 PUSH2 0x20 PUSH1 0x0 CODECOPY PUSH1 0x0 RETURN INVALID PUSH1 0x80 PUSH1 0x40 MSTORE PUSH1 0x4 CALLDATASIZE LT PUSH2 0xF3 JUMPI PUSH1 0x0 CALLDATALOAD PUSH1 0xE0 SHR DUP1 PUSH4 0xB173E570 GT PUSH2 0x8A JUMPI DUP1 PUSH4 0xDBDFF2C1 GT PUSH2 0x59 JUMPI DUP1 PUSH4 0xDBDFF2C1 EQ PUSH2 0x317 JUMPI DUP1 PUSH4 0xDBE7E3BD EQ PUSH2 0x342 JUMPI DUP1 PUSH4 0xE3FC5828 EQ PUSH2 0x36B JUMPI DUP1 PUSH4 0xFF175D77 EQ PUSH2 0x3B1 JUMPI PUSH2 0xF3 JUMP JUMPDEST DUP1 PUSH4 0xB173E570 EQ PUSH2 0x26A JUMPI DUP1 PUSH4 0xB4C33908 EQ PUSH2 0x293 JUMPI DUP1 PUSH4 0xC3AC7DAF EQ PUSH2 0x2D0 JUMPI DUP1 PUSH4 0xCC22BF80 EQ PUSH2 0x2EC JUMPI PUSH2 0xF3 JUMP JUMPDEST DUP1 PUSH4 0x6D9A7938 GT PUSH2 0xC6 JUMPI DUP1 PUSH4 0x6D9A7938 EQ PUSH2 0x1BF JUMPI DUP1 PUSH4 0x8796BA8C EQ PUSH2 0x1E8 JUMPI DUP1 PUSH4 0x90BB601C EQ PUSH2 0x225 JUMPI DUP1 PUSH4 0xA0712D68 EQ PUSH2 0x24E JUMPI PUSH2 0xF3 JUMP JUMPDEST DUP1 PUSH4 0xD7A41B7 EQ PUSH2 0xF8 JUMPI DUP1 PUSH4 0x161344E6 EQ PUSH2 0x114 JUMPI DUP1 PUSH4 0x385B3AA5 EQ PUSH2 0x159 JUMPI DUP1 PUSH4 0x38BA4614 EQ PUSH2 0x196 JUMPI JUMPDEST PUSH1 0x0 DUP1 REVERT JUMPDEST PUSH2 0x112 PUSH1 0x4 DUP1 CALLDATASIZE SUB DUP2 ADD SWAP1 PUSH2 0x10D SWAP2 SWAP1 PUSH2 0x3107 JUMP JUMPDEST PUSH2 0x3EE JUMP JUMPDEST STOP JUMPDEST CALLVALUE DUP1 ISZERO PUSH2 0x120 JUMPI PUSH1 0x0 DUP1 REVERT JUMPDEST POP PUSH2 0x13B PUSH1 0x4 DUP1 CALLDATASIZE SUB DUP2 ADD SWAP1 PUSH2 0x136 SWAP2 SWAP1 PUSH2 0x3192 JUMP JUMPDEST PUSH2 0x901 JUMP JUMPDEST PUSH1 0x40 MLOAD PUSH2 0x150 SWAP10 SWAP9 SWAP8 SWAP7 SWAP6 SWAP5 SWAP4 SWAP3 SWAP2 SWAP1 PUSH2 0x3374 JUMP JUMPDEST PUSH1 0x40 MLOAD DUP1 SWAP2 SUB SWAP1 RETURN JUMPDEST CALLVALUE DUP1 ISZERO PUSH2 0x165 JUMPI PUSH1 0x0 DUP1 REVERT JUMPDEST POP PUSH2 0x180 PUSH1 0x4 DUP1 CALLDATASIZE SUB DUP2 ADD SWAP1 PUSH2 0x17B SWAP2 SWAP1 PUSH2 0x3192 JUMP JUMPDEST PUSH2 0xC67 JUMP JUMPDEST PUSH1 0x40 MLOAD PUSH2 0x18D SWAP2 SWAP1 PUSH2 0x341D JUMP JUMPDEST PUSH1 0x40 MLOAD DUP1 SWAP2 SUB SWAP1 RETURN JUMPDEST CALLVALUE DUP1 ISZERO PUSH2 0x1A2 JUMPI PUSH1 0x0 DUP1 REVERT JUMPDEST POP PUSH2 0x1BD PUSH1 0x4 DUP1 CALLDATASIZE SUB DUP2 ADD SWAP1 PUSH2 0x1B8 SWAP2 SWAP1 PUSH2 0x3438 JUMP JUMPDEST PUSH2 0xC8B JUMP JUMPDEST STOP JUMPDEST CALLVALUE DUP1 ISZERO PUSH2 0x1CB JUMPI PUSH1 0x0 DUP1 REVERT JUMPDEST POP PUSH2 0x1E6 PUSH1 0x4 DUP1 CALLDATASIZE SUB DUP2 ADD SWAP1 PUSH2 0x1E1 SWAP2 SWAP1 PUSH2 0x3192 JUMP JUMPDEST PUSH2 0x120F JUMP JUMPDEST STOP JUMPDEST CALLVALUE DUP1 ISZERO PUSH2 0x1F4 JUMPI PUSH1 0x0 DUP1 REVERT JUMPDEST POP PUSH2 0x20F PUSH1 0x4 DUP1 CALLDATASIZE SUB DUP2 ADD SWAP1 PUSH2 0x20A SWAP2 SWAP1 PUSH2 0x3192 JUMP JUMPDEST PUSH2 0x165B JUMP JUMPDEST PUSH1 0x40 MLOAD PUSH2 0x21C SWAP2 SWAP1 PUSH2 0x341D JUMP JUMPDEST PUSH1 0x40 MLOAD DUP1 SWAP2 SUB SWAP1 RETURN JUMPDEST CALLVALUE DUP1 ISZERO PUSH2 0x231 JUMPI PUSH1 0x0 DUP1 REVERT JUMPDEST POP PUSH2 0x24C PUSH1 0x4 DUP1 CALLDATASIZE SUB DUP2 ADD SWAP1 PUSH2 0x247 SWAP2 SWAP1 PUSH2 0x3192 JUMP JUMPDEST PUSH2 0x167F JUMP JUMPDEST STOP JUMPDEST PUSH2 0x268 PUSH1 0x4 DUP1 CALLDATASIZE SUB DUP2 ADD SWAP1 PUSH2 0x263 SWAP2 SWAP1 PUSH2 0x3192 JUMP JUMPDEST PUSH2 0x181F JUMP JUMPDEST STOP JUMPDEST CALLVALUE DUP1 ISZERO PUSH2 0x276 JUMPI PUSH1 0x0 DUP1 REVERT JUMPDEST POP PUSH2 0x291 PUSH1 0x4 DUP1 CALLDATASIZE SUB DUP2 ADD SWAP1 PUSH2 0x28C SWAP2 SWAP1 PUSH2 0x3192 JUMP JUMPDEST PUSH2 0x1AF7 JUMP JUMPDEST STOP JUMPDEST CALLVALUE DUP1 ISZERO PUSH2 0x29F JUMPI PUSH1 0x0 DUP1 REVERT JUMPDEST POP PUSH2 0x2BA PUSH1 0x4 DUP1 CALLDATASIZE SUB DUP2 ADD SWAP1 PUSH2 0x2B5 SWAP2 SWAP1 PUSH2 0x3192 JUMP JUMPDEST PUSH2 0x1BC6 JUMP JUMPDEST PUSH1 0x40 MLOAD PUSH2 0x2C7 SWAP2 SWAP1 PUSH2 0x341D JUMP JUMPDEST PUSH1 0x40 MLOAD DUP1 SWAP2 SUB SWAP1 RETURN JUMPDEST PUSH2 0x2EA PUSH1 0x4 DUP1 CALLDATASIZE SUB DUP2 ADD SWAP1 PUSH2 0x2E5 SWAP2 SWAP1 PUSH2 0x3494 JUMP JUMPDEST PUSH2 0x1BEA JUMP JUMPDEST STOP JUMPDEST CALLVALUE DUP1 ISZERO PUSH2 0x2F8 JUMPI PUSH1 0x0 DUP1 REVERT JUMPDEST POP PUSH2 0x301 PUSH2 0x2442 JUMP JUMPDEST PUSH1 0x40 MLOAD PUSH2 0x30E SWAP2 SWAP1 PUSH2 0x341D JUMP JUMPDEST PUSH1 0x40 MLOAD DUP1 SWAP2 SUB SWAP1 RETURN JUMPDEST CALLVALUE DUP1 ISZERO PUSH2 0x323 JUMPI PUSH1 0x0 DUP1 REVERT JUMPDEST POP PUSH2 0x32C PUSH2 0x2448 JUMP JUMPDEST PUSH1 0x40 MLOAD PUSH2 0x339 SWAP2 SWAP1 PUSH2 0x341D JUMP JUMPDEST PUSH1 0x40 MLOAD DUP1 SWAP2 SUB SWAP1 RETURN JUMPDEST CALLVALUE DUP1 ISZERO PUSH2 0x34E JUMPI PUSH1 0x0 DUP1 REVERT JUMPDEST POP PUSH2 0x369 PUSH1 0x4 DUP1 CALLDATASIZE SUB DUP2 ADD SWAP1 PUSH2 0x364 SWAP2 SWAP1 PUSH2 0x3192 JUMP JUMPDEST PUSH2 0x24D5 JUMP JUMPDEST STOP JUMPDEST CALLVALUE DUP1 ISZERO PUSH2 0x377 JUMPI PUSH1 0x0 DUP1 REVERT JUMPDEST POP PUSH2 0x392 PUSH1 0x4 DUP1 CALLDATASIZE SUB DUP2 ADD SWAP1 PUSH2 0x38D SWAP2 SWAP1 PUSH2 0x3192 JUMP JUMPDEST PUSH2 0x25ED JUMP JUMPDEST PUSH1 0x40 MLOAD PUSH2 0x3A8 SWAP11 SWAP10 SWAP9 SWAP8 SWAP7 SWAP6 SWAP5 SWAP4 SWAP3 SWAP2 SWAP1 PUSH2 0x3575 JUMP JUMPDEST PUSH1 0x40 MLOAD DUP1 SWAP2 SUB SWAP1 RETURN JUMPDEST CALLVALUE DUP1 ISZERO PUSH2 0x3BD JUMPI PUSH1 0x0 DUP1 REVERT JUMPDEST POP PUSH2 0x3D8 PUSH1 0x4 DUP1 CALLDATASIZE SUB DUP2 ADD SWAP1 PUSH2 0x3D3 SWAP2 SWAP1 PUSH2 0x363D JUMP JUMPDEST PUSH2 0x26A8 JUMP JUMPDEST PUSH1 0x40 MLOAD PUSH2 0x3E5 SWAP2 SWAP1 PUSH2 0x341D JUMP JUMPDEST PUSH1 0x40 MLOAD DUP1 SWAP2 SUB SWAP1 RETURN JUMPDEST PUSH1 0x0 DUP3 MLOAD GT PUSH2 0x432 JUMPI PUSH1 0x40 MLOAD PUSH32 0x8C379A000000000000000000000000000000000000000000000000000000000 DUP2 MSTORE PUSH1 0x4 ADD PUSH2 0x429 SWAP1 PUSH2 0x36C7 JUMP JUMPDEST PUSH1 0x40 MLOAD DUP1 SWAP2 SUB SWAP1 REVERT JUMPDEST DUP1 MLOAD DUP3 MLOAD EQ PUSH2 0x476 JUMPI PUSH1 0x40 MLOAD PUSH32 0x8C379A000000000000000000000000000000000000000000000000000000000 DUP2 MSTORE PUSH1 0x4 ADD PUSH2 0x46D SWAP1 PUSH2 0x3733 JUMP JUMPDEST PUSH1 0x40 MLOAD DUP1 SWAP2 SUB SWAP1 REVERT JUMPDEST PUSH1 0x0 PUSH1 0x1 PUSH1 0x0 DUP6 DUP2 MSTORE PUSH1 0x20 ADD SWAP1 DUP2 MSTORE PUSH1 0x20 ADD PUSH1 0x0 KECCAK256 PUSH1 0x40 MLOAD DUP1 PUSH1 0x80 ADD PUSH1 0x40 MSTORE SWAP1 DUP2 PUSH1 0x0 DUP3 ADD DUP1 SLOAD DUP1 PUSH1 0x20 MUL PUSH1 0x20 ADD PUSH1 0x40 MLOAD SWAP1 DUP2 ADD PUSH1 0x40 MSTORE DUP1 SWAP3 SWAP2 SWAP1 DUP2 DUP2 MSTORE PUSH1 0x20 ADD DUP3 DUP1 SLOAD DUP1 ISZERO PUSH2 0x4E5 JUMPI PUSH1 0x20 MUL DUP3 ADD SWAP2 SWAP1 PUSH1 0x0 MSTORE PUSH1 0x20 PUSH1 0x0 KECCAK256 SWAP1 JUMPDEST DUP2 SLOAD DUP2 MSTORE PUSH1 0x20 ADD SWAP1 PUSH1 0x1 ADD SWAP1 DUP1 DUP4 GT PUSH2 0x4D1 JUMPI JUMPDEST POP POP POP POP POP DUP2 MSTORE PUSH1 0x20 ADD PUSH1 0x1 DUP3 ADD DUP1 SLOAD DUP1 PUSH1 0x20 MUL PUSH1 0x20 ADD PUSH1 0x40 MLOAD SWAP1 DUP2 ADD PUSH1 0x40 MSTORE DUP1 SWAP3 SWAP2 SWAP1 DUP2 DUP2 MSTORE PUSH1 0x20 ADD DUP3 DUP1 SLOAD DUP1 ISZERO PUSH2 0x53D JUMPI PUSH1 0x20 MUL DUP3 ADD SWAP2 SWAP1 PUSH1 0x0 MSTORE PUSH1 0x20 PUSH1 0x0 KECCAK256 SWAP1 JUMPDEST DUP2 SLOAD DUP2 MSTORE PUSH1 0x20 ADD SWAP1 PUSH1 0x1 ADD SWAP1 DUP1 DUP4 GT PUSH2 0x529 JUMPI JUMPDEST POP POP POP POP POP DUP2 MSTORE PUSH1 0x20 ADD PUSH1 0x2 DUP3 ADD DUP1 SLOAD DUP1 PUSH1 0x20 MUL PUSH1 0x20 ADD PUSH1 0x40 MLOAD SWAP1 DUP2 ADD PUSH1 0x40 MSTORE DUP1 SWAP3 SWAP2 SWAP1 DUP2 DUP2 MSTORE PUSH1 0x20 ADD DUP3 DUP1 SLOAD DUP1 ISZERO PUSH2 0x5CB JUMPI PUSH1 0x20 MUL DUP3 ADD SWAP2 SWAP1 PUSH1 0x0 MSTORE PUSH1 0x20 PUSH1 0x0 KECCAK256 SWAP1 JUMPDEST DUP2 PUSH1 0x0 SWAP1 SLOAD SWAP1 PUSH2 0x100 EXP SWAP1 DIV PUSH20 0xFFFFFFFFFFFFFFFFFFFFFFFFFFFFFFFFFFFFFFFF AND PUSH20 0xFFFFFFFFFFFFFFFFFFFFFFFFFFFFFFFFFFFFFFFF AND DUP2 MSTORE PUSH1 0x20 ADD SWAP1 PUSH1 0x1 ADD SWAP1 DUP1 DUP4 GT PUSH2 0x581 JUMPI JUMPDEST POP POP POP POP POP DUP2 MSTORE PUSH1 0x20 ADD PUSH1 0x3 DUP3 ADD DUP1 SLOAD DUP1 PUSH1 0x20 MUL PUSH1 0x20 ADD PUSH1 0x40 MLOAD SWAP1 DUP2 ADD PUSH1 0x40 MSTORE DUP1 SWAP3 SWAP2 SWAP1 DUP2 DUP2 MSTORE PUSH1 0x20 ADD DUP3 DUP1 SLOAD DUP1 ISZERO PUSH2 0x623 JUMPI PUSH1 0x20 MUL DUP3 ADD SWAP2 SWAP1 PUSH1 0x0 MSTORE PUSH1 0x20 PUSH1 0x0 KECCAK256 SWAP1 JUMPDEST DUP2 SLOAD DUP2 MSTORE PUSH1 0x20 ADD SWAP1 PUSH1 0x1 ADD SWAP1 DUP1 DUP4 GT PUSH2 0x60F JUMPI JUMPDEST POP POP POP POP POP DUP2 MSTORE POP POP SWAP1 POP PUSH1 0x0 PUSH1 0x6 PUSH1 0x0 DUP7 DUP2 MSTORE PUSH1 0x20 ADD SWAP1 DUP2 MSTORE PUSH1 0x20 ADD PUSH1 0x0 KECCAK256 SWAP1 POP PUSH1 0x0 JUMPDEST DUP5 MLOAD DUP2 LT ISZERO PUSH2 0x7FE JUMPI PUSH1 0x0 DUP6 DUP3 DUP2 MLOAD DUP2 LT PUSH2 0x666 JUMPI PUSH2 0x665 PUSH2 0x3753 JUMP JUMPDEST JUMPDEST PUSH1 0x20 MUL PUSH1 0x20 ADD ADD MLOAD SWAP1 POP PUSH1 0x0 DUP6 DUP4 DUP2 MLOAD DUP2 LT PUSH2 0x685 JUMPI PUSH2 0x684 PUSH2 0x3753 JUMP JUMPDEST JUMPDEST PUSH1 0x20 MUL PUSH1 0x20 ADD ADD MLOAD SWAP1 POP PUSH1 0x0 PUSH20 0xFFFFFFFFFFFFFFFFFFFFFFFFFFFFFFFFFFFFFFFF AND DUP3 PUSH20 0xFFFFFFFFFFFFFFFFFFFFFFFFFFFFFFFFFFFFFFFF AND SUB PUSH2 0x70B JUMPI DUP1 CALLVALUE LT ISZERO PUSH2 0x706 JUMPI PUSH1 0x40 MLOAD PUSH32 0x8C379A000000000000000000000000000000000000000000000000000000000 DUP2 MSTORE PUSH1 0x4 ADD PUSH2 0x6FD SWAP1 PUSH2 0x37CE JUMP JUMPDEST PUSH1 0x40 MLOAD DUP1 SWAP2 SUB SWAP1 REVERT JUMPDEST PUSH2 0x739 JUMP JUMPDEST PUSH2 0x738 CALLER ADDRESS DUP4 DUP6 PUSH20 0xFFFFFFFFFFFFFFFFFFFFFFFFFFFFFFFFFFFFFFFF AND PUSH2 0x26CB SWAP1 SWAP4 SWAP3 SWAP2 SWAP1 PUSH4 0xFFFFFFFF AND JUMP JUMPDEST JUMPDEST DUP1 PUSH1 0x5 PUSH1 0x0 DUP11 DUP2 MSTORE PUSH1 0x20 ADD SWAP1 DUP2 MSTORE PUSH1 0x20 ADD PUSH1 0x0 KECCAK256 PUSH1 0x0 DUP5 PUSH20 0xFFFFFFFFFFFFFFFFFFFFFFFFFFFFFFFFFFFFFFFF AND PUSH20 0xFFFFFFFFFFFFFFFFFFFFFFFFFFFFFFFFFFFFFFFF AND DUP2 MSTORE PUSH1 0x20 ADD SWAP1 DUP2 MSTORE PUSH1 0x20 ADD PUSH1 0x0 KECCAK256 SLOAD PUSH2 0x795 SWAP2 SWAP1 PUSH2 0x381D JUMP JUMPDEST PUSH1 0x5 PUSH1 0x0 DUP11 DUP2 MSTORE PUSH1 0x20 ADD SWAP1 DUP2 MSTORE PUSH1 0x20 ADD PUSH1 0x0 KECCAK256 PUSH1 0x0 DUP5 PUSH20 0xFFFFFFFFFFFFFFFFFFFFFFFFFFFFFFFFFFFFFFFF AND PUSH20 0xFFFFFFFFFFFFFFFFFFFFFFFFFFFFFFFFFFFFFFFF AND DUP2 MSTORE PUSH1 0x20 ADD SWAP1 DUP2 MSTORE PUSH1 0x20 ADD PUSH1 0x0 KECCAK256 DUP2 SWAP1 SSTORE POP POP POP DUP1 DUP1 PUSH2 0x7F6 SWAP1 PUSH2 0x3851 JUMP JUMPDEST SWAP2 POP POP PUSH2 0x648 JUMP JUMPDEST POP PUSH1 0x0 DUP3 PUSH1 0x40 ADD MLOAD SWAP1 POP PUSH1 0x0 DUP4 PUSH1 0x60 ADD MLOAD SWAP1 POP PUSH1 0x0 DUP1 JUMPDEST DUP4 MLOAD DUP2 LT ISZERO PUSH2 0x8C2 JUMPI PUSH1 0x0 DUP5 DUP3 DUP2 MLOAD DUP2 LT PUSH2 0x833 JUMPI PUSH2 0x832 PUSH2 0x3753 JUMP JUMPDEST JUMPDEST PUSH1 0x20 MUL PUSH1 0x20 ADD ADD MLOAD SWAP1 POP PUSH1 0x0 DUP5 DUP4 DUP2 MLOAD DUP2 LT PUSH2 0x852 JUMPI PUSH2 0x851 PUSH2 0x3753 JUMP JUMPDEST JUMPDEST PUSH1 0x20 MUL PUSH1 0x20 ADD ADD MLOAD SWAP1 POP DUP1 DUP8 PUSH1 0x0 DUP5 PUSH20 0xFFFFFFFFFFFFFFFFFFFFFFFFFFFFFFFFFFFFFFFF AND PUSH20 0xFFFFFFFFFFFFFFFFFFFFFFFFFFFFFFFFFFFFFFFF AND DUP2 MSTORE PUSH1 0x20 ADD SWAP1 DUP2 MSTORE PUSH1 0x20 ADD PUSH1 0x0 KECCAK256 SLOAD LT ISZERO PUSH2 0x8AD JUMPI PUSH1 0x1 SWAP4 POP POP POP PUSH2 0x8C2 JUMP JUMPDEST POP POP DUP1 DUP1 PUSH2 0x8BA SWAP1 PUSH2 0x3851 JUMP JUMPDEST SWAP2 POP POP PUSH2 0x815 JUMP JUMPDEST POP DUP1 PUSH2 0x8F7 JUMPI PUSH1 0x0 DUP1 PUSH1 0x0 DUP11 DUP2 MSTORE PUSH1 0x20 ADD SWAP1 DUP2 MSTORE PUSH1 0x20 ADD PUSH1 0x0 KECCAK256 PUSH1 0x6 ADD PUSH1 0x14 PUSH2 0x100 EXP DUP2 SLOAD DUP2 PUSH1 0xFF MUL NOT AND SWAP1 DUP4 ISZERO ISZERO MUL OR SWAP1 SSTORE POP JUMPDEST POP POP POP POP POP POP POP POP JUMP JUMPDEST PUSH1 0x0 DUP1 PUSH1 0x0 DUP1 PUSH1 0x0 PUSH1 0x60 DUP1 PUSH1 0x60 DUP1 PUSH1 0x0 DUP1 PUSH1 0x0 DUP13 DUP2 MSTORE PUSH1 0x20 ADD SWAP1 DUP2 MSTORE PUSH1 0x20 ADD PUSH1 0x0 KECCAK256 PUSH1 0x40 MLOAD DUP1 PUSH2 0x140 ADD PUSH1 0x40 MSTORE SWAP1 DUP2 PUSH1 0x0 DUP3 ADD SLOAD DUP2 MSTORE PUSH1 0x20 ADD PUSH1 0x1 DUP3 ADD PUSH1 0x0 SWAP1 SLOAD SWAP1 PUSH2 0x100 EXP SWAP1 DIV PUSH20 0xFFFFFFFFFFFFFFFFFFFFFFFFFFFFFFFFFFFFFFFF AND PUSH20 0xFFFFFFFFFFFFFFFFFFFFFFFFFFFFFFFFFFFFFFFF AND PUSH20 0xFFFFFFFFFFFFFFFFFFFFFFFFFFFFFFFFFFFFFFFF AND DUP2 MSTORE PUSH1 0x20 ADD PUSH1 0x2 DUP3 ADD SLOAD DUP2 MSTORE PUSH1 0x20 ADD PUSH1 0x3 DUP3 ADD SLOAD DUP2 MSTORE PUSH1 0x20 ADD PUSH1 0x4 DUP3 ADD SLOAD DUP2 MSTORE PUSH1 0x20 ADD PUSH1 0x5 DUP3 ADD SLOAD DUP2 MSTORE PUSH1 0x20 ADD PUSH1 0x6 DUP3 ADD PUSH1 0x0 SWAP1 SLOAD SWAP1 PUSH2 0x100 EXP SWAP1 DIV PUSH20 0xFFFFFFFFFFFFFFFFFFFFFFFFFFFFFFFFFFFFFFFF AND PUSH20 0xFFFFFFFFFFFFFFFFFFFFFFFFFFFFFFFFFFFFFFFF AND PUSH20 0xFFFFFFFFFFFFFFFFFFFFFFFFFFFFFFFFFFFFFFFF AND DUP2 MSTORE PUSH1 0x20 ADD PUSH1 0x6 DUP3 ADD PUSH1 0x14 SWAP1 SLOAD SWAP1 PUSH2 0x100 EXP SWAP1 DIV PUSH1 0xFF AND ISZERO ISZERO ISZERO ISZERO DUP2 MSTORE PUSH1 0x20 ADD PUSH1 0x6 DUP3 ADD PUSH1 0x15 SWAP1 SLOAD SWAP1 PUSH2 0x100 EXP SWAP1 DIV PUSH1 0xFF AND ISZERO ISZERO ISZERO ISZERO DUP2 MSTORE PUSH1 0x20 ADD PUSH1 0x6 DUP3 ADD PUSH1 0x16 SWAP1 SLOAD SWAP1 PUSH2 0x100 EXP SWAP1 DIV PUSH1 0xFF AND ISZERO ISZERO ISZERO ISZERO DUP2 MSTORE POP POP SWAP1 POP DUP1 PUSH1 0x20 ADD MLOAD SWAP10 POP DUP1 PUSH1 0x40 ADD MLOAD SWAP9 POP DUP1 PUSH1 0x60 ADD MLOAD SWAP8 POP DUP1 PUSH1 0x80 ADD MLOAD SWAP7 POP DUP1 PUSH2 0x100 ADD MLOAD SWAP6 POP PUSH1 0x0 PUSH1 0x1 PUSH1 0x0 DUP14 DUP2 MSTORE PUSH1 0x20 ADD SWAP1 DUP2 MSTORE PUSH1 0x20 ADD PUSH1 0x0 KECCAK256 PUSH1 0x40 MLOAD DUP1 PUSH1 0x80 ADD PUSH1 0x40 MSTORE SWAP1 DUP2 PUSH1 0x0 DUP3 ADD DUP1 SLOAD DUP1 PUSH1 0x20 MUL PUSH1 0x20 ADD PUSH1 0x40 MLOAD SWAP1 DUP2 ADD PUSH1 0x40 MSTORE DUP1 SWAP3 SWAP2 SWAP1 DUP2 DUP2 MSTORE PUSH1 0x20 ADD DUP3 DUP1 SLOAD DUP1 ISZERO PUSH2 0xAF3 JUMPI PUSH1 0x20 MUL DUP3 ADD SWAP2 SWAP1 PUSH1 0x0 MSTORE PUSH1 0x20 PUSH1 0x0 KECCAK256 SWAP1 JUMPDEST DUP2 SLOAD DUP2 MSTORE PUSH1 0x20 ADD SWAP1 PUSH1 0x1 ADD SWAP1 DUP1 DUP4 GT PUSH2 0xADF JUMPI JUMPDEST POP POP POP POP POP DUP2 MSTORE PUSH1 0x20 ADD PUSH1 0x1 DUP3 ADD DUP1 SLOAD DUP1 PUSH1 0x20 MUL PUSH1 0x20 ADD PUSH1 0x40 MLOAD SWAP1 DUP2 ADD PUSH1 0x40 MSTORE DUP1 SWAP3 SWAP2 SWAP1 DUP2 DUP2 MSTORE PUSH1 0x20 ADD DUP3 DUP1 SLOAD DUP1 ISZERO PUSH2 0xB4B JUMPI PUSH1 0x20 MUL DUP3 ADD SWAP2 SWAP1 PUSH1 0x0 MSTORE PUSH1 0x20 PUSH1 0x0 KECCAK256 SWAP1 JUMPDEST DUP2 SLOAD DUP2 MSTORE PUSH1 0x20 ADD SWAP1 PUSH1 0x1 ADD SWAP1 DUP1 DUP4 GT PUSH2 0xB37 JUMPI JUMPDEST POP POP POP POP POP DUP2 MSTORE PUSH1 0x20 ADD PUSH1 0x2 DUP3 ADD DUP1 SLOAD DUP1 PUSH1 0x20 MUL PUSH1 0x20 ADD PUSH1 0x40 MLOAD SWAP1 DUP2 ADD PUSH1 0x40 MSTORE DUP1 SWAP3 SWAP2 SWAP1 DUP2 DUP2 MSTORE PUSH1 0x20 ADD DUP3 DUP1 SLOAD DUP1 ISZERO PUSH2 0xBD9 JUMPI PUSH1 0x20 MUL DUP3 ADD SWAP2 SWAP1 PUSH1 0x0 MSTORE PUSH1 0x20 PUSH1 0x0 KECCAK256 SWAP1 JUMPDEST DUP2 PUSH1 0x0 SWAP1 SLOAD SWAP1 PUSH2 0x100 EXP SWAP1 DIV PUSH20 0xFFFFFFFFFFFFFFFFFFFFFFFFFFFFFFFFFFFFFFFF AND PUSH20 0xFFFFFFFFFFFFFFFFFFFFFFFFFFFFFFFFFFFFFFFF AND DUP2 MSTORE PUSH1 0x20 ADD SWAP1 PUSH1 0x1 ADD SWAP1 DUP1 DUP4 GT PUSH2 0xB8F JUMPI JUMPDEST POP POP POP POP POP DUP2 MSTORE PUSH1 0x20 ADD PUSH1 0x3 DUP3 ADD DUP1 SLOAD DUP1 PUSH1 0x20 MUL PUSH1 0x20 ADD PUSH1 0x40 MLOAD SWAP1 DUP2 ADD PUSH1 0x40 MSTORE DUP1 SWAP3 SWAP2 SWAP1 DUP2 DUP2 MSTORE PUSH1 0x20 ADD DUP3 DUP1 SLOAD DUP1 ISZERO PUSH2 0xC31 JUMPI PUSH1 0x20 MUL DUP3 ADD SWAP2 SWAP1 PUSH1 0x0 MSTORE PUSH1 0x20 PUSH1 0x0 KECCAK256 SWAP1 JUMPDEST DUP2 SLOAD DUP2 MSTORE PUSH1 0x20 ADD SWAP1 PUSH1 0x1 ADD SWAP1 DUP1 DUP4 GT PUSH2 0xC1D JUMPI JUMPDEST POP POP POP POP POP DUP2 MSTORE POP POP SWAP1 POP DUP1 PUSH1 0x0 ADD MLOAD SWAP6 POP DUP1 PUSH1 0x20 ADD MLOAD SWAP5 POP DUP1 PUSH1 0x40 ADD MLOAD SWAP4 POP DUP1 PUSH1 0x60 ADD MLOAD SWAP3 POP POP POP SWAP2 SWAP4 SWAP6 SWAP8 SWAP10 SWAP1 SWAP3 SWAP5 SWAP7 SWAP9 POP JUMP JUMPDEST PUSH1 0x3 DUP2 DUP2 SLOAD DUP2 LT PUSH2 0xC77 JUMPI PUSH1 0x0 DUP1 REVERT JUMPDEST SWAP1 PUSH1 0x0 MSTORE PUSH1 0x20 PUSH1 0x0 KECCAK256 ADD PUSH1 0x0 SWAP2 POP SWAP1 POP SLOAD DUP2 JUMP JUMPDEST PUSH1 0x7 PUSH1 0x0 DUP4 DUP2 MSTORE PUSH1 0x20 ADD SWAP1 DUP2 MSTORE PUSH1 0x20 ADD PUSH1 0x0 KECCAK256 PUSH1 0x7 ADD PUSH1 0x1 SWAP1 SLOAD SWAP1 PUSH2 0x100 EXP SWAP1 DIV PUSH1 0xFF AND PUSH2 0xCEE JUMPI PUSH1 0x40 MLOAD PUSH32 0x8C379A000000000000000000000000000000000000000000000000000000000 DUP2 MSTORE PUSH1 0x4 ADD PUSH2 0xCE5 SWAP1 PUSH2 0x38E5 JUMP JUMPDEST PUSH1 0x40 MLOAD DUP1 SWAP2 SUB SWAP1 REVERT JUMPDEST PUSH1 0x0 PUSH1 0x7 PUSH1 0x0 DUP5 DUP2 MSTORE PUSH1 0x20 ADD SWAP1 DUP2 MSTORE PUSH1 0x20 ADD PUSH1 0x0 KECCAK256 SWAP1 POP PUSH1 0x1 DUP2 PUSH1 0x7 ADD PUSH1 0x0 PUSH2 0x100 EXP DUP2 SLOAD DUP2 PUSH1 0xFF MUL NOT AND SWAP1 DUP4 ISZERO ISZERO MUL OR SWAP1 SSTORE POP DUP2 PUSH1 0x0 DUP2 MLOAD DUP2 LT PUSH2 0xD36 JUMPI PUSH2 0xD35 PUSH2 0x3753 JUMP JUMPDEST JUMPDEST PUSH1 0x20 MUL PUSH1 0x20 ADD ADD MLOAD DUP2 PUSH1 0x2 ADD DUP2 SWAP1 SSTORE POP TIMESTAMP DUP2 PUSH1 0x4 ADD DUP2 SWAP1 SSTORE POP PUSH1 0xEC DUP2 PUSH1 0x0 ADD PUSH1 0x0 SWAP1 SLOAD SWAP1 PUSH2 0x100 EXP SWAP1 DIV PUSH20 0xFFFFFFFFFFFFFFFFFFFFFFFFFFFFFFFFFFFFFFFF AND DUP3 PUSH1 0x4 ADD SLOAD DUP4 PUSH1 0x2 ADD SLOAD PUSH1 0x40 MLOAD PUSH1 0x20 ADD PUSH2 0xD92 SWAP4 SWAP3 SWAP2 SWAP1 PUSH2 0x396E JUMP JUMPDEST PUSH1 0x40 MLOAD PUSH1 0x20 DUP2 DUP4 SUB SUB DUP2 MSTORE SWAP1 PUSH1 0x40 MSTORE DUP1 MLOAD SWAP1 PUSH1 0x20 ADD KECCAK256 SWAP1 SHR PUSH1 0x0 SHR DUP2 PUSH1 0x3 ADD DUP2 SWAP1 SSTORE POP PUSH1 0x0 PUSH1 0x1 PUSH1 0x0 DUP4 PUSH1 0x1 ADD SLOAD DUP2 MSTORE PUSH1 0x20 ADD SWAP1 DUP2 MSTORE PUSH1 0x20 ADD PUSH1 0x0 KECCAK256 PUSH1 0x40 MLOAD DUP1 PUSH1 0x80 ADD PUSH1 0x40 MSTORE SWAP1 DUP2 PUSH1 0x0 DUP3 ADD DUP1 SLOAD DUP1 PUSH1 0x20 MUL PUSH1 0x20 ADD PUSH1 0x40 MLOAD SWAP1 DUP2 ADD PUSH1 0x40 MSTORE DUP1 SWAP3 SWAP2 SWAP1 DUP2 DUP2 MSTORE PUSH1 0x20 ADD DUP3 DUP1 SLOAD DUP1 ISZERO PUSH2 0xE28 JUMPI PUSH1 0x20 MUL DUP3 ADD SWAP2 SWAP1 PUSH1 0x0 MSTORE PUSH1 0x20 PUSH1 0x0 KECCAK256 SWAP1 JUMPDEST DUP2 SLOAD DUP2 MSTORE PUSH1 0x20 ADD SWAP1 PUSH1 0x1 ADD SWAP1 DUP1 DUP4 GT PUSH2 0xE14 JUMPI JUMPDEST POP POP POP POP POP DUP2 MSTORE PUSH1 0x20 ADD PUSH1 0x1 DUP3 ADD DUP1 SLOAD DUP1 PUSH1 0x20 MUL PUSH1 0x20 ADD PUSH1 0x40 MLOAD SWAP1 DUP2 ADD PUSH1 0x40 MSTORE DUP1 SWAP3 SWAP2 SWAP1 DUP2 DUP2 MSTORE PUSH1 0x20 ADD DUP3 DUP1 SLOAD DUP1 ISZERO PUSH2 0xE80 JUMPI PUSH1 0x20 MUL DUP3 ADD SWAP2 SWAP1 PUSH1 0x0 MSTORE PUSH1 0x20 PUSH1 0x0 KECCAK256 SWAP1 JUMPDEST DUP2 SLOAD DUP2 MSTORE PUSH1 0x20 ADD SWAP1 PUSH1 0x1 ADD SWAP1 DUP1 DUP4 GT PUSH2 0xE6C JUMPI JUMPDEST POP POP POP POP POP DUP2 MSTORE PUSH1 0x20 ADD PUSH1 0x2 DUP3 ADD DUP1 SLOAD DUP1 PUSH1 0x20 MUL PUSH1 0x20 ADD PUSH1 0x40 MLOAD SWAP1 DUP2 ADD PUSH1 0x40 MSTORE DUP1 SWAP3 SWAP2 SWAP1 DUP2 DUP2 MSTORE PUSH1 0x20 ADD DUP3 DUP1 SLOAD DUP1 ISZERO PUSH2 0xF0E JUMPI PUSH1 0x20 MUL DUP3 ADD SWAP2 SWAP1 PUSH1 0x0 MSTORE PUSH1 0x20 PUSH1 0x0 KECCAK256 SWAP1 JUMPDEST DUP2 PUSH1 0x0 SWAP1 SLOAD SWAP1 PUSH2 0x100 EXP SWAP1 DIV PUSH20 0xFFFFFFFFFFFFFFFFFFFFFFFFFFFFFFFFFFFFFFFF AND PUSH20 0xFFFFFFFFFFFFFFFFFFFFFFFFFFFFFFFFFFFFFFFF AND DUP2 MSTORE PUSH1 0x20 ADD SWAP1 PUSH1 0x1 ADD SWAP1 DUP1 DUP4 GT PUSH2 0xEC4 JUMPI JUMPDEST POP POP POP POP POP DUP2 MSTORE PUSH1 0x20 ADD PUSH1 0x3 DUP3 ADD DUP1 SLOAD DUP1 PUSH1 0x20 MUL PUSH1 0x20 ADD PUSH1 0x40 MLOAD SWAP1 DUP2 ADD PUSH1 0x40 MSTORE DUP1 SWAP3 SWAP2 SWAP1 DUP2 DUP2 MSTORE PUSH1 0x20 ADD DUP3 DUP1 SLOAD DUP1 ISZERO PUSH2 0xF66 JUMPI PUSH1 0x20 MUL DUP3 ADD SWAP2 SWAP1 PUSH1 0x0 MSTORE PUSH1 0x20 PUSH1 0x0 KECCAK256 SWAP1 JUMPDEST DUP2 SLOAD DUP2 MSTORE PUSH1 0x20 ADD SWAP1 PUSH1 0x1 ADD SWAP1 DUP1 DUP4 GT PUSH2 0xF52 JUMPI JUMPDEST POP POP POP POP POP DUP2 MSTORE POP POP SWAP1 POP PUSH1 0x0 JUMPDEST DUP2 PUSH1 0x20 ADD MLOAD MLOAD DUP2 LT ISZERO PUSH2 0x1207 JUMPI DUP2 PUSH1 0x20 ADD MLOAD DUP2 DUP2 MLOAD DUP2 LT PUSH2 0xF98 JUMPI PUSH2 0xF97 PUSH2 0x3753 JUMP JUMPDEST JUMPDEST PUSH1 0x20 MUL PUSH1 0x20 ADD ADD MLOAD DUP4 PUSH1 0x3 ADD SLOAD LT ISZERO PUSH2 0x11F4 JUMPI PUSH1 0x0 DUP3 PUSH1 0x40 ADD MLOAD DUP3 DUP2 MLOAD DUP2 LT PUSH2 0xFC4 JUMPI PUSH2 0xFC3 PUSH2 0x3753 JUMP JUMPDEST JUMPDEST PUSH1 0x20 MUL PUSH1 0x20 ADD ADD MLOAD SWAP1 POP PUSH1 0x0 DUP4 PUSH1 0x60 ADD MLOAD DUP4 DUP2 MLOAD DUP2 LT PUSH2 0xFE7 JUMPI PUSH2 0xFE6 PUSH2 0x3753 JUMP JUMPDEST JUMPDEST PUSH1 0x20 MUL PUSH1 0x20 ADD ADD MLOAD SWAP1 POP PUSH1 0x0 PUSH20 0xFFFFFFFFFFFFFFFFFFFFFFFFFFFFFFFFFFFFFFFF AND DUP3 PUSH20 0xFFFFFFFFFFFFFFFFFFFFFFFFFFFFFFFFFFFFFFFF AND SUB PUSH2 0x1053 JUMPI PUSH2 0x104E DUP2 CALLER PUSH20 0xFFFFFFFFFFFFFFFFFFFFFFFFFFFFFFFFFFFFFFFF AND PUSH2 0x2754 SWAP1 SWAP2 SWAP1 PUSH4 0xFFFFFFFF AND JUMP JUMPDEST PUSH2 0x1081 JUMP JUMPDEST PUSH2 0x1080 ADDRESS CALLER DUP4 DUP6 PUSH20 0xFFFFFFFFFFFFFFFFFFFFFFFFFFFFFFFFFFFFFFFF AND PUSH2 0x26CB SWAP1 SWAP4 SWAP3 SWAP2 SWAP1 PUSH4 0xFFFFFFFF AND JUMP JUMPDEST JUMPDEST DUP2 DUP6 PUSH1 0x5 ADD PUSH1 0x0 PUSH2 0x100 EXP DUP2 SLOAD DUP2 PUSH20 0xFFFFFFFFFFFFFFFFFFFFFFFFFFFFFFFFFFFFFFFF MUL NOT AND SWAP1 DUP4 PUSH20 0xFFFFFFFFFFFFFFFFFFFFFFFFFFFFFFFFFFFFFFFF AND MUL OR SWAP1 SSTORE POP DUP1 DUP6 PUSH1 0x6 ADD DUP2 SWAP1 SSTORE POP PUSH1 0x0 DUP2 PUSH1 0x5 PUSH1 0x0 DUP9 PUSH1 0x1 ADD SLOAD DUP2 MSTORE PUSH1 0x20 ADD SWAP1 DUP2 MSTORE PUSH1 0x20 ADD PUSH1 0x0 KECCAK256 PUSH1 0x0 DUP6 PUSH20 0xFFFFFFFFFFFFFFFFFFFFFFFFFFFFFFFFFFFFFFFF AND PUSH20 0xFFFFFFFFFFFFFFFFFFFFFFFFFFFFFFFFFFFFFFFF AND DUP2 MSTORE PUSH1 0x20 ADD SWAP1 DUP2 MSTORE PUSH1 0x20 ADD PUSH1 0x0 KECCAK256 SLOAD PUSH2 0x112F SWAP2 SWAP1 PUSH2 0x39AB JUMP JUMPDEST SWAP1 POP DUP1 PUSH1 0x5 PUSH1 0x0 DUP9 PUSH1 0x1 ADD SLOAD DUP2 MSTORE PUSH1 0x20 ADD SWAP1 DUP2 MSTORE PUSH1 0x20 ADD PUSH1 0x0 KECCAK256 PUSH1 0x0 DUP6 PUSH20 0xFFFFFFFFFFFFFFFFFFFFFFFFFFFFFFFFFFFFFFFF AND PUSH20 0xFFFFFFFFFFFFFFFFFFFFFFFFFFFFFFFFFFFFFFFF AND DUP2 MSTORE PUSH1 0x20 ADD SWAP1 DUP2 MSTORE PUSH1 0x20 ADD PUSH1 0x0 KECCAK256 DUP2 SWAP1 SSTORE POP DUP5 PUSH1 0x60 ADD MLOAD DUP5 DUP2 MLOAD DUP2 LT PUSH2 0x11A1 JUMPI PUSH2 0x11A0 PUSH2 0x3753 JUMP JUMPDEST JUMPDEST PUSH1 0x20 MUL PUSH1 0x20 ADD ADD MLOAD DUP2 LT ISZERO PUSH2 0x11E9 JUMPI PUSH1 0x0 DUP1 PUSH1 0x0 DUP9 PUSH1 0x1 ADD SLOAD DUP2 MSTORE PUSH1 0x20 ADD SWAP1 DUP2 MSTORE PUSH1 0x20 ADD PUSH1 0x0 KECCAK256 SWAP1 POP PUSH1 0x1 DUP2 PUSH1 0x6 ADD PUSH1 0x14 PUSH2 0x100 EXP DUP2 SLOAD DUP2 PUSH1 0xFF MUL NOT AND SWAP1 DUP4 ISZERO ISZERO MUL OR SWAP1 SSTORE POP POP JUMPDEST POP POP POP POP POP POP PUSH2 0x120B JUMP JUMPDEST DUP1 DUP1 PUSH2 0x11FF SWAP1 PUSH2 0x3851 JUMP JUMPDEST SWAP2 POP POP PUSH2 0xF74 JUMP JUMPDEST POP POP POP JUMPDEST POP POP JUMP JUMPDEST PUSH1 0x0 DUP1 PUSH1 0x0 DUP4 DUP2 MSTORE PUSH1 0x20 ADD SWAP1 DUP2 MSTORE PUSH1 0x20 ADD PUSH1 0x0 KECCAK256 SWAP1 POP CALLER PUSH20 0xFFFFFFFFFFFFFFFFFFFFFFFFFFFFFFFFFFFFFFFF AND DUP2 PUSH1 0x6 ADD PUSH1 0x0 SWAP1 SLOAD SWAP1 PUSH2 0x100 EXP SWAP1 DIV PUSH20 0xFFFFFFFFFFFFFFFFFFFFFFFFFFFFFFFFFFFFFFFF AND PUSH20 0xFFFFFFFFFFFFFFFFFFFFFFFFFFFFFFFFFFFFFFFF AND EQ PUSH2 0x12B7 JUMPI PUSH1 0x40 MLOAD PUSH32 0x8C379A000000000000000000000000000000000000000000000000000000000 DUP2 MSTORE PUSH1 0x4 ADD PUSH2 0x12AE SWAP1 PUSH2 0x3A2B JUMP JUMPDEST PUSH1 0x40 MLOAD DUP1 SWAP2 SUB SWAP1 REVERT JUMPDEST PUSH1 0x1 DUP2 PUSH1 0x6 ADD PUSH1 0x16 PUSH2 0x100 EXP DUP2 SLOAD DUP2 PUSH1 0xFF MUL NOT AND SWAP1 DUP4 ISZERO ISZERO MUL OR SWAP1 SSTORE POP PUSH1 0x0 PUSH1 0x1 PUSH1 0x0 DUP5 DUP2 MSTORE PUSH1 0x20 ADD SWAP1 DUP2 MSTORE PUSH1 0x20 ADD PUSH1 0x0 KECCAK256 PUSH1 0x40 MLOAD DUP1 PUSH1 0x80 ADD PUSH1 0x40 MSTORE SWAP1 DUP2 PUSH1 0x0 DUP3 ADD DUP1 SLOAD DUP1 PUSH1 0x20 MUL PUSH1 0x20 ADD PUSH1 0x40 MLOAD SWAP1 DUP2 ADD PUSH1 0x40 MSTORE DUP1 SWAP3 SWAP2 SWAP1 DUP2 DUP2 MSTORE PUSH1 0x20 ADD DUP3 DUP1 SLOAD DUP1 ISZERO PUSH2 0x1343 JUMPI PUSH1 0x20 MUL DUP3 ADD SWAP2 SWAP1 PUSH1 0x0 MSTORE PUSH1 0x20 PUSH1 0x0 KECCAK256 SWAP1 JUMPDEST DUP2 SLOAD DUP2 MSTORE PUSH1 0x20 ADD SWAP1 PUSH1 0x1 ADD SWAP1 DUP1 DUP4 GT PUSH2 0x132F JUMPI JUMPDEST POP POP POP POP POP DUP2 MSTORE PUSH1 0x20 ADD PUSH1 0x1 DUP3 ADD DUP1 SLOAD DUP1 PUSH1 0x20 MUL PUSH1 0x20 ADD PUSH1 0x40 MLOAD SWAP1 DUP2 ADD PUSH1 0x40 MSTORE DUP1 SWAP3 SWAP2 SWAP1 DUP2 DUP2 MSTORE PUSH1 0x20 ADD DUP3 DUP1 SLOAD DUP1 ISZERO PUSH2 0x139B JUMPI PUSH1 0x20 MUL DUP3 ADD SWAP2 SWAP1 PUSH1 0x0 MSTORE PUSH1 0x20 PUSH1 0x0 KECCAK256 SWAP1 JUMPDEST DUP2 SLOAD DUP2 MSTORE PUSH1 0x20 ADD SWAP1 PUSH1 0x1 ADD SWAP1 DUP1 DUP4 GT PUSH2 0x1387 JUMPI JUMPDEST POP POP POP POP POP DUP2 MSTORE PUSH1 0x20 ADD PUSH1 0x2 DUP3 ADD DUP1 SLOAD DUP1 PUSH1 0x20 MUL PUSH1 0x20 ADD PUSH1 0x40 MLOAD SWAP1 DUP2 ADD PUSH1 0x40 MSTORE DUP1 SWAP3 SWAP2 SWAP1 DUP2 DUP2 MSTORE PUSH1 0x20 ADD DUP3 DUP1 SLOAD DUP1 ISZERO PUSH2 0x1429 JUMPI PUSH1 0x20 MUL DUP3 ADD SWAP2 SWAP1 PUSH1 0x0 MSTORE PUSH1 0x20 PUSH1 0x0 KECCAK256 SWAP1 JUMPDEST DUP2 PUSH1 0x0 SWAP1 SLOAD SWAP1 PUSH2 0x100 EXP SWAP1 DIV PUSH20 0xFFFFFFFFFFFFFFFFFFFFFFFFFFFFFFFFFFFFFFFF AND PUSH20 0xFFFFFFFFFFFFFFFFFFFFFFFFFFFFFFFFFFFFFFFF AND DUP2 MSTORE PUSH1 0x20 ADD SWAP1 PUSH1 0x1 ADD SWAP1 DUP1 DUP4 GT PUSH2 0x13DF JUMPI JUMPDEST POP POP POP POP POP DUP2 MSTORE PUSH1 0x20 ADD PUSH1 0x3 DUP3 ADD DUP1 SLOAD DUP1 PUSH1 0x20 MUL PUSH1 0x20 ADD PUSH1 0x40 MLOAD SWAP1 DUP2 ADD PUSH1 0x40 MSTORE DUP1 SWAP3 SWAP2 SWAP1 DUP2 DUP2 MSTORE PUSH1 0x20 ADD DUP3 DUP1 SLOAD DUP1 ISZERO PUSH2 0x1481 JUMPI PUSH1 0x20 MUL DUP3 ADD SWAP2 SWAP1 PUSH1 0x0 MSTORE PUSH1 0x20 PUSH1 0x0 KECCAK256 SWAP1 JUMPDEST DUP2 SLOAD DUP2 MSTORE PUSH1 0x20 ADD SWAP1 PUSH1 0x1 ADD SWAP1 DUP1 DUP4 GT PUSH2 0x146D JUMPI JUMPDEST POP POP POP POP POP DUP2 MSTORE POP POP SWAP1 POP PUSH1 0x0 DUP2 PUSH1 0x40 ADD MLOAD SWAP1 POP PUSH1 0x0 PUSH1 0x5 PUSH1 0x0 DUP7 DUP2 MSTORE PUSH1 0x20 ADD SWAP1 DUP2 MSTORE PUSH1 0x20 ADD PUSH1 0x0 KECCAK256 SWAP1 POP PUSH1 0x0 JUMPDEST DUP3 MLOAD DUP2 LT ISZERO PUSH2 0x1653 JUMPI PUSH1 0x0 DUP3 PUSH1 0x0 DUP6 DUP5 DUP2 MLOAD DUP2 LT PUSH2 0x14D0 JUMPI PUSH2 0x14CF PUSH2 0x3753 JUMP JUMPDEST JUMPDEST PUSH1 0x20 MUL PUSH1 0x20 ADD ADD MLOAD PUSH20 0xFFFFFFFFFFFFFFFFFFFFFFFFFFFFFFFFFFFFFFFF AND PUSH20 0xFFFFFFFFFFFFFFFFFFFFFFFFFFFFFFFFFFFFFFFF AND DUP2 MSTORE PUSH1 0x20 ADD SWAP1 DUP2 MSTORE PUSH1 0x20 ADD PUSH1 0x0 KECCAK256 SLOAD SWAP1 POP PUSH1 0x0 DUP2 GT ISZERO PUSH2 0x163F JUMPI PUSH1 0x0 DUP4 PUSH1 0x0 DUP7 DUP6 DUP2 MLOAD DUP2 LT PUSH2 0x1536 JUMPI PUSH2 0x1535 PUSH2 0x3753 JUMP JUMPDEST JUMPDEST PUSH1 0x20 MUL PUSH1 0x20 ADD ADD MLOAD PUSH20 0xFFFFFFFFFFFFFFFFFFFFFFFFFFFFFFFFFFFFFFFF AND PUSH20 0xFFFFFFFFFFFFFFFFFFFFFFFFFFFFFFFFFFFFFFFF AND DUP2 MSTORE PUSH1 0x20 ADD SWAP1 DUP2 MSTORE PUSH1 0x20 ADD PUSH1 0x0 KECCAK256 DUP2 SWAP1 SSTORE POP PUSH1 0x0 PUSH20 0xFFFFFFFFFFFFFFFFFFFFFFFFFFFFFFFFFFFFFFFF AND DUP5 DUP4 DUP2 MLOAD DUP2 LT PUSH2 0x15A7 JUMPI PUSH2 0x15A6 PUSH2 0x3753 JUMP JUMPDEST JUMPDEST PUSH1 0x20 MUL PUSH1 0x20 ADD ADD MLOAD PUSH20 0xFFFFFFFFFFFFFFFFFFFFFFFFFFFFFFFFFFFFFFFF AND SUB PUSH2 0x15F8 JUMPI PUSH2 0x15F3 DUP2 CALLER PUSH20 0xFFFFFFFFFFFFFFFFFFFFFFFFFFFFFFFFFFFFFFFF AND PUSH2 0x2754 SWAP1 SWAP2 SWAP1 PUSH4 0xFFFFFFFF AND JUMP JUMPDEST PUSH2 0x163E JUMP JUMPDEST PUSH2 0x163D CALLER DUP3 DUP7 DUP6 DUP2 MLOAD DUP2 LT PUSH2 0x1610 JUMPI PUSH2 0x160F PUSH2 0x3753 JUMP JUMPDEST JUMPDEST PUSH1 0x20 MUL PUSH1 0x20 ADD ADD MLOAD PUSH20 0xFFFFFFFFFFFFFFFFFFFFFFFFFFFFFFFFFFFFFFFF AND PUSH2 0x2848 SWAP1 SWAP3 SWAP2 SWAP1 PUSH4 0xFFFFFFFF AND JUMP JUMPDEST JUMPDEST JUMPDEST POP DUP1 DUP1 PUSH2 0x164B SWAP1 PUSH2 0x3851 JUMP JUMPDEST SWAP2 POP POP PUSH2 0x14AF JUMP JUMPDEST POP POP POP POP POP POP JUMP JUMPDEST PUSH1 0x8 DUP2 DUP2 SLOAD DUP2 LT PUSH2 0x166B JUMPI PUSH1 0x0 DUP1 REVERT JUMPDEST SWAP1 PUSH1 0x0 MSTORE PUSH1 0x20 PUSH1 0x0 KECCAK256 ADD PUSH1 0x0 SWAP2 POP SWAP1 POP SLOAD DUP2 JUMP JUMPDEST PUSH1 0x0 DUP1 PUSH1 0x0 DUP4 DUP2 MSTORE PUSH1 0x20 ADD SWAP1 DUP2 MSTORE PUSH1 0x20 ADD PUSH1 0x0 KECCAK256 SWAP1 POP CALLER PUSH20 0xFFFFFFFFFFFFFFFFFFFFFFFFFFFFFFFFFFFFFFFF AND DUP2 PUSH1 0x6 ADD PUSH1 0x0 SWAP1 SLOAD SWAP1 PUSH2 0x100 EXP SWAP1 DIV PUSH20 0xFFFFFFFFFFFFFFFFFFFFFFFFFFFFFFFFFFFFFFFF AND PUSH20 0xFFFFFFFFFFFFFFFFFFFFFFFFFFFFFFFFFFFFFFFF AND EQ PUSH2 0x1727 JUMPI PUSH1 0x40 MLOAD PUSH32 0x8C379A000000000000000000000000000000000000000000000000000000000 DUP2 MSTORE PUSH1 0x4 ADD PUSH2 0x171E SWAP1 PUSH2 0x3A2B JUMP JUMPDEST PUSH1 0x40 MLOAD DUP1 SWAP2 SUB SWAP1 REVERT JUMPDEST PUSH1 0x0 DUP2 PUSH1 0x5 ADD SLOAD SWAP1 POP PUSH1 0x0 DUP2 GT ISZERO PUSH2 0x181A JUMPI PUSH1 0x0 DUP3 PUSH1 0x5 ADD DUP2 SWAP1 SSTORE POP PUSH1 0x0 PUSH20 0xFFFFFFFFFFFFFFFFFFFFFFFFFFFFFFFFFFFFFFFF AND DUP3 PUSH1 0x1 ADD PUSH1 0x0 SWAP1 SLOAD SWAP1 PUSH2 0x100 EXP SWAP1 DIV PUSH20 0xFFFFFFFFFFFFFFFFFFFFFFFFFFFFFFFFFFFFFFFF AND PUSH20 0xFFFFFFFFFFFFFFFFFFFFFFFFFFFFFFFFFFFFFFFF AND SUB PUSH2 0x17C9 JUMPI PUSH2 0x17C4 DUP2 CALLER PUSH20 0xFFFFFFFFFFFFFFFFFFFFFFFFFFFFFFFFFFFFFFFF AND PUSH2 0x2754 SWAP1 SWAP2 SWAP1 PUSH4 0xFFFFFFFF AND JUMP JUMPDEST PUSH2 0x1819 JUMP JUMPDEST PUSH2 0x1818 CALLER DUP3 DUP5 PUSH1 0x1 ADD PUSH1 0x0 SWAP1 SLOAD SWAP1 PUSH2 0x100 EXP SWAP1 DIV PUSH20 0xFFFFFFFFFFFFFFFFFFFFFFFFFFFFFFFFFFFFFFFF AND PUSH20 0xFFFFFFFFFFFFFFFFFFFFFFFFFFFFFFFFFFFFFFFF AND PUSH2 0x2848 SWAP1 SWAP3 SWAP2 SWAP1 PUSH4 0xFFFFFFFF AND JUMP JUMPDEST JUMPDEST JUMPDEST POP POP POP JUMP JUMPDEST PUSH1 0x0 DUP1 PUSH1 0x0 DUP4 DUP2 MSTORE PUSH1 0x20 ADD SWAP1 DUP2 MSTORE PUSH1 0x20 ADD PUSH1 0x0 KECCAK256 PUSH1 0x40 MLOAD DUP1 PUSH2 0x140 ADD PUSH1 0x40 MSTORE SWAP1 DUP2 PUSH1 0x0 DUP3 ADD SLOAD DUP2 MSTORE PUSH1 0x20 ADD PUSH1 0x1 DUP3 ADD PUSH1 0x0 SWAP1 SLOAD SWAP1 PUSH2 0x100 EXP SWAP1 DIV PUSH20 0xFFFFFFFFFFFFFFFFFFFFFFFFFFFFFFFFFFFFFFFF AND PUSH20 0xFFFFFFFFFFFFFFFFFFFFFFFFFFFFFFFFFFFFFFFF AND PUSH20 0xFFFFFFFFFFFFFFFFFFFFFFFFFFFFFFFFFFFFFFFF AND DUP2 MSTORE PUSH1 0x20 ADD PUSH1 0x2 DUP3 ADD SLOAD DUP2 MSTORE PUSH1 0x20 ADD PUSH1 0x3 DUP3 ADD SLOAD DUP2 MSTORE PUSH1 0x20 ADD PUSH1 0x4 DUP3 ADD SLOAD DUP2 MSTORE PUSH1 0x20 ADD PUSH1 0x5 DUP3 ADD SLOAD DUP2 MSTORE PUSH1 0x20 ADD PUSH1 0x6 DUP3 ADD PUSH1 0x0 SWAP1 SLOAD SWAP1 PUSH2 0x100 EXP SWAP1 DIV PUSH20 0xFFFFFFFFFFFFFFFFFFFFFFFFFFFFFFFFFFFFFFFF AND PUSH20 0xFFFFFFFFFFFFFFFFFFFFFFFFFFFFFFFFFFFFFFFF AND PUSH20 0xFFFFFFFFFFFFFFFFFFFFFFFFFFFFFFFFFFFFFFFF AND DUP2 MSTORE PUSH1 0x20 ADD PUSH1 0x6 DUP3 ADD PUSH1 0x14 SWAP1 SLOAD SWAP1 PUSH2 0x100 EXP SWAP1 DIV PUSH1 0xFF AND ISZERO ISZERO ISZERO ISZERO DUP2 MSTORE PUSH1 0x20 ADD PUSH1 0x6 DUP3 ADD PUSH1 0x15 SWAP1 SLOAD SWAP1 PUSH2 0x100 EXP SWAP1 DIV PUSH1 0xFF AND ISZERO ISZERO ISZERO ISZERO DUP2 MSTORE PUSH1 0x20 ADD PUSH1 0x6 DUP3 ADD PUSH1 0x16 SWAP1 SLOAD SWAP1 PUSH2 0x100 EXP SWAP1 DIV PUSH1 0xFF AND ISZERO ISZERO ISZERO ISZERO DUP2 MSTORE POP POP SWAP1 POP DUP1 PUSH2 0x100 ADD MLOAD PUSH2 0x19B5 JUMPI PUSH1 0x40 MLOAD PUSH32 0x8C379A000000000000000000000000000000000000000000000000000000000 DUP2 MSTORE PUSH1 0x4 ADD PUSH2 0x19AC SWAP1 PUSH2 0x3ABD JUMP JUMPDEST PUSH1 0x40 MLOAD DUP1 SWAP2 SUB SWAP1 REVERT JUMPDEST PUSH1 0x0 DUP2 PUSH1 0x80 ADD MLOAD GT PUSH2 0x19FC JUMPI PUSH1 0x40 MLOAD PUSH32 0x8C379A000000000000000000000000000000000000000000000000000000000 DUP2 MSTORE PUSH1 0x4 ADD PUSH2 0x19F3 SWAP1 PUSH2 0x3B29 JUMP JUMPDEST PUSH1 0x40 MLOAD DUP1 SWAP2 SUB SWAP1 REVERT JUMPDEST PUSH1 0x0 PUSH20 0xFFFFFFFFFFFFFFFFFFFFFFFFFFFFFFFFFFFFFFFF AND DUP2 PUSH1 0x20 ADD MLOAD PUSH20 0xFFFFFFFFFFFFFFFFFFFFFFFFFFFFFFFFFFFFFFFF AND SUB PUSH2 0x1A80 JUMPI DUP1 PUSH1 0x40 ADD MLOAD CALLVALUE LT ISZERO PUSH2 0x1A7B JUMPI PUSH1 0x40 MLOAD PUSH32 0x8C379A000000000000000000000000000000000000000000000000000000000 DUP2 MSTORE PUSH1 0x4 ADD PUSH2 0x1A72 SWAP1 PUSH2 0x3B95 JUMP JUMPDEST PUSH1 0x40 MLOAD DUP1 SWAP2 SUB SWAP1 REVERT JUMPDEST PUSH2 0x1AB6 JUMP JUMPDEST PUSH2 0x1AB5 CALLER ADDRESS DUP4 PUSH1 0x40 ADD MLOAD DUP5 PUSH1 0x20 ADD MLOAD PUSH20 0xFFFFFFFFFFFFFFFFFFFFFFFFFFFFFFFFFFFFFFFF AND PUSH2 0x26CB SWAP1 SWAP4 SWAP3 SWAP2 SWAP1 PUSH4 0xFFFFFFFF AND JUMP JUMPDEST JUMPDEST DUP1 PUSH1 0x80 ADD DUP1 MLOAD DUP1 SWAP2 SWAP1 PUSH2 0x1AC8 SWAP1 PUSH2 0x3BB5 JUMP JUMPDEST DUP2 MSTORE POP POP DUP1 PUSH1 0x40 ADD MLOAD DUP2 PUSH1 0xA0 ADD MLOAD PUSH2 0x1AE0 SWAP2 SWAP1 PUSH2 0x381D JUMP JUMPDEST DUP2 PUSH1 0xA0 ADD DUP2 DUP2 MSTORE POP POP PUSH2 0x1AF2 DUP3 PUSH2 0x28CE JUMP JUMPDEST POP POP POP JUMP JUMPDEST PUSH1 0x0 DUP1 PUSH1 0x0 DUP4 DUP2 MSTORE PUSH1 0x20 ADD SWAP1 DUP2 MSTORE PUSH1 0x20 ADD PUSH1 0x0 KECCAK256 SWAP1 POP DUP1 PUSH1 0x0 ADD SLOAD DUP3 EQ PUSH2 0x1B53 JUMPI PUSH1 0x40 MLOAD PUSH32 0x8C379A000000000000000000000000000000000000000000000000000000000 DUP2 MSTORE PUSH1 0x4 ADD PUSH2 0x1B4A SWAP1 PUSH2 0x3C2A JUMP JUMPDEST PUSH1 0x40 MLOAD DUP1 SWAP2 SUB SWAP1 REVERT JUMPDEST DUP1 PUSH1 0x6 ADD PUSH1 0x15 SWAP1 SLOAD SWAP1 PUSH2 0x100 EXP SWAP1 DIV PUSH1 0xFF AND ISZERO PUSH2 0x1BA5 JUMPI PUSH1 0x40 MLOAD PUSH32 0x8C379A000000000000000000000000000000000000000000000000000000000 DUP2 MSTORE PUSH1 0x4 ADD PUSH2 0x1B9C SWAP1 PUSH2 0x3C96 JUMP JUMPDEST PUSH1 0x40 MLOAD DUP1 SWAP2 SUB SWAP1 REVERT JUMPDEST PUSH1 0x1 DUP2 PUSH1 0x6 ADD PUSH1 0x15 PUSH2 0x100 EXP DUP2 SLOAD DUP2 PUSH1 0xFF MUL NOT AND SWAP1 DUP4 ISZERO ISZERO MUL OR SWAP1 SSTORE POP POP POP JUMP JUMPDEST PUSH1 0x2 DUP2 DUP2 SLOAD DUP2 LT PUSH2 0x1BD6 JUMPI PUSH1 0x0 DUP1 REVERT JUMPDEST SWAP1 PUSH1 0x0 MSTORE PUSH1 0x20 PUSH1 0x0 KECCAK256 ADD PUSH1 0x0 SWAP2 POP SWAP1 POP SLOAD DUP2 JUMP JUMPDEST PUSH1 0x0 DUP6 GT PUSH2 0x1C2D JUMPI PUSH1 0x40 MLOAD PUSH32 0x8C379A000000000000000000000000000000000000000000000000000000000 DUP2 MSTORE PUSH1 0x4 ADD PUSH2 0x1C24 SWAP1 PUSH2 0x3D02 JUMP JUMPDEST PUSH1 0x40 MLOAD DUP1 SWAP2 SUB SWAP1 REVERT JUMPDEST PUSH1 0x0 DUP5 GT PUSH2 0x1C70 JUMPI PUSH1 0x40 MLOAD PUSH32 0x8C379A000000000000000000000000000000000000000000000000000000000 DUP2 MSTORE PUSH1 0x4 ADD PUSH2 0x1C67 SWAP1 PUSH2 0x3D6E JUMP JUMPDEST PUSH1 0x40 MLOAD DUP1 SWAP2 SUB SWAP1 REVERT JUMPDEST PUSH1 0x0 DUP4 MLOAD GT DUP1 ISZERO PUSH2 0x1C82 JUMPI POP PUSH1 0x0 DUP3 MLOAD GT JUMPDEST DUP1 ISZERO PUSH2 0x1C8F JUMPI POP PUSH1 0x0 DUP2 MLOAD GT JUMPDEST PUSH2 0x1CCE JUMPI PUSH1 0x40 MLOAD PUSH32 0x8C379A000000000000000000000000000000000000000000000000000000000 DUP2 MSTORE PUSH1 0x4 ADD PUSH2 0x1CC5 SWAP1 PUSH2 0x3DDA JUMP JUMPDEST PUSH1 0x40 MLOAD DUP1 SWAP2 SUB SWAP1 REVERT JUMPDEST DUP2 MLOAD DUP4 MLOAD EQ DUP1 ISZERO PUSH2 0x1CE0 JUMPI POP DUP1 MLOAD DUP3 MLOAD EQ JUMPDEST PUSH2 0x1D1F JUMPI PUSH1 0x40 MLOAD PUSH32 0x8C379A000000000000000000000000000000000000000000000000000000000 DUP2 MSTORE PUSH1 0x4 ADD PUSH2 0x1D16 SWAP1 PUSH2 0x3DDA JUMP JUMPDEST PUSH1 0x40 MLOAD DUP1 SWAP2 SUB SWAP1 REVERT JUMPDEST PUSH1 0x0 DUP1 PUSH1 0x0 SWAP1 POP JUMPDEST DUP5 MLOAD DUP2 LT ISZERO PUSH2 0x1E03 JUMPI PUSH1 0x1 DUP6 MLOAD PUSH2 0x1D3E SWAP2 SWAP1 PUSH2 0x39AB JUMP JUMPDEST DUP2 LT ISZERO PUSH2 0x1DC8 JUMPI DUP5 PUSH1 0x1 DUP3 PUSH2 0x1D53 SWAP2 SWAP1 PUSH2 0x381D JUMP JUMPDEST DUP2 MLOAD DUP2 LT PUSH2 0x1D64 JUMPI PUSH2 0x1D63 PUSH2 0x3753 JUMP JUMPDEST JUMPDEST PUSH1 0x20 MUL PUSH1 0x20 ADD ADD MLOAD DUP6 DUP3 DUP2 MLOAD DUP2 LT PUSH2 0x1D7F JUMPI PUSH2 0x1D7E PUSH2 0x3753 JUMP JUMPDEST JUMPDEST PUSH1 0x20 MUL PUSH1 0x20 ADD ADD MLOAD LT PUSH2 0x1DC7 JUMPI PUSH1 0x40 MLOAD PUSH32 0x8C379A000000000000000000000000000000000000000000000000000000000 DUP2 MSTORE PUSH1 0x4 ADD PUSH2 0x1DBE SWAP1 PUSH2 0x3E46 JUMP JUMPDEST PUSH1 0x40 MLOAD DUP1 SWAP2 SUB SWAP1 REVERT JUMPDEST JUMPDEST DUP5 DUP2 DUP2 MLOAD DUP2 LT PUSH2 0x1DDB JUMPI PUSH2 0x1DDA PUSH2 0x3753 JUMP JUMPDEST JUMPDEST PUSH1 0x20 MUL PUSH1 0x20 ADD ADD MLOAD DUP3 PUSH2 0x1DEE SWAP2 SWAP1 PUSH2 0x381D JUMP JUMPDEST SWAP2 POP DUP1 DUP1 PUSH2 0x1DFB SWAP1 PUSH2 0x3851 JUMP JUMPDEST SWAP2 POP POP PUSH2 0x1D27 JUMP JUMPDEST POP PUSH2 0x2710 DUP2 EQ PUSH2 0x1E48 JUMPI PUSH1 0x40 MLOAD PUSH32 0x8C379A000000000000000000000000000000000000000000000000000000000 DUP2 MSTORE PUSH1 0x4 ADD PUSH2 0x1E3F SWAP1 PUSH2 0x3EB2 JUMP JUMPDEST PUSH1 0x40 MLOAD DUP1 SWAP2 SUB SWAP1 REVERT JUMPDEST PUSH1 0x0 JUMPDEST DUP4 MLOAD DUP2 LT ISZERO PUSH2 0x209E JUMPI PUSH1 0x0 PUSH2 0x2710 DUP5 DUP4 DUP2 MLOAD DUP2 LT PUSH2 0x1E6C JUMPI PUSH2 0x1E6B PUSH2 0x3753 JUMP JUMPDEST JUMPDEST PUSH1 0x20 MUL PUSH1 0x20 ADD ADD MLOAD DUP9 DUP9 DUP6 DUP2 MLOAD DUP2 LT PUSH2 0x1E88 JUMPI PUSH2 0x1E87 PUSH2 0x3753 JUMP JUMPDEST JUMPDEST PUSH1 0x20 MUL PUSH1 0x20 ADD ADD MLOAD PUSH2 0x1E9A SWAP2 SWAP1 PUSH2 0x3ED2 JUMP JUMPDEST PUSH2 0x1EA4 SWAP2 SWAP1 PUSH2 0x3ED2 JUMP JUMPDEST PUSH2 0x1EAE SWAP2 SWAP1 PUSH2 0x3F43 JUMP JUMPDEST SWAP1 POP PUSH1 0x0 PUSH20 0xFFFFFFFFFFFFFFFFFFFFFFFFFFFFFFFFFFFFFFFF AND DUP6 DUP4 DUP2 MLOAD DUP2 LT PUSH2 0x1EDB JUMPI PUSH2 0x1EDA PUSH2 0x3753 JUMP JUMPDEST JUMPDEST PUSH1 0x20 MUL PUSH1 0x20 ADD ADD MLOAD PUSH20 0xFFFFFFFFFFFFFFFFFFFFFFFFFFFFFFFFFFFFFFFF AND SUB PUSH2 0x1F46 JUMPI DUP1 CALLVALUE LT ISZERO PUSH2 0x1F41 JUMPI PUSH1 0x40 MLOAD PUSH32 0x8C379A000000000000000000000000000000000000000000000000000000000 DUP2 MSTORE PUSH1 0x4 ADD PUSH2 0x1F38 SWAP1 PUSH2 0x37CE JUMP JUMPDEST PUSH1 0x40 MLOAD DUP1 SWAP2 SUB SWAP1 REVERT JUMPDEST PUSH2 0x1F8E JUMP JUMPDEST PUSH2 0x1F8D CALLER ADDRESS DUP4 DUP9 DUP7 DUP2 MLOAD DUP2 LT PUSH2 0x1F5F JUMPI PUSH2 0x1F5E PUSH2 0x3753 JUMP JUMPDEST JUMPDEST PUSH1 0x20 MUL PUSH1 0x20 ADD ADD MLOAD PUSH20 0xFFFFFFFFFFFFFFFFFFFFFFFFFFFFFFFFFFFFFFFF AND PUSH2 0x26CB SWAP1 SWAP4 SWAP3 SWAP2 SWAP1 PUSH4 0xFFFFFFFF AND JUMP JUMPDEST JUMPDEST DUP1 PUSH1 0x5 PUSH1 0x0 PUSH1 0x4 SLOAD DUP2 MSTORE PUSH1 0x20 ADD SWAP1 DUP2 MSTORE PUSH1 0x20 ADD PUSH1 0x0 KECCAK256 PUSH1 0x0 DUP8 DUP6 DUP2 MLOAD DUP2 LT PUSH2 0x1FB9 JUMPI PUSH2 0x1FB8 PUSH2 0x3753 JUMP JUMPDEST JUMPDEST PUSH1 0x20 MUL PUSH1 0x20 ADD ADD MLOAD PUSH20 0xFFFFFFFFFFFFFFFFFFFFFFFFFFFFFFFFFFFFFFFF AND PUSH20 0xFFFFFFFFFFFFFFFFFFFFFFFFFFFFFFFFFFFFFFFF AND DUP2 MSTORE PUSH1 0x20 ADD SWAP1 DUP2 MSTORE PUSH1 0x20 ADD PUSH1 0x0 KECCAK256 DUP2 SWAP1 SSTORE POP DUP4 DUP3 DUP2 MLOAD DUP2 LT PUSH2 0x2012 JUMPI PUSH2 0x2011 PUSH2 0x3753 JUMP JUMPDEST JUMPDEST PUSH1 0x20 MUL PUSH1 0x20 ADD ADD MLOAD PUSH1 0x6 PUSH1 0x0 PUSH1 0x4 SLOAD DUP2 MSTORE PUSH1 0x20 ADD SWAP1 DUP2 MSTORE PUSH1 0x20 ADD PUSH1 0x0 KECCAK256 PUSH1 0x0 DUP8 DUP6 DUP2 MLOAD DUP2 LT PUSH2 0x2044 JUMPI PUSH2 0x2043 PUSH2 0x3753 JUMP JUMPDEST JUMPDEST PUSH1 0x20 MUL PUSH1 0x20 ADD ADD MLOAD PUSH20 0xFFFFFFFFFFFFFFFFFFFFFFFFFFFFFFFFFFFFFFFF AND PUSH20 0xFFFFFFFFFFFFFFFFFFFFFFFFFFFFFFFFFFFFFFFF AND DUP2 MSTORE PUSH1 0x20 ADD SWAP1 DUP2 MSTORE PUSH1 0x20 ADD PUSH1 0x0 KECCAK256 DUP2 SWAP1 SSTORE POP POP DUP1 DUP1 PUSH2 0x2096 SWAP1 PUSH2 0x3851 JUMP JUMPDEST SWAP2 POP POP PUSH2 0x1E4B JUMP JUMPDEST POP PUSH1 0x40 MLOAD DUP1 PUSH2 0x140 ADD PUSH1 0x40 MSTORE DUP1 PUSH1 0x4 SLOAD DUP2 MSTORE PUSH1 0x20 ADD DUP9 PUSH20 0xFFFFFFFFFFFFFFFFFFFFFFFFFFFFFFFFFFFFFFFF AND DUP2 MSTORE PUSH1 0x20 ADD DUP8 DUP2 MSTORE PUSH1 0x20 ADD DUP7 DUP2 MSTORE PUSH1 0x20 ADD DUP7 DUP2 MSTORE PUSH1 0x20 ADD PUSH1 0x0 DUP2 MSTORE PUSH1 0x20 ADD CALLER PUSH20 0xFFFFFFFFFFFFFFFFFFFFFFFFFFFFFFFFFFFFFFFF AND DUP2 MSTORE PUSH1 0x20 ADD PUSH1 0x0 ISZERO ISZERO DUP2 MSTORE PUSH1 0x20 ADD PUSH1 0x0 ISZERO ISZERO DUP2 MSTORE PUSH1 0x20 ADD PUSH1 0x0 ISZERO ISZERO DUP2 MSTORE POP PUSH1 0x0 DUP1 PUSH1 0x4 SLOAD DUP2 MSTORE PUSH1 0x20 ADD SWAP1 DUP2 MSTORE PUSH1 0x20 ADD PUSH1 0x0 KECCAK256 PUSH1 0x0 DUP3 ADD MLOAD DUP2 PUSH1 0x0 ADD SSTORE PUSH1 0x20 DUP3 ADD MLOAD DUP2 PUSH1 0x1 ADD PUSH1 0x0 PUSH2 0x100 EXP DUP2 SLOAD DUP2 PUSH20 0xFFFFFFFFFFFFFFFFFFFFFFFFFFFFFFFFFFFFFFFF MUL NOT AND SWAP1 DUP4 PUSH20 0xFFFFFFFFFFFFFFFFFFFFFFFFFFFFFFFFFFFFFFFF AND MUL OR SWAP1 SSTORE POP PUSH1 0x40 DUP3 ADD MLOAD DUP2 PUSH1 0x2 ADD SSTORE PUSH1 0x60 DUP3 ADD MLOAD DUP2 PUSH1 0x3 ADD SSTORE PUSH1 0x80 DUP3 ADD MLOAD DUP2 PUSH1 0x4 ADD SSTORE PUSH1 0xA0 DUP3 ADD MLOAD DUP2 PUSH1 0x5 ADD SSTORE PUSH1 0xC0 DUP3 ADD MLOAD DUP2 PUSH1 0x6 ADD PUSH1 0x0 PUSH2 0x100 EXP DUP2 SLOAD DUP2 PUSH20 0xFFFFFFFFFFFFFFFFFFFFFFFFFFFFFFFFFFFFFFFF MUL NOT AND SWAP1 DUP4 PUSH20 0xFFFFFFFFFFFFFFFFFFFFFFFFFFFFFFFFFFFFFFFF AND MUL OR SWAP1 SSTORE POP PUSH1 0xE0 DUP3 ADD MLOAD DUP2 PUSH1 0x6 ADD PUSH1 0x14 PUSH2 0x100 EXP DUP2 SLOAD DUP2 PUSH1 0xFF MUL NOT AND SWAP1 DUP4 ISZERO ISZERO MUL OR SWAP1 SSTORE POP PUSH2 0x100 DUP3 ADD MLOAD DUP2 PUSH1 0x6 ADD PUSH1 0x15 PUSH2 0x100 EXP DUP2 SLOAD DUP2 PUSH1 0xFF MUL NOT AND SWAP1 DUP4 ISZERO ISZERO MUL OR SWAP1 SSTORE POP PUSH2 0x120 DUP3 ADD MLOAD DUP2 PUSH1 0x6 ADD PUSH1 0x16 PUSH2 0x100 EXP DUP2 SLOAD DUP2 PUSH1 0xFF MUL NOT AND SWAP1 DUP4 ISZERO ISZERO MUL OR SWAP1 SSTORE POP SWAP1 POP POP PUSH1 0x0 PUSH1 0x1 PUSH1 0x0 PUSH1 0x4 SLOAD DUP2 MSTORE PUSH1 0x20 ADD SWAP1 DUP2 MSTORE PUSH1 0x20 ADD PUSH1 0x0 KECCAK256 SWAP1 POP PUSH1 0x0 DUP2 PUSH1 0x1 ADD SWAP1 POP PUSH1 0x0 JUMPDEST DUP7 MLOAD DUP2 LT ISZERO PUSH2 0x23A8 JUMPI PUSH1 0x0 PUSH2 0x2710 PUSH3 0xFFFFF DUP10 DUP5 DUP2 MLOAD DUP2 LT PUSH2 0x229F JUMPI PUSH2 0x229E PUSH2 0x3753 JUMP JUMPDEST JUMPDEST PUSH1 0x20 MUL PUSH1 0x20 ADD ADD MLOAD PUSH2 0x22B1 SWAP2 SWAP1 PUSH2 0x3ED2 JUMP JUMPDEST PUSH2 0x22BB SWAP2 SWAP1 PUSH2 0x3F43 JUMP JUMPDEST SWAP1 POP PUSH1 0x0 DUP3 SUB PUSH2 0x22F2 JUMPI DUP3 DUP2 SWAP1 DUP1 PUSH1 0x1 DUP2 SLOAD ADD DUP1 DUP3 SSTORE DUP1 SWAP2 POP POP PUSH1 0x1 SWAP1 SUB SWAP1 PUSH1 0x0 MSTORE PUSH1 0x20 PUSH1 0x0 KECCAK256 ADD PUSH1 0x0 SWAP1 SWAP2 SWAP1 SWAP2 SWAP1 SWAP2 POP SSTORE PUSH2 0x2394 JUMP JUMPDEST PUSH1 0x1 DUP9 MLOAD PUSH2 0x2300 SWAP2 SWAP1 PUSH2 0x39AB JUMP JUMPDEST DUP3 SUB PUSH2 0x2336 JUMPI DUP3 PUSH3 0xFFFFF SWAP1 DUP1 PUSH1 0x1 DUP2 SLOAD ADD DUP1 DUP3 SSTORE DUP1 SWAP2 POP POP PUSH1 0x1 SWAP1 SUB SWAP1 PUSH1 0x0 MSTORE PUSH1 0x20 PUSH1 0x0 KECCAK256 ADD PUSH1 0x0 SWAP1 SWAP2 SWAP1 SWAP2 SWAP1 SWAP2 POP SSTORE PUSH2 0x2393 JUMP JUMPDEST DUP3 DUP2 DUP5 PUSH1 0x1 DUP6 PUSH2 0x2346 SWAP2 SWAP1 PUSH2 0x39AB JUMP JUMPDEST DUP2 SLOAD DUP2 LT PUSH2 0x2357 JUMPI PUSH2 0x2356 PUSH2 0x3753 JUMP JUMPDEST JUMPDEST SWAP1 PUSH1 0x0 MSTORE PUSH1 0x20 PUSH1 0x0 KECCAK256 ADD SLOAD PUSH2 0x236C SWAP2 SWAP1 PUSH2 0x381D JUMP JUMPDEST SWAP1 DUP1 PUSH1 0x1 DUP2 SLOAD ADD DUP1 DUP3 SSTORE DUP1 SWAP2 POP POP PUSH1 0x1 SWAP1 SUB SWAP1 PUSH1 0x0 MSTORE PUSH1 0x20 PUSH1 0x0 KECCAK256 ADD PUSH1 0x0 SWAP1 SWAP2 SWAP1 SWAP2 SWAP1 SWAP2 POP SSTORE JUMPDEST JUMPDEST POP DUP1 DUP1 PUSH2 0x23A0 SWAP1 PUSH2 0x3851 JUMP JUMPDEST SWAP2 POP POP PUSH2 0x227A JUMP JUMPDEST POP DUP6 DUP3 PUSH1 0x0 ADD SWAP1 DUP1 MLOAD SWAP1 PUSH1 0x20 ADD SWAP1 PUSH2 0x23C1 SWAP3 SWAP2 SWAP1 PUSH2 0x2D4F JUMP JUMPDEST POP DUP5 DUP3 PUSH1 0x2 ADD SWAP1 DUP1 MLOAD SWAP1 PUSH1 0x20 ADD SWAP1 PUSH2 0x23DA SWAP3 SWAP2 SWAP1 PUSH2 0x2D9C JUMP JUMPDEST POP DUP4 DUP3 PUSH1 0x3 ADD SWAP1 DUP1 MLOAD SWAP1 PUSH1 0x20 ADD SWAP1 PUSH2 0x23F3 SWAP3 SWAP2 SWAP1 PUSH2 0x2D4F JUMP JUMPDEST POP PUSH1 0x2 PUSH1 0x4 SLOAD SWAP1 DUP1 PUSH1 0x1 DUP2 SLOAD ADD DUP1 DUP3 SSTORE DUP1 SWAP2 POP POP PUSH1 0x1 SWAP1 SUB SWAP1 PUSH1 0x0 MSTORE PUSH1 0x20 PUSH1 0x0 KECCAK256 ADD PUSH1 0x0 SWAP1 SWAP2 SWAP1 SWAP2 SWAP1 SWAP2 POP SSTORE PUSH1 0x4 PUSH1 0x0 DUP2 SLOAD DUP1 SWAP3 SWAP2 SWAP1 PUSH2 0x2432 SWAP1 PUSH2 0x3851 JUMP JUMPDEST SWAP2 SWAP1 POP SSTORE POP POP POP POP POP POP POP POP POP POP JUMP JUMPDEST PUSH1 0x4 SLOAD DUP2 JUMP JUMPDEST PUSH1 0x0 DUP1 CALLER SWAP1 POP PUSH1 0x0 TIMESTAMP SWAP1 POP PUSH1 0x0 DUP2 DUP4 PUSH1 0x40 MLOAD PUSH1 0x20 ADD PUSH2 0x2468 SWAP3 SWAP2 SWAP1 PUSH2 0x3F74 JUMP JUMPDEST PUSH1 0x40 MLOAD PUSH1 0x20 DUP2 DUP4 SUB SUB DUP2 MSTORE SWAP1 PUSH1 0x40 MSTORE DUP1 MLOAD SWAP1 PUSH1 0x20 ADD KECCAK256 SWAP1 POP PUSH1 0x0 PUSH1 0xEC DUP3 SWAP1 SHR SWAP1 POP DUP1 PUSH1 0x0 SHR SWAP5 POP PUSH32 0x5BD4C3D730AA2B20B600F395010CDC42B0EFDB18BEBB1C2E641802EA575432D8 DUP5 DUP5 DUP5 DUP5 DUP10 PUSH1 0x40 MLOAD PUSH2 0x24C6 SWAP6 SWAP5 SWAP4 SWAP3 SWAP2 SWAP1 PUSH2 0x3FB9 JUMP JUMPDEST PUSH1 0x40 MLOAD DUP1 SWAP2 SUB SWAP1 LOG1 POP POP POP POP SWAP1 JUMP JUMPDEST PUSH1 0x0 PUSH1 0x7 PUSH1 0x0 DUP4 DUP2 MSTORE PUSH1 0x20 ADD SWAP1 DUP2 MSTORE PUSH1 0x20 ADD PUSH1 0x0 KECCAK256 SWAP1 POP PUSH1 0x1 DUP2 PUSH1 0x7 ADD PUSH1 0x2 PUSH2 0x100 EXP DUP2 SLOAD DUP2 PUSH1 0xFF MUL NOT AND SWAP1 DUP4 ISZERO ISZERO MUL OR SWAP1 SSTORE POP PUSH1 0x0 PUSH20 0xFFFFFFFFFFFFFFFFFFFFFFFFFFFFFFFFFFFFFFFF AND DUP2 PUSH1 0x5 ADD PUSH1 0x0 SWAP1 SLOAD SWAP1 PUSH2 0x100 EXP SWAP1 DIV PUSH20 0xFFFFFFFFFFFFFFFFFFFFFFFFFFFFFFFFFFFFFFFF AND PUSH20 0xFFFFFFFFFFFFFFFFFFFFFFFFFFFFFFFFFFFFFFFF AND SUB PUSH2 0x2593 JUMPI PUSH2 0x258E DUP2 PUSH1 0x6 ADD SLOAD CALLER PUSH20 0xFFFFFFFFFFFFFFFFFFFFFFFFFFFFFFFFFFFFFFFF AND PUSH2 0x2754 SWAP1 SWAP2 SWAP1 PUSH4 0xFFFFFFFF AND JUMP JUMPDEST PUSH2 0x25E9 JUMP JUMPDEST PUSH2 0x25E8 ADDRESS CALLER DUP4 PUSH1 0x6 ADD SLOAD DUP5 PUSH1 0x5 ADD PUSH1 0x0 SWAP1 SLOAD SWAP1 PUSH2 0x100 EXP SWAP1 DIV PUSH20 0xFFFFFFFFFFFFFFFFFFFFFFFFFFFFFFFFFFFFFFFF AND PUSH20 0xFFFFFFFFFFFFFFFFFFFFFFFFFFFFFFFFFFFFFFFF AND PUSH2 0x26CB SWAP1 SWAP4 SWAP3 SWAP2 SWAP1 PUSH4 0xFFFFFFFF AND JUMP JUMPDEST JUMPDEST POP POP JUMP JUMPDEST PUSH1 0x7 PUSH1 0x20 MSTORE DUP1 PUSH1 0x0 MSTORE PUSH1 0x40 PUSH1 0x0 KECCAK256 PUSH1 0x0 SWAP2 POP SWAP1 POP DUP1 PUSH1 0x0 ADD PUSH1 0x0 SWAP1 SLOAD SWAP1 PUSH2 0x100 EXP SWAP1 DIV PUSH20 0xFFFFFFFFFFFFFFFFFFFFFFFFFFFFFFFFFFFFFFFF AND SWAP1 DUP1 PUSH1 0x1 ADD SLOAD SWAP1 DUP1 PUSH1 0x2 ADD SLOAD SWAP1 DUP1 PUSH1 0x3 ADD SLOAD SWAP1 DUP1 PUSH1 0x4 ADD SLOAD SWAP1 DUP1 PUSH1 0x5 ADD PUSH1 0x0 SWAP1 SLOAD SWAP1 PUSH2 0x100 EXP SWAP1 DIV PUSH20 0xFFFFFFFFFFFFFFFFFFFFFFFFFFFFFFFFFFFFFFFF AND SWAP1 DUP1 PUSH1 0x6 ADD SLOAD SWAP1 DUP1 PUSH1 0x7 ADD PUSH1 0x0 SWAP1 SLOAD SWAP1 PUSH2 0x100 EXP SWAP1 DIV PUSH1 0xFF AND SWAP1 DUP1 PUSH1 0x7 ADD PUSH1 0x1 SWAP1 SLOAD SWAP1 PUSH2 0x100 EXP SWAP1 DIV PUSH1 0xFF AND SWAP1 DUP1 PUSH1 0x7 ADD PUSH1 0x2 SWAP1 SLOAD SWAP1 PUSH2 0x100 EXP SWAP1 DIV PUSH1 0xFF AND SWAP1 POP DUP11 JUMP JUMPDEST PUSH1 0x0 DUP2 ISZERO PUSH2 0x26BD JUMPI PUSH1 0x3 DUP1 SLOAD SWAP1 POP SWAP1 POP PUSH2 0x26C6 JUMP JUMPDEST PUSH1 0x2 DUP1 SLOAD SWAP1 POP SWAP1 POP JUMPDEST SWAP2 SWAP1 POP JUMP JUMPDEST PUSH2 0x274E DUP5 PUSH4 0x23B872DD PUSH1 0xE0 SHL DUP6 DUP6 DUP6 PUSH1 0x40 MLOAD PUSH1 0x24 ADD PUSH2 0x26EC SWAP4 SWAP3 SWAP2 SWAP1 PUSH2 0x400C JUMP JUMPDEST PUSH1 0x40 MLOAD PUSH1 0x20 DUP2 DUP4 SUB SUB DUP2 MSTORE SWAP1 PUSH1 0x40 MSTORE SWAP1 PUSH28 0xFFFFFFFFFFFFFFFFFFFFFFFFFFFFFFFFFFFFFFFFFFFFFFFFFFFFFFFF NOT AND PUSH1 0x20 DUP3 ADD DUP1 MLOAD PUSH28 0xFFFFFFFFFFFFFFFFFFFFFFFFFFFFFFFFFFFFFFFFFFFFFFFFFFFFFFFF DUP4 DUP2 DUP4 AND OR DUP4 MSTORE POP POP POP POP PUSH2 0x2ABB JUMP JUMPDEST POP POP POP POP JUMP JUMPDEST DUP1 SELFBALANCE LT ISZERO PUSH2 0x2797 JUMPI PUSH1 0x40 MLOAD PUSH32 0x8C379A000000000000000000000000000000000000000000000000000000000 DUP2 MSTORE PUSH1 0x4 ADD PUSH2 0x278E SWAP1 PUSH2 0x408F JUMP JUMPDEST PUSH1 0x40 MLOAD DUP1 SWAP2 SUB SWAP1 REVERT JUMPDEST PUSH1 0x0 DUP3 PUSH20 0xFFFFFFFFFFFFFFFFFFFFFFFFFFFFFFFFFFFFFFFF AND DUP3 PUSH1 0x40 MLOAD PUSH2 0x27BD SWAP1 PUSH2 0x40E0 JUMP JUMPDEST PUSH1 0x0 PUSH1 0x40 MLOAD DUP1 DUP4 SUB DUP2 DUP6 DUP8 GAS CALL SWAP3 POP POP POP RETURNDATASIZE DUP1 PUSH1 0x0 DUP2 EQ PUSH2 0x27FA JUMPI PUSH1 0x40 MLOAD SWAP2 POP PUSH1 0x1F NOT PUSH1 0x3F RETURNDATASIZE ADD AND DUP3 ADD PUSH1 0x40 MSTORE RETURNDATASIZE DUP3 MSTORE RETURNDATASIZE PUSH1 0x0 PUSH1 0x20 DUP5 ADD RETURNDATACOPY PUSH2 0x27FF JUMP JUMPDEST PUSH1 0x60 SWAP2 POP JUMPDEST POP POP SWAP1 POP DUP1 PUSH2 0x2843 JUMPI PUSH1 0x40 MLOAD PUSH32 0x8C379A000000000000000000000000000000000000000000000000000000000 DUP2 MSTORE PUSH1 0x4 ADD PUSH2 0x283A SWAP1 PUSH2 0x4167 JUMP JUMPDEST PUSH1 0x40 MLOAD DUP1 SWAP2 SUB SWAP1 REVERT JUMPDEST POP POP POP JUMP JUMPDEST PUSH2 0x28C9 DUP4 PUSH4 0xA9059CBB PUSH1 0xE0 SHL DUP5 DUP5 PUSH1 0x40 MLOAD PUSH1 0x24 ADD PUSH2 0x2867 SWAP3 SWAP2 SWAP1 PUSH2 0x4187 JUMP JUMPDEST PUSH1 0x40 MLOAD PUSH1 0x20 DUP2 DUP4 SUB SUB DUP2 MSTORE SWAP1 PUSH1 0x40 MSTORE SWAP1 PUSH28 0xFFFFFFFFFFFFFFFFFFFFFFFFFFFFFFFFFFFFFFFFFFFFFFFFFFFFFFFF NOT AND PUSH1 0x20 DUP3 ADD DUP1 MLOAD PUSH28 0xFFFFFFFFFFFFFFFFFFFFFFFFFFFFFFFFFFFFFFFFFFFFFFFFFFFFFFFF DUP4 DUP2 DUP4 AND OR DUP4 MSTORE POP POP POP POP PUSH2 0x2ABB JUMP JUMPDEST POP POP POP JUMP JUMPDEST PUSH1 0x0 TIMESTAMP SWAP1 POP PUSH1 0x40 MLOAD DUP1 PUSH2 0x140 ADD PUSH1 0x40 MSTORE DUP1 CALLER PUSH20 0xFFFFFFFFFFFFFFFFFFFFFFFFFFFFFFFFFFFFFFFF AND DUP2 MSTORE PUSH1 0x20 ADD DUP4 DUP2 MSTORE PUSH1 0x20 ADD PUSH1 0x0 DUP2 MSTORE PUSH1 0x20 ADD PUSH3 0xFFFFF DUP2 MSTORE PUSH1 0x20 ADD PUSH1 0x0 DUP2 MSTORE PUSH1 0x20 ADD PUSH1 0x1 PUSH20 0xFFFFFFFFFFFFFFFFFFFFFFFFFFFFFFFFFFFFFFFF AND DUP2 MSTORE PUSH1 0x20 ADD PUSH1 0x0 DUP2 MSTORE PUSH1 0x20 ADD PUSH1 0x0 ISZERO ISZERO DUP2 MSTORE PUSH1 0x20 ADD PUSH1 0x1 ISZERO ISZERO DUP2 MSTORE PUSH1 0x20 ADD PUSH1 0x0 ISZERO ISZERO DUP2 MSTORE POP PUSH1 0x7 PUSH1 0x0 DUP4 DUP2 MSTORE PUSH1 0x20 ADD SWAP1 DUP2 MSTORE PUSH1 0x20 ADD PUSH1 0x0 KECCAK256 PUSH1 0x0 DUP3 ADD MLOAD DUP2 PUSH1 0x0 ADD PUSH1 0x0 PUSH2 0x100 EXP DUP2 SLOAD DUP2 PUSH20 0xFFFFFFFFFFFFFFFFFFFFFFFFFFFFFFFFFFFFFFFF MUL NOT AND SWAP1 DUP4 PUSH20 0xFFFFFFFFFFFFFFFFFFFFFFFFFFFFFFFFFFFFFFFF AND MUL OR SWAP1 SSTORE POP PUSH1 0x20 DUP3 ADD MLOAD DUP2 PUSH1 0x1 ADD SSTORE PUSH1 0x40 DUP3 ADD MLOAD DUP2 PUSH1 0x2 ADD SSTORE PUSH1 0x60 DUP3 ADD MLOAD DUP2 PUSH1 0x3 ADD SSTORE PUSH1 0x80 DUP3 ADD MLOAD DUP2 PUSH1 0x4 ADD SSTORE PUSH1 0xA0 DUP3 ADD MLOAD DUP2 PUSH1 0x5 ADD PUSH1 0x0 PUSH2 0x100 EXP DUP2 SLOAD DUP2 PUSH20 0xFFFFFFFFFFFFFFFFFFFFFFFFFFFFFFFFFFFFFFFF MUL NOT AND SWAP1 DUP4 PUSH20 0xFFFFFFFFFFFFFFFFFFFFFFFFFFFFFFFFFFFFFFFF AND MUL OR SWAP1 SSTORE POP PUSH1 0xC0 DUP3 ADD MLOAD DUP2 PUSH1 0x6 ADD SSTORE PUSH1 0xE0 DUP3 ADD MLOAD DUP2 PUSH1 0x7 ADD PUSH1 0x0 PUSH2 0x100 EXP DUP2 SLOAD DUP2 PUSH1 0xFF MUL NOT AND SWAP1 DUP4 ISZERO ISZERO MUL OR SWAP1 SSTORE POP PUSH2 0x100 DUP3 ADD MLOAD DUP2 PUSH1 0x7 ADD PUSH1 0x1 PUSH2 0x100 EXP DUP2 SLOAD DUP2 PUSH1 0xFF MUL NOT AND SWAP1 DUP4 ISZERO ISZERO MUL OR SWAP1 SSTORE POP PUSH2 0x120 DUP3 ADD MLOAD DUP2 PUSH1 0x7 ADD PUSH1 0x2 PUSH2 0x100 EXP DUP2 SLOAD DUP2 PUSH1 0xFF MUL NOT AND SWAP1 DUP4 ISZERO ISZERO MUL OR SWAP1 SSTORE POP SWAP1 POP POP PUSH1 0x8 DUP2 SWAP1 DUP1 PUSH1 0x1 DUP2 SLOAD ADD DUP1 DUP3 SSTORE DUP1 SWAP2 POP POP PUSH1 0x1 SWAP1 SUB SWAP1 PUSH1 0x0 MSTORE PUSH1 0x20 PUSH1 0x0 KECCAK256 ADD PUSH1 0x0 SWAP1 SWAP2 SWAP1 SWAP2 SWAP1 SWAP2 POP SSTORE SWAP2 SWAP1 POP JUMP JUMPDEST PUSH1 0x0 PUSH2 0x2B1D DUP3 PUSH1 0x40 MLOAD DUP1 PUSH1 0x40 ADD PUSH1 0x40 MSTORE DUP1 PUSH1 0x20 DUP2 MSTORE PUSH1 0x20 ADD PUSH32 0x5361666545524332303A206C6F772D6C6576656C2063616C6C206661696C6564 DUP2 MSTORE POP DUP6 PUSH20 0xFFFFFFFFFFFFFFFFFFFFFFFFFFFFFFFFFFFFFFFF AND PUSH2 0x2B82 SWAP1 SWAP3 SWAP2 SWAP1 PUSH4 0xFFFFFFFF AND JUMP JUMPDEST SWAP1 POP PUSH1 0x0 DUP2 MLOAD GT ISZERO PUSH2 0x2B7D JUMPI DUP1 DUP1 PUSH1 0x20 ADD SWAP1 MLOAD DUP2 ADD SWAP1 PUSH2 0x2B3D SWAP2 SWAP1 PUSH2 0x41C5 JUMP JUMPDEST PUSH2 0x2B7C JUMPI PUSH1 0x40 MLOAD PUSH32 0x8C379A000000000000000000000000000000000000000000000000000000000 DUP2 MSTORE PUSH1 0x4 ADD PUSH2 0x2B73 SWAP1 PUSH2 0x4264 JUMP JUMPDEST PUSH1 0x40 MLOAD DUP1 SWAP2 SUB SWAP1 REVERT JUMPDEST JUMPDEST POP POP POP JUMP JUMPDEST PUSH1 0x60 PUSH2 0x2B91 DUP5 DUP5 PUSH1 0x0 DUP6 PUSH2 0x2B9A JUMP JUMPDEST SWAP1 POP SWAP4 SWAP3 POP POP POP JUMP JUMPDEST PUSH1 0x60 DUP3 SELFBALANCE LT ISZERO PUSH2 0x2BDF JUMPI PUSH1 0x40 MLOAD PUSH32 0x8C379A000000000000000000000000000000000000000000000000000000000 DUP2 MSTORE PUSH1 0x4 ADD PUSH2 0x2BD6 SWAP1 PUSH2 0x42F6 JUMP JUMPDEST PUSH1 0x40 MLOAD DUP1 SWAP2 SUB SWAP1 REVERT JUMPDEST PUSH1 0x0 DUP1 DUP7 PUSH20 0xFFFFFFFFFFFFFFFFFFFFFFFFFFFFFFFFFFFFFFFF AND DUP6 DUP8 PUSH1 0x40 MLOAD PUSH2 0x2C08 SWAP2 SWAP1 PUSH2 0x437C JUMP JUMPDEST PUSH1 0x0 PUSH1 0x40 MLOAD DUP1 DUP4 SUB DUP2 DUP6 DUP8 GAS CALL SWAP3 POP POP POP RETURNDATASIZE DUP1 PUSH1 0x0 DUP2 EQ PUSH2 0x2C45 JUMPI PUSH1 0x40 MLOAD SWAP2 POP PUSH1 0x1F NOT PUSH1 0x3F RETURNDATASIZE ADD AND DUP3 ADD PUSH1 0x40 MSTORE RETURNDATASIZE DUP3 MSTORE RETURNDATASIZE PUSH1 0x0 PUSH1 0x20 DUP5 ADD RETURNDATACOPY PUSH2 0x2C4A JUMP JUMPDEST PUSH1 0x60 SWAP2 POP JUMPDEST POP SWAP2 POP SWAP2 POP PUSH2 0x2C5B DUP8 DUP4 DUP4 DUP8 PUSH2 0x2C67 JUMP JUMPDEST SWAP3 POP POP POP SWAP5 SWAP4 POP POP POP POP JUMP JUMPDEST PUSH1 0x60 DUP4 ISZERO PUSH2 0x2CC9 JUMPI PUSH1 0x0 DUP4 MLOAD SUB PUSH2 0x2CC1 JUMPI PUSH2 0x2C81 DUP6 PUSH2 0x2CDC JUMP JUMPDEST PUSH2 0x2CC0 JUMPI PUSH1 0x40 MLOAD PUSH32 0x8C379A000000000000000000000000000000000000000000000000000000000 DUP2 MSTORE PUSH1 0x4 ADD PUSH2 0x2CB7 SWAP1 PUSH2 0x43DF JUMP JUMPDEST PUSH1 0x40 MLOAD DUP1 SWAP2 SUB SWAP1 REVERT JUMPDEST JUMPDEST DUP3 SWAP1 POP PUSH2 0x2CD4 JUMP JUMPDEST PUSH2 0x2CD3 DUP4 DUP4 PUSH2 0x2CFF JUMP JUMPDEST JUMPDEST SWAP5 SWAP4 POP POP POP POP JUMP JUMPDEST PUSH1 0x0 DUP1 DUP3 PUSH20 0xFFFFFFFFFFFFFFFFFFFFFFFFFFFFFFFFFFFFFFFF AND EXTCODESIZE GT SWAP1 POP SWAP2 SWAP1 POP JUMP JUMPDEST PUSH1 0x0 DUP3 MLOAD GT ISZERO PUSH2 0x2D12 JUMPI DUP2 MLOAD DUP1 DUP4 PUSH1 0x20 ADD REVERT JUMPDEST DUP1 PUSH1 0x40 MLOAD PUSH32 0x8C379A000000000000000000000000000000000000000000000000000000000 DUP2 MSTORE PUSH1 0x4 ADD PUSH2 0x2D46 SWAP2 SWAP1 PUSH2 0x4443 JUMP JUMPDEST PUSH1 0x40 MLOAD DUP1 SWAP2 SUB SWAP1 REVERT JUMPDEST DUP3 DUP1 SLOAD DUP3 DUP3 SSTORE SWAP1 PUSH1 0x0 MSTORE PUSH1 0x20 PUSH1 0x0 KECCAK256 SWAP1 DUP2 ADD SWAP3 DUP3 ISZERO PUSH2 0x2D8B JUMPI SWAP2 PUSH1 0x20 MUL DUP3 ADD JUMPDEST DUP3 DUP2 GT ISZERO PUSH2 0x2D8A JUMPI DUP3 MLOAD DUP3 SSTORE SWAP2 PUSH1 0x20 ADD SWAP2 SWAP1 PUSH1 0x1 ADD SWAP1 PUSH2 0x2D6F JUMP JUMPDEST JUMPDEST POP SWAP1 POP PUSH2 0x2D98 SWAP2 SWAP1 PUSH2 0x2E26 JUMP JUMPDEST POP SWAP1 JUMP JUMPDEST DUP3 DUP1 SLOAD DUP3 DUP3 SSTORE SWAP1 PUSH1 0x0 MSTORE PUSH1 0x20 PUSH1 0x0 KECCAK256 SWAP1 DUP2 ADD SWAP3 DUP3 ISZERO PUSH2 0x2E15 JUMPI SWAP2 PUSH1 0x20 MUL DUP3 ADD JUMPDEST DUP3 DUP2 GT ISZERO PUSH2 0x2E14 JUMPI DUP3 MLOAD DUP3 PUSH1 0x0 PUSH2 0x100 EXP DUP2 SLOAD DUP2 PUSH20 0xFFFFFFFFFFFFFFFFFFFFFFFFFFFFFFFFFFFFFFFF MUL NOT AND SWAP1 DUP4 PUSH20 0xFFFFFFFFFFFFFFFFFFFFFFFFFFFFFFFFFFFFFFFF AND MUL OR SWAP1 SSTORE POP SWAP2 PUSH1 0x20 ADD SWAP2 SWAP1 PUSH1 0x1 ADD SWAP1 PUSH2 0x2DBC JUMP JUMPDEST JUMPDEST POP SWAP1 POP PUSH2 0x2E22 SWAP2 SWAP1 PUSH2 0x2E26 JUMP JUMPDEST POP SWAP1 JUMP JUMPDEST JUMPDEST DUP1 DUP3 GT ISZERO PUSH2 0x2E3F JUMPI PUSH1 0x0 DUP2 PUSH1 0x0 SWAP1 SSTORE POP PUSH1 0x1 ADD PUSH2 0x2E27 JUMP JUMPDEST POP SWAP1 JUMP JUMPDEST PUSH1 0x0 PUSH1 0x40 MLOAD SWAP1 POP SWAP1 JUMP JUMPDEST PUSH1 0x0 DUP1 REVERT JUMPDEST PUSH1 0x0 DUP1 REVERT JUMPDEST PUSH1 0x0 DUP2 SWAP1 POP SWAP2 SWAP1 POP JUMP JUMPDEST PUSH2 0x2E6A DUP2 PUSH2 0x2E57 JUMP JUMPDEST DUP2 EQ PUSH2 0x2E75 JUMPI PUSH1 0x0 DUP1 REVERT JUMPDEST POP JUMP JUMPDEST PUSH1 0x0 DUP2 CALLDATALOAD SWAP1 POP PUSH2 0x2E87 DUP2 PUSH2 0x2E61 JUMP JUMPDEST SWAP3 SWAP2 POP POP JUMP JUMPDEST PUSH1 0x0 DUP1 REVERT JUMPDEST PUSH1 0x0 PUSH1 0x1F NOT PUSH1 0x1F DUP4 ADD AND SWAP1 POP SWAP2 SWAP1 POP JUMP JUMPDEST PUSH32 0x4E487B7100000000000000000000000000000000000000000000000000000000 PUSH1 0x0 MSTORE PUSH1 0x41 PUSH1 0x4 MSTORE PUSH1 0x24 PUSH1 0x0 REVERT JUMPDEST PUSH2 0x2EDB DUP3 PUSH2 0x2E92 JUMP JUMPDEST DUP2 ADD DUP2 DUP2 LT PUSH8 0xFFFFFFFFFFFFFFFF DUP3 GT OR ISZERO PUSH2 0x2EFA JUMPI PUSH2 0x2EF9 PUSH2 0x2EA3 JUMP JUMPDEST JUMPDEST DUP1 PUSH1 0x40 MSTORE POP POP POP JUMP JUMPDEST PUSH1 0x0 PUSH2 0x2F0D PUSH2 0x2E43 JUMP JUMPDEST SWAP1 POP PUSH2 0x2F19 DUP3 DUP3 PUSH2 0x2ED2 JUMP JUMPDEST SWAP2 SWAP1 POP JUMP JUMPDEST PUSH1 0x0 PUSH8 0xFFFFFFFFFFFFFFFF DUP3 GT ISZERO PUSH2 0x2F39 JUMPI PUSH2 0x2F38 PUSH2 0x2EA3 JUMP JUMPDEST JUMPDEST PUSH1 0x20 DUP3 MUL SWAP1 POP PUSH1 0x20 DUP2 ADD SWAP1 POP SWAP2 SWAP1 POP JUMP JUMPDEST PUSH1 0x0 DUP1 REVERT JUMPDEST PUSH1 0x0 PUSH20 0xFFFFFFFFFFFFFFFFFFFFFFFFFFFFFFFFFFFFFFFF DUP3 AND SWAP1 POP SWAP2 SWAP1 POP JUMP JUMPDEST PUSH1 0x0 PUSH2 0x2F7A DUP3 PUSH2 0x2F4F JUMP JUMPDEST SWAP1 POP SWAP2 SWAP1 POP JUMP JUMPDEST PUSH2 0x2F8A DUP2 PUSH2 0x2F6F JUMP JUMPDEST DUP2 EQ PUSH2 0x2F95 JUMPI PUSH1 0x0 DUP1 REVERT JUMPDEST POP JUMP JUMPDEST PUSH1 0x0 DUP2 CALLDATALOAD SWAP1 POP PUSH2 0x2FA7 DUP2 PUSH2 0x2F81 JUMP JUMPDEST SWAP3 SWAP2 POP POP JUMP JUMPDEST PUSH1 0x0 PUSH2 0x2FC0 PUSH2 0x2FBB DUP5 PUSH2 0x2F1E JUMP JUMPDEST PUSH2 0x2F03 JUMP JUMPDEST SWAP1 POP DUP1 DUP4 DUP3 MSTORE PUSH1 0x20 DUP3 ADD SWAP1 POP PUSH1 0x20 DUP5 MUL DUP4 ADD DUP6 DUP2 GT ISZERO PUSH2 0x2FE3 JUMPI PUSH2 0x2FE2 PUSH2 0x2F4A JUMP JUMPDEST JUMPDEST DUP4 JUMPDEST DUP2 DUP2 LT ISZERO PUSH2 0x300C JUMPI DUP1 PUSH2 0x2FF8 DUP9 DUP3 PUSH2 0x2F98 JUMP JUMPDEST DUP5 MSTORE PUSH1 0x20 DUP5 ADD SWAP4 POP POP PUSH1 0x20 DUP2 ADD SWAP1 POP PUSH2 0x2FE5 JUMP JUMPDEST POP POP POP SWAP4 SWAP3 POP POP POP JUMP JUMPDEST PUSH1 0x0 DUP3 PUSH1 0x1F DUP4 ADD SLT PUSH2 0x302B JUMPI PUSH2 0x302A PUSH2 0x2E8D JUMP JUMPDEST JUMPDEST DUP2 CALLDATALOAD PUSH2 0x303B DUP5 DUP3 PUSH1 0x20 DUP7 ADD PUSH2 0x2FAD JUMP JUMPDEST SWAP2 POP POP SWAP3 SWAP2 POP POP JUMP JUMPDEST PUSH1 0x0 PUSH8 0xFFFFFFFFFFFFFFFF DUP3 GT ISZERO PUSH2 0x305F JUMPI PUSH2 0x305E PUSH2 0x2EA3 JUMP JUMPDEST JUMPDEST PUSH1 0x20 DUP3 MUL SWAP1 POP PUSH1 0x20 DUP2 ADD SWAP1 POP SWAP2 SWAP1 POP JUMP JUMPDEST PUSH1 0x0 PUSH2 0x3083 PUSH2 0x307E DUP5 PUSH2 0x3044 JUMP JUMPDEST PUSH2 0x2F03 JUMP JUMPDEST SWAP1 POP DUP1 DUP4 DUP3 MSTORE PUSH1 0x20 DUP3 ADD SWAP1 POP PUSH1 0x20 DUP5 MUL DUP4 ADD DUP6 DUP2 GT ISZERO PUSH2 0x30A6 JUMPI PUSH2 0x30A5 PUSH2 0x2F4A JUMP JUMPDEST JUMPDEST DUP4 JUMPDEST DUP2 DUP2 LT ISZERO PUSH2 0x30CF JUMPI DUP1 PUSH2 0x30BB DUP9 DUP3 PUSH2 0x2E78 JUMP JUMPDEST DUP5 MSTORE PUSH1 0x20 DUP5 ADD SWAP4 POP POP PUSH1 0x20 DUP2 ADD SWAP1 POP PUSH2 0x30A8 JUMP JUMPDEST POP POP POP SWAP4 SWAP3 POP POP POP JUMP JUMPDEST PUSH1 0x0 DUP3 PUSH1 0x1F DUP4 ADD SLT PUSH2 0x30EE JUMPI PUSH2 0x30ED PUSH2 0x2E8D JUMP JUMPDEST JUMPDEST DUP2 CALLDATALOAD PUSH2 0x30FE DUP5 DUP3 PUSH1 0x20 DUP7 ADD PUSH2 0x3070 JUMP JUMPDEST SWAP2 POP POP SWAP3 SWAP2 POP POP JUMP JUMPDEST PUSH1 0x0 DUP1 PUSH1 0x0 PUSH1 0x60 DUP5 DUP7 SUB SLT ISZERO PUSH2 0x3120 JUMPI PUSH2 0x311F PUSH2 0x2E4D JUMP JUMPDEST JUMPDEST PUSH1 0x0 PUSH2 0x312E DUP7 DUP3 DUP8 ADD PUSH2 0x2E78 JUMP JUMPDEST SWAP4 POP POP PUSH1 0x20 DUP5 ADD CALLDATALOAD PUSH8 0xFFFFFFFFFFFFFFFF DUP2 GT ISZERO PUSH2 0x314F JUMPI PUSH2 0x314E PUSH2 0x2E52 JUMP JUMPDEST JUMPDEST PUSH2 0x315B DUP7 DUP3 DUP8 ADD PUSH2 0x3016 JUMP JUMPDEST SWAP3 POP POP PUSH1 0x40 DUP5 ADD CALLDATALOAD PUSH8 0xFFFFFFFFFFFFFFFF DUP2 GT ISZERO PUSH2 0x317C JUMPI PUSH2 0x317B PUSH2 0x2E52 JUMP JUMPDEST JUMPDEST PUSH2 0x3188 DUP7 DUP3 DUP8 ADD PUSH2 0x30D9 JUMP JUMPDEST SWAP2 POP POP SWAP3 POP SWAP3 POP SWAP3 JUMP JUMPDEST PUSH1 0x0 PUSH1 0x20 DUP3 DUP5 SUB SLT ISZERO PUSH2 0x31A8 JUMPI PUSH2 0x31A7 PUSH2 0x2E4D JUMP JUMPDEST JUMPDEST PUSH1 0x0 PUSH2 0x31B6 DUP5 DUP3 DUP6 ADD PUSH2 0x2E78 JUMP JUMPDEST SWAP2 POP POP SWAP3 SWAP2 POP POP JUMP JUMPDEST PUSH2 0x31C8 DUP2 PUSH2 0x2F6F JUMP JUMPDEST DUP3 MSTORE POP POP JUMP JUMPDEST PUSH2 0x31D7 DUP2 PUSH2 0x2E57 JUMP JUMPDEST DUP3 MSTORE POP POP JUMP JUMPDEST PUSH1 0x0 DUP2 ISZERO ISZERO SWAP1 POP SWAP2 SWAP1 POP JUMP JUMPDEST PUSH2 0x31F2 DUP2 PUSH2 0x31DD JUMP JUMPDEST DUP3 MSTORE POP POP JUMP JUMPDEST PUSH1 0x0 DUP2 MLOAD SWAP1 POP SWAP2 SWAP1 POP JUMP JUMPDEST PUSH1 0x0 DUP3 DUP3 MSTORE PUSH1 0x20 DUP3 ADD SWAP1 POP SWAP3 SWAP2 POP POP JUMP JUMPDEST PUSH1 0x0 DUP2 SWAP1 POP PUSH1 0x20 DUP3 ADD SWAP1 POP SWAP2 SWAP1 POP JUMP JUMPDEST PUSH2 0x322D DUP2 PUSH2 0x2E57 JUMP JUMPDEST DUP3 MSTORE POP POP JUMP JUMPDEST PUSH1 0x0 PUSH2 0x323F DUP4 DUP4 PUSH2 0x3224 JUMP JUMPDEST PUSH1 0x20 DUP4 ADD SWAP1 POP SWAP3 SWAP2 POP POP JUMP JUMPDEST PUSH1 0x0 PUSH1 0x20 DUP3 ADD SWAP1 POP SWAP2 SWAP1 POP JUMP JUMPDEST PUSH1 0x0 PUSH2 0x3263 DUP3 PUSH2 0x31F8 JUMP JUMPDEST PUSH2 0x326D DUP2 DUP6 PUSH2 0x3203 JUMP JUMPDEST SWAP4 POP PUSH2 0x3278 DUP4 PUSH2 0x3214 JUMP JUMPDEST DUP1 PUSH1 0x0 JUMPDEST DUP4 DUP2 LT ISZERO PUSH2 0x32A9 JUMPI DUP2 MLOAD PUSH2 0x3290 DUP9 DUP3 PUSH2 0x3233 JUMP JUMPDEST SWAP8 POP PUSH2 0x329B DUP4 PUSH2 0x324B JUMP JUMPDEST SWAP3 POP POP PUSH1 0x1 DUP2 ADD SWAP1 POP PUSH2 0x327C JUMP JUMPDEST POP DUP6 SWAP4 POP POP POP POP SWAP3 SWAP2 POP POP JUMP JUMPDEST PUSH1 0x0 DUP2 MLOAD SWAP1 POP SWAP2 SWAP1 POP JUMP JUMPDEST PUSH1 0x0 DUP3 DUP3 MSTORE PUSH1 0x20 DUP3 ADD SWAP1 POP SWAP3 SWAP2 POP POP JUMP JUMPDEST PUSH1 0x0 DUP2 SWAP1 POP PUSH1 0x20 DUP3 ADD SWAP1 POP SWAP2 SWAP1 POP JUMP JUMPDEST PUSH2 0x32EB DUP2 PUSH2 0x2F6F JUMP JUMPDEST DUP3 MSTORE POP POP JUMP JUMPDEST PUSH1 0x0 PUSH2 0x32FD DUP4 DUP4 PUSH2 0x32E2 JUMP JUMPDEST PUSH1 0x20 DUP4 ADD SWAP1 POP SWAP3 SWAP2 POP POP JUMP JUMPDEST PUSH1 0x0 PUSH1 0x20 DUP3 ADD SWAP1 POP SWAP2 SWAP1 POP JUMP JUMPDEST PUSH1 0x0 PUSH2 0x3321 DUP3 PUSH2 0x32B6 JUMP JUMPDEST PUSH2 0x332B DUP2 DUP6 PUSH2 0x32C1 JUMP JUMPDEST SWAP4 POP PUSH2 0x3336 DUP4 PUSH2 0x32D2 JUMP JUMPDEST DUP1 PUSH1 0x0 JUMPDEST DUP4 DUP2 LT ISZERO PUSH2 0x3367 JUMPI DUP2 MLOAD PUSH2 0x334E DUP9 DUP3 PUSH2 0x32F1 JUMP JUMPDEST SWAP8 POP PUSH2 0x3359 DUP4 PUSH2 0x3309 JUMP JUMPDEST SWAP3 POP POP PUSH1 0x1 DUP2 ADD SWAP1 POP PUSH2 0x333A JUMP JUMPDEST POP DUP6 SWAP4 POP POP POP POP SWAP3 SWAP2 POP POP JUMP JUMPDEST PUSH1 0x0 PUSH2 0x120 DUP3 ADD SWAP1 POP PUSH2 0x338A PUSH1 0x0 DUP4 ADD DUP13 PUSH2 0x31BF JUMP JUMPDEST PUSH2 0x3397 PUSH1 0x20 DUP4 ADD DUP12 PUSH2 0x31CE JUMP JUMPDEST PUSH2 0x33A4 PUSH1 0x40 DUP4 ADD DUP11 PUSH2 0x31CE JUMP JUMPDEST PUSH2 0x33B1 PUSH1 0x60 DUP4 ADD DUP10 PUSH2 0x31CE JUMP JUMPDEST PUSH2 0x33BE PUSH1 0x80 DUP4 ADD DUP9 PUSH2 0x31E9 JUMP JUMPDEST DUP2 DUP2 SUB PUSH1 0xA0 DUP4 ADD MSTORE PUSH2 0x33D0 DUP2 DUP8 PUSH2 0x3258 JUMP JUMPDEST SWAP1 POP DUP2 DUP2 SUB PUSH1 0xC0 DUP4 ADD MSTORE PUSH2 0x33E4 DUP2 DUP7 PUSH2 0x3258 JUMP JUMPDEST SWAP1 POP DUP2 DUP2 SUB PUSH1 0xE0 DUP4 ADD MSTORE PUSH2 0x33F8 DUP2 DUP6 PUSH2 0x3316 JUMP JUMPDEST SWAP1 POP DUP2 DUP2 SUB PUSH2 0x100 DUP4 ADD MSTORE PUSH2 0x340D DUP2 DUP5 PUSH2 0x3258 JUMP JUMPDEST SWAP1 POP SWAP11 SWAP10 POP POP POP POP POP POP POP POP POP POP JUMP JUMPDEST PUSH1 0x0 PUSH1 0x20 DUP3 ADD SWAP1 POP PUSH2 0x3432 PUSH1 0x0 DUP4 ADD DUP5 PUSH2 0x31CE JUMP JUMPDEST SWAP3 SWAP2 POP POP JUMP JUMPDEST PUSH1 0x0 DUP1 PUSH1 0x40 DUP4 DUP6 SUB SLT ISZERO PUSH2 0x344F JUMPI PUSH2 0x344E PUSH2 0x2E4D JUMP JUMPDEST JUMPDEST PUSH1 0x0 PUSH2 0x345D DUP6 DUP3 DUP7 ADD PUSH2 0x2E78 JUMP JUMPDEST SWAP3 POP POP PUSH1 0x20 DUP4 ADD CALLDATALOAD PUSH8 0xFFFFFFFFFFFFFFFF DUP2 GT ISZERO PUSH2 0x347E JUMPI PUSH2 0x347D PUSH2 0x2E52 JUMP JUMPDEST JUMPDEST PUSH2 0x348A DUP6 DUP3 DUP7 ADD PUSH2 0x30D9 JUMP JUMPDEST SWAP2 POP POP SWAP3 POP SWAP3 SWAP1 POP JUMP JUMPDEST PUSH1 0x0 DUP1 PUSH1 0x0 DUP1 PUSH1 0x0 DUP1 PUSH1 0xC0 DUP8 DUP10 SUB SLT ISZERO PUSH2 0x34B1 JUMPI PUSH2 0x34B0 PUSH2 0x2E4D JUMP JUMPDEST JUMPDEST PUSH1 0x0 PUSH2 0x34BF DUP10 DUP3 DUP11 ADD PUSH2 0x2F98 JUMP JUMPDEST SWAP7 POP POP PUSH1 0x20 PUSH2 0x34D0 DUP10 DUP3 DUP11 ADD PUSH2 0x2E78 JUMP JUMPDEST SWAP6 POP POP PUSH1 0x40 PUSH2 0x34E1 DUP10 DUP3 DUP11 ADD PUSH2 0x2E78 JUMP JUMPDEST SWAP5 POP POP PUSH1 0x60 DUP8 ADD CALLDATALOAD PUSH8 0xFFFFFFFFFFFFFFFF DUP2 GT ISZERO PUSH2 0x3502 JUMPI PUSH2 0x3501 PUSH2 0x2E52 JUMP JUMPDEST JUMPDEST PUSH2 0x350E DUP10 DUP3 DUP11 ADD PUSH2 0x30D9 JUMP JUMPDEST SWAP4 POP POP PUSH1 0x80 DUP8 ADD CALLDATALOAD PUSH8 0xFFFFFFFFFFFFFFFF DUP2 GT ISZERO PUSH2 0x352F JUMPI PUSH2 0x352E PUSH2 0x2E52 JUMP JUMPDEST JUMPDEST PUSH2 0x353B DUP10 DUP3 DUP11 ADD PUSH2 0x3016 JUMP JUMPDEST SWAP3 POP POP PUSH1 0xA0 DUP8 ADD CALLDATALOAD PUSH8 0xFFFFFFFFFFFFFFFF DUP2 GT ISZERO PUSH2 0x355C JUMPI PUSH2 0x355B PUSH2 0x2E52 JUMP JUMPDEST JUMPDEST PUSH2 0x3568 DUP10 DUP3 DUP11 ADD PUSH2 0x30D9 JUMP JUMPDEST SWAP2 POP POP SWAP3 SWAP6 POP SWAP3 SWAP6 POP SWAP3 SWAP6 JUMP JUMPDEST PUSH1 0x0 PUSH2 0x140 DUP3 ADD SWAP1 POP PUSH2 0x358B PUSH1 0x0 DUP4 ADD DUP14 PUSH2 0x31BF JUMP JUMPDEST PUSH2 0x3598 PUSH1 0x20 DUP4 ADD DUP13 PUSH2 0x31CE JUMP JUMPDEST PUSH2 0x35A5 PUSH1 0x40 DUP4 ADD DUP12 PUSH2 0x31CE JUMP JUMPDEST PUSH2 0x35B2 PUSH1 0x60 DUP4 ADD DUP11 PUSH2 0x31CE JUMP JUMPDEST PUSH2 0x35BF PUSH1 0x80 DUP4 ADD DUP10 PUSH2 0x31CE JUMP JUMPDEST PUSH2 0x35CC PUSH1 0xA0 DUP4 ADD DUP9 PUSH2 0x31BF JUMP JUMPDEST PUSH2 0x35D9 PUSH1 0xC0 DUP4 ADD DUP8 PUSH2 0x31CE JUMP JUMPDEST PUSH2 0x35E6 PUSH1 0xE0 DUP4 ADD DUP7 PUSH2 0x31E9 JUMP JUMPDEST PUSH2 0x35F4 PUSH2 0x100 DUP4 ADD DUP6 PUSH2 0x31E9 JUMP JUMPDEST PUSH2 0x3602 PUSH2 0x120 DUP4 ADD DUP5 PUSH2 0x31E9 JUMP JUMPDEST SWAP12 SWAP11 POP POP POP POP POP POP POP POP POP POP POP JUMP JUMPDEST PUSH2 0x361A DUP2 PUSH2 0x31DD JUMP JUMPDEST DUP2 EQ PUSH2 0x3625 JUMPI PUSH1 0x0 DUP1 REVERT JUMPDEST POP JUMP JUMPDEST PUSH1 0x0 DUP2 CALLDATALOAD SWAP1 POP PUSH2 0x3637 DUP2 PUSH2 0x3611 JUMP JUMPDEST SWAP3 SWAP2 POP POP JUMP JUMPDEST PUSH1 0x0 PUSH1 0x20 DUP3 DUP5 SUB SLT ISZERO PUSH2 0x3653 JUMPI PUSH2 0x3652 PUSH2 0x2E4D JUMP JUMPDEST JUMPDEST PUSH1 0x0 PUSH2 0x3661 DUP5 DUP3 DUP6 ADD PUSH2 0x3628 JUMP JUMPDEST SWAP2 POP POP SWAP3 SWAP2 POP POP JUMP JUMPDEST PUSH1 0x0 DUP3 DUP3 MSTORE PUSH1 0x20 DUP3 ADD SWAP1 POP SWAP3 SWAP2 POP POP JUMP JUMPDEST PUSH32 0x4174206C65617374206F6E6520746F6B656E2061646472657373000000000000 PUSH1 0x0 DUP3 ADD MSTORE POP JUMP JUMPDEST PUSH1 0x0 PUSH2 0x36B1 PUSH1 0x1A DUP4 PUSH2 0x366A JUMP JUMPDEST SWAP2 POP PUSH2 0x36BC DUP3 PUSH2 0x367B JUMP JUMPDEST PUSH1 0x20 DUP3 ADD SWAP1 POP SWAP2 SWAP1 POP JUMP JUMPDEST PUSH1 0x0 PUSH1 0x20 DUP3 ADD SWAP1 POP DUP2 DUP2 SUB PUSH1 0x0 DUP4 ADD MSTORE PUSH2 0x36E0 DUP2 PUSH2 0x36A4 JUMP JUMPDEST SWAP1 POP SWAP2 SWAP1 POP JUMP JUMPDEST PUSH32 0x496E636F727265637420706172616D6574657200000000000000000000000000 PUSH1 0x0 DUP3 ADD MSTORE POP JUMP JUMPDEST PUSH1 0x0 PUSH2 0x371D PUSH1 0x13 DUP4 PUSH2 0x366A JUMP JUMPDEST SWAP2 POP PUSH2 0x3728 DUP3 PUSH2 0x36E7 JUMP JUMPDEST PUSH1 0x20 DUP3 ADD SWAP1 POP SWAP2 SWAP1 POP JUMP JUMPDEST PUSH1 0x0 PUSH1 0x20 DUP3 ADD SWAP1 POP DUP2 DUP2 SUB PUSH1 0x0 DUP4 ADD MSTORE PUSH2 0x374C DUP2 PUSH2 0x3710 JUMP JUMPDEST SWAP1 POP SWAP2 SWAP1 POP JUMP JUMPDEST PUSH32 0x4E487B7100000000000000000000000000000000000000000000000000000000 PUSH1 0x0 MSTORE PUSH1 0x32 PUSH1 0x4 MSTORE PUSH1 0x24 PUSH1 0x0 REVERT JUMPDEST PUSH32 0x696E73756666696369656E7420636F696E2076616C7565000000000000000000 PUSH1 0x0 DUP3 ADD MSTORE POP JUMP JUMPDEST PUSH1 0x0 PUSH2 0x37B8 PUSH1 0x17 DUP4 PUSH2 0x366A JUMP JUMPDEST SWAP2 POP PUSH2 0x37C3 DUP3 PUSH2 0x3782 JUMP JUMPDEST PUSH1 0x20 DUP3 ADD SWAP1 POP SWAP2 SWAP1 POP JUMP JUMPDEST PUSH1 0x0 PUSH1 0x20 DUP3 ADD SWAP1 POP DUP2 DUP2 SUB PUSH1 0x0 DUP4 ADD MSTORE PUSH2 0x37E7 DUP2 PUSH2 0x37AB JUMP JUMPDEST SWAP1 POP SWAP2 SWAP1 POP JUMP JUMPDEST PUSH32 0x4E487B7100000000000000000000000000000000000000000000000000000000 PUSH1 0x0 MSTORE PUSH1 0x11 PUSH1 0x4 MSTORE PUSH1 0x24 PUSH1 0x0 REVERT JUMPDEST PUSH1 0x0 PUSH2 0x3828 DUP3 PUSH2 0x2E57 JUMP JUMPDEST SWAP2 POP PUSH2 0x3833 DUP4 PUSH2 0x2E57 JUMP JUMPDEST SWAP3 POP DUP3 DUP3 ADD SWAP1 POP DUP1 DUP3 GT ISZERO PUSH2 0x384B JUMPI PUSH2 0x384A PUSH2 0x37EE JUMP JUMPDEST JUMPDEST SWAP3 SWAP2 POP POP JUMP JUMPDEST PUSH1 0x0 PUSH2 0x385C DUP3 PUSH2 0x2E57 JUMP JUMPDEST SWAP2 POP PUSH32 0xFFFFFFFFFFFFFFFFFFFFFFFFFFFFFFFFFFFFFFFFFFFFFFFFFFFFFFFFFFFFFFFF DUP3 SUB PUSH2 0x388E JUMPI PUSH2 0x388D PUSH2 0x37EE JUMP JUMPDEST JUMPDEST PUSH1 0x1 DUP3 ADD SWAP1 POP SWAP2 SWAP1 POP JUMP JUMPDEST PUSH32 0x72657175657374206E6F7420666F756E64000000000000000000000000000000 PUSH1 0x0 DUP3 ADD MSTORE POP JUMP JUMPDEST PUSH1 0x0 PUSH2 0x38CF PUSH1 0x11 DUP4 PUSH2 0x366A JUMP JUMPDEST SWAP2 POP PUSH2 0x38DA DUP3 PUSH2 0x3899 JUMP JUMPDEST PUSH1 0x20 DUP3 ADD SWAP1 POP SWAP2 SWAP1 POP JUMP JUMPDEST PUSH1 0x0 PUSH1 0x20 DUP3 ADD SWAP1 POP DUP2 DUP2 SUB PUSH1 0x0 DUP4 ADD MSTORE PUSH2 0x38FE DUP2 PUSH2 0x38C2 JUMP JUMPDEST SWAP1 POP SWAP2 SWAP1 POP JUMP JUMPDEST PUSH1 0x0 DUP2 PUSH1 0x60 SHL SWAP1 POP SWAP2 SWAP1 POP JUMP JUMPDEST PUSH1 0x0 PUSH2 0x391D DUP3 PUSH2 0x3905 JUMP JUMPDEST SWAP1 POP SWAP2 SWAP1 POP JUMP JUMPDEST PUSH1 0x0 PUSH2 0x392F DUP3 PUSH2 0x3912 JUMP JUMPDEST SWAP1 POP SWAP2 SWAP1 POP JUMP JUMPDEST PUSH2 0x3947 PUSH2 0x3942 DUP3 PUSH2 0x2F6F JUMP JUMPDEST PUSH2 0x3924 JUMP JUMPDEST DUP3 MSTORE POP POP JUMP JUMPDEST PUSH1 0x0 DUP2 SWAP1 POP SWAP2 SWAP1 POP JUMP JUMPDEST PUSH2 0x3968 PUSH2 0x3963 DUP3 PUSH2 0x2E57 JUMP JUMPDEST PUSH2 0x394D JUMP JUMPDEST DUP3 MSTORE POP POP JUMP JUMPDEST PUSH1 0x0 PUSH2 0x397A DUP3 DUP7 PUSH2 0x3936 JUMP JUMPDEST PUSH1 0x14 DUP3 ADD SWAP2 POP PUSH2 0x398A DUP3 DUP6 PUSH2 0x3957 JUMP JUMPDEST PUSH1 0x20 DUP3 ADD SWAP2 POP PUSH2 0x399A DUP3 DUP5 PUSH2 0x3957 JUMP JUMPDEST PUSH1 0x20 DUP3 ADD SWAP2 POP DUP2 SWAP1 POP SWAP5 SWAP4 POP POP POP POP JUMP JUMPDEST PUSH1 0x0 PUSH2 0x39B6 DUP3 PUSH2 0x2E57 JUMP JUMPDEST SWAP2 POP PUSH2 0x39C1 DUP4 PUSH2 0x2E57 JUMP JUMPDEST SWAP3 POP DUP3 DUP3 SUB SWAP1 POP DUP2 DUP2 GT ISZERO PUSH2 0x39D9 JUMPI PUSH2 0x39D8 PUSH2 0x37EE JUMP JUMPDEST JUMPDEST SWAP3 SWAP2 POP POP JUMP JUMPDEST PUSH32 0x4E6F74206D797374657279206F776E6572000000000000000000000000000000 PUSH1 0x0 DUP3 ADD MSTORE POP JUMP JUMPDEST PUSH1 0x0 PUSH2 0x3A15 PUSH1 0x11 DUP4 PUSH2 0x366A JUMP JUMPDEST SWAP2 POP PUSH2 0x3A20 DUP3 PUSH2 0x39DF JUMP JUMPDEST PUSH1 0x20 DUP3 ADD SWAP1 POP SWAP2 SWAP1 POP JUMP JUMPDEST PUSH1 0x0 PUSH1 0x20 DUP3 ADD SWAP1 POP DUP2 DUP2 SUB PUSH1 0x0 DUP4 ADD MSTORE PUSH2 0x3A44 DUP2 PUSH2 0x3A08 JUMP JUMPDEST SWAP1 POP SWAP2 SWAP1 POP JUMP JUMPDEST PUSH32 0x4D79737465727920686173206E6F742070617373656420746865207265766965 PUSH1 0x0 DUP3 ADD MSTORE PUSH32 0x7700000000000000000000000000000000000000000000000000000000000000 PUSH1 0x20 DUP3 ADD MSTORE POP JUMP JUMPDEST PUSH1 0x0 PUSH2 0x3AA7 PUSH1 0x21 DUP4 PUSH2 0x366A JUMP JUMPDEST SWAP2 POP PUSH2 0x3AB2 DUP3 PUSH2 0x3A4B JUMP JUMPDEST PUSH1 0x40 DUP3 ADD SWAP1 POP SWAP2 SWAP1 POP JUMP JUMPDEST PUSH1 0x0 PUSH1 0x20 DUP3 ADD SWAP1 POP DUP2 DUP2 SUB PUSH1 0x0 DUP4 ADD MSTORE PUSH2 0x3AD6 DUP2 PUSH2 0x3A9A JUMP JUMPDEST SWAP1 POP SWAP2 SWAP1 POP JUMP JUMPDEST PUSH32 0x496E73756666696369656E742073746F636B7300000000000000000000000000 PUSH1 0x0 DUP3 ADD MSTORE POP JUMP JUMPDEST PUSH1 0x0 PUSH2 0x3B13 PUSH1 0x13 DUP4 PUSH2 0x366A JUMP JUMPDEST SWAP2 POP PUSH2 0x3B1E DUP3 PUSH2 0x3ADD JUMP JUMPDEST PUSH1 0x20 DUP3 ADD SWAP1 POP SWAP2 SWAP1 POP JUMP JUMPDEST PUSH1 0x0 PUSH1 0x20 DUP3 ADD SWAP1 POP DUP2 DUP2 SUB PUSH1 0x0 DUP4 ADD MSTORE PUSH2 0x3B42 DUP2 PUSH2 0x3B06 JUMP JUMPDEST SWAP1 POP SWAP2 SWAP1 POP JUMP JUMPDEST PUSH32 0x496E73756666696369656E7420636F696E2076616C7565000000000000000000 PUSH1 0x0 DUP3 ADD MSTORE POP JUMP JUMPDEST PUSH1 0x0 PUSH2 0x3B7F PUSH1 0x17 DUP4 PUSH2 0x366A JUMP JUMPDEST SWAP2 POP PUSH2 0x3B8A DUP3 PUSH2 0x3B49 JUMP JUMPDEST PUSH1 0x20 DUP3 ADD SWAP1 POP SWAP2 SWAP1 POP JUMP JUMPDEST PUSH1 0x0 PUSH1 0x20 DUP3 ADD SWAP1 POP DUP2 DUP2 SUB PUSH1 0x0 DUP4 ADD MSTORE PUSH2 0x3BAE DUP2 PUSH2 0x3B72 JUMP JUMPDEST SWAP1 POP SWAP2 SWAP1 POP JUMP JUMPDEST PUSH1 0x0 PUSH2 0x3BC0 DUP3 PUSH2 0x2E57 JUMP JUMPDEST SWAP2 POP PUSH1 0x0 DUP3 SUB PUSH2 0x3BD3 JUMPI PUSH2 0x3BD2 PUSH2 0x37EE JUMP JUMPDEST JUMPDEST PUSH1 0x1 DUP3 SUB SWAP1 POP SWAP2 SWAP1 POP JUMP JUMPDEST PUSH32 0x696E636F727265637420626F7820696400000000000000000000000000000000 PUSH1 0x0 DUP3 ADD MSTORE POP JUMP JUMPDEST PUSH1 0x0 PUSH2 0x3C14 PUSH1 0x10 DUP4 PUSH2 0x366A JUMP JUMPDEST SWAP2 POP PUSH2 0x3C1F DUP3 PUSH2 0x3BDE JUMP JUMPDEST PUSH1 0x20 DUP3 ADD SWAP1 POP SWAP2 SWAP1 POP JUMP JUMPDEST PUSH1 0x0 PUSH1 0x20 DUP3 ADD SWAP1 POP DUP2 DUP2 SUB PUSH1 0x0 DUP4 ADD MSTORE PUSH2 0x3C43 DUP2 PUSH2 0x3C07 JUMP JUMPDEST SWAP1 POP SWAP2 SWAP1 POP JUMP JUMPDEST PUSH32 0x4D79737465727920626F7820616C726561647920636865636B65640000000000 PUSH1 0x0 DUP3 ADD MSTORE POP JUMP JUMPDEST PUSH1 0x0 PUSH2 0x3C80 PUSH1 0x1B DUP4 PUSH2 0x366A JUMP JUMPDEST SWAP2 POP PUSH2 0x3C8B DUP3 PUSH2 0x3C4A JUMP JUMPDEST PUSH1 0x20 DUP3 ADD SWAP1 POP SWAP2 SWAP1 POP JUMP JUMPDEST PUSH1 0x0 PUSH1 0x20 DUP3 ADD SWAP1 POP DUP2 DUP2 SUB PUSH1 0x0 DUP4 ADD MSTORE PUSH2 0x3CAF DUP2 PUSH2 0x3C73 JUMP JUMPDEST SWAP1 POP SWAP2 SWAP1 POP JUMP JUMPDEST PUSH32 0x7072696365206D757374203E2030000000000000000000000000000000000000 PUSH1 0x0 DUP3 ADD MSTORE POP JUMP JUMPDEST PUSH1 0x0 PUSH2 0x3CEC PUSH1 0xE DUP4 PUSH2 0x366A JUMP JUMPDEST SWAP2 POP PUSH2 0x3CF7 DUP3 PUSH2 0x3CB6 JUMP JUMPDEST PUSH1 0x20 DUP3 ADD SWAP1 POP SWAP2 SWAP1 POP JUMP JUMPDEST PUSH1 0x0 PUSH1 0x20 DUP3 ADD SWAP1 POP DUP2 DUP2 SUB PUSH1 0x0 DUP4 ADD MSTORE PUSH2 0x3D1B DUP2 PUSH2 0x3CDF JUMP JUMPDEST SWAP1 POP SWAP2 SWAP1 POP JUMP JUMPDEST PUSH32 0x746F74616C537570706C79206D757374203E2030000000000000000000000000 PUSH1 0x0 DUP3 ADD MSTORE POP JUMP JUMPDEST PUSH1 0x0 PUSH2 0x3D58 PUSH1 0x14 DUP4 PUSH2 0x366A JUMP JUMPDEST SWAP2 POP PUSH2 0x3D63 DUP3 PUSH2 0x3D22 JUMP JUMPDEST PUSH1 0x20 DUP3 ADD SWAP1 POP SWAP2 SWAP1 POP JUMP JUMPDEST PUSH1 0x0 PUSH1 0x20 DUP3 ADD SWAP1 POP DUP2 DUP2 SUB PUSH1 0x0 DUP4 ADD MSTORE PUSH2 0x3D87 DUP2 PUSH2 0x3D4B JUMP JUMPDEST SWAP1 POP SWAP2 SWAP1 POP JUMP JUMPDEST PUSH32 0x696E636F727265637420706172616D6574657200000000000000000000000000 PUSH1 0x0 DUP3 ADD MSTORE POP JUMP JUMPDEST PUSH1 0x0 PUSH2 0x3DC4 PUSH1 0x13 DUP4 PUSH2 0x366A JUMP JUMPDEST SWAP2 POP PUSH2 0x3DCF DUP3 PUSH2 0x3D8E JUMP JUMPDEST PUSH1 0x20 DUP3 ADD SWAP1 POP SWAP2 SWAP1 POP JUMP JUMPDEST PUSH1 0x0 PUSH1 0x20 DUP3 ADD SWAP1 POP DUP2 DUP2 SUB PUSH1 0x0 DUP4 ADD MSTORE PUSH2 0x3DF3 DUP2 PUSH2 0x3DB7 JUMP JUMPDEST SWAP1 POP SWAP2 SWAP1 POP JUMP JUMPDEST PUSH32 0x536F72742066726F6D20736D616C6C65737420746F206C617267657374000000 PUSH1 0x0 DUP3 ADD MSTORE POP JUMP JUMPDEST PUSH1 0x0 PUSH2 0x3E30 PUSH1 0x1D DUP4 PUSH2 0x366A JUMP JUMPDEST SWAP2 POP PUSH2 0x3E3B DUP3 PUSH2 0x3DFA JUMP JUMPDEST PUSH1 0x20 DUP3 ADD SWAP1 POP SWAP2 SWAP1 POP JUMP JUMPDEST PUSH1 0x0 PUSH1 0x20 DUP3 ADD SWAP1 POP DUP2 DUP2 SUB PUSH1 0x0 DUP4 ADD MSTORE PUSH2 0x3E5F DUP2 PUSH2 0x3E23 JUMP JUMPDEST SWAP1 POP SWAP2 SWAP1 POP JUMP JUMPDEST PUSH32 0x696E636F72726563742070726F626162696C6974790000000000000000000000 PUSH1 0x0 DUP3 ADD MSTORE POP JUMP JUMPDEST PUSH1 0x0 PUSH2 0x3E9C PUSH1 0x15 DUP4 PUSH2 0x366A JUMP JUMPDEST SWAP2 POP PUSH2 0x3EA7 DUP3 PUSH2 0x3E66 JUMP JUMPDEST PUSH1 0x20 DUP3 ADD SWAP1 POP SWAP2 SWAP1 POP JUMP JUMPDEST PUSH1 0x0 PUSH1 0x20 DUP3 ADD SWAP1 POP DUP2 DUP2 SUB PUSH1 0x0 DUP4 ADD MSTORE PUSH2 0x3ECB DUP2 PUSH2 0x3E8F JUMP JUMPDEST SWAP1 POP SWAP2 SWAP1 POP JUMP JUMPDEST PUSH1 0x0 PUSH2 0x3EDD DUP3 PUSH2 0x2E57 JUMP JUMPDEST SWAP2 POP PUSH2 0x3EE8 DUP4 PUSH2 0x2E57 JUMP JUMPDEST SWAP3 POP DUP3 DUP3 MUL PUSH2 0x3EF6 DUP2 PUSH2 0x2E57 JUMP JUMPDEST SWAP2 POP DUP3 DUP3 DIV DUP5 EQ DUP4 ISZERO OR PUSH2 0x3F0D JUMPI PUSH2 0x3F0C PUSH2 0x37EE JUMP JUMPDEST JUMPDEST POP SWAP3 SWAP2 POP POP JUMP JUMPDEST PUSH32 0x4E487B7100000000000000000000000000000000000000000000000000000000 PUSH1 0x0 MSTORE PUSH1 0x12 PUSH1 0x4 MSTORE PUSH1 0x24 PUSH1 0x0 REVERT JUMPDEST PUSH1 0x0 PUSH2 0x3F4E DUP3 PUSH2 0x2E57 JUMP JUMPDEST SWAP2 POP PUSH2 0x3F59 DUP4 PUSH2 0x2E57 JUMP JUMPDEST SWAP3 POP DUP3 PUSH2 0x3F69 JUMPI PUSH2 0x3F68 PUSH2 0x3F14 JUMP JUMPDEST JUMPDEST DUP3 DUP3 DIV SWAP1 POP SWAP3 SWAP2 POP POP JUMP JUMPDEST PUSH1 0x0 PUSH2 0x3F80 DUP3 DUP6 PUSH2 0x3957 JUMP JUMPDEST PUSH1 0x20 DUP3 ADD SWAP2 POP PUSH2 0x3F90 DUP3 DUP5 PUSH2 0x3936 JUMP JUMPDEST PUSH1 0x14 DUP3 ADD SWAP2 POP DUP2 SWAP1 POP SWAP4 SWAP3 POP POP POP JUMP JUMPDEST PUSH1 0x0 DUP2 SWAP1 POP SWAP2 SWAP1 POP JUMP JUMPDEST PUSH2 0x3FB3 DUP2 PUSH2 0x3FA0 JUMP JUMPDEST DUP3 MSTORE POP POP JUMP JUMPDEST PUSH1 0x0 PUSH1 0xA0 DUP3 ADD SWAP1 POP PUSH2 0x3FCE PUSH1 0x0 DUP4 ADD DUP9 PUSH2 0x31BF JUMP JUMPDEST PUSH2 0x3FDB PUSH1 0x20 DUP4 ADD DUP8 PUSH2 0x31CE JUMP JUMPDEST PUSH2 0x3FE8 PUSH1 0x40 DUP4 ADD DUP7 PUSH2 0x3FAA JUMP JUMPDEST PUSH2 0x3FF5 PUSH1 0x60 DUP4 ADD DUP6 PUSH2 0x3FAA JUMP JUMPDEST PUSH2 0x4002 PUSH1 0x80 DUP4 ADD DUP5 PUSH2 0x31CE JUMP JUMPDEST SWAP7 SWAP6 POP POP POP POP POP POP JUMP JUMPDEST PUSH1 0x0 PUSH1 0x60 DUP3 ADD SWAP1 POP PUSH2 0x4021 PUSH1 0x0 DUP4 ADD DUP7 PUSH2 0x31BF JUMP JUMPDEST PUSH2 0x402E PUSH1 0x20 DUP4 ADD DUP6 PUSH2 0x31BF JUMP JUMPDEST PUSH2 0x403B PUSH1 0x40 DUP4 ADD DUP5 PUSH2 0x31CE JUMP JUMPDEST SWAP5 SWAP4 POP POP POP POP JUMP JUMPDEST PUSH32 0x416464726573733A20696E73756666696369656E742062616C616E6365000000 PUSH1 0x0 DUP3 ADD MSTORE POP JUMP JUMPDEST PUSH1 0x0 PUSH2 0x4079 PUSH1 0x1D DUP4 PUSH2 0x366A JUMP JUMPDEST SWAP2 POP PUSH2 0x4084 DUP3 PUSH2 0x4043 JUMP JUMPDEST PUSH1 0x20 DUP3 ADD SWAP1 POP SWAP2 SWAP1 POP JUMP JUMPDEST PUSH1 0x0 PUSH1 0x20 DUP3 ADD SWAP1 POP DUP2 DUP2 SUB PUSH1 0x0 DUP4 ADD MSTORE PUSH2 0x40A8 DUP2 PUSH2 0x406C JUMP JUMPDEST SWAP1 POP SWAP2 SWAP1 POP JUMP JUMPDEST PUSH1 0x0 DUP2 SWAP1 POP SWAP3 SWAP2 POP POP JUMP JUMPDEST POP JUMP JUMPDEST PUSH1 0x0 PUSH2 0x40CA PUSH1 0x0 DUP4 PUSH2 0x40AF JUMP JUMPDEST SWAP2 POP PUSH2 0x40D5 DUP3 PUSH2 0x40BA JUMP JUMPDEST PUSH1 0x0 DUP3 ADD SWAP1 POP SWAP2 SWAP1 POP JUMP JUMPDEST PUSH1 0x0 PUSH2 0x40EB DUP3 PUSH2 0x40BD JUMP JUMPDEST SWAP2 POP DUP2 SWAP1 POP SWAP2 SWAP1 POP JUMP JUMPDEST PUSH32 0x416464726573733A20756E61626C6520746F2073656E642076616C75652C2072 PUSH1 0x0 DUP3 ADD MSTORE PUSH32 0x6563697069656E74206D61792068617665207265766572746564000000000000 PUSH1 0x20 DUP3 ADD MSTORE POP JUMP JUMPDEST PUSH1 0x0 PUSH2 0x4151 PUSH1 0x3A DUP4 PUSH2 0x366A JUMP JUMPDEST SWAP2 POP PUSH2 0x415C DUP3 PUSH2 0x40F5 JUMP JUMPDEST PUSH1 0x40 DUP3 ADD SWAP1 POP SWAP2 SWAP1 POP JUMP JUMPDEST PUSH1 0x0 PUSH1 0x20 DUP3 ADD SWAP1 POP DUP2 DUP2 SUB PUSH1 0x0 DUP4 ADD MSTORE PUSH2 0x4180 DUP2 PUSH2 0x4144 JUMP JUMPDEST SWAP1 POP SWAP2 SWAP1 POP JUMP JUMPDEST PUSH1 0x0 PUSH1 0x40 DUP3 ADD SWAP1 POP PUSH2 0x419C PUSH1 0x0 DUP4 ADD DUP6 PUSH2 0x31BF JUMP JUMPDEST PUSH2 0x41A9 PUSH1 0x20 DUP4 ADD DUP5 PUSH2 0x31CE JUMP JUMPDEST SWAP4 SWAP3 POP POP POP JUMP JUMPDEST PUSH1 0x0 DUP2 MLOAD SWAP1 POP PUSH2 0x41BF DUP2 PUSH2 0x3611 JUMP JUMPDEST SWAP3 SWAP2 POP POP JUMP JUMPDEST PUSH1 0x0 PUSH1 0x20 DUP3 DUP5 SUB SLT ISZERO PUSH2 0x41DB JUMPI PUSH2 0x41DA PUSH2 0x2E4D JUMP JUMPDEST JUMPDEST PUSH1 0x0 PUSH2 0x41E9 DUP5 DUP3 DUP6 ADD PUSH2 0x41B0 JUMP JUMPDEST SWAP2 POP POP SWAP3 SWAP2 POP POP JUMP JUMPDEST PUSH32 0x5361666545524332303A204552433230206F7065726174696F6E20646964206E PUSH1 0x0 DUP3 ADD MSTORE PUSH32 0x6F74207375636365656400000000000000000000000000000000000000000000 PUSH1 0x20 DUP3 ADD MSTORE POP JUMP JUMPDEST PUSH1 0x0 PUSH2 0x424E PUSH1 0x2A DUP4 PUSH2 0x366A JUMP JUMPDEST SWAP2 POP PUSH2 0x4259 DUP3 PUSH2 0x41F2 JUMP JUMPDEST PUSH1 0x40 DUP3 ADD SWAP1 POP SWAP2 SWAP1 POP JUMP JUMPDEST PUSH1 0x0 PUSH1 0x20 DUP3 ADD SWAP1 POP DUP2 DUP2 SUB PUSH1 0x0 DUP4 ADD MSTORE PUSH2 0x427D DUP2 PUSH2 0x4241 JUMP JUMPDEST SWAP1 POP SWAP2 SWAP1 POP JUMP JUMPDEST PUSH32 0x416464726573733A20696E73756666696369656E742062616C616E636520666F PUSH1 0x0 DUP3 ADD MSTORE PUSH32 0x722063616C6C0000000000000000000000000000000000000000000000000000 PUSH1 0x20 DUP3 ADD MSTORE POP JUMP JUMPDEST PUSH1 0x0 PUSH2 0x42E0 PUSH1 0x26 DUP4 PUSH2 0x366A JUMP JUMPDEST SWAP2 POP PUSH2 0x42EB DUP3 PUSH2 0x4284 JUMP JUMPDEST PUSH1 0x40 DUP3 ADD SWAP1 POP SWAP2 SWAP1 POP JUMP JUMPDEST PUSH1 0x0 PUSH1 0x20 DUP3 ADD SWAP1 POP DUP2 DUP2 SUB PUSH1 0x0 DUP4 ADD MSTORE PUSH2 0x430F DUP2 PUSH2 0x42D3 JUMP JUMPDEST SWAP1 POP SWAP2 SWAP1 POP JUMP JUMPDEST PUSH1 0x0 DUP2 MLOAD SWAP1 POP SWAP2 SWAP1 POP JUMP JUMPDEST PUSH1 0x0 JUMPDEST DUP4 DUP2 LT ISZERO PUSH2 0x433F JUMPI DUP1 DUP3 ADD MLOAD DUP2 DUP5 ADD MSTORE PUSH1 0x20 DUP2 ADD SWAP1 POP PUSH2 0x4324 JUMP JUMPDEST PUSH1 0x0 DUP5 DUP5 ADD MSTORE POP POP POP POP JUMP JUMPDEST PUSH1 0x0 PUSH2 0x4356 DUP3 PUSH2 0x4316 JUMP JUMPDEST PUSH2 0x4360 DUP2 DUP6 PUSH2 0x40AF JUMP JUMPDEST SWAP4 POP PUSH2 0x4370 DUP2 DUP6 PUSH1 0x20 DUP7 ADD PUSH2 0x4321 JUMP JUMPDEST DUP1 DUP5 ADD SWAP2 POP POP SWAP3 SWAP2 POP POP JUMP JUMPDEST PUSH1 0x0 PUSH2 0x4388 DUP3 DUP5 PUSH2 0x434B JUMP JUMPDEST SWAP2 POP DUP2 SWAP1 POP SWAP3 SWAP2 POP POP JUMP JUMPDEST PUSH32 0x416464726573733A2063616C6C20746F206E6F6E2D636F6E7472616374000000 PUSH1 0x0 DUP3 ADD MSTORE POP JUMP JUMPDEST PUSH1 0x0 PUSH2 0x43C9 PUSH1 0x1D DUP4 PUSH2 0x366A JUMP JUMPDEST SWAP2 POP PUSH2 0x43D4 DUP3 PUSH2 0x4393 JUMP JUMPDEST PUSH1 0x20 DUP3 ADD SWAP1 POP SWAP2 SWAP1 POP JUMP JUMPDEST PUSH1 0x0 PUSH1 0x20 DUP3 ADD SWAP1 POP DUP2 DUP2 SUB PUSH1 0x0 DUP4 ADD MSTORE PUSH2 0x43F8 DUP2 PUSH2 0x43BC JUMP JUMPDEST SWAP1 POP SWAP2 SWAP1 POP JUMP JUMPDEST PUSH1 0x0 DUP2 MLOAD SWAP1 POP SWAP2 SWAP1 POP JUMP JUMPDEST PUSH1 0x0 PUSH2 0x4415 DUP3 PUSH2 0x43FF JUMP JUMPDEST PUSH2 0x441F DUP2 DUP6 PUSH2 0x366A JUMP JUMPDEST SWAP4 POP PUSH2 0x442F DUP2 DUP6 PUSH1 0x20 DUP7 ADD PUSH2 0x4321 JUMP JUMPDEST PUSH2 0x4438 DUP2 PUSH2 0x2E92 JUMP JUMPDEST DUP5 ADD SWAP2 POP POP SWAP3 SWAP2 POP POP JUMP JUMPDEST PUSH1 0x0 PUSH1 0x20 DUP3 ADD SWAP1 POP DUP2 DUP2 SUB PUSH1 0x0 DUP4 ADD MSTORE PUSH2 0x445D DUP2 DUP5 PUSH2 0x440A JUMP JUMPDEST SWAP1 POP SWAP3 SWAP2 POP POP JUMP INVALID LOG2 PUSH5 0x6970667358 0x22 SLT KECCAK256 LOG0 0xF9 0xDA 0xCD 0xBD NOT BYTE PUSH9 0x3FFA71CC8E7AFFD210 SWAP4 0x27 MSTORE SHL COINBASE INVALID PC MULMOD 0xBA PUSH4 0x4E913C99 DUP5 PUSH5 0x736F6C6343 STOP ADDMOD SGT STOP CALLER "
		},
		"gasEstimates": {
			"creation": {
				"codeDepositCost": "3512600",
				"executionCost": "3933",
				"totalCost": "3516533"
			},
			"external": {
				"audit(uint256)": "29184",
				"boxIds(uint256)": "infinite",
				"checkedBoxIds(uint256)": "infinite",
				"claimed(uint256)": "infinite",
				"claimedMysteryIncome(uint256)": "infinite",
				"currentBoxId()": "2518",
				"deposit(uint256,address[],uint256[])": "infinite",
				"fulfillRandomWords(uint256,uint256[])": "infinite",
				"getBoxDetail(uint256)": "infinite",
				"getMysteryAmount(bool)": "2835",
				"getRandomNumber()": "infinite",
				"mint(uint256)": "infinite",
				"publishMysteryBox(address,uint256,uint256,uint256[],address[],uint256[])": "infinite",
				"requestIds(uint256)": "infinite",
				"requestsMapping(uint256)": "infinite",
				"stopSaleMystery(uint256)": "infinite"
			},
			"internal": {
				"requestRandomWords(uint256)": "infinite"
			}
		},
		"methodIdentifiers": {
			"audit(uint256)": "b173e570",
			"boxIds(uint256)": "b4c33908",
			"checkedBoxIds(uint256)": "385b3aa5",
			"claimed(uint256)": "dbe7e3bd",
			"claimedMysteryIncome(uint256)": "90bb601c",
			"currentBoxId()": "cc22bf80",
			"deposit(uint256,address[],uint256[])": "0d7a41b7",
			"fulfillRandomWords(uint256,uint256[])": "38ba4614",
			"getBoxDetail(uint256)": "161344e6",
			"getMysteryAmount(bool)": "ff175d77",
			"getRandomNumber()": "dbdff2c1",
			"mint(uint256)": "a0712d68",
			"publishMysteryBox(address,uint256,uint256,uint256[],address[],uint256[])": "c3ac7daf",
			"requestIds(uint256)": "8796ba8c",
			"requestsMapping(uint256)": "e3fc5828",
			"stopSaleMystery(uint256)": "6d9a7938"
		}
	},
	"abi": [
		{
			"inputs": [
				{
					"internalType": "address",
					"name": "token",
					"type": "address"
				}
			],
			"name": "InsufficientTokenValue",
			"type": "error"
		},
		{
			"anonymous": false,
			"inputs": [
				{
					"indexed": false,
					"internalType": "address",
					"name": "sender",
					"type": "address"
				},
				{
					"indexed": false,
					"internalType": "uint256",
					"name": "time",
					"type": "uint256"
				},
				{
					"indexed": false,
					"internalType": "bytes32",
					"name": "a",
					"type": "bytes32"
				},
				{
					"indexed": false,
					"internalType": "bytes32",
					"name": "b",
					"type": "bytes32"
				},
				{
					"indexed": false,
					"internalType": "uint256",
					"name": "random",
					"type": "uint256"
				}
			],
			"name": "Log",
			"type": "event"
		},
		{
			"inputs": [
				{
					"internalType": "uint256",
					"name": "boxId",
					"type": "uint256"
				}
			],
			"name": "audit",
			"outputs": [],
			"stateMutability": "nonpayable",
			"type": "function"
		},
		{
			"inputs": [
				{
					"internalType": "uint256",
					"name": "",
					"type": "uint256"
				}
			],
			"name": "boxIds",
			"outputs": [
				{
					"internalType": "uint256",
					"name": "",
					"type": "uint256"
				}
			],
			"stateMutability": "view",
			"type": "function"
		},
		{
			"inputs": [
				{
					"internalType": "uint256",
					"name": "",
					"type": "uint256"
				}
			],
			"name": "checkedBoxIds",
			"outputs": [
				{
					"internalType": "uint256",
					"name": "",
					"type": "uint256"
				}
			],
			"stateMutability": "view",
			"type": "function"
		},
		{
			"inputs": [
				{
					"internalType": "uint256",
					"name": "requestId",
					"type": "uint256"
				}
			],
			"name": "claimed",
			"outputs": [],
			"stateMutability": "nonpayable",
			"type": "function"
		},
		{
			"inputs": [
				{
					"internalType": "uint256",
					"name": "boxId",
					"type": "uint256"
				}
			],
			"name": "claimedMysteryIncome",
			"outputs": [],
			"stateMutability": "nonpayable",
			"type": "function"
		},
		{
			"inputs": [],
			"name": "currentBoxId",
			"outputs": [
				{
					"internalType": "uint256",
					"name": "",
					"type": "uint256"
				}
			],
			"stateMutability": "view",
			"type": "function"
		},
		{
			"inputs": [
				{
					"internalType": "uint256",
					"name": "boxId",
					"type": "uint256"
				},
				{
					"internalType": "address[]",
					"name": "_tokenArray",
					"type": "address[]"
				},
				{
					"internalType": "uint256[]",
					"name": "_amountArray",
					"type": "uint256[]"
				}
			],
			"name": "deposit",
			"outputs": [],
			"stateMutability": "payable",
			"type": "function"
		},
		{
			"inputs": [
				{
					"internalType": "uint256",
					"name": "_requestId",
					"type": "uint256"
				},
				{
					"internalType": "uint256[]",
					"name": "_randomWords",
					"type": "uint256[]"
				}
			],
			"name": "fulfillRandomWords",
			"outputs": [],
			"stateMutability": "nonpayable",
			"type": "function"
		},
		{
			"inputs": [
				{
					"internalType": "uint256",
					"name": "boxId",
					"type": "uint256"
				}
			],
			"name": "getBoxDetail",
			"outputs": [
				{
					"internalType": "address",
					"name": "coin",
					"type": "address"
				},
				{
					"internalType": "uint256",
					"name": "price",
					"type": "uint256"
				},
				{
					"internalType": "uint256",
					"name": "totalSupply",
					"type": "uint256"
				},
				{
					"internalType": "uint256",
					"name": "stocks",
					"type": "uint256"
				},
				{
					"internalType": "bool",
					"name": "checked",
					"type": "bool"
				},
				{
					"internalType": "uint256[]",
					"name": "probabilityArray",
					"type": "uint256[]"
				},
				{
					"internalType": "uint256[]",
					"name": "rangeArray",
					"type": "uint256[]"
				},
				{
					"internalType": "address[]",
					"name": "tokenArray",
					"type": "address[]"
				},
				{
					"internalType": "uint256[]",
					"name": "rewardAmountArray",
					"type": "uint256[]"
				}
			],
			"stateMutability": "view",
			"type": "function"
		},
		{
			"inputs": [
				{
					"internalType": "bool",
					"name": "checked",
					"type": "bool"
				}
			],
			"name": "getMysteryAmount",
			"outputs": [
				{
					"internalType": "uint256",
					"name": "amount",
					"type": "uint256"
				}
			],
			"stateMutability": "view",
			"type": "function"
		},
		{
			"inputs": [],
			"name": "getRandomNumber",
			"outputs": [
				{
					"internalType": "uint256",
					"name": "random",
					"type": "uint256"
				}
			],
			"stateMutability": "nonpayable",
			"type": "function"
		},
		{
			"inputs": [
				{
					"internalType": "uint256",
					"name": "boxId",
					"type": "uint256"
				}
			],
			"name": "mint",
			"outputs": [],
			"stateMutability": "payable",
			"type": "function"
		},
		{
			"inputs": [
				{
					"internalType": "address",
					"name": "coin",
					"type": "address"
				},
				{
					"internalType": "uint256",
					"name": "price",
					"type": "uint256"
				},
				{
					"internalType": "uint256",
					"name": "totalSupply",
					"type": "uint256"
				},
				{
					"internalType": "uint256[]",
					"name": "probabilityArray",
					"type": "uint256[]"
				},
				{
					"internalType": "address[]",
					"name": "tokenArray",
					"type": "address[]"
				},
				{
					"internalType": "uint256[]",
					"name": "rewardAmountArray",
					"type": "uint256[]"
				}
			],
			"name": "publishMysteryBox",
			"outputs": [],
			"stateMutability": "payable",
			"type": "function"
		},
		{
			"inputs": [
				{
					"internalType": "uint256",
					"name": "",
					"type": "uint256"
				}
			],
			"name": "requestIds",
			"outputs": [
				{
					"internalType": "uint256",
					"name": "",
					"type": "uint256"
				}
			],
			"stateMutability": "view",
			"type": "function"
		},
		{
			"inputs": [
				{
					"internalType": "uint256",
					"name": "",
					"type": "uint256"
				}
			],
			"name": "requestsMapping",
			"outputs": [
				{
					"internalType": "address",
					"name": "sender",
					"type": "address"
				},
				{
					"internalType": "uint256",
					"name": "boxId",
					"type": "uint256"
				},
				{
					"internalType": "uint256",
					"name": "randomWord",
					"type": "uint256"
				},
				{
					"internalType": "uint256",
					"name": "randomNumber",
					"type": "uint256"
				},
				{
					"internalType": "uint256",
					"name": "timestamp",
					"type": "uint256"
				},
				{
					"internalType": "address",
					"name": "rewardToken",
					"type": "address"
				},
				{
					"internalType": "uint256",
					"name": "rewardAmount",
					"type": "uint256"
				},
				{
					"internalType": "bool",
					"name": "fulfilled",
					"type": "bool"
				},
				{
					"internalType": "bool",
					"name": "exists",
					"type": "bool"
				},
				{
					"internalType": "bool",
					"name": "claimed",
					"type": "bool"
				}
			],
			"stateMutability": "view",
			"type": "function"
		},
		{
			"inputs": [
				{
					"internalType": "uint256",
					"name": "boxId",
					"type": "uint256"
				}
			],
			"name": "stopSaleMystery",
			"outputs": [],
			"stateMutability": "nonpayable",
			"type": "function"
		}
	]
}